{
	"strategy.sol": {
		"StETHStrategy": {
			"abi": [
				{
					"inputs": [
						{
							"internalType": "address",
							"name": "_stETH",
							"type": "address"
						},
						{
							"internalType": "address",
							"name": "_vault",
							"type": "address"
						},
						{
							"internalType": "address",
							"name": "_farmingPool",
							"type": "address"
						}
					],
					"stateMutability": "nonpayable",
					"type": "constructor"
				},
				{
					"inputs": [],
					"name": "claimRewards",
					"outputs": [],
					"stateMutability": "nonpayable",
					"type": "function"
				},
				{
					"inputs": [
						{
							"internalType": "uint256",
							"name": "_amount",
							"type": "uint256"
						}
					],
					"name": "deposit",
					"outputs": [],
					"stateMutability": "nonpayable",
					"type": "function"
				},
				{
					"inputs": [],
					"name": "farmingPool",
					"outputs": [
						{
							"internalType": "address",
							"name": "",
							"type": "address"
						}
					],
					"stateMutability": "view",
					"type": "function"
				},
				{
					"inputs": [],
					"name": "stETH",
					"outputs": [
						{
							"internalType": "contract IERC20",
							"name": "",
							"type": "address"
						}
					],
					"stateMutability": "view",
					"type": "function"
				},
				{
					"inputs": [],
					"name": "vault",
					"outputs": [
						{
							"internalType": "address",
							"name": "",
							"type": "address"
						}
					],
					"stateMutability": "view",
					"type": "function"
				},
				{
					"stateMutability": "payable",
					"type": "receive"
				}
			],
			"devdoc": {
				"kind": "dev",
				"methods": {},
				"version": 1
			},
			"evm": {
				"assembly": "    /* \"strategy.sol\":121:1203  contract StETHStrategy {... */\n  mstore(0x40, 0x80)\n    /* \"strategy.sol\":274:443  constructor(address _stETH, address _vault, address _farmingPool) {... */\n  callvalue\n  dup1\n  iszero\n  tag_1\n  jumpi\n  0x00\n  dup1\n  revert\ntag_1:\n  pop\n  mload(0x40)\n  sub(codesize, bytecodeSize)\n  dup1\n  bytecodeSize\n  dup4\n  codecopy\n  dup2\n  add\n  0x40\n  dup2\n  swap1\n  mstore\n  tag_2\n  swap2\n  tag_3\n  jump\t// in\ntag_2:\n    /* \"strategy.sol\":351:356  stETH */\n  0x00\n    /* \"strategy.sol\":351:373  stETH = IERC20(_stETH) */\n  dup1\n  sload\n  sub(shl(0xa0, 0x01), 0x01)\n  swap5\n  dup6\n  and\n  not(sub(shl(0xa0, 0x01), 0x01))\n  swap2\n  dup3\n  and\n  or\n  swap1\n  swap2\n  sstore\n  0x01\n    /* \"strategy.sol\":384:398  vault = _vault */\n  dup1\n  sload\n  swap4\n  dup6\n  and\n  swap4\n  dup3\n  and\n  swap4\n  swap1\n  swap4\n  or\n  swap1\n  swap3\n  sstore\n    /* \"strategy.sol\":409:420  farmingPool */\n  0x02\n    /* \"strategy.sol\":409:435  farmingPool = _farmingPool */\n  dup1\n  sload\n  swap2\n  swap1\n  swap4\n  and\n  swap2\n  and\n  or\n  swap1\n  sstore\n    /* \"strategy.sol\":121:1203  contract StETHStrategy {... */\n  jump(tag_8)\n    /* \"#utility.yul\":14:191   */\ntag_7:\n    /* \"#utility.yul\":93:106   */\n  dup1\n  mload\n  sub(shl(0xa0, 0x01), 0x01)\n    /* \"#utility.yul\":135:166   */\n  dup2\n  and\n    /* \"#utility.yul\":125:167   */\n  dup2\n  eq\n    /* \"#utility.yul\":115:185   */\n  tag_10\n  jumpi\n    /* \"#utility.yul\":181:182   */\n  0x00\n    /* \"#utility.yul\":178:179   */\n  dup1\n    /* \"#utility.yul\":171:183   */\n  revert\n    /* \"#utility.yul\":115:185   */\ntag_10:\n    /* \"#utility.yul\":14:191   */\n  swap2\n  swap1\n  pop\n  jump\t// out\n    /* \"#utility.yul\":196:574   */\ntag_3:\n    /* \"#utility.yul\":284:290   */\n  0x00\n    /* \"#utility.yul\":292:298   */\n  dup1\n    /* \"#utility.yul\":300:306   */\n  0x00\n    /* \"#utility.yul\":353:355   */\n  0x60\n    /* \"#utility.yul\":341:350   */\n  dup5\n    /* \"#utility.yul\":332:339   */\n  dup7\n    /* \"#utility.yul\":328:351   */\n  sub\n    /* \"#utility.yul\":324:356   */\n  slt\n    /* \"#utility.yul\":321:373   */\n  iszero\n  tag_12\n  jumpi\n    /* \"#utility.yul\":369:370   */\n  0x00\n    /* \"#utility.yul\":366:367   */\n  dup1\n    /* \"#utility.yul\":359:371   */\n  revert\n    /* \"#utility.yul\":321:373   */\ntag_12:\n    /* \"#utility.yul\":392:432   */\n  tag_13\n    /* \"#utility.yul\":422:431   */\n  dup5\n    /* \"#utility.yul\":392:432   */\n  tag_7\n  jump\t// in\ntag_13:\n    /* \"#utility.yul\":382:432   */\n  swap3\n  pop\n    /* \"#utility.yul\":451:500   */\n  tag_14\n    /* \"#utility.yul\":496:498   */\n  0x20\n    /* \"#utility.yul\":485:494   */\n  dup6\n    /* \"#utility.yul\":481:499   */\n  add\n    /* \"#utility.yul\":451:500   */\n  tag_7\n  jump\t// in\ntag_14:\n    /* \"#utility.yul\":441:500   */\n  swap2\n  pop\n    /* \"#utility.yul\":519:568   */\n  tag_15\n    /* \"#utility.yul\":564:566   */\n  0x40\n    /* \"#utility.yul\":553:562   */\n  dup6\n    /* \"#utility.yul\":549:567   */\n  add\n    /* \"#utility.yul\":519:568   */\n  tag_7\n  jump\t// in\ntag_15:\n    /* \"#utility.yul\":509:568   */\n  swap1\n  pop\n    /* \"#utility.yul\":196:574   */\n  swap3\n  pop\n  swap3\n  pop\n  swap3\n  jump\t// out\ntag_8:\n    /* \"strategy.sol\":121:1203  contract StETHStrategy {... */\n  dataSize(sub_0)\n  dup1\n  dataOffset(sub_0)\n  0x00\n  codecopy\n  0x00\n  return\nstop\n\nsub_0: assembly {\n        /* \"strategy.sol\":121:1203  contract StETHStrategy {... */\n      mstore(0x40, 0x80)\n      jumpi(tag_1, lt(calldatasize, 0x04))\n      shr(0xe0, calldataload(0x00))\n      dup1\n      0x372500ab\n      eq\n      tag_3\n      jumpi\n      dup1\n      0xb6b55f25\n      eq\n      tag_4\n      jumpi\n      dup1\n      0xc1fe3e48\n      eq\n      tag_5\n      jumpi\n      dup1\n      0xd75aca19\n      eq\n      tag_6\n      jumpi\n      dup1\n      0xfbfa77cf\n      eq\n      tag_7\n      jumpi\n      0x00\n      dup1\n      revert\n    tag_1:\n      jumpi(tag_2, calldatasize)\n      stop\n    tag_2:\n      0x00\n      dup1\n      revert\n        /* \"strategy.sol\":753:1163  function claimRewards() external {... */\n    tag_3:\n      callvalue\n      dup1\n      iszero\n      tag_10\n      jumpi\n      0x00\n      dup1\n      revert\n    tag_10:\n      pop\n      tag_11\n      tag_12\n      jump\t// in\n    tag_11:\n      stop\n        /* \"strategy.sol\":497:703  function deposit(uint256 _amount) external {... */\n    tag_4:\n      callvalue\n      dup1\n      iszero\n      tag_13\n      jumpi\n      0x00\n      dup1\n      revert\n    tag_13:\n      pop\n      tag_11\n      tag_15\n      calldatasize\n      0x04\n      tag_16\n      jump\t// in\n    tag_15:\n      tag_17\n      jump\t// in\n        /* \"strategy.sol\":151:170  IERC20 public stETH */\n    tag_5:\n      callvalue\n      dup1\n      iszero\n      tag_18\n      jumpi\n      0x00\n      dup1\n      revert\n    tag_18:\n      pop\n      sload(0x00)\n      tag_19\n      swap1\n      sub(shl(0xa0, 0x01), 0x01)\n      and\n      dup2\n      jump\n    tag_19:\n      mload(0x40)\n      sub(shl(0xa0, 0x01), 0x01)\n        /* \"#utility.yul\":376:408   */\n      swap1\n      swap2\n      and\n        /* \"#utility.yul\":358:409   */\n      dup2\n      mstore\n        /* \"#utility.yul\":346:348   */\n      0x20\n        /* \"#utility.yul\":331:349   */\n      add\n        /* \"strategy.sol\":151:170  IERC20 public stETH */\n      mload(0x40)\n      dup1\n      swap2\n      sub\n      swap1\n      return\n        /* \"strategy.sol\":204:230  address public farmingPool */\n    tag_6:\n      callvalue\n      dup1\n      iszero\n      tag_23\n      jumpi\n      0x00\n      dup1\n      revert\n    tag_23:\n      pop\n      sload(0x02)\n      tag_19\n      swap1\n      sub(shl(0xa0, 0x01), 0x01)\n      and\n      dup2\n      jump\n        /* \"strategy.sol\":177:197  address public vault */\n    tag_7:\n      callvalue\n      dup1\n      iszero\n      tag_28\n      jumpi\n      0x00\n      dup1\n      revert\n    tag_28:\n      pop\n      sload(0x01)\n      tag_19\n      swap1\n      sub(shl(0xa0, 0x01), 0x01)\n      and\n      dup2\n      jump\n        /* \"strategy.sol\":753:1163  function claimRewards() external {... */\n    tag_12:\n        /* \"strategy.sol\":881:892  farmingPool */\n      sload(0x02)\n        /* \"strategy.sol\":898:944  abi.encodeWithSignature(\"distributeRewards()\") */\n      0x40\n      dup1\n      mload\n      0x04\n      dup2\n      mstore\n      0x24\n      dup2\n      add\n      dup3\n      mstore\n      0x20\n      dup2\n      add\n      dup1\n      mload\n      sub(shl(0xe0, 0x01), 0x01)\n      and\n      shl(0xe4, 0x06f4a2cd)\n      or\n      swap1\n      mstore\n        /* \"strategy.sol\":881:945  farmingPool.call(abi.encodeWithSignature(\"distributeRewards()\")) */\n      swap1\n      mload\n        /* \"strategy.sol\":863:875  bool success */\n      0x00\n      swap3\n      sub(shl(0xa0, 0x01), 0x01)\n        /* \"strategy.sol\":881:892  farmingPool */\n      and\n      swap2\n        /* \"strategy.sol\":881:945  farmingPool.call(abi.encodeWithSignature(\"distributeRewards()\")) */\n      tag_33\n      swap2\n      tag_34\n      jump\t// in\n    tag_33:\n      0x00\n      mload(0x40)\n      dup1\n      dup4\n      sub\n      dup2\n      0x00\n      dup7\n      gas\n      call\n      swap2\n      pop\n      pop\n      returndatasize\n      dup1\n      0x00\n      dup2\n      eq\n      tag_37\n      jumpi\n      mload(0x40)\n      swap2\n      pop\n      and(add(returndatasize, 0x3f), not(0x1f))\n      dup3\n      add\n      0x40\n      mstore\n      returndatasize\n      dup3\n      mstore\n      returndatasize\n      0x00\n      0x20\n      dup5\n      add\n      returndatacopy\n      jump(tag_36)\n    tag_37:\n      0x60\n      swap2\n      pop\n    tag_36:\n      pop\n        /* \"strategy.sol\":862:945  (bool success, ) = farmingPool.call(abi.encodeWithSignature(\"distributeRewards()\")) */\n      pop\n      swap1\n      pop\n        /* \"strategy.sol\":964:971  success */\n      dup1\n        /* \"strategy.sol\":956:988  require(success, \"Claim failed\") */\n      tag_38\n      jumpi\n      mload(0x40)\n      shl(0xe5, 0x461bcd)\n      dup2\n      mstore\n        /* \"#utility.yul\":1136:1138   */\n      0x20\n        /* \"strategy.sol\":956:988  require(success, \"Claim failed\") */\n      0x04\n      dup3\n      add\n        /* \"#utility.yul\":1118:1139   */\n      mstore\n        /* \"#utility.yul\":1175:1177   */\n      0x0c\n        /* \"#utility.yul\":1155:1173   */\n      0x24\n      dup3\n      add\n        /* \"#utility.yul\":1148:1178   */\n      mstore\n      shl(0xa2, 0x10db185a5b4819985a5b1959)\n        /* \"#utility.yul\":1194:1212   */\n      0x44\n      dup3\n      add\n        /* \"#utility.yul\":1187:1229   */\n      mstore\n        /* \"#utility.yul\":1246:1264   */\n      0x64\n      add\n        /* \"strategy.sol\":956:988  require(success, \"Claim failed\") */\n    tag_39:\n      mload(0x40)\n      dup1\n      swap2\n      sub\n      swap1\n      revert\n    tag_38:\n        /* \"strategy.sol\":1018:1039  address(this).balance */\n      selfbalance\n        /* \"strategy.sol\":1054:1064  earned > 0 */\n      dup1\n      iszero\n        /* \"strategy.sol\":1050:1156  if (earned > 0) {... */\n      tag_41\n      jumpi\n        /* \"strategy.sol\":1089:1094  vault */\n      sload(0x01)\n        /* \"strategy.sol\":1081:1112  payable(vault).transfer(earned) */\n      mload(0x40)\n      sub(shl(0xa0, 0x01), 0x01)\n        /* \"strategy.sol\":1089:1094  vault */\n      swap1\n      swap2\n      and\n      swap1\n        /* \"strategy.sol\":1081:1112  payable(vault).transfer(earned) */\n      dup3\n      iszero\n      0x08fc\n      mul\n      swap1\n        /* \"strategy.sol\":1105:1111  earned */\n      dup4\n      swap1\n        /* \"strategy.sol\":1089:1094  vault */\n      0x00\n        /* \"strategy.sol\":1081:1112  payable(vault).transfer(earned) */\n      dup2\n        /* \"strategy.sol\":1089:1094  vault */\n      dup2\n        /* \"strategy.sol\":1081:1112  payable(vault).transfer(earned) */\n      dup2\n        /* \"strategy.sol\":1105:1111  earned */\n      dup6\n        /* \"strategy.sol\":1089:1094  vault */\n      dup9\n        /* \"strategy.sol\":1081:1112  payable(vault).transfer(earned) */\n      dup9\n      call\n      swap4\n      pop\n      pop\n      pop\n      pop\n      iszero\n      dup1\n      iszero\n      tag_43\n      jumpi\n      returndatasize\n      0x00\n      dup1\n      returndatacopy\n      revert(0x00, returndatasize)\n    tag_43:\n      pop\n        /* \"strategy.sol\":1050:1156  if (earned > 0) {... */\n    tag_41:\n        /* \"strategy.sol\":786:1163  {... */\n      pop\n      pop\n        /* \"strategy.sol\":753:1163  function claimRewards() external {... */\n      jump\t// out\n        /* \"strategy.sol\":497:703  function deposit(uint256 _amount) external {... */\n    tag_17:\n        /* \"strategy.sol\":573:578  vault */\n      and(sub(shl(0xa0, 0x01), 0x01), sload(0x01))\n        /* \"strategy.sol\":559:569  msg.sender */\n      caller\n        /* \"strategy.sol\":559:578  msg.sender == vault */\n      eq\n        /* \"strategy.sol\":551:593  require(msg.sender == vault, \"Only vault\") */\n      tag_45\n      jumpi\n      mload(0x40)\n      shl(0xe5, 0x461bcd)\n      dup2\n      mstore\n        /* \"#utility.yul\":1477:1479   */\n      0x20\n        /* \"strategy.sol\":551:593  require(msg.sender == vault, \"Only vault\") */\n      0x04\n      dup3\n      add\n        /* \"#utility.yul\":1459:1480   */\n      mstore\n        /* \"#utility.yul\":1516:1518   */\n      0x0a\n        /* \"#utility.yul\":1496:1514   */\n      0x24\n      dup3\n      add\n        /* \"#utility.yul\":1489:1519   */\n      mstore\n      shl(0xb2, 0x13db9b1e481d985d5b1d)\n        /* \"#utility.yul\":1535:1553   */\n      0x44\n      dup3\n      add\n        /* \"#utility.yul\":1528:1568   */\n      mstore\n        /* \"#utility.yul\":1585:1603   */\n      0x64\n      add\n        /* \"strategy.sol\":551:593  require(msg.sender == vault, \"Only vault\") */\n      tag_39\n        /* \"#utility.yul\":1275:1609   */\n      jump\n        /* \"strategy.sol\":551:593  require(msg.sender == vault, \"Only vault\") */\n    tag_45:\n        /* \"strategy.sol\":622:623  0 */\n      0x00\n        /* \"strategy.sol\":612:619  _amount */\n      dup2\n        /* \"strategy.sol\":612:623  _amount > 0 */\n      gt\n        /* \"strategy.sol\":604:646  require(_amount > 0, \"Must deposit stETH\") */\n      tag_48\n      jumpi\n      mload(0x40)\n      shl(0xe5, 0x461bcd)\n      dup2\n      mstore\n        /* \"#utility.yul\":1816:1818   */\n      0x20\n        /* \"strategy.sol\":604:646  require(_amount > 0, \"Must deposit stETH\") */\n      0x04\n      dup3\n      add\n        /* \"#utility.yul\":1798:1819   */\n      mstore\n        /* \"#utility.yul\":1855:1857   */\n      0x12\n        /* \"#utility.yul\":1835:1853   */\n      0x24\n      dup3\n      add\n        /* \"#utility.yul\":1828:1858   */\n      mstore\n      shl(0x73, 0x09aeae6e840c8cae0dee6d2e840e6e88aa89)\n        /* \"#utility.yul\":1874:1892   */\n      0x44\n      dup3\n      add\n        /* \"#utility.yul\":1867:1915   */\n      mstore\n        /* \"#utility.yul\":1932:1950   */\n      0x64\n      add\n        /* \"strategy.sol\":604:646  require(_amount > 0, \"Must deposit stETH\") */\n      tag_39\n        /* \"#utility.yul\":1614:1956   */\n      jump\n        /* \"strategy.sol\":604:646  require(_amount > 0, \"Must deposit stETH\") */\n    tag_48:\n        /* \"strategy.sol\":659:664  stETH */\n      sload(0x00)\n        /* \"strategy.sol\":674:685  farmingPool */\n      sload(0x02)\n        /* \"strategy.sol\":659:695  stETH.transfer(farmingPool, _amount) */\n      mload(0x40)\n      shl(0xe0, 0xa9059cbb)\n      dup2\n      mstore\n      sub(shl(0xa0, 0x01), 0x01)\n        /* \"strategy.sol\":674:685  farmingPool */\n      swap2\n      dup3\n      and\n        /* \"strategy.sol\":659:695  stETH.transfer(farmingPool, _amount) */\n      0x04\n      dup3\n      add\n        /* \"#utility.yul\":2135:2186   */\n      mstore\n        /* \"#utility.yul\":2202:2220   */\n      0x24\n      dup2\n      add\n        /* \"#utility.yul\":2195:2229   */\n      dup5\n      swap1\n      mstore\n        /* \"strategy.sol\":659:664  stETH */\n      swap2\n      and\n      swap1\n        /* \"strategy.sol\":659:673  stETH.transfer */\n      0xa9059cbb\n      swap1\n        /* \"#utility.yul\":2108:2126   */\n      0x44\n      add\n        /* \"strategy.sol\":659:695  stETH.transfer(farmingPool, _amount) */\n      0x20\n      mload(0x40)\n      dup1\n      dup4\n      sub\n      dup2\n      0x00\n      dup8\n      gas\n      call\n      iszero\n      dup1\n      iszero\n      tag_54\n      jumpi\n      returndatasize\n      0x00\n      dup1\n      returndatacopy\n      revert(0x00, returndatasize)\n    tag_54:\n      pop\n      pop\n      pop\n      pop\n      mload(0x40)\n      returndatasize\n      not(0x1f)\n      0x1f\n      dup3\n      add\n      and\n      dup3\n      add\n      dup1\n      0x40\n      mstore\n      pop\n      dup2\n      add\n      swap1\n      tag_41\n      swap2\n      swap1\n      tag_56\n      jump\t// in\n        /* \"#utility.yul\":14:194   */\n    tag_16:\n        /* \"#utility.yul\":73:79   */\n      0x00\n        /* \"#utility.yul\":126:128   */\n      0x20\n        /* \"#utility.yul\":114:123   */\n      dup3\n        /* \"#utility.yul\":105:112   */\n      dup5\n        /* \"#utility.yul\":101:124   */\n      sub\n        /* \"#utility.yul\":97:129   */\n      slt\n        /* \"#utility.yul\":94:146   */\n      iszero\n      tag_59\n      jumpi\n        /* \"#utility.yul\":142:143   */\n      0x00\n        /* \"#utility.yul\":139:140   */\n      dup1\n        /* \"#utility.yul\":132:144   */\n      revert\n        /* \"#utility.yul\":94:146   */\n    tag_59:\n      pop\n        /* \"#utility.yul\":165:188   */\n      calldataload\n      swap2\n        /* \"#utility.yul\":14:194   */\n      swap1\n      pop\n      jump\t// out\n        /* \"#utility.yul\":628:929   */\n    tag_34:\n        /* \"#utility.yul\":757:760   */\n      0x00\n        /* \"#utility.yul\":795:801   */\n      dup3\n        /* \"#utility.yul\":789:802   */\n      mload\n        /* \"#utility.yul\":841:847   */\n      dup1\n        /* \"#utility.yul\":834:838   */\n      0x20\n        /* \"#utility.yul\":826:832   */\n      dup6\n        /* \"#utility.yul\":822:839   */\n      add\n        /* \"#utility.yul\":817:820   */\n      dup5\n        /* \"#utility.yul\":811:848   */\n      mcopy\n        /* \"#utility.yul\":903:904   */\n      0x00\n        /* \"#utility.yul\":867:883   */\n      swap3\n      add\n        /* \"#utility.yul\":892:905   */\n      swap2\n      dup3\n      mstore\n      pop\n        /* \"#utility.yul\":867:883   */\n      swap2\n        /* \"#utility.yul\":628:929   */\n      swap1\n      pop\n      jump\t// out\n        /* \"#utility.yul\":2240:2517   */\n    tag_56:\n        /* \"#utility.yul\":2307:2313   */\n      0x00\n        /* \"#utility.yul\":2360:2362   */\n      0x20\n        /* \"#utility.yul\":2348:2357   */\n      dup3\n        /* \"#utility.yul\":2339:2346   */\n      dup5\n        /* \"#utility.yul\":2335:2358   */\n      sub\n        /* \"#utility.yul\":2331:2363   */\n      slt\n        /* \"#utility.yul\":2328:2380   */\n      iszero\n      tag_68\n      jumpi\n        /* \"#utility.yul\":2376:2377   */\n      0x00\n        /* \"#utility.yul\":2373:2374   */\n      dup1\n        /* \"#utility.yul\":2366:2378   */\n      revert\n        /* \"#utility.yul\":2328:2380   */\n    tag_68:\n        /* \"#utility.yul\":2408:2417   */\n      dup2\n        /* \"#utility.yul\":2402:2418   */\n      mload\n        /* \"#utility.yul\":2461:2466   */\n      dup1\n        /* \"#utility.yul\":2454:2467   */\n      iszero\n        /* \"#utility.yul\":2447:2468   */\n      iszero\n        /* \"#utility.yul\":2440:2445   */\n      dup2\n        /* \"#utility.yul\":2437:2469   */\n      eq\n        /* \"#utility.yul\":2427:2487   */\n      tag_69\n      jumpi\n        /* \"#utility.yul\":2483:2484   */\n      0x00\n        /* \"#utility.yul\":2480:2481   */\n      dup1\n        /* \"#utility.yul\":2473:2485   */\n      revert\n        /* \"#utility.yul\":2427:2487   */\n    tag_69:\n        /* \"#utility.yul\":2506:2511   */\n      swap4\n        /* \"#utility.yul\":2240:2517   */\n      swap3\n      pop\n      pop\n      pop\n      jump\t// out\n\n    auxdata: 0xa2646970667358221220617295d0ac71607b489879a2cc603ce90b8440e12d4eae191c41979fe879d7ed64736f6c634300081a0033\n}\n",
				"bytecode": {
					"linkReferences": {},
					"object": "6080604052348015600e575f80fd5b50604051610461380380610461833981016040819052602b916085565b5f80546001600160a01b039485166001600160a01b03199182161790915560018054938516938216939093179092556002805491909316911617905560be565b80516001600160a01b03811681146080575f80fd5b919050565b5f805f606084860312156096575f80fd5b609d84606b565b925060a960208501606b565b915060b560408501606b565b90509250925092565b610396806100cb5f395ff3fe60806040526004361061004c575f3560e01c8063372500ab14610057578063b6b55f251461006d578063c1fe3e481461008c578063d75aca19146100c6578063fbfa77cf146100e5575f80fd5b3661005357005b5f80fd5b348015610062575f80fd5b5061006b610104565b005b348015610078575f80fd5b5061006b61008736600461030d565b61020d565b348015610097575f80fd5b505f546100aa906001600160a01b031681565b6040516001600160a01b03909116815260200160405180910390f35b3480156100d1575f80fd5b506002546100aa906001600160a01b031681565b3480156100f0575f80fd5b506001546100aa906001600160a01b031681565b60025460408051600481526024810182526020810180516001600160e01b03166306f4a2cd60e41b17905290515f926001600160a01b03169161014691610324565b5f604051808303815f865af19150503d805f811461017f576040519150601f19603f3d011682016040523d82523d5f602084013e610184565b606091505b50509050806101c95760405162461bcd60e51b815260206004820152600c60248201526b10db185a5b4819985a5b195960a21b60448201526064015b60405180910390fd5b478015610209576001546040516001600160a01b039091169082156108fc029083905f818181858888f19350505050158015610207573d5f803e3d5ffd5b505b5050565b6001546001600160a01b031633146102545760405162461bcd60e51b815260206004820152600a60248201526913db9b1e481d985d5b1d60b21b60448201526064016101c0565b5f81116102985760405162461bcd60e51b815260206004820152601260248201527109aeae6e840c8cae0dee6d2e840e6e88aa8960731b60448201526064016101c0565b5f5460025460405163a9059cbb60e01b81526001600160a01b0391821660048201526024810184905291169063a9059cbb906044016020604051808303815f875af11580156102e9573d5f803e3d5ffd5b505050506040513d601f19601f82011682018060405250810190610209919061033a565b5f6020828403121561031d575f80fd5b5035919050565b5f82518060208501845e5f920191825250919050565b5f6020828403121561034a575f80fd5b81518015158114610359575f80fd5b939250505056fea2646970667358221220617295d0ac71607b489879a2cc603ce90b8440e12d4eae191c41979fe879d7ed64736f6c634300081a0033",
					"opcodes": "PUSH1 0x80 PUSH1 0x40 MSTORE CALLVALUE DUP1 ISZERO PUSH1 0xE JUMPI PUSH0 DUP1 REVERT JUMPDEST POP PUSH1 0x40 MLOAD PUSH2 0x461 CODESIZE SUB DUP1 PUSH2 0x461 DUP4 CODECOPY DUP2 ADD PUSH1 0x40 DUP2 SWAP1 MSTORE PUSH1 0x2B SWAP2 PUSH1 0x85 JUMP JUMPDEST PUSH0 DUP1 SLOAD PUSH1 0x1 PUSH1 0x1 PUSH1 0xA0 SHL SUB SWAP5 DUP6 AND PUSH1 0x1 PUSH1 0x1 PUSH1 0xA0 SHL SUB NOT SWAP2 DUP3 AND OR SWAP1 SWAP2 SSTORE PUSH1 0x1 DUP1 SLOAD SWAP4 DUP6 AND SWAP4 DUP3 AND SWAP4 SWAP1 SWAP4 OR SWAP1 SWAP3 SSTORE PUSH1 0x2 DUP1 SLOAD SWAP2 SWAP1 SWAP4 AND SWAP2 AND OR SWAP1 SSTORE PUSH1 0xBE JUMP JUMPDEST DUP1 MLOAD PUSH1 0x1 PUSH1 0x1 PUSH1 0xA0 SHL SUB DUP2 AND DUP2 EQ PUSH1 0x80 JUMPI PUSH0 DUP1 REVERT JUMPDEST SWAP2 SWAP1 POP JUMP JUMPDEST PUSH0 DUP1 PUSH0 PUSH1 0x60 DUP5 DUP7 SUB SLT ISZERO PUSH1 0x96 JUMPI PUSH0 DUP1 REVERT JUMPDEST PUSH1 0x9D DUP5 PUSH1 0x6B JUMP JUMPDEST SWAP3 POP PUSH1 0xA9 PUSH1 0x20 DUP6 ADD PUSH1 0x6B JUMP JUMPDEST SWAP2 POP PUSH1 0xB5 PUSH1 0x40 DUP6 ADD PUSH1 0x6B JUMP JUMPDEST SWAP1 POP SWAP3 POP SWAP3 POP SWAP3 JUMP JUMPDEST PUSH2 0x396 DUP1 PUSH2 0xCB PUSH0 CODECOPY PUSH0 RETURN INVALID PUSH1 0x80 PUSH1 0x40 MSTORE PUSH1 0x4 CALLDATASIZE LT PUSH2 0x4C JUMPI PUSH0 CALLDATALOAD PUSH1 0xE0 SHR DUP1 PUSH4 0x372500AB EQ PUSH2 0x57 JUMPI DUP1 PUSH4 0xB6B55F25 EQ PUSH2 0x6D JUMPI DUP1 PUSH4 0xC1FE3E48 EQ PUSH2 0x8C JUMPI DUP1 PUSH4 0xD75ACA19 EQ PUSH2 0xC6 JUMPI DUP1 PUSH4 0xFBFA77CF EQ PUSH2 0xE5 JUMPI PUSH0 DUP1 REVERT JUMPDEST CALLDATASIZE PUSH2 0x53 JUMPI STOP JUMPDEST PUSH0 DUP1 REVERT JUMPDEST CALLVALUE DUP1 ISZERO PUSH2 0x62 JUMPI PUSH0 DUP1 REVERT JUMPDEST POP PUSH2 0x6B PUSH2 0x104 JUMP JUMPDEST STOP JUMPDEST CALLVALUE DUP1 ISZERO PUSH2 0x78 JUMPI PUSH0 DUP1 REVERT JUMPDEST POP PUSH2 0x6B PUSH2 0x87 CALLDATASIZE PUSH1 0x4 PUSH2 0x30D JUMP JUMPDEST PUSH2 0x20D JUMP JUMPDEST CALLVALUE DUP1 ISZERO PUSH2 0x97 JUMPI PUSH0 DUP1 REVERT JUMPDEST POP PUSH0 SLOAD PUSH2 0xAA SWAP1 PUSH1 0x1 PUSH1 0x1 PUSH1 0xA0 SHL SUB AND DUP2 JUMP JUMPDEST PUSH1 0x40 MLOAD PUSH1 0x1 PUSH1 0x1 PUSH1 0xA0 SHL SUB SWAP1 SWAP2 AND DUP2 MSTORE PUSH1 0x20 ADD PUSH1 0x40 MLOAD DUP1 SWAP2 SUB SWAP1 RETURN JUMPDEST CALLVALUE DUP1 ISZERO PUSH2 0xD1 JUMPI PUSH0 DUP1 REVERT JUMPDEST POP PUSH1 0x2 SLOAD PUSH2 0xAA SWAP1 PUSH1 0x1 PUSH1 0x1 PUSH1 0xA0 SHL SUB AND DUP2 JUMP JUMPDEST CALLVALUE DUP1 ISZERO PUSH2 0xF0 JUMPI PUSH0 DUP1 REVERT JUMPDEST POP PUSH1 0x1 SLOAD PUSH2 0xAA SWAP1 PUSH1 0x1 PUSH1 0x1 PUSH1 0xA0 SHL SUB AND DUP2 JUMP JUMPDEST PUSH1 0x2 SLOAD PUSH1 0x40 DUP1 MLOAD PUSH1 0x4 DUP2 MSTORE PUSH1 0x24 DUP2 ADD DUP3 MSTORE PUSH1 0x20 DUP2 ADD DUP1 MLOAD PUSH1 0x1 PUSH1 0x1 PUSH1 0xE0 SHL SUB AND PUSH4 0x6F4A2CD PUSH1 0xE4 SHL OR SWAP1 MSTORE SWAP1 MLOAD PUSH0 SWAP3 PUSH1 0x1 PUSH1 0x1 PUSH1 0xA0 SHL SUB AND SWAP2 PUSH2 0x146 SWAP2 PUSH2 0x324 JUMP JUMPDEST PUSH0 PUSH1 0x40 MLOAD DUP1 DUP4 SUB DUP2 PUSH0 DUP7 GAS CALL SWAP2 POP POP RETURNDATASIZE DUP1 PUSH0 DUP2 EQ PUSH2 0x17F JUMPI PUSH1 0x40 MLOAD SWAP2 POP PUSH1 0x1F NOT PUSH1 0x3F RETURNDATASIZE ADD AND DUP3 ADD PUSH1 0x40 MSTORE RETURNDATASIZE DUP3 MSTORE RETURNDATASIZE PUSH0 PUSH1 0x20 DUP5 ADD RETURNDATACOPY PUSH2 0x184 JUMP JUMPDEST PUSH1 0x60 SWAP2 POP JUMPDEST POP POP SWAP1 POP DUP1 PUSH2 0x1C9 JUMPI PUSH1 0x40 MLOAD PUSH3 0x461BCD PUSH1 0xE5 SHL DUP2 MSTORE PUSH1 0x20 PUSH1 0x4 DUP3 ADD MSTORE PUSH1 0xC PUSH1 0x24 DUP3 ADD MSTORE PUSH12 0x10DB185A5B4819985A5B1959 PUSH1 0xA2 SHL PUSH1 0x44 DUP3 ADD MSTORE PUSH1 0x64 ADD JUMPDEST PUSH1 0x40 MLOAD DUP1 SWAP2 SUB SWAP1 REVERT JUMPDEST SELFBALANCE DUP1 ISZERO PUSH2 0x209 JUMPI PUSH1 0x1 SLOAD PUSH1 0x40 MLOAD PUSH1 0x1 PUSH1 0x1 PUSH1 0xA0 SHL SUB SWAP1 SWAP2 AND SWAP1 DUP3 ISZERO PUSH2 0x8FC MUL SWAP1 DUP4 SWAP1 PUSH0 DUP2 DUP2 DUP2 DUP6 DUP9 DUP9 CALL SWAP4 POP POP POP POP ISZERO DUP1 ISZERO PUSH2 0x207 JUMPI RETURNDATASIZE PUSH0 DUP1 RETURNDATACOPY RETURNDATASIZE PUSH0 REVERT JUMPDEST POP JUMPDEST POP POP JUMP JUMPDEST PUSH1 0x1 SLOAD PUSH1 0x1 PUSH1 0x1 PUSH1 0xA0 SHL SUB AND CALLER EQ PUSH2 0x254 JUMPI PUSH1 0x40 MLOAD PUSH3 0x461BCD PUSH1 0xE5 SHL DUP2 MSTORE PUSH1 0x20 PUSH1 0x4 DUP3 ADD MSTORE PUSH1 0xA PUSH1 0x24 DUP3 ADD MSTORE PUSH10 0x13DB9B1E481D985D5B1D PUSH1 0xB2 SHL PUSH1 0x44 DUP3 ADD MSTORE PUSH1 0x64 ADD PUSH2 0x1C0 JUMP JUMPDEST PUSH0 DUP2 GT PUSH2 0x298 JUMPI PUSH1 0x40 MLOAD PUSH3 0x461BCD PUSH1 0xE5 SHL DUP2 MSTORE PUSH1 0x20 PUSH1 0x4 DUP3 ADD MSTORE PUSH1 0x12 PUSH1 0x24 DUP3 ADD MSTORE PUSH18 0x9AEAE6E840C8CAE0DEE6D2E840E6E88AA89 PUSH1 0x73 SHL PUSH1 0x44 DUP3 ADD MSTORE PUSH1 0x64 ADD PUSH2 0x1C0 JUMP JUMPDEST PUSH0 SLOAD PUSH1 0x2 SLOAD PUSH1 0x40 MLOAD PUSH4 0xA9059CBB PUSH1 0xE0 SHL DUP2 MSTORE PUSH1 0x1 PUSH1 0x1 PUSH1 0xA0 SHL SUB SWAP2 DUP3 AND PUSH1 0x4 DUP3 ADD MSTORE PUSH1 0x24 DUP2 ADD DUP5 SWAP1 MSTORE SWAP2 AND SWAP1 PUSH4 0xA9059CBB SWAP1 PUSH1 0x44 ADD PUSH1 0x20 PUSH1 0x40 MLOAD DUP1 DUP4 SUB DUP2 PUSH0 DUP8 GAS CALL ISZERO DUP1 ISZERO PUSH2 0x2E9 JUMPI RETURNDATASIZE PUSH0 DUP1 RETURNDATACOPY RETURNDATASIZE PUSH0 REVERT JUMPDEST POP POP POP POP PUSH1 0x40 MLOAD RETURNDATASIZE PUSH1 0x1F NOT PUSH1 0x1F DUP3 ADD AND DUP3 ADD DUP1 PUSH1 0x40 MSTORE POP DUP2 ADD SWAP1 PUSH2 0x209 SWAP2 SWAP1 PUSH2 0x33A JUMP JUMPDEST PUSH0 PUSH1 0x20 DUP3 DUP5 SUB SLT ISZERO PUSH2 0x31D JUMPI PUSH0 DUP1 REVERT JUMPDEST POP CALLDATALOAD SWAP2 SWAP1 POP JUMP JUMPDEST PUSH0 DUP3 MLOAD DUP1 PUSH1 0x20 DUP6 ADD DUP5 MCOPY PUSH0 SWAP3 ADD SWAP2 DUP3 MSTORE POP SWAP2 SWAP1 POP JUMP JUMPDEST PUSH0 PUSH1 0x20 DUP3 DUP5 SUB SLT ISZERO PUSH2 0x34A JUMPI PUSH0 DUP1 REVERT JUMPDEST DUP2 MLOAD DUP1 ISZERO ISZERO DUP2 EQ PUSH2 0x359 JUMPI PUSH0 DUP1 REVERT JUMPDEST SWAP4 SWAP3 POP POP POP JUMP INVALID LOG2 PUSH5 0x6970667358 0x22 SLT KECCAK256 PUSH2 0x7295 0xD0 0xAC PUSH18 0x607B489879A2CC603CE90B8440E12D4EAE19 SHR COINBASE SWAP8 SWAP16 0xE8 PUSH26 0xD7ED64736F6C634300081A003300000000000000000000000000 "
				},
				"gasEstimates": {
					"creation": {
						"codeDepositCost": "183600",
						"executionCost": "infinite",
						"totalCost": "infinite"
					},
					"external": {
						"claimRewards()": "infinite",
						"deposit(uint256)": "infinite",
						"farmingPool()": "2368",
						"stETH()": "2345",
						"vault()": "2390"
					}
				},
				"methodIdentifiers": {
					"claimRewards()": "372500ab",
					"deposit(uint256)": "b6b55f25",
					"farmingPool()": "d75aca19",
					"stETH()": "c1fe3e48",
					"vault()": "fbfa77cf"
				}
			},
			"storageLayout": {
				"storage": [
					{
						"astId": 83,
						"contract": "strategy.sol:StETHStrategy",
						"label": "stETH",
						"offset": 0,
						"slot": "0",
						"type": "t_contract(IERC20)77"
					},
					{
						"astId": 85,
						"contract": "strategy.sol:StETHStrategy",
						"label": "vault",
						"offset": 0,
						"slot": "1",
						"type": "t_address"
					},
					{
						"astId": 87,
						"contract": "strategy.sol:StETHStrategy",
						"label": "farmingPool",
						"offset": 0,
						"slot": "2",
						"type": "t_address"
					}
				],
				"types": {
					"t_address": {
						"encoding": "inplace",
						"label": "address",
						"numberOfBytes": "20"
					},
					"t_contract(IERC20)77": {
						"encoding": "inplace",
						"label": "contract IERC20",
						"numberOfBytes": "20"
					}
				}
			},
			"userdoc": {
				"kind": "user",
				"methods": {},
				"version": 1
			}
		}
	}
}