{
	"liquid_staking.sol": {
		"LiquidStaking": {
			"abi": [
				{
					"inputs": [
						{
							"internalType": "address",
							"name": "_yieldFarm",
							"type": "address"
						}
					],
					"stateMutability": "nonpayable",
					"type": "constructor"
				},
				{
					"inputs": [
						{
							"internalType": "address",
							"name": "spender",
							"type": "address"
						},
						{
							"internalType": "uint256",
							"name": "allowance",
							"type": "uint256"
						},
						{
							"internalType": "uint256",
							"name": "needed",
							"type": "uint256"
						}
					],
					"name": "ERC20InsufficientAllowance",
					"type": "error"
				},
				{
					"inputs": [
						{
							"internalType": "address",
							"name": "sender",
							"type": "address"
						},
						{
							"internalType": "uint256",
							"name": "balance",
							"type": "uint256"
						},
						{
							"internalType": "uint256",
							"name": "needed",
							"type": "uint256"
						}
					],
					"name": "ERC20InsufficientBalance",
					"type": "error"
				},
				{
					"inputs": [
						{
							"internalType": "address",
							"name": "approver",
							"type": "address"
						}
					],
					"name": "ERC20InvalidApprover",
					"type": "error"
				},
				{
					"inputs": [
						{
							"internalType": "address",
							"name": "receiver",
							"type": "address"
						}
					],
					"name": "ERC20InvalidReceiver",
					"type": "error"
				},
				{
					"inputs": [
						{
							"internalType": "address",
							"name": "sender",
							"type": "address"
						}
					],
					"name": "ERC20InvalidSender",
					"type": "error"
				},
				{
					"inputs": [
						{
							"internalType": "address",
							"name": "spender",
							"type": "address"
						}
					],
					"name": "ERC20InvalidSpender",
					"type": "error"
				},
				{
					"anonymous": false,
					"inputs": [
						{
							"indexed": true,
							"internalType": "address",
							"name": "owner",
							"type": "address"
						},
						{
							"indexed": true,
							"internalType": "address",
							"name": "spender",
							"type": "address"
						},
						{
							"indexed": false,
							"internalType": "uint256",
							"name": "value",
							"type": "uint256"
						}
					],
					"name": "Approval",
					"type": "event"
				},
				{
					"anonymous": false,
					"inputs": [
						{
							"indexed": true,
							"internalType": "address",
							"name": "from",
							"type": "address"
						},
						{
							"indexed": true,
							"internalType": "address",
							"name": "to",
							"type": "address"
						},
						{
							"indexed": false,
							"internalType": "uint256",
							"name": "value",
							"type": "uint256"
						}
					],
					"name": "Transfer",
					"type": "event"
				},
				{
					"inputs": [
						{
							"internalType": "address",
							"name": "owner",
							"type": "address"
						},
						{
							"internalType": "address",
							"name": "spender",
							"type": "address"
						}
					],
					"name": "allowance",
					"outputs": [
						{
							"internalType": "uint256",
							"name": "",
							"type": "uint256"
						}
					],
					"stateMutability": "view",
					"type": "function"
				},
				{
					"inputs": [
						{
							"internalType": "address",
							"name": "spender",
							"type": "address"
						},
						{
							"internalType": "uint256",
							"name": "value",
							"type": "uint256"
						}
					],
					"name": "approve",
					"outputs": [
						{
							"internalType": "bool",
							"name": "",
							"type": "bool"
						}
					],
					"stateMutability": "nonpayable",
					"type": "function"
				},
				{
					"inputs": [
						{
							"internalType": "address",
							"name": "account",
							"type": "address"
						}
					],
					"name": "balanceOf",
					"outputs": [
						{
							"internalType": "uint256",
							"name": "",
							"type": "uint256"
						}
					],
					"stateMutability": "view",
					"type": "function"
				},
				{
					"inputs": [],
					"name": "decimals",
					"outputs": [
						{
							"internalType": "uint8",
							"name": "",
							"type": "uint8"
						}
					],
					"stateMutability": "view",
					"type": "function"
				},
				{
					"inputs": [],
					"name": "name",
					"outputs": [
						{
							"internalType": "string",
							"name": "",
							"type": "string"
						}
					],
					"stateMutability": "view",
					"type": "function"
				},
				{
					"inputs": [],
					"name": "stake",
					"outputs": [],
					"stateMutability": "payable",
					"type": "function"
				},
				{
					"inputs": [],
					"name": "symbol",
					"outputs": [
						{
							"internalType": "string",
							"name": "",
							"type": "string"
						}
					],
					"stateMutability": "view",
					"type": "function"
				},
				{
					"inputs": [],
					"name": "totalSupply",
					"outputs": [
						{
							"internalType": "uint256",
							"name": "",
							"type": "uint256"
						}
					],
					"stateMutability": "view",
					"type": "function"
				},
				{
					"inputs": [
						{
							"internalType": "address",
							"name": "to",
							"type": "address"
						},
						{
							"internalType": "uint256",
							"name": "value",
							"type": "uint256"
						}
					],
					"name": "transfer",
					"outputs": [
						{
							"internalType": "bool",
							"name": "",
							"type": "bool"
						}
					],
					"stateMutability": "nonpayable",
					"type": "function"
				},
				{
					"inputs": [
						{
							"internalType": "address",
							"name": "from",
							"type": "address"
						},
						{
							"internalType": "address",
							"name": "to",
							"type": "address"
						},
						{
							"internalType": "uint256",
							"name": "value",
							"type": "uint256"
						}
					],
					"name": "transferFrom",
					"outputs": [
						{
							"internalType": "bool",
							"name": "",
							"type": "bool"
						}
					],
					"stateMutability": "nonpayable",
					"type": "function"
				},
				{
					"inputs": [
						{
							"internalType": "uint256",
							"name": "_amount",
							"type": "uint256"
						}
					],
					"name": "unstake",
					"outputs": [],
					"stateMutability": "nonpayable",
					"type": "function"
				},
				{
					"inputs": [],
					"name": "yieldFarm",
					"outputs": [
						{
							"internalType": "address",
							"name": "",
							"type": "address"
						}
					],
					"stateMutability": "view",
					"type": "function"
				},
				{
					"stateMutability": "payable",
					"type": "receive"
				}
			],
			"devdoc": {
				"errors": {
					"ERC20InsufficientAllowance(address,uint256,uint256)": [
						{
							"details": "Indicates a failure with the `spender`’s `allowance`. Used in transfers.",
							"params": {
								"allowance": "Amount of tokens a `spender` is allowed to operate with.",
								"needed": "Minimum amount required to perform a transfer.",
								"spender": "Address that may be allowed to operate on tokens without being their owner."
							}
						}
					],
					"ERC20InsufficientBalance(address,uint256,uint256)": [
						{
							"details": "Indicates an error related to the current `balance` of a `sender`. Used in transfers.",
							"params": {
								"balance": "Current balance for the interacting account.",
								"needed": "Minimum amount required to perform a transfer.",
								"sender": "Address whose tokens are being transferred."
							}
						}
					],
					"ERC20InvalidApprover(address)": [
						{
							"details": "Indicates a failure with the `approver` of a token to be approved. Used in approvals.",
							"params": {
								"approver": "Address initiating an approval operation."
							}
						}
					],
					"ERC20InvalidReceiver(address)": [
						{
							"details": "Indicates a failure with the token `receiver`. Used in transfers.",
							"params": {
								"receiver": "Address to which tokens are being transferred."
							}
						}
					],
					"ERC20InvalidSender(address)": [
						{
							"details": "Indicates a failure with the token `sender`. Used in transfers.",
							"params": {
								"sender": "Address whose tokens are being transferred."
							}
						}
					],
					"ERC20InvalidSpender(address)": [
						{
							"details": "Indicates a failure with the `spender` to be approved. Used in approvals.",
							"params": {
								"spender": "Address that may be allowed to operate on tokens without being their owner."
							}
						}
					]
				},
				"events": {
					"Approval(address,address,uint256)": {
						"details": "Emitted when the allowance of a `spender` for an `owner` is set by a call to {approve}. `value` is the new allowance."
					},
					"Transfer(address,address,uint256)": {
						"details": "Emitted when `value` tokens are moved from one account (`from`) to another (`to`). Note that `value` may be zero."
					}
				},
				"kind": "dev",
				"methods": {
					"allowance(address,address)": {
						"details": "See {IERC20-allowance}."
					},
					"approve(address,uint256)": {
						"details": "See {IERC20-approve}. NOTE: If `value` is the maximum `uint256`, the allowance is not updated on `transferFrom`. This is semantically equivalent to an infinite approval. Requirements: - `spender` cannot be the zero address."
					},
					"balanceOf(address)": {
						"details": "See {IERC20-balanceOf}."
					},
					"decimals()": {
						"details": "Returns the number of decimals used to get its user representation. For example, if `decimals` equals `2`, a balance of `505` tokens should be displayed to a user as `5.05` (`505 / 10 ** 2`). Tokens usually opt for a value of 18, imitating the relationship between Ether and Wei. This is the default value returned by this function, unless it's overridden. NOTE: This information is only used for _display_ purposes: it in no way affects any of the arithmetic of the contract, including {IERC20-balanceOf} and {IERC20-transfer}."
					},
					"name()": {
						"details": "Returns the name of the token."
					},
					"symbol()": {
						"details": "Returns the symbol of the token, usually a shorter version of the name."
					},
					"totalSupply()": {
						"details": "See {IERC20-totalSupply}."
					},
					"transfer(address,uint256)": {
						"details": "See {IERC20-transfer}. Requirements: - `to` cannot be the zero address. - the caller must have a balance of at least `value`."
					},
					"transferFrom(address,address,uint256)": {
						"details": "See {IERC20-transferFrom}. Skips emitting an {Approval} event indicating an allowance update. This is not required by the ERC. See {xref-ERC20-_approve-address-address-uint256-bool-}[_approve]. NOTE: Does not update the allowance if the current allowance is the maximum `uint256`. Requirements: - `from` and `to` cannot be the zero address. - `from` must have a balance of at least `value`. - the caller must have allowance for ``from``'s tokens of at least `value`."
					}
				},
				"version": 1
			},
			"evm": {
				"assembly": "    /* \"liquid_staking.sol\":120:958  contract LiquidStaking is ERC20 {... */\n  mstore(0x40, 0x80)\n    /* \"liquid_staking.sol\":228:338  constructor(address _yieldFarm) ERC20(\"Staked Sepolia ETH\", \"stETH\") {... */\n  callvalue\n  dup1\n  iszero\n  tag_1\n  jumpi\n  0x00\n  dup1\n  revert\ntag_1:\n  pop\n  mload(0x40)\n  sub(codesize, bytecodeSize)\n  dup1\n  bytecodeSize\n  dup4\n  codecopy\n  dup2\n  add\n  0x40\n  dup2\n  swap1\n  mstore\n  tag_2\n  swap2\n  tag_3\n  jump\t// in\ntag_2:\n    /* \"@openzeppelin/contracts/token/ERC20/ERC20.sol\":1601:1714  constructor(string memory name_, string memory symbol_) {... */\n  mload(0x40)\n  dup1\n  0x40\n  add\n  0x40\n  mstore\n  dup1\n  0x12\n  dup2\n  mstore\n  0x20\n  add\n  shl(0x73, 0x0a6e8c2d6cac840a6cae0ded8d2c2408aa89)\n  dup2\n  mstore\n  pop\n  mload(0x40)\n  dup1\n  0x40\n  add\n  0x40\n  mstore\n  dup1\n  0x05\n  dup2\n  mstore\n  0x20\n  add\n  shl(0xdb, 0x0e6e88aa89)\n  dup2\n  mstore\n  pop\n    /* \"@openzeppelin/contracts/token/ERC20/ERC20.sol\":1675:1680  name_ */\n  dup2\n    /* \"@openzeppelin/contracts/token/ERC20/ERC20.sol\":1667:1672  _name */\n  0x03\n    /* \"@openzeppelin/contracts/token/ERC20/ERC20.sol\":1667:1680  _name = name_ */\n  swap1\n  dup2\n  tag_7\n  swap2\n  swap1\n  tag_8\n  jump\t// in\ntag_7:\n  pop\n    /* \"@openzeppelin/contracts/token/ERC20/ERC20.sol\":1690:1697  _symbol */\n  0x04\n    /* \"@openzeppelin/contracts/token/ERC20/ERC20.sol\":1690:1707  _symbol = symbol_ */\n  tag_9\n    /* \"@openzeppelin/contracts/token/ERC20/ERC20.sol\":1700:1707  symbol_ */\n  dup3\n    /* \"@openzeppelin/contracts/token/ERC20/ERC20.sol\":1690:1697  _symbol */\n  dup3\n    /* \"@openzeppelin/contracts/token/ERC20/ERC20.sol\":1690:1707  _symbol = symbol_ */\n  tag_8\n  jump\t// in\ntag_9:\n  pop\n  pop\n    /* \"liquid_staking.sol\":308:317  yieldFarm */\n  0x05\n    /* \"liquid_staking.sol\":308:330  yieldFarm = _yieldFarm */\n  dup1\n  sload\n  not(sub(shl(0xa0, 0x01), 0x01))\n  and\n  sub(shl(0xa0, 0x01), 0x01)\n  swap4\n  swap1\n  swap4\n  and\n  swap3\n  swap1\n  swap3\n  or\n  swap1\n  swap2\n  sstore\n  pop\n    /* \"liquid_staking.sol\":120:958  contract LiquidStaking is ERC20 {... */\n  jump(tag_17)\n    /* \"#utility.yul\":14:304   */\ntag_3:\n    /* \"#utility.yul\":84:90   */\n  0x00\n    /* \"#utility.yul\":137:139   */\n  0x20\n    /* \"#utility.yul\":125:134   */\n  dup3\n    /* \"#utility.yul\":116:123   */\n  dup5\n    /* \"#utility.yul\":112:135   */\n  sub\n    /* \"#utility.yul\":108:140   */\n  slt\n    /* \"#utility.yul\":105:157   */\n  iszero\n  tag_19\n  jumpi\n    /* \"#utility.yul\":153:154   */\n  0x00\n    /* \"#utility.yul\":150:151   */\n  dup1\n    /* \"#utility.yul\":143:155   */\n  revert\n    /* \"#utility.yul\":105:157   */\ntag_19:\n    /* \"#utility.yul\":179:195   */\n  dup2\n  mload\n  sub(shl(0xa0, 0x01), 0x01)\n    /* \"#utility.yul\":224:255   */\n  dup2\n  and\n    /* \"#utility.yul\":214:256   */\n  dup2\n  eq\n    /* \"#utility.yul\":204:274   */\n  tag_20\n  jumpi\n    /* \"#utility.yul\":270:271   */\n  0x00\n    /* \"#utility.yul\":267:268   */\n  dup1\n    /* \"#utility.yul\":260:272   */\n  revert\n    /* \"#utility.yul\":204:274   */\ntag_20:\n    /* \"#utility.yul\":293:298   */\n  swap4\n    /* \"#utility.yul\":14:304   */\n  swap3\n  pop\n  pop\n  pop\n  jump\t// out\n    /* \"#utility.yul\":309:436   */\ntag_12:\n    /* \"#utility.yul\":370:380   */\n  0x4e487b71\n    /* \"#utility.yul\":365:368   */\n  0xe0\n    /* \"#utility.yul\":361:381   */\n  shl\n    /* \"#utility.yul\":358:359   */\n  0x00\n    /* \"#utility.yul\":351:382   */\n  mstore\n    /* \"#utility.yul\":401:405   */\n  0x41\n    /* \"#utility.yul\":398:399   */\n  0x04\n    /* \"#utility.yul\":391:406   */\n  mstore\n    /* \"#utility.yul\":425:429   */\n  0x24\n    /* \"#utility.yul\":422:423   */\n  0x00\n    /* \"#utility.yul\":415:430   */\n  revert\n    /* \"#utility.yul\":441:821   */\ntag_13:\n    /* \"#utility.yul\":520:521   */\n  0x01\n    /* \"#utility.yul\":516:528   */\n  dup2\n  dup2\n  shr\n  swap1\n    /* \"#utility.yul\":563:575   */\n  dup3\n  and\n  dup1\n    /* \"#utility.yul\":584:645   */\n  tag_23\n  jumpi\n    /* \"#utility.yul\":638:642   */\n  0x7f\n    /* \"#utility.yul\":630:636   */\n  dup3\n    /* \"#utility.yul\":626:643   */\n  and\n    /* \"#utility.yul\":616:643   */\n  swap2\n  pop\n    /* \"#utility.yul\":584:645   */\ntag_23:\n    /* \"#utility.yul\":691:693   */\n  0x20\n    /* \"#utility.yul\":683:689   */\n  dup3\n    /* \"#utility.yul\":680:694   */\n  lt\n    /* \"#utility.yul\":660:678   */\n  dup2\n    /* \"#utility.yul\":657:695   */\n  sub\n    /* \"#utility.yul\":654:815   */\n  tag_24\n  jumpi\n    /* \"#utility.yul\":737:747   */\n  0x4e487b71\n    /* \"#utility.yul\":732:735   */\n  0xe0\n    /* \"#utility.yul\":728:748   */\n  shl\n    /* \"#utility.yul\":725:726   */\n  0x00\n    /* \"#utility.yul\":718:749   */\n  mstore\n    /* \"#utility.yul\":772:776   */\n  0x22\n    /* \"#utility.yul\":769:770   */\n  0x04\n    /* \"#utility.yul\":762:777   */\n  mstore\n    /* \"#utility.yul\":800:804   */\n  0x24\n    /* \"#utility.yul\":797:798   */\n  0x00\n    /* \"#utility.yul\":790:805   */\n  revert\n    /* \"#utility.yul\":654:815   */\ntag_24:\n  pop\n    /* \"#utility.yul\":441:821   */\n  swap2\n  swap1\n  pop\n  jump\t// out\n    /* \"#utility.yul\":952:1470   */\ntag_15:\n    /* \"#utility.yul\":1054:1056   */\n  0x1f\n    /* \"#utility.yul\":1049:1052   */\n  dup3\n    /* \"#utility.yul\":1046:1057   */\n  gt\n    /* \"#utility.yul\":1043:1464   */\n  iszero\n  tag_27\n  jumpi\n    /* \"#utility.yul\":1090:1095   */\n  dup1\n    /* \"#utility.yul\":1087:1088   */\n  0x00\n    /* \"#utility.yul\":1080:1096   */\n  mstore\n    /* \"#utility.yul\":1134:1138   */\n  0x20\n    /* \"#utility.yul\":1131:1132   */\n  0x00\n    /* \"#utility.yul\":1121:1139   */\n  keccak256\n    /* \"#utility.yul\":1204:1206   */\n  0x1f\n    /* \"#utility.yul\":1192:1202   */\n  dup5\n    /* \"#utility.yul\":1188:1207   */\n  add\n    /* \"#utility.yul\":1185:1186   */\n  0x05\n    /* \"#utility.yul\":1181:1208   */\n  shr\n    /* \"#utility.yul\":1175:1179   */\n  dup2\n    /* \"#utility.yul\":1171:1209   */\n  add\n    /* \"#utility.yul\":1240:1244   */\n  0x20\n    /* \"#utility.yul\":1228:1238   */\n  dup6\n    /* \"#utility.yul\":1225:1245   */\n  lt\n    /* \"#utility.yul\":1222:1269   */\n  iszero\n  tag_28\n  jumpi\n  pop\n    /* \"#utility.yul\":1263:1267   */\n  dup1\n    /* \"#utility.yul\":1222:1269   */\ntag_28:\n    /* \"#utility.yul\":1318:1320   */\n  0x1f\n    /* \"#utility.yul\":1313:1316   */\n  dup5\n    /* \"#utility.yul\":1309:1321   */\n  add\n    /* \"#utility.yul\":1306:1307   */\n  0x05\n    /* \"#utility.yul\":1302:1322   */\n  shr\n    /* \"#utility.yul\":1296:1300   */\n  dup3\n    /* \"#utility.yul\":1292:1323   */\n  add\n    /* \"#utility.yul\":1282:1323   */\n  swap2\n  pop\n    /* \"#utility.yul\":1373:1454   */\ntag_29:\n    /* \"#utility.yul\":1391:1393   */\n  dup2\n    /* \"#utility.yul\":1384:1389   */\n  dup2\n    /* \"#utility.yul\":1381:1394   */\n  lt\n    /* \"#utility.yul\":1373:1454   */\n  iszero\n  tag_31\n  jumpi\n    /* \"#utility.yul\":1450:1451   */\n  0x00\n    /* \"#utility.yul\":1436:1452   */\n  dup2\n  sstore\n    /* \"#utility.yul\":1417:1418   */\n  0x01\n    /* \"#utility.yul\":1406:1419   */\n  add\n    /* \"#utility.yul\":1373:1454   */\n  jump(tag_29)\ntag_31:\n    /* \"#utility.yul\":1377:1380   */\n  pop\n  pop\n    /* \"#utility.yul\":1043:1464   */\ntag_27:\n    /* \"#utility.yul\":952:1470   */\n  pop\n  pop\n  pop\n  jump\t// out\n    /* \"#utility.yul\":1646:2945   */\ntag_8:\n    /* \"#utility.yul\":1766:1776   */\n  dup2\n  mload\n  sub(shl(0x40, 0x01), 0x01)\n    /* \"#utility.yul\":1788:1818   */\n  dup2\n  gt\n    /* \"#utility.yul\":1785:1841   */\n  iszero\n  tag_35\n  jumpi\n    /* \"#utility.yul\":1821:1839   */\n  tag_35\n  tag_12\n  jump\t// in\ntag_35:\n    /* \"#utility.yul\":1850:1947   */\n  tag_36\n    /* \"#utility.yul\":1940:1946   */\n  dup2\n    /* \"#utility.yul\":1900:1938   */\n  tag_37\n    /* \"#utility.yul\":1932:1936   */\n  dup5\n    /* \"#utility.yul\":1926:1937   */\n  sload\n    /* \"#utility.yul\":1900:1938   */\n  tag_13\n  jump\t// in\ntag_37:\n    /* \"#utility.yul\":1894:1898   */\n  dup5\n    /* \"#utility.yul\":1850:1947   */\n  tag_15\n  jump\t// in\ntag_36:\n    /* \"#utility.yul\":1996:2000   */\n  0x20\n    /* \"#utility.yul\":2027:2029   */\n  0x1f\n    /* \"#utility.yul\":2016:2030   */\n  dup3\n  gt\n    /* \"#utility.yul\":2044:2045   */\n  0x01\n    /* \"#utility.yul\":2039:2688   */\n  dup2\n  eq\n  tag_39\n  jumpi\n    /* \"#utility.yul\":2732:2733   */\n  0x00\n    /* \"#utility.yul\":2749:2755   */\n  dup4\n    /* \"#utility.yul\":2746:2835   */\n  iszero\n  tag_40\n  jumpi\n  pop\n    /* \"#utility.yul\":2801:2820   */\n  dup5\n  dup3\n  add\n    /* \"#utility.yul\":2795:2821   */\n  mload\n    /* \"#utility.yul\":2746:2835   */\ntag_40:\n  not(0x00)\n    /* \"#utility.yul\":1603:1604   */\n  0x03\n    /* \"#utility.yul\":1599:1610   */\n  dup6\n  swap1\n  shl\n    /* \"#utility.yul\":1595:1619   */\n  shr\n    /* \"#utility.yul\":1591:1620   */\n  not\n    /* \"#utility.yul\":1581:1621   */\n  and\n    /* \"#utility.yul\":1627:1628   */\n  0x01\n    /* \"#utility.yul\":1623:1634   */\n  dup5\n  swap1\n  shl\n    /* \"#utility.yul\":1578:1635   */\n  or\n    /* \"#utility.yul\":2848:2929   */\n  dup5\n  sstore\n    /* \"#utility.yul\":2009:2939   */\n  jump(tag_31)\n    /* \"#utility.yul\":2039:2688   */\ntag_39:\n    /* \"#utility.yul\":899:900   */\n  0x00\n    /* \"#utility.yul\":892:906   */\n  dup5\n  dup2\n  mstore\n    /* \"#utility.yul\":936:940   */\n  0x20\n    /* \"#utility.yul\":923:941   */\n  dup2\n  keccak256\n  not(0x1f)\n    /* \"#utility.yul\":2075:2095   */\n  dup6\n  and\n  swap2\n    /* \"#utility.yul\":2193:2415   */\ntag_43:\n    /* \"#utility.yul\":2207:2214   */\n  dup3\n    /* \"#utility.yul\":2204:2205   */\n  dup2\n    /* \"#utility.yul\":2201:2215   */\n  lt\n    /* \"#utility.yul\":2193:2415   */\n  iszero\n  tag_45\n  jumpi\n    /* \"#utility.yul\":2289:2308   */\n  dup8\n  dup6\n  add\n    /* \"#utility.yul\":2283:2309   */\n  mload\n    /* \"#utility.yul\":2268:2310   */\n  dup3\n  sstore\n    /* \"#utility.yul\":2396:2400   */\n  0x20\n    /* \"#utility.yul\":2381:2401   */\n  swap5\n  dup6\n  add\n  swap5\n    /* \"#utility.yul\":2349:2350   */\n  0x01\n    /* \"#utility.yul\":2337:2351   */\n  swap1\n  swap3\n  add\n  swap2\n    /* \"#utility.yul\":2223:2235   */\n  add\n    /* \"#utility.yul\":2193:2415   */\n  jump(tag_43)\ntag_45:\n    /* \"#utility.yul\":2197:2200   */\n  pop\n    /* \"#utility.yul\":2443:2449   */\n  dup5\n    /* \"#utility.yul\":2434:2441   */\n  dup3\n    /* \"#utility.yul\":2431:2450   */\n  lt\n    /* \"#utility.yul\":2428:2629   */\n  iszero\n  tag_46\n  jumpi\n    /* \"#utility.yul\":2504:2523   */\n  dup7\n  dup5\n  add\n    /* \"#utility.yul\":2498:2524   */\n  mload\n  not(0x00)\n    /* \"#utility.yul\":2587:2588   */\n  0x03\n    /* \"#utility.yul\":2583:2597   */\n  dup8\n  swap1\n  shl\n    /* \"#utility.yul\":2599:2602   */\n  0xf8\n    /* \"#utility.yul\":2579:2603   */\n  and\n    /* \"#utility.yul\":2575:2612   */\n  shr\n    /* \"#utility.yul\":2571:2613   */\n  not\n    /* \"#utility.yul\":2556:2614   */\n  and\n    /* \"#utility.yul\":2541:2615   */\n  dup2\n  sstore\n    /* \"#utility.yul\":2428:2629   */\ntag_46:\n  pop\n  pop\n  pop\n  pop\n    /* \"#utility.yul\":2675:2676   */\n  0x01\n    /* \"#utility.yul\":2659:2673   */\n  swap1\n  dup2\n  shl\n    /* \"#utility.yul\":2655:2677   */\n  add\n    /* \"#utility.yul\":2642:2678   */\n  swap1\n  sstore\n  pop\n    /* \"#utility.yul\":1646:2945   */\n  jump\t// out\ntag_17:\n    /* \"liquid_staking.sol\":120:958  contract LiquidStaking is ERC20 {... */\n  dataSize(sub_0)\n  dup1\n  dataOffset(sub_0)\n  0x00\n  codecopy\n  0x00\n  return\nstop\n\nsub_0: assembly {\n        /* \"liquid_staking.sol\":120:958  contract LiquidStaking is ERC20 {... */\n      mstore(0x40, 0x80)\n      jumpi(tag_1, lt(calldatasize, 0x04))\n      shr(0xe0, calldataload(0x00))\n      dup1\n      0x313ce567\n      gt\n      tag_15\n      jumpi\n      dup1\n      0x313ce567\n      eq\n      tag_9\n      jumpi\n      dup1\n      0x3a4b66f1\n      eq\n      tag_10\n      jumpi\n      dup1\n      0x70a08231\n      eq\n      tag_11\n      jumpi\n      dup1\n      0x95d89b41\n      eq\n      tag_12\n      jumpi\n      dup1\n      0xa9059cbb\n      eq\n      tag_13\n      jumpi\n      dup1\n      0xdd62ed3e\n      eq\n      tag_14\n      jumpi\n      0x00\n      dup1\n      revert\n    tag_15:\n      dup1\n      0x06fdde03\n      eq\n      tag_3\n      jumpi\n      dup1\n      0x095ea7b3\n      eq\n      tag_4\n      jumpi\n      dup1\n      0x18160ddd\n      eq\n      tag_5\n      jumpi\n      dup1\n      0x1e092efb\n      eq\n      tag_6\n      jumpi\n      dup1\n      0x23b872dd\n      eq\n      tag_7\n      jumpi\n      dup1\n      0x2e17de78\n      eq\n      tag_8\n      jumpi\n      0x00\n      dup1\n      revert\n    tag_1:\n      jumpi(tag_2, calldatasize)\n      stop\n    tag_2:\n      0x00\n      dup1\n      revert\n        /* \"@openzeppelin/contracts/token/ERC20/ERC20.sol\":1779:1868  function name() public view virtual returns (string memory) {... */\n    tag_3:\n      callvalue\n      dup1\n      iszero\n      tag_18\n      jumpi\n      0x00\n      dup1\n      revert\n    tag_18:\n      pop\n      tag_19\n      tag_20\n      jump\t// in\n    tag_19:\n      mload(0x40)\n      tag_21\n      swap2\n      swap1\n      tag_22\n      jump\t// in\n    tag_21:\n      mload(0x40)\n      dup1\n      swap2\n      sub\n      swap1\n      return\n        /* \"@openzeppelin/contracts/token/ERC20/ERC20.sol\":3998:4184  function approve(address spender, uint256 value) public virtual returns (bool) {... */\n    tag_4:\n      callvalue\n      dup1\n      iszero\n      tag_23\n      jumpi\n      0x00\n      dup1\n      revert\n    tag_23:\n      pop\n      tag_24\n      tag_25\n      calldatasize\n      0x04\n      tag_26\n      jump\t// in\n    tag_25:\n      tag_27\n      jump\t// in\n    tag_24:\n      mload(0x40)\n        /* \"#utility.yul\":1085:1099   */\n      swap1\n      iszero\n        /* \"#utility.yul\":1078:1100   */\n      iszero\n        /* \"#utility.yul\":1060:1101   */\n      dup2\n      mstore\n        /* \"#utility.yul\":1048:1050   */\n      0x20\n        /* \"#utility.yul\":1033:1051   */\n      add\n        /* \"@openzeppelin/contracts/token/ERC20/ERC20.sol\":3998:4184  function approve(address spender, uint256 value) public virtual returns (bool) {... */\n      tag_21\n        /* \"#utility.yul\":920:1107   */\n      jump\n        /* \"@openzeppelin/contracts/token/ERC20/ERC20.sol\":2849:2946  function totalSupply() public view virtual returns (uint256) {... */\n    tag_5:\n      callvalue\n      dup1\n      iszero\n      tag_30\n      jumpi\n      0x00\n      dup1\n      revert\n    tag_30:\n      pop\n        /* \"@openzeppelin/contracts/token/ERC20/ERC20.sol\":2927:2939  _totalSupply */\n      sload(0x02)\n        /* \"@openzeppelin/contracts/token/ERC20/ERC20.sol\":2849:2946  function totalSupply() public view virtual returns (uint256) {... */\n    tag_31:\n      mload(0x40)\n        /* \"#utility.yul\":1258:1283   */\n      swap1\n      dup2\n      mstore\n        /* \"#utility.yul\":1246:1248   */\n      0x20\n        /* \"#utility.yul\":1231:1249   */\n      add\n        /* \"@openzeppelin/contracts/token/ERC20/ERC20.sol\":2849:2946  function totalSupply() public view virtual returns (uint256) {... */\n      tag_21\n        /* \"#utility.yul\":1112:1289   */\n      jump\n        /* \"liquid_staking.sol\":159:183  address public yieldFarm */\n    tag_6:\n      callvalue\n      dup1\n      iszero\n      tag_35\n      jumpi\n      0x00\n      dup1\n      revert\n    tag_35:\n      pop\n      sload(0x05)\n      tag_36\n      swap1\n      sub(shl(0xa0, 0x01), 0x01)\n      and\n      dup2\n      jump\n    tag_36:\n      mload(0x40)\n      sub(shl(0xa0, 0x01), 0x01)\n        /* \"#utility.yul\":1458:1490   */\n      swap1\n      swap2\n      and\n        /* \"#utility.yul\":1440:1491   */\n      dup2\n      mstore\n        /* \"#utility.yul\":1428:1430   */\n      0x20\n        /* \"#utility.yul\":1413:1431   */\n      add\n        /* \"liquid_staking.sol\":159:183  address public yieldFarm */\n      tag_21\n        /* \"#utility.yul\":1294:1497   */\n      jump\n        /* \"@openzeppelin/contracts/token/ERC20/ERC20.sol\":4776:5020  function transferFrom(address from, address to, uint256 value) public virtual returns (bool) {... */\n    tag_7:\n      callvalue\n      dup1\n      iszero\n      tag_40\n      jumpi\n      0x00\n      dup1\n      revert\n    tag_40:\n      pop\n      tag_24\n      tag_42\n      calldatasize\n      0x04\n      tag_43\n      jump\t// in\n    tag_42:\n      tag_44\n      jump\t// in\n        /* \"liquid_staking.sol\":650:860  function unstake(uint256 _amount) external {... */\n    tag_8:\n      callvalue\n      dup1\n      iszero\n      tag_46\n      jumpi\n      0x00\n      dup1\n      revert\n    tag_46:\n      pop\n      tag_47\n      tag_48\n      calldatasize\n      0x04\n      tag_49\n      jump\t// in\n    tag_48:\n      tag_50\n      jump\t// in\n    tag_47:\n      stop\n        /* \"@openzeppelin/contracts/token/ERC20/ERC20.sol\":2707:2789  function decimals() public view virtual returns (uint8) {... */\n    tag_9:\n      callvalue\n      dup1\n      iszero\n      tag_51\n      jumpi\n      0x00\n      dup1\n      revert\n    tag_51:\n      pop\n      mload(0x40)\n        /* \"@openzeppelin/contracts/token/ERC20/ERC20.sol\":2780:2782  18 */\n      0x12\n        /* \"#utility.yul\":2254:2290   */\n      dup2\n      mstore\n        /* \"#utility.yul\":2242:2244   */\n      0x20\n        /* \"#utility.yul\":2227:2245   */\n      add\n        /* \"@openzeppelin/contracts/token/ERC20/ERC20.sol\":2707:2789  function decimals() public view virtual returns (uint8) {... */\n      tag_21\n        /* \"#utility.yul\":2112:2296   */\n      jump\n        /* \"liquid_staking.sol\":346:642  function stake() external payable {... */\n    tag_10:\n      tag_47\n      tag_57\n      jump\t// in\n        /* \"@openzeppelin/contracts/token/ERC20/ERC20.sol\":3004:3120  function balanceOf(address account) public view virtual returns (uint256) {... */\n    tag_11:\n      callvalue\n      dup1\n      iszero\n      tag_58\n      jumpi\n      0x00\n      dup1\n      revert\n    tag_58:\n      pop\n      tag_31\n      tag_60\n      calldatasize\n      0x04\n      tag_61\n      jump\t// in\n    tag_60:\n      sub(shl(0xa0, 0x01), 0x01)\n        /* \"@openzeppelin/contracts/token/ERC20/ERC20.sol\":3095:3113  _balances[account] */\n      and\n        /* \"@openzeppelin/contracts/token/ERC20/ERC20.sol\":3069:3076  uint256 */\n      0x00\n        /* \"@openzeppelin/contracts/token/ERC20/ERC20.sol\":3095:3113  _balances[account] */\n      swap1\n      dup2\n      mstore\n      0x20\n      dup2\n      swap1\n      mstore\n      0x40\n      swap1\n      keccak256\n      sload\n      swap1\n        /* \"@openzeppelin/contracts/token/ERC20/ERC20.sol\":3004:3120  function balanceOf(address account) public view virtual returns (uint256) {... */\n      jump\n        /* \"@openzeppelin/contracts/token/ERC20/ERC20.sol\":1981:2074  function symbol() public view virtual returns (string memory) {... */\n    tag_12:\n      callvalue\n      dup1\n      iszero\n      tag_64\n      jumpi\n      0x00\n      dup1\n      revert\n    tag_64:\n      pop\n      tag_19\n      tag_66\n      jump\t// in\n        /* \"@openzeppelin/contracts/token/ERC20/ERC20.sol\":3315:3493  function transfer(address to, uint256 value) public virtual returns (bool) {... */\n    tag_13:\n      callvalue\n      dup1\n      iszero\n      tag_68\n      jumpi\n      0x00\n      dup1\n      revert\n    tag_68:\n      pop\n      tag_24\n      tag_70\n      calldatasize\n      0x04\n      tag_26\n      jump\t// in\n    tag_70:\n      tag_71\n      jump\t// in\n        /* \"@openzeppelin/contracts/token/ERC20/ERC20.sol\":3551:3691  function allowance(address owner, address spender) public view virtual returns (uint256) {... */\n    tag_14:\n      callvalue\n      dup1\n      iszero\n      tag_73\n      jumpi\n      0x00\n      dup1\n      revert\n    tag_73:\n      pop\n      tag_31\n      tag_75\n      calldatasize\n      0x04\n      tag_76\n      jump\t// in\n    tag_75:\n      sub(shl(0xa0, 0x01), 0x01)\n        /* \"@openzeppelin/contracts/token/ERC20/ERC20.sol\":3657:3675  _allowances[owner] */\n      swap2\n      dup3\n      and\n        /* \"@openzeppelin/contracts/token/ERC20/ERC20.sol\":3631:3638  uint256 */\n      0x00\n        /* \"@openzeppelin/contracts/token/ERC20/ERC20.sol\":3657:3675  _allowances[owner] */\n      swap1\n      dup2\n      mstore\n        /* \"@openzeppelin/contracts/token/ERC20/ERC20.sol\":3657:3668  _allowances */\n      0x01\n        /* \"@openzeppelin/contracts/token/ERC20/ERC20.sol\":3657:3675  _allowances[owner] */\n      0x20\n      swap1\n      dup2\n      mstore\n      0x40\n      dup1\n      dup4\n      keccak256\n        /* \"@openzeppelin/contracts/token/ERC20/ERC20.sol\":3657:3684  _allowances[owner][spender] */\n      swap4\n      swap1\n      swap5\n      and\n      dup3\n      mstore\n      swap2\n      swap1\n      swap2\n      mstore\n      keccak256\n      sload\n      swap1\n        /* \"@openzeppelin/contracts/token/ERC20/ERC20.sol\":3551:3691  function allowance(address owner, address spender) public view virtual returns (uint256) {... */\n      jump\n        /* \"@openzeppelin/contracts/token/ERC20/ERC20.sol\":1779:1868  function name() public view virtual returns (string memory) {... */\n    tag_20:\n        /* \"@openzeppelin/contracts/token/ERC20/ERC20.sol\":1824:1837  string memory */\n      0x60\n        /* \"@openzeppelin/contracts/token/ERC20/ERC20.sol\":1856:1861  _name */\n      0x03\n        /* \"@openzeppelin/contracts/token/ERC20/ERC20.sol\":1849:1861  return _name */\n      dup1\n      sload\n      tag_80\n      swap1\n      tag_81\n      jump\t// in\n    tag_80:\n      dup1\n      0x1f\n      add\n      0x20\n      dup1\n      swap2\n      div\n      mul\n      0x20\n      add\n      mload(0x40)\n      swap1\n      dup2\n      add\n      0x40\n      mstore\n      dup1\n      swap3\n      swap2\n      swap1\n      dup2\n      dup2\n      mstore\n      0x20\n      add\n      dup3\n      dup1\n      sload\n      tag_82\n      swap1\n      tag_81\n      jump\t// in\n    tag_82:\n      dup1\n      iszero\n      tag_83\n      jumpi\n      dup1\n      0x1f\n      lt\n      tag_84\n      jumpi\n      0x0100\n      dup1\n      dup4\n      sload\n      div\n      mul\n      dup4\n      mstore\n      swap2\n      0x20\n      add\n      swap2\n      jump(tag_83)\n    tag_84:\n      dup3\n      add\n      swap2\n      swap1\n      0x00\n      mstore\n      keccak256(0x00, 0x20)\n      swap1\n    tag_85:\n      dup2\n      sload\n      dup2\n      mstore\n      swap1\n      0x01\n      add\n      swap1\n      0x20\n      add\n      dup1\n      dup4\n      gt\n      tag_85\n      jumpi\n      dup3\n      swap1\n      sub\n      0x1f\n      and\n      dup3\n      add\n      swap2\n    tag_83:\n      pop\n      pop\n      pop\n      pop\n      pop\n      swap1\n      pop\n        /* \"@openzeppelin/contracts/token/ERC20/ERC20.sol\":1779:1868  function name() public view virtual returns (string memory) {... */\n      swap1\n      jump\t// out\n        /* \"@openzeppelin/contracts/token/ERC20/ERC20.sol\":3998:4184  function approve(address spender, uint256 value) public virtual returns (bool) {... */\n    tag_27:\n        /* \"@openzeppelin/contracts/token/ERC20/ERC20.sol\":4071:4075  bool */\n      0x00\n        /* \"@openzeppelin/contracts/utils/Context.sol\":735:745  msg.sender */\n      caller\n        /* \"@openzeppelin/contracts/token/ERC20/ERC20.sol\":4125:4156  _approve(owner, spender, value) */\n      tag_89\n        /* \"@openzeppelin/contracts/utils/Context.sol\":735:745  msg.sender */\n      dup2\n        /* \"@openzeppelin/contracts/token/ERC20/ERC20.sol\":4141:4148  spender */\n      dup6\n        /* \"@openzeppelin/contracts/token/ERC20/ERC20.sol\":4150:4155  value */\n      dup6\n        /* \"@openzeppelin/contracts/token/ERC20/ERC20.sol\":4125:4133  _approve */\n      tag_90\n        /* \"@openzeppelin/contracts/token/ERC20/ERC20.sol\":4125:4156  _approve(owner, spender, value) */\n      jump\t// in\n    tag_89:\n        /* \"@openzeppelin/contracts/token/ERC20/ERC20.sol\":4173:4177  true */\n      0x01\n        /* \"@openzeppelin/contracts/token/ERC20/ERC20.sol\":4166:4177  return true */\n      swap2\n      pop\n      pop\n        /* \"@openzeppelin/contracts/token/ERC20/ERC20.sol\":3998:4184  function approve(address spender, uint256 value) public virtual returns (bool) {... */\n    tag_86:\n      swap3\n      swap2\n      pop\n      pop\n      jump\t// out\n        /* \"@openzeppelin/contracts/token/ERC20/ERC20.sol\":4776:5020  function transferFrom(address from, address to, uint256 value) public virtual returns (bool) {... */\n    tag_44:\n        /* \"@openzeppelin/contracts/token/ERC20/ERC20.sol\":4863:4867  bool */\n      0x00\n        /* \"@openzeppelin/contracts/utils/Context.sol\":735:745  msg.sender */\n      caller\n        /* \"@openzeppelin/contracts/token/ERC20/ERC20.sol\":4919:4956  _spendAllowance(from, spender, value) */\n      tag_94\n        /* \"@openzeppelin/contracts/token/ERC20/ERC20.sol\":4935:4939  from */\n      dup6\n        /* \"@openzeppelin/contracts/utils/Context.sol\":735:745  msg.sender */\n      dup3\n        /* \"@openzeppelin/contracts/token/ERC20/ERC20.sol\":4950:4955  value */\n      dup6\n        /* \"@openzeppelin/contracts/token/ERC20/ERC20.sol\":4919:4934  _spendAllowance */\n      tag_95\n        /* \"@openzeppelin/contracts/token/ERC20/ERC20.sol\":4919:4956  _spendAllowance(from, spender, value) */\n      jump\t// in\n    tag_94:\n        /* \"@openzeppelin/contracts/token/ERC20/ERC20.sol\":4966:4992  _transfer(from, to, value) */\n      tag_96\n        /* \"@openzeppelin/contracts/token/ERC20/ERC20.sol\":4976:4980  from */\n      dup6\n        /* \"@openzeppelin/contracts/token/ERC20/ERC20.sol\":4982:4984  to */\n      dup6\n        /* \"@openzeppelin/contracts/token/ERC20/ERC20.sol\":4986:4991  value */\n      dup6\n        /* \"@openzeppelin/contracts/token/ERC20/ERC20.sol\":4966:4975  _transfer */\n      tag_97\n        /* \"@openzeppelin/contracts/token/ERC20/ERC20.sol\":4966:4992  _transfer(from, to, value) */\n      jump\t// in\n    tag_96:\n      pop\n        /* \"@openzeppelin/contracts/token/ERC20/ERC20.sol\":5009:5013  true */\n      0x01\n      swap5\n        /* \"@openzeppelin/contracts/token/ERC20/ERC20.sol\":4776:5020  function transferFrom(address from, address to, uint256 value) public virtual returns (bool) {... */\n      swap4\n      pop\n      pop\n      pop\n      pop\n      jump\t// out\n        /* \"liquid_staking.sol\":650:860  function unstake(uint256 _amount) external {... */\n    tag_50:\n        /* \"liquid_staking.sol\":722:732  msg.sender */\n      caller\n        /* \"@openzeppelin/contracts/token/ERC20/ERC20.sol\":3069:3076  uint256 */\n      0x00\n        /* \"@openzeppelin/contracts/token/ERC20/ERC20.sol\":3095:3113  _balances[account] */\n      swap1\n      dup2\n      mstore\n      0x20\n      dup2\n      swap1\n      mstore\n      0x40\n      swap1\n      keccak256\n      sload\n        /* \"liquid_staking.sol\":737:744  _amount */\n      dup2\n      gt\n        /* \"liquid_staking.sol\":712:744  balanceOf(msg.sender) >= _amount */\n      iszero\n        /* \"liquid_staking.sol\":704:765  require(balanceOf(msg.sender) >= _amount, \"Not enough stETH\") */\n      tag_100\n      jumpi\n      mload(0x40)\n      shl(0xe5, 0x461bcd)\n      dup2\n      mstore\n        /* \"#utility.yul\":3344:3346   */\n      0x20\n        /* \"liquid_staking.sol\":704:765  require(balanceOf(msg.sender) >= _amount, \"Not enough stETH\") */\n      0x04\n      dup3\n      add\n        /* \"#utility.yul\":3326:3347   */\n      mstore\n        /* \"#utility.yul\":3383:3385   */\n      0x10\n        /* \"#utility.yul\":3363:3381   */\n      0x24\n      dup3\n      add\n        /* \"#utility.yul\":3356:3386   */\n      mstore\n      shl(0x83, 0x09cdee840cadcdeeaced040e6e88aa89)\n        /* \"#utility.yul\":3402:3420   */\n      0x44\n      dup3\n      add\n        /* \"#utility.yul\":3395:3441   */\n      mstore\n        /* \"#utility.yul\":3458:3476   */\n      0x64\n      add\n        /* \"liquid_staking.sol\":704:765  require(balanceOf(msg.sender) >= _amount, \"Not enough stETH\") */\n    tag_101:\n      mload(0x40)\n      dup1\n      swap2\n      sub\n      swap1\n      revert\n    tag_100:\n        /* \"liquid_staking.sol\":778:804  _burn(msg.sender, _amount) */\n      tag_103\n        /* \"liquid_staking.sol\":784:794  msg.sender */\n      caller\n        /* \"liquid_staking.sol\":796:803  _amount */\n      dup3\n        /* \"liquid_staking.sol\":778:783  _burn */\n      tag_104\n        /* \"liquid_staking.sol\":778:804  _burn(msg.sender, _amount) */\n      jump\t// in\n    tag_103:\n        /* \"liquid_staking.sol\":815:852  payable(msg.sender).transfer(_amount) */\n      mload(0x40)\n        /* \"liquid_staking.sol\":823:833  msg.sender */\n      caller\n      swap1\n        /* \"liquid_staking.sol\":815:852  payable(msg.sender).transfer(_amount) */\n      dup3\n      iszero\n      0x08fc\n      mul\n      swap1\n        /* \"liquid_staking.sol\":844:851  _amount */\n      dup4\n      swap1\n        /* \"liquid_staking.sol\":815:852  payable(msg.sender).transfer(_amount) */\n      0x00\n      dup2\n      dup2\n      dup2\n        /* \"liquid_staking.sol\":844:851  _amount */\n      dup6\n        /* \"liquid_staking.sol\":823:833  msg.sender */\n      dup9\n        /* \"liquid_staking.sol\":815:852  payable(msg.sender).transfer(_amount) */\n      dup9\n      call\n      swap4\n      pop\n      pop\n      pop\n      pop\n      iszero\n      dup1\n      iszero\n      tag_106\n      jumpi\n      returndatasize\n      0x00\n      dup1\n      returndatacopy\n      revert(0x00, returndatasize)\n    tag_106:\n      pop\n        /* \"liquid_staking.sol\":650:860  function unstake(uint256 _amount) external {... */\n      pop\n      jump\t// out\n        /* \"liquid_staking.sol\":346:642  function stake() external payable {... */\n    tag_57:\n        /* \"liquid_staking.sol\":411:412  0 */\n      0x00\n        /* \"liquid_staking.sol\":399:408  msg.value */\n      callvalue\n        /* \"liquid_staking.sol\":399:412  msg.value > 0 */\n      gt\n        /* \"liquid_staking.sol\":391:430  require(msg.value > 0, \"Must send ETH\") */\n      tag_109\n      jumpi\n      mload(0x40)\n      shl(0xe5, 0x461bcd)\n      dup2\n      mstore\n        /* \"#utility.yul\":3689:3691   */\n      0x20\n        /* \"liquid_staking.sol\":391:430  require(msg.value > 0, \"Must send ETH\") */\n      0x04\n      dup3\n      add\n        /* \"#utility.yul\":3671:3692   */\n      mstore\n        /* \"#utility.yul\":3728:3730   */\n      0x0d\n        /* \"#utility.yul\":3708:3726   */\n      0x24\n      dup3\n      add\n        /* \"#utility.yul\":3701:3731   */\n      mstore\n      shl(0x9b, 0x09aeae6e840e6cadcc8408aa89)\n        /* \"#utility.yul\":3747:3765   */\n      0x44\n      dup3\n      add\n        /* \"#utility.yul\":3740:3783   */\n      mstore\n        /* \"#utility.yul\":3800:3818   */\n      0x64\n      add\n        /* \"liquid_staking.sol\":391:430  require(msg.value > 0, \"Must send ETH\") */\n      tag_101\n        /* \"#utility.yul\":3487:3824   */\n      jump\n        /* \"liquid_staking.sol\":391:430  require(msg.value > 0, \"Must send ETH\") */\n    tag_109:\n        /* \"liquid_staking.sol\":460:469  msg.value */\n      callvalue\n        /* \"liquid_staking.sol\":502:527  _mint(msg.sender, shares) */\n      tag_112\n        /* \"liquid_staking.sol\":508:518  msg.sender */\n      caller\n        /* \"liquid_staking.sol\":460:469  msg.value */\n      dup3\n        /* \"liquid_staking.sol\":502:507  _mint */\n      tag_113\n        /* \"liquid_staking.sol\":502:527  _mint(msg.sender, shares) */\n      jump\t// in\n    tag_112:\n        /* \"liquid_staking.sol\":604:613  yieldFarm */\n      sload(0x05)\n        /* \"liquid_staking.sol\":596:634  payable(yieldFarm).transfer(msg.value) */\n      mload(0x40)\n      sub(shl(0xa0, 0x01), 0x01)\n        /* \"liquid_staking.sol\":604:613  yieldFarm */\n      swap1\n      swap2\n      and\n      swap1\n        /* \"liquid_staking.sol\":624:633  msg.value */\n      callvalue\n        /* \"liquid_staking.sol\":596:634  payable(yieldFarm).transfer(msg.value) */\n      dup1\n      iszero\n      0x08fc\n      mul\n      swap2\n        /* \"liquid_staking.sol\":604:613  yieldFarm */\n      0x00\n        /* \"liquid_staking.sol\":596:634  payable(yieldFarm).transfer(msg.value) */\n      dup2\n        /* \"liquid_staking.sol\":604:613  yieldFarm */\n      dup2\n        /* \"liquid_staking.sol\":596:634  payable(yieldFarm).transfer(msg.value) */\n      dup2\n        /* \"liquid_staking.sol\":624:633  msg.value */\n      dup6\n        /* \"liquid_staking.sol\":604:613  yieldFarm */\n      dup9\n        /* \"liquid_staking.sol\":596:634  payable(yieldFarm).transfer(msg.value) */\n      dup9\n      call\n      swap4\n      pop\n      pop\n      pop\n      pop\n      iszero\n      dup1\n      iszero\n      tag_106\n      jumpi\n      returndatasize\n      0x00\n      dup1\n      returndatacopy\n      revert(0x00, returndatasize)\n        /* \"@openzeppelin/contracts/token/ERC20/ERC20.sol\":1981:2074  function symbol() public view virtual returns (string memory) {... */\n    tag_66:\n        /* \"@openzeppelin/contracts/token/ERC20/ERC20.sol\":2028:2041  string memory */\n      0x60\n        /* \"@openzeppelin/contracts/token/ERC20/ERC20.sol\":2060:2067  _symbol */\n      0x04\n        /* \"@openzeppelin/contracts/token/ERC20/ERC20.sol\":2053:2067  return _symbol */\n      dup1\n      sload\n      tag_80\n      swap1\n      tag_81\n      jump\t// in\n        /* \"@openzeppelin/contracts/token/ERC20/ERC20.sol\":3315:3493  function transfer(address to, uint256 value) public virtual returns (bool) {... */\n    tag_71:\n        /* \"@openzeppelin/contracts/token/ERC20/ERC20.sol\":3384:3388  bool */\n      0x00\n        /* \"@openzeppelin/contracts/utils/Context.sol\":735:745  msg.sender */\n      caller\n        /* \"@openzeppelin/contracts/token/ERC20/ERC20.sol\":3438:3465  _transfer(owner, to, value) */\n      tag_89\n        /* \"@openzeppelin/contracts/utils/Context.sol\":735:745  msg.sender */\n      dup2\n        /* \"@openzeppelin/contracts/token/ERC20/ERC20.sol\":3455:3457  to */\n      dup6\n        /* \"@openzeppelin/contracts/token/ERC20/ERC20.sol\":3459:3464  value */\n      dup6\n        /* \"@openzeppelin/contracts/token/ERC20/ERC20.sol\":3438:3447  _transfer */\n      tag_97\n        /* \"@openzeppelin/contracts/token/ERC20/ERC20.sol\":3438:3465  _transfer(owner, to, value) */\n      jump\t// in\n        /* \"@openzeppelin/contracts/token/ERC20/ERC20.sol\":8726:8854  function _approve(address owner, address spender, uint256 value) internal {... */\n    tag_90:\n        /* \"@openzeppelin/contracts/token/ERC20/ERC20.sol\":8810:8847  _approve(owner, spender, value, true) */\n      tag_129\n        /* \"@openzeppelin/contracts/token/ERC20/ERC20.sol\":8819:8824  owner */\n      dup4\n        /* \"@openzeppelin/contracts/token/ERC20/ERC20.sol\":8826:8833  spender */\n      dup4\n        /* \"@openzeppelin/contracts/token/ERC20/ERC20.sol\":8835:8840  value */\n      dup4\n        /* \"@openzeppelin/contracts/token/ERC20/ERC20.sol\":8842:8846  true */\n      0x01\n        /* \"@openzeppelin/contracts/token/ERC20/ERC20.sol\":8810:8818  _approve */\n      tag_130\n        /* \"@openzeppelin/contracts/token/ERC20/ERC20.sol\":8810:8847  _approve(owner, spender, value, true) */\n      jump\t// in\n    tag_129:\n        /* \"@openzeppelin/contracts/token/ERC20/ERC20.sol\":8726:8854  function _approve(address owner, address spender, uint256 value) internal {... */\n      pop\n      pop\n      pop\n      jump\t// out\n        /* \"@openzeppelin/contracts/token/ERC20/ERC20.sol\":10415:10891  function _spendAllowance(address owner, address spender, uint256 value) internal virtual {... */\n    tag_95:\n      sub(shl(0xa0, 0x01), 0x01)\n        /* \"@openzeppelin/contracts/token/ERC20/ERC20.sol\":3657:3675  _allowances[owner] */\n      dup4\n      dup2\n      and\n        /* \"@openzeppelin/contracts/token/ERC20/ERC20.sol\":10514:10538  uint256 currentAllowance */\n      0x00\n        /* \"@openzeppelin/contracts/token/ERC20/ERC20.sol\":3657:3675  _allowances[owner] */\n      swap1\n      dup2\n      mstore\n        /* \"@openzeppelin/contracts/token/ERC20/ERC20.sol\":3657:3668  _allowances */\n      0x01\n        /* \"@openzeppelin/contracts/token/ERC20/ERC20.sol\":3657:3675  _allowances[owner] */\n      0x20\n      swap1\n      dup2\n      mstore\n      0x40\n      dup1\n      dup4\n      keccak256\n        /* \"@openzeppelin/contracts/token/ERC20/ERC20.sol\":3657:3684  _allowances[owner][spender] */\n      swap4\n      dup7\n      and\n      dup4\n      mstore\n      swap3\n      swap1\n      mstore\n      keccak256\n      sload\n      not(0x00)\n        /* \"@openzeppelin/contracts/token/ERC20/ERC20.sol\":10580:10616  currentAllowance < type(uint256).max */\n      dup2\n      lt\n        /* \"@openzeppelin/contracts/token/ERC20/ERC20.sol\":10576:10885  if (currentAllowance < type(uint256).max) {... */\n      iszero\n      tag_137\n      jumpi\n        /* \"@openzeppelin/contracts/token/ERC20/ERC20.sol\":10655:10660  value */\n      dup2\n        /* \"@openzeppelin/contracts/token/ERC20/ERC20.sol\":10636:10652  currentAllowance */\n      dup2\n        /* \"@openzeppelin/contracts/token/ERC20/ERC20.sol\":10636:10660  currentAllowance < value */\n      lt\n        /* \"@openzeppelin/contracts/token/ERC20/ERC20.sol\":10632:10762  if (currentAllowance < value) {... */\n      iszero\n      tag_134\n      jumpi\n        /* \"@openzeppelin/contracts/token/ERC20/ERC20.sol\":10687:10747  ERC20InsufficientAllowance(spender, currentAllowance, value) */\n      mload(0x40)\n      shl(0xe1, 0x7dc7a0d9)\n      dup2\n      mstore\n      sub(shl(0xa0, 0x01), 0x01)\n        /* \"#utility.yul\":4049:4081   */\n      dup5\n      and\n        /* \"@openzeppelin/contracts/token/ERC20/ERC20.sol\":10687:10747  ERC20InsufficientAllowance(spender, currentAllowance, value) */\n      0x04\n      dup3\n      add\n        /* \"#utility.yul\":4031:4082   */\n      mstore\n        /* \"#utility.yul\":4098:4116   */\n      0x24\n      dup2\n      add\n        /* \"#utility.yul\":4091:4125   */\n      dup3\n      swap1\n      mstore\n        /* \"#utility.yul\":4141:4159   */\n      0x44\n      dup2\n      add\n        /* \"#utility.yul\":4134:4168   */\n      dup4\n      swap1\n      mstore\n        /* \"#utility.yul\":4004:4022   */\n      0x64\n      add\n        /* \"@openzeppelin/contracts/token/ERC20/ERC20.sol\":10687:10747  ERC20InsufficientAllowance(spender, currentAllowance, value) */\n      tag_101\n        /* \"#utility.yul\":3829:4174   */\n      jump\n        /* \"@openzeppelin/contracts/token/ERC20/ERC20.sol\":10632:10762  if (currentAllowance < value) {... */\n    tag_134:\n        /* \"@openzeppelin/contracts/token/ERC20/ERC20.sol\":10803:10860  _approve(owner, spender, currentAllowance - value, false) */\n      tag_137\n        /* \"@openzeppelin/contracts/token/ERC20/ERC20.sol\":10812:10817  owner */\n      dup5\n        /* \"@openzeppelin/contracts/token/ERC20/ERC20.sol\":10819:10826  spender */\n      dup5\n        /* \"@openzeppelin/contracts/token/ERC20/ERC20.sol\":10847:10852  value */\n      dup5\n        /* \"@openzeppelin/contracts/token/ERC20/ERC20.sol\":10828:10844  currentAllowance */\n      dup5\n        /* \"@openzeppelin/contracts/token/ERC20/ERC20.sol\":10828:10852  currentAllowance - value */\n      sub\n        /* \"@openzeppelin/contracts/token/ERC20/ERC20.sol\":10854:10859  false */\n      0x00\n        /* \"@openzeppelin/contracts/token/ERC20/ERC20.sol\":10803:10811  _approve */\n      tag_130\n        /* \"@openzeppelin/contracts/token/ERC20/ERC20.sol\":10803:10860  _approve(owner, spender, currentAllowance - value, false) */\n      jump\t// in\n    tag_137:\n        /* \"@openzeppelin/contracts/token/ERC20/ERC20.sol\":10504:10891  {... */\n      pop\n        /* \"@openzeppelin/contracts/token/ERC20/ERC20.sol\":10415:10891  function _spendAllowance(address owner, address spender, uint256 value) internal virtual {... */\n      pop\n      pop\n      pop\n      jump\t// out\n        /* \"@openzeppelin/contracts/token/ERC20/ERC20.sol\":5393:5693  function _transfer(address from, address to, uint256 value) internal {... */\n    tag_97:\n      sub(shl(0xa0, 0x01), 0x01)\n        /* \"@openzeppelin/contracts/token/ERC20/ERC20.sol\":5476:5494  from == address(0) */\n      dup4\n      and\n        /* \"@openzeppelin/contracts/token/ERC20/ERC20.sol\":5472:5558  if (from == address(0)) {... */\n      tag_139\n      jumpi\n        /* \"@openzeppelin/contracts/token/ERC20/ERC20.sol\":5517:5547  ERC20InvalidSender(address(0)) */\n      mload(0x40)\n      shl(0xe1, 0x4b637e8f)\n      dup2\n      mstore\n        /* \"@openzeppelin/contracts/token/ERC20/ERC20.sol\":5544:5545  0 */\n      0x00\n        /* \"@openzeppelin/contracts/token/ERC20/ERC20.sol\":5517:5547  ERC20InvalidSender(address(0)) */\n      0x04\n      dup3\n      add\n        /* \"#utility.yul\":1440:1491   */\n      mstore\n        /* \"#utility.yul\":1413:1431   */\n      0x24\n      add\n        /* \"@openzeppelin/contracts/token/ERC20/ERC20.sol\":5517:5547  ERC20InvalidSender(address(0)) */\n      tag_101\n        /* \"#utility.yul\":1294:1497   */\n      jump\n        /* \"@openzeppelin/contracts/token/ERC20/ERC20.sol\":5472:5558  if (from == address(0)) {... */\n    tag_139:\n      sub(shl(0xa0, 0x01), 0x01)\n        /* \"@openzeppelin/contracts/token/ERC20/ERC20.sol\":5571:5587  to == address(0) */\n      dup3\n      and\n        /* \"@openzeppelin/contracts/token/ERC20/ERC20.sol\":5567:5653  if (to == address(0)) {... */\n      tag_141\n      jumpi\n        /* \"@openzeppelin/contracts/token/ERC20/ERC20.sol\":5610:5642  ERC20InvalidReceiver(address(0)) */\n      mload(0x40)\n      shl(0xe0, 0xec442f05)\n      dup2\n      mstore\n        /* \"@openzeppelin/contracts/token/ERC20/ERC20.sol\":5639:5640  0 */\n      0x00\n        /* \"@openzeppelin/contracts/token/ERC20/ERC20.sol\":5610:5642  ERC20InvalidReceiver(address(0)) */\n      0x04\n      dup3\n      add\n        /* \"#utility.yul\":1440:1491   */\n      mstore\n        /* \"#utility.yul\":1413:1431   */\n      0x24\n      add\n        /* \"@openzeppelin/contracts/token/ERC20/ERC20.sol\":5610:5642  ERC20InvalidReceiver(address(0)) */\n      tag_101\n        /* \"#utility.yul\":1294:1497   */\n      jump\n        /* \"@openzeppelin/contracts/token/ERC20/ERC20.sol\":5567:5653  if (to == address(0)) {... */\n    tag_141:\n        /* \"@openzeppelin/contracts/token/ERC20/ERC20.sol\":5662:5686  _update(from, to, value) */\n      tag_129\n        /* \"@openzeppelin/contracts/token/ERC20/ERC20.sol\":5670:5674  from */\n      dup4\n        /* \"@openzeppelin/contracts/token/ERC20/ERC20.sol\":5676:5678  to */\n      dup4\n        /* \"@openzeppelin/contracts/token/ERC20/ERC20.sol\":5680:5685  value */\n      dup4\n        /* \"@openzeppelin/contracts/token/ERC20/ERC20.sol\":5662:5669  _update */\n      tag_144\n        /* \"@openzeppelin/contracts/token/ERC20/ERC20.sol\":5662:5686  _update(from, to, value) */\n      jump\t// in\n        /* \"@openzeppelin/contracts/token/ERC20/ERC20.sol\":7984:8190  function _burn(address account, uint256 value) internal {... */\n    tag_104:\n      sub(shl(0xa0, 0x01), 0x01)\n        /* \"@openzeppelin/contracts/token/ERC20/ERC20.sol\":8054:8075  account == address(0) */\n      dup3\n      and\n        /* \"@openzeppelin/contracts/token/ERC20/ERC20.sol\":8050:8139  if (account == address(0)) {... */\n      tag_146\n      jumpi\n        /* \"@openzeppelin/contracts/token/ERC20/ERC20.sol\":8098:8128  ERC20InvalidSender(address(0)) */\n      mload(0x40)\n      shl(0xe1, 0x4b637e8f)\n      dup2\n      mstore\n        /* \"@openzeppelin/contracts/token/ERC20/ERC20.sol\":8125:8126  0 */\n      0x00\n        /* \"@openzeppelin/contracts/token/ERC20/ERC20.sol\":8098:8128  ERC20InvalidSender(address(0)) */\n      0x04\n      dup3\n      add\n        /* \"#utility.yul\":1440:1491   */\n      mstore\n        /* \"#utility.yul\":1413:1431   */\n      0x24\n      add\n        /* \"@openzeppelin/contracts/token/ERC20/ERC20.sol\":8098:8128  ERC20InvalidSender(address(0)) */\n      tag_101\n        /* \"#utility.yul\":1294:1497   */\n      jump\n        /* \"@openzeppelin/contracts/token/ERC20/ERC20.sol\":8050:8139  if (account == address(0)) {... */\n    tag_146:\n        /* \"@openzeppelin/contracts/token/ERC20/ERC20.sol\":8148:8183  _update(account, address(0), value) */\n      tag_106\n        /* \"@openzeppelin/contracts/token/ERC20/ERC20.sol\":8156:8163  account */\n      dup3\n        /* \"@openzeppelin/contracts/token/ERC20/ERC20.sol\":8173:8174  0 */\n      0x00\n        /* \"@openzeppelin/contracts/token/ERC20/ERC20.sol\":8177:8182  value */\n      dup4\n        /* \"@openzeppelin/contracts/token/ERC20/ERC20.sol\":8148:8155  _update */\n      tag_144\n        /* \"@openzeppelin/contracts/token/ERC20/ERC20.sol\":8148:8183  _update(account, address(0), value) */\n      jump\t// in\n        /* \"@openzeppelin/contracts/token/ERC20/ERC20.sol\":7458:7666  function _mint(address account, uint256 value) internal {... */\n    tag_113:\n      sub(shl(0xa0, 0x01), 0x01)\n        /* \"@openzeppelin/contracts/token/ERC20/ERC20.sol\":7528:7549  account == address(0) */\n      dup3\n      and\n        /* \"@openzeppelin/contracts/token/ERC20/ERC20.sol\":7524:7615  if (account == address(0)) {... */\n      tag_150\n      jumpi\n        /* \"@openzeppelin/contracts/token/ERC20/ERC20.sol\":7572:7604  ERC20InvalidReceiver(address(0)) */\n      mload(0x40)\n      shl(0xe0, 0xec442f05)\n      dup2\n      mstore\n        /* \"@openzeppelin/contracts/token/ERC20/ERC20.sol\":7601:7602  0 */\n      0x00\n        /* \"@openzeppelin/contracts/token/ERC20/ERC20.sol\":7572:7604  ERC20InvalidReceiver(address(0)) */\n      0x04\n      dup3\n      add\n        /* \"#utility.yul\":1440:1491   */\n      mstore\n        /* \"#utility.yul\":1413:1431   */\n      0x24\n      add\n        /* \"@openzeppelin/contracts/token/ERC20/ERC20.sol\":7572:7604  ERC20InvalidReceiver(address(0)) */\n      tag_101\n        /* \"#utility.yul\":1294:1497   */\n      jump\n        /* \"@openzeppelin/contracts/token/ERC20/ERC20.sol\":7524:7615  if (account == address(0)) {... */\n    tag_150:\n        /* \"@openzeppelin/contracts/token/ERC20/ERC20.sol\":7624:7659  _update(address(0), account, value) */\n      tag_106\n        /* \"@openzeppelin/contracts/token/ERC20/ERC20.sol\":7640:7641  0 */\n      0x00\n        /* \"@openzeppelin/contracts/token/ERC20/ERC20.sol\":7644:7651  account */\n      dup4\n        /* \"@openzeppelin/contracts/token/ERC20/ERC20.sol\":7653:7658  value */\n      dup4\n        /* \"@openzeppelin/contracts/token/ERC20/ERC20.sol\":7624:7631  _update */\n      tag_144\n        /* \"@openzeppelin/contracts/token/ERC20/ERC20.sol\":7624:7659  _update(address(0), account, value) */\n      jump\t// in\n        /* \"@openzeppelin/contracts/token/ERC20/ERC20.sol\":9701:10133  function _approve(address owner, address spender, uint256 value, bool emitEvent) internal virtual {... */\n    tag_130:\n      sub(shl(0xa0, 0x01), 0x01)\n        /* \"@openzeppelin/contracts/token/ERC20/ERC20.sol\":9813:9832  owner == address(0) */\n      dup5\n      and\n        /* \"@openzeppelin/contracts/token/ERC20/ERC20.sol\":9809:9898  if (owner == address(0)) {... */\n      tag_154\n      jumpi\n        /* \"@openzeppelin/contracts/token/ERC20/ERC20.sol\":9855:9887  ERC20InvalidApprover(address(0)) */\n      mload(0x40)\n      shl(0xe0, 0xe602df05)\n      dup2\n      mstore\n        /* \"@openzeppelin/contracts/token/ERC20/ERC20.sol\":9884:9885  0 */\n      0x00\n        /* \"@openzeppelin/contracts/token/ERC20/ERC20.sol\":9855:9887  ERC20InvalidApprover(address(0)) */\n      0x04\n      dup3\n      add\n        /* \"#utility.yul\":1440:1491   */\n      mstore\n        /* \"#utility.yul\":1413:1431   */\n      0x24\n      add\n        /* \"@openzeppelin/contracts/token/ERC20/ERC20.sol\":9855:9887  ERC20InvalidApprover(address(0)) */\n      tag_101\n        /* \"#utility.yul\":1294:1497   */\n      jump\n        /* \"@openzeppelin/contracts/token/ERC20/ERC20.sol\":9809:9898  if (owner == address(0)) {... */\n    tag_154:\n      sub(shl(0xa0, 0x01), 0x01)\n        /* \"@openzeppelin/contracts/token/ERC20/ERC20.sol\":9911:9932  spender == address(0) */\n      dup4\n      and\n        /* \"@openzeppelin/contracts/token/ERC20/ERC20.sol\":9907:9997  if (spender == address(0)) {... */\n      tag_156\n      jumpi\n        /* \"@openzeppelin/contracts/token/ERC20/ERC20.sol\":9955:9986  ERC20InvalidSpender(address(0)) */\n      mload(0x40)\n      shl(0xe1, 0x4a1406b1)\n      dup2\n      mstore\n        /* \"@openzeppelin/contracts/token/ERC20/ERC20.sol\":9983:9984  0 */\n      0x00\n        /* \"@openzeppelin/contracts/token/ERC20/ERC20.sol\":9955:9986  ERC20InvalidSpender(address(0)) */\n      0x04\n      dup3\n      add\n        /* \"#utility.yul\":1440:1491   */\n      mstore\n        /* \"#utility.yul\":1413:1431   */\n      0x24\n      add\n        /* \"@openzeppelin/contracts/token/ERC20/ERC20.sol\":9955:9986  ERC20InvalidSpender(address(0)) */\n      tag_101\n        /* \"#utility.yul\":1294:1497   */\n      jump\n        /* \"@openzeppelin/contracts/token/ERC20/ERC20.sol\":9907:9997  if (spender == address(0)) {... */\n    tag_156:\n      sub(shl(0xa0, 0x01), 0x01)\n        /* \"@openzeppelin/contracts/token/ERC20/ERC20.sol\":10006:10024  _allowances[owner] */\n      dup1\n      dup6\n      and\n      0x00\n      swap1\n      dup2\n      mstore\n        /* \"@openzeppelin/contracts/token/ERC20/ERC20.sol\":10006:10017  _allowances */\n      0x01\n        /* \"@openzeppelin/contracts/token/ERC20/ERC20.sol\":10006:10024  _allowances[owner] */\n      0x20\n      swap1\n      dup2\n      mstore\n      0x40\n      dup1\n      dup4\n      keccak256\n        /* \"@openzeppelin/contracts/token/ERC20/ERC20.sol\":10006:10033  _allowances[owner][spender] */\n      swap4\n      dup8\n      and\n      dup4\n      mstore\n      swap3\n      swap1\n      mstore\n      keccak256\n        /* \"@openzeppelin/contracts/token/ERC20/ERC20.sol\":10006:10041  _allowances[owner][spender] = value */\n      dup3\n      swap1\n      sstore\n        /* \"@openzeppelin/contracts/token/ERC20/ERC20.sol\":10051:10127  if (emitEvent) {... */\n      dup1\n      iszero\n      tag_137\n      jumpi\n        /* \"@openzeppelin/contracts/token/ERC20/ERC20.sol\":10101:10108  spender */\n      dup3\n      sub(shl(0xa0, 0x01), 0x01)\n        /* \"@openzeppelin/contracts/token/ERC20/ERC20.sol\":10085:10116  Approval(owner, spender, value) */\n      and\n        /* \"@openzeppelin/contracts/token/ERC20/ERC20.sol\":10094:10099  owner */\n      dup5\n      sub(shl(0xa0, 0x01), 0x01)\n        /* \"@openzeppelin/contracts/token/ERC20/ERC20.sol\":10085:10116  Approval(owner, spender, value) */\n      and\n      0x8c5be1e5ebec7d5bd14f71427d1e84f3dd0314c0f7b2291e5b200ac8c7c3b925\n        /* \"@openzeppelin/contracts/token/ERC20/ERC20.sol\":10110:10115  value */\n      dup5\n        /* \"@openzeppelin/contracts/token/ERC20/ERC20.sol\":10085:10116  Approval(owner, spender, value) */\n      mload(0x40)\n      tag_159\n      swap2\n        /* \"#utility.yul\":1258:1283   */\n      dup2\n      mstore\n        /* \"#utility.yul\":1246:1248   */\n      0x20\n        /* \"#utility.yul\":1231:1249   */\n      add\n      swap1\n        /* \"#utility.yul\":1112:1289   */\n      jump\n        /* \"@openzeppelin/contracts/token/ERC20/ERC20.sol\":10085:10116  Approval(owner, spender, value) */\n    tag_159:\n      mload(0x40)\n      dup1\n      swap2\n      sub\n      swap1\n      log3\n        /* \"@openzeppelin/contracts/token/ERC20/ERC20.sol\":9701:10133  function _approve(address owner, address spender, uint256 value, bool emitEvent) internal virtual {... */\n      pop\n      pop\n      pop\n      pop\n      jump\t// out\n        /* \"@openzeppelin/contracts/token/ERC20/ERC20.sol\":6008:7115  function _update(address from, address to, uint256 value) internal virtual {... */\n    tag_144:\n      sub(shl(0xa0, 0x01), 0x01)\n        /* \"@openzeppelin/contracts/token/ERC20/ERC20.sol\":6097:6115  from == address(0) */\n      dup4\n      and\n        /* \"@openzeppelin/contracts/token/ERC20/ERC20.sol\":6093:6633  if (from == address(0)) {... */\n      tag_161\n      jumpi\n        /* \"@openzeppelin/contracts/token/ERC20/ERC20.sol\":6249:6254  value */\n      dup1\n        /* \"@openzeppelin/contracts/token/ERC20/ERC20.sol\":6233:6245  _totalSupply */\n      0x02\n      0x00\n        /* \"@openzeppelin/contracts/token/ERC20/ERC20.sol\":6233:6254  _totalSupply += value */\n      dup3\n      dup3\n      sload\n      tag_162\n      swap2\n      swap1\n      tag_163\n      jump\t// in\n    tag_162:\n      swap1\n      swap2\n      sstore\n      pop\n        /* \"@openzeppelin/contracts/token/ERC20/ERC20.sol\":6093:6633  if (from == address(0)) {... */\n      tag_164\n      swap1\n      pop\n      jump\n    tag_161:\n      sub(shl(0xa0, 0x01), 0x01)\n        /* \"@openzeppelin/contracts/token/ERC20/ERC20.sol\":6307:6322  _balances[from] */\n      dup4\n      and\n        /* \"@openzeppelin/contracts/token/ERC20/ERC20.sol\":6285:6304  uint256 fromBalance */\n      0x00\n        /* \"@openzeppelin/contracts/token/ERC20/ERC20.sol\":6307:6322  _balances[from] */\n      swap1\n      dup2\n      mstore\n      0x20\n      dup2\n      swap1\n      mstore\n      0x40\n      swap1\n      keccak256\n      sload\n        /* \"@openzeppelin/contracts/token/ERC20/ERC20.sol\":6340:6359  fromBalance < value */\n      dup2\n      dup2\n      lt\n        /* \"@openzeppelin/contracts/token/ERC20/ERC20.sol\":6336:6451  if (fromBalance < value) {... */\n      iszero\n      tag_165\n      jumpi\n        /* \"@openzeppelin/contracts/token/ERC20/ERC20.sol\":6386:6436  ERC20InsufficientBalance(from, fromBalance, value) */\n      mload(0x40)\n      shl(0xe2, 0x391434e3)\n      dup2\n      mstore\n      sub(shl(0xa0, 0x01), 0x01)\n        /* \"#utility.yul\":4049:4081   */\n      dup6\n      and\n        /* \"@openzeppelin/contracts/token/ERC20/ERC20.sol\":6386:6436  ERC20InsufficientBalance(from, fromBalance, value) */\n      0x04\n      dup3\n      add\n        /* \"#utility.yul\":4031:4082   */\n      mstore\n        /* \"#utility.yul\":4098:4116   */\n      0x24\n      dup2\n      add\n        /* \"#utility.yul\":4091:4125   */\n      dup3\n      swap1\n      mstore\n        /* \"#utility.yul\":4141:4159   */\n      0x44\n      dup2\n      add\n        /* \"#utility.yul\":4134:4168   */\n      dup4\n      swap1\n      mstore\n        /* \"#utility.yul\":4004:4022   */\n      0x64\n      add\n        /* \"@openzeppelin/contracts/token/ERC20/ERC20.sol\":6386:6436  ERC20InsufficientBalance(from, fromBalance, value) */\n      tag_101\n        /* \"#utility.yul\":3829:4174   */\n      jump\n        /* \"@openzeppelin/contracts/token/ERC20/ERC20.sol\":6336:6451  if (fromBalance < value) {... */\n    tag_165:\n      sub(shl(0xa0, 0x01), 0x01)\n        /* \"@openzeppelin/contracts/token/ERC20/ERC20.sol\":6571:6586  _balances[from] */\n      dup5\n      and\n        /* \"@openzeppelin/contracts/token/ERC20/ERC20.sol\":6571:6580  _balances */\n      0x00\n        /* \"@openzeppelin/contracts/token/ERC20/ERC20.sol\":6571:6586  _balances[from] */\n      swap1\n      dup2\n      mstore\n      0x20\n      dup2\n      swap1\n      mstore\n      0x40\n      swap1\n      keccak256\n        /* \"@openzeppelin/contracts/token/ERC20/ERC20.sol\":6589:6608  fromBalance - value */\n      swap1\n      dup3\n      swap1\n      sub\n        /* \"@openzeppelin/contracts/token/ERC20/ERC20.sol\":6571:6608  _balances[from] = fromBalance - value */\n      swap1\n      sstore\n        /* \"@openzeppelin/contracts/token/ERC20/ERC20.sol\":6093:6633  if (from == address(0)) {... */\n    tag_164:\n      sub(shl(0xa0, 0x01), 0x01)\n        /* \"@openzeppelin/contracts/token/ERC20/ERC20.sol\":6647:6663  to == address(0) */\n      dup3\n      and\n        /* \"@openzeppelin/contracts/token/ERC20/ERC20.sol\":6643:7068  if (to == address(0)) {... */\n      tag_167\n      jumpi\n        /* \"@openzeppelin/contracts/token/ERC20/ERC20.sol\":6810:6822  _totalSupply */\n      0x02\n        /* \"@openzeppelin/contracts/token/ERC20/ERC20.sol\":6810:6831  _totalSupply -= value */\n      dup1\n      sload\n      dup3\n      swap1\n      sub\n      swap1\n      sstore\n        /* \"@openzeppelin/contracts/token/ERC20/ERC20.sol\":6643:7068  if (to == address(0)) {... */\n      jump(tag_168)\n    tag_167:\n      sub(shl(0xa0, 0x01), 0x01)\n        /* \"@openzeppelin/contracts/token/ERC20/ERC20.sol\":7021:7034  _balances[to] */\n      dup3\n      and\n        /* \"@openzeppelin/contracts/token/ERC20/ERC20.sol\":7021:7030  _balances */\n      0x00\n        /* \"@openzeppelin/contracts/token/ERC20/ERC20.sol\":7021:7034  _balances[to] */\n      swap1\n      dup2\n      mstore\n      0x20\n      dup2\n      swap1\n      mstore\n      0x40\n      swap1\n      keccak256\n        /* \"@openzeppelin/contracts/token/ERC20/ERC20.sol\":7021:7043  _balances[to] += value */\n      dup1\n      sload\n      dup3\n      add\n      swap1\n      sstore\n        /* \"@openzeppelin/contracts/token/ERC20/ERC20.sol\":6643:7068  if (to == address(0)) {... */\n    tag_168:\n        /* \"@openzeppelin/contracts/token/ERC20/ERC20.sol\":7098:7100  to */\n      dup2\n      sub(shl(0xa0, 0x01), 0x01)\n        /* \"@openzeppelin/contracts/token/ERC20/ERC20.sol\":7083:7108  Transfer(from, to, value) */\n      and\n        /* \"@openzeppelin/contracts/token/ERC20/ERC20.sol\":7092:7096  from */\n      dup4\n      sub(shl(0xa0, 0x01), 0x01)\n        /* \"@openzeppelin/contracts/token/ERC20/ERC20.sol\":7083:7108  Transfer(from, to, value) */\n      and\n      0xddf252ad1be2c89b69c2b068fc378daa952ba7f163c4a11628f55a4df523b3ef\n        /* \"@openzeppelin/contracts/token/ERC20/ERC20.sol\":7102:7107  value */\n      dup4\n        /* \"@openzeppelin/contracts/token/ERC20/ERC20.sol\":7083:7108  Transfer(from, to, value) */\n      mload(0x40)\n      tag_169\n      swap2\n        /* \"#utility.yul\":1258:1283   */\n      dup2\n      mstore\n        /* \"#utility.yul\":1246:1248   */\n      0x20\n        /* \"#utility.yul\":1231:1249   */\n      add\n      swap1\n        /* \"#utility.yul\":1112:1289   */\n      jump\n        /* \"@openzeppelin/contracts/token/ERC20/ERC20.sol\":7083:7108  Transfer(from, to, value) */\n    tag_169:\n      mload(0x40)\n      dup1\n      swap2\n      sub\n      swap1\n      log3\n        /* \"@openzeppelin/contracts/token/ERC20/ERC20.sol\":6008:7115  function _update(address from, address to, uint256 value) internal virtual {... */\n      pop\n      pop\n      pop\n      jump\t// out\n        /* \"#utility.yul\":14:432   */\n    tag_22:\n        /* \"#utility.yul\":163:165   */\n      0x20\n        /* \"#utility.yul\":152:161   */\n      dup2\n        /* \"#utility.yul\":145:166   */\n      mstore\n        /* \"#utility.yul\":126:130   */\n      0x00\n        /* \"#utility.yul\":195:201   */\n      dup3\n        /* \"#utility.yul\":189:202   */\n      mload\n        /* \"#utility.yul\":238:244   */\n      dup1\n        /* \"#utility.yul\":233:235   */\n      0x20\n        /* \"#utility.yul\":222:231   */\n      dup5\n        /* \"#utility.yul\":218:236   */\n      add\n        /* \"#utility.yul\":211:245   */\n      mstore\n        /* \"#utility.yul\":297:303   */\n      dup1\n        /* \"#utility.yul\":292:294   */\n      0x20\n        /* \"#utility.yul\":284:290   */\n      dup6\n        /* \"#utility.yul\":280:295   */\n      add\n        /* \"#utility.yul\":275:277   */\n      0x40\n        /* \"#utility.yul\":264:273   */\n      dup6\n        /* \"#utility.yul\":260:278   */\n      add\n        /* \"#utility.yul\":254:304   */\n      mcopy\n        /* \"#utility.yul\":353:354   */\n      0x00\n        /* \"#utility.yul\":348:350   */\n      0x40\n        /* \"#utility.yul\":339:345   */\n      dup3\n        /* \"#utility.yul\":328:337   */\n      dup6\n        /* \"#utility.yul\":324:346   */\n      add\n        /* \"#utility.yul\":320:351   */\n      add\n        /* \"#utility.yul\":313:355   */\n      mstore\n        /* \"#utility.yul\":423:425   */\n      0x40\n        /* \"#utility.yul\":416:418   */\n      0x1f\n        /* \"#utility.yul\":412:419   */\n      not\n        /* \"#utility.yul\":407:409   */\n      0x1f\n        /* \"#utility.yul\":399:405   */\n      dup4\n        /* \"#utility.yul\":395:410   */\n      add\n        /* \"#utility.yul\":391:420   */\n      and\n        /* \"#utility.yul\":380:389   */\n      dup5\n        /* \"#utility.yul\":376:421   */\n      add\n        /* \"#utility.yul\":372:426   */\n      add\n        /* \"#utility.yul\":364:426   */\n      swap2\n      pop\n      pop\n        /* \"#utility.yul\":14:432   */\n      swap3\n      swap2\n      pop\n      pop\n      jump\t// out\n        /* \"#utility.yul\":437:610   */\n    tag_170:\n        /* \"#utility.yul\":505:525   */\n      dup1\n      calldataload\n      sub(shl(0xa0, 0x01), 0x01)\n        /* \"#utility.yul\":554:585   */\n      dup2\n      and\n        /* \"#utility.yul\":544:586   */\n      dup2\n      eq\n        /* \"#utility.yul\":534:604   */\n      tag_174\n      jumpi\n        /* \"#utility.yul\":600:601   */\n      0x00\n        /* \"#utility.yul\":597:598   */\n      dup1\n        /* \"#utility.yul\":590:602   */\n      revert\n        /* \"#utility.yul\":534:604   */\n    tag_174:\n        /* \"#utility.yul\":437:610   */\n      swap2\n      swap1\n      pop\n      jump\t// out\n        /* \"#utility.yul\":615:915   */\n    tag_26:\n        /* \"#utility.yul\":683:689   */\n      0x00\n        /* \"#utility.yul\":691:697   */\n      dup1\n        /* \"#utility.yul\":744:746   */\n      0x40\n        /* \"#utility.yul\":732:741   */\n      dup4\n        /* \"#utility.yul\":723:730   */\n      dup6\n        /* \"#utility.yul\":719:742   */\n      sub\n        /* \"#utility.yul\":715:747   */\n      slt\n        /* \"#utility.yul\":712:764   */\n      iszero\n      tag_176\n      jumpi\n        /* \"#utility.yul\":760:761   */\n      0x00\n        /* \"#utility.yul\":757:758   */\n      dup1\n        /* \"#utility.yul\":750:762   */\n      revert\n        /* \"#utility.yul\":712:764   */\n    tag_176:\n        /* \"#utility.yul\":783:812   */\n      tag_177\n        /* \"#utility.yul\":802:811   */\n      dup4\n        /* \"#utility.yul\":783:812   */\n      tag_170\n      jump\t// in\n    tag_177:\n        /* \"#utility.yul\":773:812   */\n      swap5\n        /* \"#utility.yul\":881:883   */\n      0x20\n        /* \"#utility.yul\":866:884   */\n      swap4\n      swap1\n      swap4\n      add\n        /* \"#utility.yul\":853:885   */\n      calldataload\n      swap4\n      pop\n      pop\n      pop\n        /* \"#utility.yul\":615:915   */\n      jump\t// out\n        /* \"#utility.yul\":1502:1876   */\n    tag_43:\n        /* \"#utility.yul\":1579:1585   */\n      0x00\n        /* \"#utility.yul\":1587:1593   */\n      dup1\n        /* \"#utility.yul\":1595:1601   */\n      0x00\n        /* \"#utility.yul\":1648:1650   */\n      0x60\n        /* \"#utility.yul\":1636:1645   */\n      dup5\n        /* \"#utility.yul\":1627:1634   */\n      dup7\n        /* \"#utility.yul\":1623:1646   */\n      sub\n        /* \"#utility.yul\":1619:1651   */\n      slt\n        /* \"#utility.yul\":1616:1668   */\n      iszero\n      tag_182\n      jumpi\n        /* \"#utility.yul\":1664:1665   */\n      0x00\n        /* \"#utility.yul\":1661:1662   */\n      dup1\n        /* \"#utility.yul\":1654:1666   */\n      revert\n        /* \"#utility.yul\":1616:1668   */\n    tag_182:\n        /* \"#utility.yul\":1687:1716   */\n      tag_183\n        /* \"#utility.yul\":1706:1715   */\n      dup5\n        /* \"#utility.yul\":1687:1716   */\n      tag_170\n      jump\t// in\n    tag_183:\n        /* \"#utility.yul\":1677:1716   */\n      swap3\n      pop\n        /* \"#utility.yul\":1735:1773   */\n      tag_184\n        /* \"#utility.yul\":1769:1771   */\n      0x20\n        /* \"#utility.yul\":1758:1767   */\n      dup6\n        /* \"#utility.yul\":1754:1772   */\n      add\n        /* \"#utility.yul\":1735:1773   */\n      tag_170\n      jump\t// in\n    tag_184:\n        /* \"#utility.yul\":1502:1876   */\n      swap3\n      swap6\n        /* \"#utility.yul\":1725:1773   */\n      swap3\n      swap5\n      pop\n      pop\n      pop\n        /* \"#utility.yul\":1842:1844   */\n      0x40\n        /* \"#utility.yul\":1827:1845   */\n      swap2\n      swap1\n      swap2\n      add\n        /* \"#utility.yul\":1814:1846   */\n      calldataload\n      swap1\n        /* \"#utility.yul\":1502:1876   */\n      jump\t// out\n        /* \"#utility.yul\":1881:2107   */\n    tag_49:\n        /* \"#utility.yul\":1940:1946   */\n      0x00\n        /* \"#utility.yul\":1993:1995   */\n      0x20\n        /* \"#utility.yul\":1981:1990   */\n      dup3\n        /* \"#utility.yul\":1972:1979   */\n      dup5\n        /* \"#utility.yul\":1968:1991   */\n      sub\n        /* \"#utility.yul\":1964:1996   */\n      slt\n        /* \"#utility.yul\":1961:2013   */\n      iszero\n      tag_186\n      jumpi\n        /* \"#utility.yul\":2009:2010   */\n      0x00\n        /* \"#utility.yul\":2006:2007   */\n      dup1\n        /* \"#utility.yul\":1999:2011   */\n      revert\n        /* \"#utility.yul\":1961:2013   */\n    tag_186:\n      pop\n        /* \"#utility.yul\":2054:2077   */\n      calldataload\n      swap2\n        /* \"#utility.yul\":1881:2107   */\n      swap1\n      pop\n      jump\t// out\n        /* \"#utility.yul\":2301:2487   */\n    tag_61:\n        /* \"#utility.yul\":2360:2366   */\n      0x00\n        /* \"#utility.yul\":2413:2415   */\n      0x20\n        /* \"#utility.yul\":2401:2410   */\n      dup3\n        /* \"#utility.yul\":2392:2399   */\n      dup5\n        /* \"#utility.yul\":2388:2411   */\n      sub\n        /* \"#utility.yul\":2384:2416   */\n      slt\n        /* \"#utility.yul\":2381:2433   */\n      iszero\n      tag_189\n      jumpi\n        /* \"#utility.yul\":2429:2430   */\n      0x00\n        /* \"#utility.yul\":2426:2427   */\n      dup1\n        /* \"#utility.yul\":2419:2431   */\n      revert\n        /* \"#utility.yul\":2381:2433   */\n    tag_189:\n        /* \"#utility.yul\":2452:2481   */\n      tag_190\n        /* \"#utility.yul\":2471:2480   */\n      dup3\n        /* \"#utility.yul\":2452:2481   */\n      tag_170\n      jump\t// in\n    tag_190:\n        /* \"#utility.yul\":2442:2481   */\n      swap4\n        /* \"#utility.yul\":2301:2487   */\n      swap3\n      pop\n      pop\n      pop\n      jump\t// out\n        /* \"#utility.yul\":2492:2752   */\n    tag_76:\n        /* \"#utility.yul\":2560:2566   */\n      0x00\n        /* \"#utility.yul\":2568:2574   */\n      dup1\n        /* \"#utility.yul\":2621:2623   */\n      0x40\n        /* \"#utility.yul\":2609:2618   */\n      dup4\n        /* \"#utility.yul\":2600:2607   */\n      dup6\n        /* \"#utility.yul\":2596:2619   */\n      sub\n        /* \"#utility.yul\":2592:2624   */\n      slt\n        /* \"#utility.yul\":2589:2641   */\n      iszero\n      tag_192\n      jumpi\n        /* \"#utility.yul\":2637:2638   */\n      0x00\n        /* \"#utility.yul\":2634:2635   */\n      dup1\n        /* \"#utility.yul\":2627:2639   */\n      revert\n        /* \"#utility.yul\":2589:2641   */\n    tag_192:\n        /* \"#utility.yul\":2660:2689   */\n      tag_193\n        /* \"#utility.yul\":2679:2688   */\n      dup4\n        /* \"#utility.yul\":2660:2689   */\n      tag_170\n      jump\t// in\n    tag_193:\n        /* \"#utility.yul\":2650:2689   */\n      swap2\n      pop\n        /* \"#utility.yul\":2708:2746   */\n      tag_194\n        /* \"#utility.yul\":2742:2744   */\n      0x20\n        /* \"#utility.yul\":2731:2740   */\n      dup5\n        /* \"#utility.yul\":2727:2745   */\n      add\n        /* \"#utility.yul\":2708:2746   */\n      tag_170\n      jump\t// in\n    tag_194:\n        /* \"#utility.yul\":2698:2746   */\n      swap1\n      pop\n        /* \"#utility.yul\":2492:2752   */\n      swap3\n      pop\n      swap3\n      swap1\n      pop\n      jump\t// out\n        /* \"#utility.yul\":2757:3137   */\n    tag_81:\n        /* \"#utility.yul\":2836:2837   */\n      0x01\n        /* \"#utility.yul\":2832:2844   */\n      dup2\n      dup2\n      shr\n      swap1\n        /* \"#utility.yul\":2879:2891   */\n      dup3\n      and\n      dup1\n        /* \"#utility.yul\":2900:2961   */\n      tag_196\n      jumpi\n        /* \"#utility.yul\":2954:2958   */\n      0x7f\n        /* \"#utility.yul\":2946:2952   */\n      dup3\n        /* \"#utility.yul\":2942:2959   */\n      and\n        /* \"#utility.yul\":2932:2959   */\n      swap2\n      pop\n        /* \"#utility.yul\":2900:2961   */\n    tag_196:\n        /* \"#utility.yul\":3007:3009   */\n      0x20\n        /* \"#utility.yul\":2999:3005   */\n      dup3\n        /* \"#utility.yul\":2996:3010   */\n      lt\n        /* \"#utility.yul\":2976:2994   */\n      dup2\n        /* \"#utility.yul\":2973:3011   */\n      sub\n        /* \"#utility.yul\":2970:3131   */\n      tag_197\n      jumpi\n        /* \"#utility.yul\":3053:3063   */\n      0x4e487b71\n        /* \"#utility.yul\":3048:3051   */\n      0xe0\n        /* \"#utility.yul\":3044:3064   */\n      shl\n        /* \"#utility.yul\":3041:3042   */\n      0x00\n        /* \"#utility.yul\":3034:3065   */\n      mstore\n        /* \"#utility.yul\":3088:3092   */\n      0x22\n        /* \"#utility.yul\":3085:3086   */\n      0x04\n        /* \"#utility.yul\":3078:3093   */\n      mstore\n        /* \"#utility.yul\":3116:3120   */\n      0x24\n        /* \"#utility.yul\":3113:3114   */\n      0x00\n        /* \"#utility.yul\":3106:3121   */\n      revert\n        /* \"#utility.yul\":2970:3131   */\n    tag_197:\n      pop\n        /* \"#utility.yul\":2757:3137   */\n      swap2\n      swap1\n      pop\n      jump\t// out\n        /* \"#utility.yul\":4179:4401   */\n    tag_163:\n        /* \"#utility.yul\":4244:4253   */\n      dup1\n      dup3\n      add\n        /* \"#utility.yul\":4265:4275   */\n      dup1\n      dup3\n      gt\n        /* \"#utility.yul\":4262:4395   */\n      iszero\n      tag_86\n      jumpi\n        /* \"#utility.yul\":4317:4327   */\n      0x4e487b71\n        /* \"#utility.yul\":4312:4315   */\n      0xe0\n        /* \"#utility.yul\":4308:4328   */\n      shl\n        /* \"#utility.yul\":4305:4306   */\n      0x00\n        /* \"#utility.yul\":4298:4329   */\n      mstore\n        /* \"#utility.yul\":4352:4356   */\n      0x11\n        /* \"#utility.yul\":4349:4350   */\n      0x04\n        /* \"#utility.yul\":4342:4357   */\n      mstore\n        /* \"#utility.yul\":4380:4384   */\n      0x24\n        /* \"#utility.yul\":4377:4378   */\n      0x00\n        /* \"#utility.yul\":4370:4385   */\n      revert\n\n    auxdata: 0xa2646970667358221220f0e080dd87e207f5214ebcd3b4aad85ad132c639093c20ad36700076a0f01f9864736f6c634300081a0033\n}\n",
				"bytecode": {
					"linkReferences": {},
					"object": "608060405234801561000f575f80fd5b50604051610b9f380380610b9f83398101604081905261002e916100bc565b604051806040016040528060128152602001710a6e8c2d6cac840a6cae0ded8d2c2408aa8960731b815250604051806040016040528060058152602001640e6e88aa8960db1b81525081600390816100869190610181565b5060046100938282610181565b5050600580546001600160a01b0319166001600160a01b0393909316929092179091555061023b565b5f602082840312156100cc575f80fd5b81516001600160a01b03811681146100e2575f80fd5b9392505050565b634e487b7160e01b5f52604160045260245ffd5b600181811c9082168061011157607f821691505b60208210810361012f57634e487b7160e01b5f52602260045260245ffd5b50919050565b601f82111561017c57805f5260205f20601f840160051c8101602085101561015a5750805b601f840160051c820191505b81811015610179575f8155600101610166565b50505b505050565b81516001600160401b0381111561019a5761019a6100e9565b6101ae816101a884546100fd565b84610135565b6020601f8211600181146101e0575f83156101c95750848201515b5f19600385901b1c1916600184901b178455610179565b5f84815260208120601f198516915b8281101561020f57878501518255602094850194600190920191016101ef565b508482101561022c57868401515f19600387901b60f8161c191681555b50505050600190811b01905550565b610957806102485f395ff3fe6080604052600436106100a8575f3560e01c8063313ce56711610062578063313ce567146101a15780633a4b66f1146101bc57806370a08231146101c457806395d89b41146101f8578063a9059cbb1461020c578063dd62ed3e1461022b575f80fd5b806306fdde03146100b3578063095ea7b3146100dd57806318160ddd1461010c5780631e092efb1461012a57806323b872dd146101615780632e17de7814610180575f80fd5b366100af57005b5f80fd5b3480156100be575f80fd5b506100c761026f565b6040516100d491906107b0565b60405180910390f35b3480156100e8575f80fd5b506100fc6100f7366004610800565b6102ff565b60405190151581526020016100d4565b348015610117575f80fd5b506002545b6040519081526020016100d4565b348015610135575f80fd5b50600554610149906001600160a01b031681565b6040516001600160a01b0390911681526020016100d4565b34801561016c575f80fd5b506100fc61017b366004610828565b610318565b34801561018b575f80fd5b5061019f61019a366004610862565b61033b565b005b3480156101ac575f80fd5b50604051601281526020016100d4565b61019f6103c9565b3480156101cf575f80fd5b5061011c6101de366004610879565b6001600160a01b03165f9081526020819052604090205490565b348015610203575f80fd5b506100c7610449565b348015610217575f80fd5b506100fc610226366004610800565b610458565b348015610236575f80fd5b5061011c610245366004610899565b6001600160a01b039182165f90815260016020908152604080832093909416825291909152205490565b60606003805461027e906108ca565b80601f01602080910402602001604051908101604052809291908181526020018280546102aa906108ca565b80156102f55780601f106102cc576101008083540402835291602001916102f5565b820191905f5260205f20905b8154815290600101906020018083116102d857829003601f168201915b5050505050905090565b5f3361030c818585610465565b60019150505b92915050565b5f33610325858285610477565b6103308585856104f3565b506001949350505050565b335f908152602081905260409020548111156103915760405162461bcd60e51b815260206004820152601060248201526f09cdee840cadcdeeaced040e6e88aa8960831b60448201526064015b60405180910390fd5b61039b3382610550565b604051339082156108fc029083905f818181858888f193505050501580156103c5573d5f803e3d5ffd5b5050565b5f34116104085760405162461bcd60e51b815260206004820152600d60248201526c09aeae6e840e6cadcc8408aa89609b1b6044820152606401610388565b346104133382610584565b6005546040516001600160a01b03909116903480156108fc02915f818181858888f193505050501580156103c5573d5f803e3d5ffd5b60606004805461027e906108ca565b5f3361030c8185856104f3565b61047283838360016105b8565b505050565b6001600160a01b038381165f908152600160209081526040808320938616835292905220545f198110156104ed57818110156104df57604051637dc7a0d960e11b81526001600160a01b03841660048201526024810182905260448101839052606401610388565b6104ed84848484035f6105b8565b50505050565b6001600160a01b03831661051c57604051634b637e8f60e11b81525f6004820152602401610388565b6001600160a01b0382166105455760405163ec442f0560e01b81525f6004820152602401610388565b61047283838361068a565b6001600160a01b03821661057957604051634b637e8f60e11b81525f6004820152602401610388565b6103c5825f8361068a565b6001600160a01b0382166105ad5760405163ec442f0560e01b81525f6004820152602401610388565b6103c55f838361068a565b6001600160a01b0384166105e15760405163e602df0560e01b81525f6004820152602401610388565b6001600160a01b03831661060a57604051634a1406b160e11b81525f6004820152602401610388565b6001600160a01b038085165f90815260016020908152604080832093871683529290522082905580156104ed57826001600160a01b0316846001600160a01b03167f8c5be1e5ebec7d5bd14f71427d1e84f3dd0314c0f7b2291e5b200ac8c7c3b9258460405161067c91815260200190565b60405180910390a350505050565b6001600160a01b0383166106b4578060025f8282546106a99190610902565b909155506107249050565b6001600160a01b0383165f90815260208190526040902054818110156107065760405163391434e360e21b81526001600160a01b03851660048201526024810182905260448101839052606401610388565b6001600160a01b0384165f9081526020819052604090209082900390555b6001600160a01b0382166107405760028054829003905561075e565b6001600160a01b0382165f9081526020819052604090208054820190555b816001600160a01b0316836001600160a01b03167fddf252ad1be2c89b69c2b068fc378daa952ba7f163c4a11628f55a4df523b3ef836040516107a391815260200190565b60405180910390a3505050565b602081525f82518060208401528060208501604085015e5f604082850101526040601f19601f83011684010191505092915050565b80356001600160a01b03811681146107fb575f80fd5b919050565b5f8060408385031215610811575f80fd5b61081a836107e5565b946020939093013593505050565b5f805f6060848603121561083a575f80fd5b610843846107e5565b9250610851602085016107e5565b929592945050506040919091013590565b5f60208284031215610872575f80fd5b5035919050565b5f60208284031215610889575f80fd5b610892826107e5565b9392505050565b5f80604083850312156108aa575f80fd5b6108b3836107e5565b91506108c1602084016107e5565b90509250929050565b600181811c908216806108de57607f821691505b6020821081036108fc57634e487b7160e01b5f52602260045260245ffd5b50919050565b8082018082111561031257634e487b7160e01b5f52601160045260245ffdfea2646970667358221220f0e080dd87e207f5214ebcd3b4aad85ad132c639093c20ad36700076a0f01f9864736f6c634300081a0033",
					"opcodes": "PUSH1 0x80 PUSH1 0x40 MSTORE CALLVALUE DUP1 ISZERO PUSH2 0xF JUMPI PUSH0 DUP1 REVERT JUMPDEST POP PUSH1 0x40 MLOAD PUSH2 0xB9F CODESIZE SUB DUP1 PUSH2 0xB9F DUP4 CODECOPY DUP2 ADD PUSH1 0x40 DUP2 SWAP1 MSTORE PUSH2 0x2E SWAP2 PUSH2 0xBC JUMP JUMPDEST PUSH1 0x40 MLOAD DUP1 PUSH1 0x40 ADD PUSH1 0x40 MSTORE DUP1 PUSH1 0x12 DUP2 MSTORE PUSH1 0x20 ADD PUSH18 0xA6E8C2D6CAC840A6CAE0DED8D2C2408AA89 PUSH1 0x73 SHL DUP2 MSTORE POP PUSH1 0x40 MLOAD DUP1 PUSH1 0x40 ADD PUSH1 0x40 MSTORE DUP1 PUSH1 0x5 DUP2 MSTORE PUSH1 0x20 ADD PUSH5 0xE6E88AA89 PUSH1 0xDB SHL DUP2 MSTORE POP DUP2 PUSH1 0x3 SWAP1 DUP2 PUSH2 0x86 SWAP2 SWAP1 PUSH2 0x181 JUMP JUMPDEST POP PUSH1 0x4 PUSH2 0x93 DUP3 DUP3 PUSH2 0x181 JUMP JUMPDEST POP POP PUSH1 0x5 DUP1 SLOAD PUSH1 0x1 PUSH1 0x1 PUSH1 0xA0 SHL SUB NOT AND PUSH1 0x1 PUSH1 0x1 PUSH1 0xA0 SHL SUB SWAP4 SWAP1 SWAP4 AND SWAP3 SWAP1 SWAP3 OR SWAP1 SWAP2 SSTORE POP PUSH2 0x23B JUMP JUMPDEST PUSH0 PUSH1 0x20 DUP3 DUP5 SUB SLT ISZERO PUSH2 0xCC JUMPI PUSH0 DUP1 REVERT JUMPDEST DUP2 MLOAD PUSH1 0x1 PUSH1 0x1 PUSH1 0xA0 SHL SUB DUP2 AND DUP2 EQ PUSH2 0xE2 JUMPI PUSH0 DUP1 REVERT JUMPDEST SWAP4 SWAP3 POP POP POP JUMP JUMPDEST PUSH4 0x4E487B71 PUSH1 0xE0 SHL PUSH0 MSTORE PUSH1 0x41 PUSH1 0x4 MSTORE PUSH1 0x24 PUSH0 REVERT JUMPDEST PUSH1 0x1 DUP2 DUP2 SHR SWAP1 DUP3 AND DUP1 PUSH2 0x111 JUMPI PUSH1 0x7F DUP3 AND SWAP2 POP JUMPDEST PUSH1 0x20 DUP3 LT DUP2 SUB PUSH2 0x12F JUMPI PUSH4 0x4E487B71 PUSH1 0xE0 SHL PUSH0 MSTORE PUSH1 0x22 PUSH1 0x4 MSTORE PUSH1 0x24 PUSH0 REVERT JUMPDEST POP SWAP2 SWAP1 POP JUMP JUMPDEST PUSH1 0x1F DUP3 GT ISZERO PUSH2 0x17C JUMPI DUP1 PUSH0 MSTORE PUSH1 0x20 PUSH0 KECCAK256 PUSH1 0x1F DUP5 ADD PUSH1 0x5 SHR DUP2 ADD PUSH1 0x20 DUP6 LT ISZERO PUSH2 0x15A JUMPI POP DUP1 JUMPDEST PUSH1 0x1F DUP5 ADD PUSH1 0x5 SHR DUP3 ADD SWAP2 POP JUMPDEST DUP2 DUP2 LT ISZERO PUSH2 0x179 JUMPI PUSH0 DUP2 SSTORE PUSH1 0x1 ADD PUSH2 0x166 JUMP JUMPDEST POP POP JUMPDEST POP POP POP JUMP JUMPDEST DUP2 MLOAD PUSH1 0x1 PUSH1 0x1 PUSH1 0x40 SHL SUB DUP2 GT ISZERO PUSH2 0x19A JUMPI PUSH2 0x19A PUSH2 0xE9 JUMP JUMPDEST PUSH2 0x1AE DUP2 PUSH2 0x1A8 DUP5 SLOAD PUSH2 0xFD JUMP JUMPDEST DUP5 PUSH2 0x135 JUMP JUMPDEST PUSH1 0x20 PUSH1 0x1F DUP3 GT PUSH1 0x1 DUP2 EQ PUSH2 0x1E0 JUMPI PUSH0 DUP4 ISZERO PUSH2 0x1C9 JUMPI POP DUP5 DUP3 ADD MLOAD JUMPDEST PUSH0 NOT PUSH1 0x3 DUP6 SWAP1 SHL SHR NOT AND PUSH1 0x1 DUP5 SWAP1 SHL OR DUP5 SSTORE PUSH2 0x179 JUMP JUMPDEST PUSH0 DUP5 DUP2 MSTORE PUSH1 0x20 DUP2 KECCAK256 PUSH1 0x1F NOT DUP6 AND SWAP2 JUMPDEST DUP3 DUP2 LT ISZERO PUSH2 0x20F JUMPI DUP8 DUP6 ADD MLOAD DUP3 SSTORE PUSH1 0x20 SWAP5 DUP6 ADD SWAP5 PUSH1 0x1 SWAP1 SWAP3 ADD SWAP2 ADD PUSH2 0x1EF JUMP JUMPDEST POP DUP5 DUP3 LT ISZERO PUSH2 0x22C JUMPI DUP7 DUP5 ADD MLOAD PUSH0 NOT PUSH1 0x3 DUP8 SWAP1 SHL PUSH1 0xF8 AND SHR NOT AND DUP2 SSTORE JUMPDEST POP POP POP POP PUSH1 0x1 SWAP1 DUP2 SHL ADD SWAP1 SSTORE POP JUMP JUMPDEST PUSH2 0x957 DUP1 PUSH2 0x248 PUSH0 CODECOPY PUSH0 RETURN INVALID PUSH1 0x80 PUSH1 0x40 MSTORE PUSH1 0x4 CALLDATASIZE LT PUSH2 0xA8 JUMPI PUSH0 CALLDATALOAD PUSH1 0xE0 SHR DUP1 PUSH4 0x313CE567 GT PUSH2 0x62 JUMPI DUP1 PUSH4 0x313CE567 EQ PUSH2 0x1A1 JUMPI DUP1 PUSH4 0x3A4B66F1 EQ PUSH2 0x1BC JUMPI DUP1 PUSH4 0x70A08231 EQ PUSH2 0x1C4 JUMPI DUP1 PUSH4 0x95D89B41 EQ PUSH2 0x1F8 JUMPI DUP1 PUSH4 0xA9059CBB EQ PUSH2 0x20C JUMPI DUP1 PUSH4 0xDD62ED3E EQ PUSH2 0x22B JUMPI PUSH0 DUP1 REVERT JUMPDEST DUP1 PUSH4 0x6FDDE03 EQ PUSH2 0xB3 JUMPI DUP1 PUSH4 0x95EA7B3 EQ PUSH2 0xDD JUMPI DUP1 PUSH4 0x18160DDD EQ PUSH2 0x10C JUMPI DUP1 PUSH4 0x1E092EFB EQ PUSH2 0x12A JUMPI DUP1 PUSH4 0x23B872DD EQ PUSH2 0x161 JUMPI DUP1 PUSH4 0x2E17DE78 EQ PUSH2 0x180 JUMPI PUSH0 DUP1 REVERT JUMPDEST CALLDATASIZE PUSH2 0xAF JUMPI STOP JUMPDEST PUSH0 DUP1 REVERT JUMPDEST CALLVALUE DUP1 ISZERO PUSH2 0xBE JUMPI PUSH0 DUP1 REVERT JUMPDEST POP PUSH2 0xC7 PUSH2 0x26F JUMP JUMPDEST PUSH1 0x40 MLOAD PUSH2 0xD4 SWAP2 SWAP1 PUSH2 0x7B0 JUMP JUMPDEST PUSH1 0x40 MLOAD DUP1 SWAP2 SUB SWAP1 RETURN JUMPDEST CALLVALUE DUP1 ISZERO PUSH2 0xE8 JUMPI PUSH0 DUP1 REVERT JUMPDEST POP PUSH2 0xFC PUSH2 0xF7 CALLDATASIZE PUSH1 0x4 PUSH2 0x800 JUMP JUMPDEST PUSH2 0x2FF JUMP JUMPDEST PUSH1 0x40 MLOAD SWAP1 ISZERO ISZERO DUP2 MSTORE PUSH1 0x20 ADD PUSH2 0xD4 JUMP JUMPDEST CALLVALUE DUP1 ISZERO PUSH2 0x117 JUMPI PUSH0 DUP1 REVERT JUMPDEST POP PUSH1 0x2 SLOAD JUMPDEST PUSH1 0x40 MLOAD SWAP1 DUP2 MSTORE PUSH1 0x20 ADD PUSH2 0xD4 JUMP JUMPDEST CALLVALUE DUP1 ISZERO PUSH2 0x135 JUMPI PUSH0 DUP1 REVERT JUMPDEST POP PUSH1 0x5 SLOAD PUSH2 0x149 SWAP1 PUSH1 0x1 PUSH1 0x1 PUSH1 0xA0 SHL SUB AND DUP2 JUMP JUMPDEST PUSH1 0x40 MLOAD PUSH1 0x1 PUSH1 0x1 PUSH1 0xA0 SHL SUB SWAP1 SWAP2 AND DUP2 MSTORE PUSH1 0x20 ADD PUSH2 0xD4 JUMP JUMPDEST CALLVALUE DUP1 ISZERO PUSH2 0x16C JUMPI PUSH0 DUP1 REVERT JUMPDEST POP PUSH2 0xFC PUSH2 0x17B CALLDATASIZE PUSH1 0x4 PUSH2 0x828 JUMP JUMPDEST PUSH2 0x318 JUMP JUMPDEST CALLVALUE DUP1 ISZERO PUSH2 0x18B JUMPI PUSH0 DUP1 REVERT JUMPDEST POP PUSH2 0x19F PUSH2 0x19A CALLDATASIZE PUSH1 0x4 PUSH2 0x862 JUMP JUMPDEST PUSH2 0x33B JUMP JUMPDEST STOP JUMPDEST CALLVALUE DUP1 ISZERO PUSH2 0x1AC JUMPI PUSH0 DUP1 REVERT JUMPDEST POP PUSH1 0x40 MLOAD PUSH1 0x12 DUP2 MSTORE PUSH1 0x20 ADD PUSH2 0xD4 JUMP JUMPDEST PUSH2 0x19F PUSH2 0x3C9 JUMP JUMPDEST CALLVALUE DUP1 ISZERO PUSH2 0x1CF JUMPI PUSH0 DUP1 REVERT JUMPDEST POP PUSH2 0x11C PUSH2 0x1DE CALLDATASIZE PUSH1 0x4 PUSH2 0x879 JUMP JUMPDEST PUSH1 0x1 PUSH1 0x1 PUSH1 0xA0 SHL SUB AND PUSH0 SWAP1 DUP2 MSTORE PUSH1 0x20 DUP2 SWAP1 MSTORE PUSH1 0x40 SWAP1 KECCAK256 SLOAD SWAP1 JUMP JUMPDEST CALLVALUE DUP1 ISZERO PUSH2 0x203 JUMPI PUSH0 DUP1 REVERT JUMPDEST POP PUSH2 0xC7 PUSH2 0x449 JUMP JUMPDEST CALLVALUE DUP1 ISZERO PUSH2 0x217 JUMPI PUSH0 DUP1 REVERT JUMPDEST POP PUSH2 0xFC PUSH2 0x226 CALLDATASIZE PUSH1 0x4 PUSH2 0x800 JUMP JUMPDEST PUSH2 0x458 JUMP JUMPDEST CALLVALUE DUP1 ISZERO PUSH2 0x236 JUMPI PUSH0 DUP1 REVERT JUMPDEST POP PUSH2 0x11C PUSH2 0x245 CALLDATASIZE PUSH1 0x4 PUSH2 0x899 JUMP JUMPDEST PUSH1 0x1 PUSH1 0x1 PUSH1 0xA0 SHL SUB SWAP2 DUP3 AND PUSH0 SWAP1 DUP2 MSTORE PUSH1 0x1 PUSH1 0x20 SWAP1 DUP2 MSTORE PUSH1 0x40 DUP1 DUP4 KECCAK256 SWAP4 SWAP1 SWAP5 AND DUP3 MSTORE SWAP2 SWAP1 SWAP2 MSTORE KECCAK256 SLOAD SWAP1 JUMP JUMPDEST PUSH1 0x60 PUSH1 0x3 DUP1 SLOAD PUSH2 0x27E SWAP1 PUSH2 0x8CA JUMP JUMPDEST DUP1 PUSH1 0x1F ADD PUSH1 0x20 DUP1 SWAP2 DIV MUL PUSH1 0x20 ADD PUSH1 0x40 MLOAD SWAP1 DUP2 ADD PUSH1 0x40 MSTORE DUP1 SWAP3 SWAP2 SWAP1 DUP2 DUP2 MSTORE PUSH1 0x20 ADD DUP3 DUP1 SLOAD PUSH2 0x2AA SWAP1 PUSH2 0x8CA JUMP JUMPDEST DUP1 ISZERO PUSH2 0x2F5 JUMPI DUP1 PUSH1 0x1F LT PUSH2 0x2CC JUMPI PUSH2 0x100 DUP1 DUP4 SLOAD DIV MUL DUP4 MSTORE SWAP2 PUSH1 0x20 ADD SWAP2 PUSH2 0x2F5 JUMP JUMPDEST DUP3 ADD SWAP2 SWAP1 PUSH0 MSTORE PUSH1 0x20 PUSH0 KECCAK256 SWAP1 JUMPDEST DUP2 SLOAD DUP2 MSTORE SWAP1 PUSH1 0x1 ADD SWAP1 PUSH1 0x20 ADD DUP1 DUP4 GT PUSH2 0x2D8 JUMPI DUP3 SWAP1 SUB PUSH1 0x1F AND DUP3 ADD SWAP2 JUMPDEST POP POP POP POP POP SWAP1 POP SWAP1 JUMP JUMPDEST PUSH0 CALLER PUSH2 0x30C DUP2 DUP6 DUP6 PUSH2 0x465 JUMP JUMPDEST PUSH1 0x1 SWAP2 POP POP JUMPDEST SWAP3 SWAP2 POP POP JUMP JUMPDEST PUSH0 CALLER PUSH2 0x325 DUP6 DUP3 DUP6 PUSH2 0x477 JUMP JUMPDEST PUSH2 0x330 DUP6 DUP6 DUP6 PUSH2 0x4F3 JUMP JUMPDEST POP PUSH1 0x1 SWAP5 SWAP4 POP POP POP POP JUMP JUMPDEST CALLER PUSH0 SWAP1 DUP2 MSTORE PUSH1 0x20 DUP2 SWAP1 MSTORE PUSH1 0x40 SWAP1 KECCAK256 SLOAD DUP2 GT ISZERO PUSH2 0x391 JUMPI PUSH1 0x40 MLOAD PUSH3 0x461BCD PUSH1 0xE5 SHL DUP2 MSTORE PUSH1 0x20 PUSH1 0x4 DUP3 ADD MSTORE PUSH1 0x10 PUSH1 0x24 DUP3 ADD MSTORE PUSH16 0x9CDEE840CADCDEEACED040E6E88AA89 PUSH1 0x83 SHL PUSH1 0x44 DUP3 ADD MSTORE PUSH1 0x64 ADD JUMPDEST PUSH1 0x40 MLOAD DUP1 SWAP2 SUB SWAP1 REVERT JUMPDEST PUSH2 0x39B CALLER DUP3 PUSH2 0x550 JUMP JUMPDEST PUSH1 0x40 MLOAD CALLER SWAP1 DUP3 ISZERO PUSH2 0x8FC MUL SWAP1 DUP4 SWAP1 PUSH0 DUP2 DUP2 DUP2 DUP6 DUP9 DUP9 CALL SWAP4 POP POP POP POP ISZERO DUP1 ISZERO PUSH2 0x3C5 JUMPI RETURNDATASIZE PUSH0 DUP1 RETURNDATACOPY RETURNDATASIZE PUSH0 REVERT JUMPDEST POP POP JUMP JUMPDEST PUSH0 CALLVALUE GT PUSH2 0x408 JUMPI PUSH1 0x40 MLOAD PUSH3 0x461BCD PUSH1 0xE5 SHL DUP2 MSTORE PUSH1 0x20 PUSH1 0x4 DUP3 ADD MSTORE PUSH1 0xD PUSH1 0x24 DUP3 ADD MSTORE PUSH13 0x9AEAE6E840E6CADCC8408AA89 PUSH1 0x9B SHL PUSH1 0x44 DUP3 ADD MSTORE PUSH1 0x64 ADD PUSH2 0x388 JUMP JUMPDEST CALLVALUE PUSH2 0x413 CALLER DUP3 PUSH2 0x584 JUMP JUMPDEST PUSH1 0x5 SLOAD PUSH1 0x40 MLOAD PUSH1 0x1 PUSH1 0x1 PUSH1 0xA0 SHL SUB SWAP1 SWAP2 AND SWAP1 CALLVALUE DUP1 ISZERO PUSH2 0x8FC MUL SWAP2 PUSH0 DUP2 DUP2 DUP2 DUP6 DUP9 DUP9 CALL SWAP4 POP POP POP POP ISZERO DUP1 ISZERO PUSH2 0x3C5 JUMPI RETURNDATASIZE PUSH0 DUP1 RETURNDATACOPY RETURNDATASIZE PUSH0 REVERT JUMPDEST PUSH1 0x60 PUSH1 0x4 DUP1 SLOAD PUSH2 0x27E SWAP1 PUSH2 0x8CA JUMP JUMPDEST PUSH0 CALLER PUSH2 0x30C DUP2 DUP6 DUP6 PUSH2 0x4F3 JUMP JUMPDEST PUSH2 0x472 DUP4 DUP4 DUP4 PUSH1 0x1 PUSH2 0x5B8 JUMP JUMPDEST POP POP POP JUMP JUMPDEST PUSH1 0x1 PUSH1 0x1 PUSH1 0xA0 SHL SUB DUP4 DUP2 AND PUSH0 SWAP1 DUP2 MSTORE PUSH1 0x1 PUSH1 0x20 SWAP1 DUP2 MSTORE PUSH1 0x40 DUP1 DUP4 KECCAK256 SWAP4 DUP7 AND DUP4 MSTORE SWAP3 SWAP1 MSTORE KECCAK256 SLOAD PUSH0 NOT DUP2 LT ISZERO PUSH2 0x4ED JUMPI DUP2 DUP2 LT ISZERO PUSH2 0x4DF JUMPI PUSH1 0x40 MLOAD PUSH4 0x7DC7A0D9 PUSH1 0xE1 SHL DUP2 MSTORE PUSH1 0x1 PUSH1 0x1 PUSH1 0xA0 SHL SUB DUP5 AND PUSH1 0x4 DUP3 ADD MSTORE PUSH1 0x24 DUP2 ADD DUP3 SWAP1 MSTORE PUSH1 0x44 DUP2 ADD DUP4 SWAP1 MSTORE PUSH1 0x64 ADD PUSH2 0x388 JUMP JUMPDEST PUSH2 0x4ED DUP5 DUP5 DUP5 DUP5 SUB PUSH0 PUSH2 0x5B8 JUMP JUMPDEST POP POP POP POP JUMP JUMPDEST PUSH1 0x1 PUSH1 0x1 PUSH1 0xA0 SHL SUB DUP4 AND PUSH2 0x51C JUMPI PUSH1 0x40 MLOAD PUSH4 0x4B637E8F PUSH1 0xE1 SHL DUP2 MSTORE PUSH0 PUSH1 0x4 DUP3 ADD MSTORE PUSH1 0x24 ADD PUSH2 0x388 JUMP JUMPDEST PUSH1 0x1 PUSH1 0x1 PUSH1 0xA0 SHL SUB DUP3 AND PUSH2 0x545 JUMPI PUSH1 0x40 MLOAD PUSH4 0xEC442F05 PUSH1 0xE0 SHL DUP2 MSTORE PUSH0 PUSH1 0x4 DUP3 ADD MSTORE PUSH1 0x24 ADD PUSH2 0x388 JUMP JUMPDEST PUSH2 0x472 DUP4 DUP4 DUP4 PUSH2 0x68A JUMP JUMPDEST PUSH1 0x1 PUSH1 0x1 PUSH1 0xA0 SHL SUB DUP3 AND PUSH2 0x579 JUMPI PUSH1 0x40 MLOAD PUSH4 0x4B637E8F PUSH1 0xE1 SHL DUP2 MSTORE PUSH0 PUSH1 0x4 DUP3 ADD MSTORE PUSH1 0x24 ADD PUSH2 0x388 JUMP JUMPDEST PUSH2 0x3C5 DUP3 PUSH0 DUP4 PUSH2 0x68A JUMP JUMPDEST PUSH1 0x1 PUSH1 0x1 PUSH1 0xA0 SHL SUB DUP3 AND PUSH2 0x5AD JUMPI PUSH1 0x40 MLOAD PUSH4 0xEC442F05 PUSH1 0xE0 SHL DUP2 MSTORE PUSH0 PUSH1 0x4 DUP3 ADD MSTORE PUSH1 0x24 ADD PUSH2 0x388 JUMP JUMPDEST PUSH2 0x3C5 PUSH0 DUP4 DUP4 PUSH2 0x68A JUMP JUMPDEST PUSH1 0x1 PUSH1 0x1 PUSH1 0xA0 SHL SUB DUP5 AND PUSH2 0x5E1 JUMPI PUSH1 0x40 MLOAD PUSH4 0xE602DF05 PUSH1 0xE0 SHL DUP2 MSTORE PUSH0 PUSH1 0x4 DUP3 ADD MSTORE PUSH1 0x24 ADD PUSH2 0x388 JUMP JUMPDEST PUSH1 0x1 PUSH1 0x1 PUSH1 0xA0 SHL SUB DUP4 AND PUSH2 0x60A JUMPI PUSH1 0x40 MLOAD PUSH4 0x4A1406B1 PUSH1 0xE1 SHL DUP2 MSTORE PUSH0 PUSH1 0x4 DUP3 ADD MSTORE PUSH1 0x24 ADD PUSH2 0x388 JUMP JUMPDEST PUSH1 0x1 PUSH1 0x1 PUSH1 0xA0 SHL SUB DUP1 DUP6 AND PUSH0 SWAP1 DUP2 MSTORE PUSH1 0x1 PUSH1 0x20 SWAP1 DUP2 MSTORE PUSH1 0x40 DUP1 DUP4 KECCAK256 SWAP4 DUP8 AND DUP4 MSTORE SWAP3 SWAP1 MSTORE KECCAK256 DUP3 SWAP1 SSTORE DUP1 ISZERO PUSH2 0x4ED JUMPI DUP3 PUSH1 0x1 PUSH1 0x1 PUSH1 0xA0 SHL SUB AND DUP5 PUSH1 0x1 PUSH1 0x1 PUSH1 0xA0 SHL SUB AND PUSH32 0x8C5BE1E5EBEC7D5BD14F71427D1E84F3DD0314C0F7B2291E5B200AC8C7C3B925 DUP5 PUSH1 0x40 MLOAD PUSH2 0x67C SWAP2 DUP2 MSTORE PUSH1 0x20 ADD SWAP1 JUMP JUMPDEST PUSH1 0x40 MLOAD DUP1 SWAP2 SUB SWAP1 LOG3 POP POP POP POP JUMP JUMPDEST PUSH1 0x1 PUSH1 0x1 PUSH1 0xA0 SHL SUB DUP4 AND PUSH2 0x6B4 JUMPI DUP1 PUSH1 0x2 PUSH0 DUP3 DUP3 SLOAD PUSH2 0x6A9 SWAP2 SWAP1 PUSH2 0x902 JUMP JUMPDEST SWAP1 SWAP2 SSTORE POP PUSH2 0x724 SWAP1 POP JUMP JUMPDEST PUSH1 0x1 PUSH1 0x1 PUSH1 0xA0 SHL SUB DUP4 AND PUSH0 SWAP1 DUP2 MSTORE PUSH1 0x20 DUP2 SWAP1 MSTORE PUSH1 0x40 SWAP1 KECCAK256 SLOAD DUP2 DUP2 LT ISZERO PUSH2 0x706 JUMPI PUSH1 0x40 MLOAD PUSH4 0x391434E3 PUSH1 0xE2 SHL DUP2 MSTORE PUSH1 0x1 PUSH1 0x1 PUSH1 0xA0 SHL SUB DUP6 AND PUSH1 0x4 DUP3 ADD MSTORE PUSH1 0x24 DUP2 ADD DUP3 SWAP1 MSTORE PUSH1 0x44 DUP2 ADD DUP4 SWAP1 MSTORE PUSH1 0x64 ADD PUSH2 0x388 JUMP JUMPDEST PUSH1 0x1 PUSH1 0x1 PUSH1 0xA0 SHL SUB DUP5 AND PUSH0 SWAP1 DUP2 MSTORE PUSH1 0x20 DUP2 SWAP1 MSTORE PUSH1 0x40 SWAP1 KECCAK256 SWAP1 DUP3 SWAP1 SUB SWAP1 SSTORE JUMPDEST PUSH1 0x1 PUSH1 0x1 PUSH1 0xA0 SHL SUB DUP3 AND PUSH2 0x740 JUMPI PUSH1 0x2 DUP1 SLOAD DUP3 SWAP1 SUB SWAP1 SSTORE PUSH2 0x75E JUMP JUMPDEST PUSH1 0x1 PUSH1 0x1 PUSH1 0xA0 SHL SUB DUP3 AND PUSH0 SWAP1 DUP2 MSTORE PUSH1 0x20 DUP2 SWAP1 MSTORE PUSH1 0x40 SWAP1 KECCAK256 DUP1 SLOAD DUP3 ADD SWAP1 SSTORE JUMPDEST DUP2 PUSH1 0x1 PUSH1 0x1 PUSH1 0xA0 SHL SUB AND DUP4 PUSH1 0x1 PUSH1 0x1 PUSH1 0xA0 SHL SUB AND PUSH32 0xDDF252AD1BE2C89B69C2B068FC378DAA952BA7F163C4A11628F55A4DF523B3EF DUP4 PUSH1 0x40 MLOAD PUSH2 0x7A3 SWAP2 DUP2 MSTORE PUSH1 0x20 ADD SWAP1 JUMP JUMPDEST PUSH1 0x40 MLOAD DUP1 SWAP2 SUB SWAP1 LOG3 POP POP POP JUMP JUMPDEST PUSH1 0x20 DUP2 MSTORE PUSH0 DUP3 MLOAD DUP1 PUSH1 0x20 DUP5 ADD MSTORE DUP1 PUSH1 0x20 DUP6 ADD PUSH1 0x40 DUP6 ADD MCOPY PUSH0 PUSH1 0x40 DUP3 DUP6 ADD ADD MSTORE PUSH1 0x40 PUSH1 0x1F NOT PUSH1 0x1F DUP4 ADD AND DUP5 ADD ADD SWAP2 POP POP SWAP3 SWAP2 POP POP JUMP JUMPDEST DUP1 CALLDATALOAD PUSH1 0x1 PUSH1 0x1 PUSH1 0xA0 SHL SUB DUP2 AND DUP2 EQ PUSH2 0x7FB JUMPI PUSH0 DUP1 REVERT JUMPDEST SWAP2 SWAP1 POP JUMP JUMPDEST PUSH0 DUP1 PUSH1 0x40 DUP4 DUP6 SUB SLT ISZERO PUSH2 0x811 JUMPI PUSH0 DUP1 REVERT JUMPDEST PUSH2 0x81A DUP4 PUSH2 0x7E5 JUMP JUMPDEST SWAP5 PUSH1 0x20 SWAP4 SWAP1 SWAP4 ADD CALLDATALOAD SWAP4 POP POP POP JUMP JUMPDEST PUSH0 DUP1 PUSH0 PUSH1 0x60 DUP5 DUP7 SUB SLT ISZERO PUSH2 0x83A JUMPI PUSH0 DUP1 REVERT JUMPDEST PUSH2 0x843 DUP5 PUSH2 0x7E5 JUMP JUMPDEST SWAP3 POP PUSH2 0x851 PUSH1 0x20 DUP6 ADD PUSH2 0x7E5 JUMP JUMPDEST SWAP3 SWAP6 SWAP3 SWAP5 POP POP POP PUSH1 0x40 SWAP2 SWAP1 SWAP2 ADD CALLDATALOAD SWAP1 JUMP JUMPDEST PUSH0 PUSH1 0x20 DUP3 DUP5 SUB SLT ISZERO PUSH2 0x872 JUMPI PUSH0 DUP1 REVERT JUMPDEST POP CALLDATALOAD SWAP2 SWAP1 POP JUMP JUMPDEST PUSH0 PUSH1 0x20 DUP3 DUP5 SUB SLT ISZERO PUSH2 0x889 JUMPI PUSH0 DUP1 REVERT JUMPDEST PUSH2 0x892 DUP3 PUSH2 0x7E5 JUMP JUMPDEST SWAP4 SWAP3 POP POP POP JUMP JUMPDEST PUSH0 DUP1 PUSH1 0x40 DUP4 DUP6 SUB SLT ISZERO PUSH2 0x8AA JUMPI PUSH0 DUP1 REVERT JUMPDEST PUSH2 0x8B3 DUP4 PUSH2 0x7E5 JUMP JUMPDEST SWAP2 POP PUSH2 0x8C1 PUSH1 0x20 DUP5 ADD PUSH2 0x7E5 JUMP JUMPDEST SWAP1 POP SWAP3 POP SWAP3 SWAP1 POP JUMP JUMPDEST PUSH1 0x1 DUP2 DUP2 SHR SWAP1 DUP3 AND DUP1 PUSH2 0x8DE JUMPI PUSH1 0x7F DUP3 AND SWAP2 POP JUMPDEST PUSH1 0x20 DUP3 LT DUP2 SUB PUSH2 0x8FC JUMPI PUSH4 0x4E487B71 PUSH1 0xE0 SHL PUSH0 MSTORE PUSH1 0x22 PUSH1 0x4 MSTORE PUSH1 0x24 PUSH0 REVERT JUMPDEST POP SWAP2 SWAP1 POP JUMP JUMPDEST DUP1 DUP3 ADD DUP1 DUP3 GT ISZERO PUSH2 0x312 JUMPI PUSH4 0x4E487B71 PUSH1 0xE0 SHL PUSH0 MSTORE PUSH1 0x11 PUSH1 0x4 MSTORE PUSH1 0x24 PUSH0 REVERT INVALID LOG2 PUSH5 0x6970667358 0x22 SLT KECCAK256 CREATE 0xE0 DUP1 0xDD DUP8 0xE2 SMOD CREATE2 0x21 0x4E 0xBC 0xD3 0xB4 0xAA 0xD8 GAS 0xD1 ORIGIN 0xC6 CODECOPY MULMOD EXTCODECOPY KECCAK256 0xAD CALLDATASIZE PUSH17 0x76A0F01F9864736F6C634300081A0033 "
				},
				"gasEstimates": {
					"creation": {
						"codeDepositCost": "478200",
						"executionCost": "infinite",
						"totalCost": "infinite"
					},
					"external": {
						"allowance(address,address)": "infinite",
						"approve(address,uint256)": "24735",
						"balanceOf(address)": "2581",
						"decimals()": "176",
						"name()": "infinite",
						"stake()": "infinite",
						"symbol()": "infinite",
						"totalSupply()": "2325",
						"transfer(address,uint256)": "51304",
						"transferFrom(address,address,uint256)": "infinite",
						"unstake(uint256)": "infinite",
						"yieldFarm()": "2403"
					}
				},
				"methodIdentifiers": {
					"allowance(address,address)": "dd62ed3e",
					"approve(address,uint256)": "095ea7b3",
					"balanceOf(address)": "70a08231",
					"decimals()": "313ce567",
					"name()": "06fdde03",
					"stake()": "3a4b66f1",
					"symbol()": "95d89b41",
					"totalSupply()": "18160ddd",
					"transfer(address,uint256)": "a9059cbb",
					"transferFrom(address,address,uint256)": "23b872dd",
					"unstake(uint256)": "2e17de78",
					"yieldFarm()": "1e092efb"
				}
			},
			"storageLayout": {
				"storage": [
					{
						"astId": 159,
						"contract": "liquid_staking.sol:LiquidStaking",
						"label": "_balances",
						"offset": 0,
						"slot": "0",
						"type": "t_mapping(t_address,t_uint256)"
					},
					{
						"astId": 165,
						"contract": "liquid_staking.sol:LiquidStaking",
						"label": "_allowances",
						"offset": 0,
						"slot": "1",
						"type": "t_mapping(t_address,t_mapping(t_address,t_uint256))"
					},
					{
						"astId": 167,
						"contract": "liquid_staking.sol:LiquidStaking",
						"label": "_totalSupply",
						"offset": 0,
						"slot": "2",
						"type": "t_uint256"
					},
					{
						"astId": 169,
						"contract": "liquid_staking.sol:LiquidStaking",
						"label": "_name",
						"offset": 0,
						"slot": "3",
						"type": "t_string_storage"
					},
					{
						"astId": 171,
						"contract": "liquid_staking.sol:LiquidStaking",
						"label": "_symbol",
						"offset": 0,
						"slot": "4",
						"type": "t_string_storage"
					},
					{
						"astId": 792,
						"contract": "liquid_staking.sol:LiquidStaking",
						"label": "yieldFarm",
						"offset": 0,
						"slot": "5",
						"type": "t_address"
					}
				],
				"types": {
					"t_address": {
						"encoding": "inplace",
						"label": "address",
						"numberOfBytes": "20"
					},
					"t_mapping(t_address,t_mapping(t_address,t_uint256))": {
						"encoding": "mapping",
						"key": "t_address",
						"label": "mapping(address => mapping(address => uint256))",
						"numberOfBytes": "32",
						"value": "t_mapping(t_address,t_uint256)"
					},
					"t_mapping(t_address,t_uint256)": {
						"encoding": "mapping",
						"key": "t_address",
						"label": "mapping(address => uint256)",
						"numberOfBytes": "32",
						"value": "t_uint256"
					},
					"t_string_storage": {
						"encoding": "bytes",
						"label": "string",
						"numberOfBytes": "32"
					},
					"t_uint256": {
						"encoding": "inplace",
						"label": "uint256",
						"numberOfBytes": "32"
					}
				}
			},
			"userdoc": {
				"kind": "user",
				"methods": {},
				"version": 1
			}
		}
	}
}