{
	"contracts/vault.sol": {
		"YieldVault": {
			"abi": [
				{
					"inputs": [
						{
							"internalType": "address",
							"name": "_liquidStaking",
							"type": "address"
						},
						{
							"internalType": "address",
							"name": "_gasReserve",
							"type": "address"
						}
					],
					"stateMutability": "nonpayable",
					"type": "constructor"
				},
				{
					"inputs": [
						{
							"internalType": "address",
							"name": "spender",
							"type": "address"
						},
						{
							"internalType": "uint256",
							"name": "allowance",
							"type": "uint256"
						},
						{
							"internalType": "uint256",
							"name": "needed",
							"type": "uint256"
						}
					],
					"name": "ERC20InsufficientAllowance",
					"type": "error"
				},
				{
					"inputs": [
						{
							"internalType": "address",
							"name": "sender",
							"type": "address"
						},
						{
							"internalType": "uint256",
							"name": "balance",
							"type": "uint256"
						},
						{
							"internalType": "uint256",
							"name": "needed",
							"type": "uint256"
						}
					],
					"name": "ERC20InsufficientBalance",
					"type": "error"
				},
				{
					"inputs": [
						{
							"internalType": "address",
							"name": "approver",
							"type": "address"
						}
					],
					"name": "ERC20InvalidApprover",
					"type": "error"
				},
				{
					"inputs": [
						{
							"internalType": "address",
							"name": "receiver",
							"type": "address"
						}
					],
					"name": "ERC20InvalidReceiver",
					"type": "error"
				},
				{
					"inputs": [
						{
							"internalType": "address",
							"name": "sender",
							"type": "address"
						}
					],
					"name": "ERC20InvalidSender",
					"type": "error"
				},
				{
					"inputs": [
						{
							"internalType": "address",
							"name": "spender",
							"type": "address"
						}
					],
					"name": "ERC20InvalidSpender",
					"type": "error"
				},
				{
					"inputs": [
						{
							"internalType": "address",
							"name": "owner",
							"type": "address"
						}
					],
					"name": "OwnableInvalidOwner",
					"type": "error"
				},
				{
					"inputs": [
						{
							"internalType": "address",
							"name": "account",
							"type": "address"
						}
					],
					"name": "OwnableUnauthorizedAccount",
					"type": "error"
				},
				{
					"anonymous": false,
					"inputs": [
						{
							"indexed": true,
							"internalType": "address",
							"name": "owner",
							"type": "address"
						},
						{
							"indexed": true,
							"internalType": "address",
							"name": "spender",
							"type": "address"
						},
						{
							"indexed": false,
							"internalType": "uint256",
							"name": "value",
							"type": "uint256"
						}
					],
					"name": "Approval",
					"type": "event"
				},
				{
					"anonymous": false,
					"inputs": [
						{
							"indexed": true,
							"internalType": "address",
							"name": "previousOwner",
							"type": "address"
						},
						{
							"indexed": true,
							"internalType": "address",
							"name": "newOwner",
							"type": "address"
						}
					],
					"name": "OwnershipTransferred",
					"type": "event"
				},
				{
					"anonymous": false,
					"inputs": [
						{
							"indexed": true,
							"internalType": "address",
							"name": "from",
							"type": "address"
						},
						{
							"indexed": true,
							"internalType": "address",
							"name": "to",
							"type": "address"
						},
						{
							"indexed": false,
							"internalType": "uint256",
							"name": "value",
							"type": "uint256"
						}
					],
					"name": "Transfer",
					"type": "event"
				},
				{
					"inputs": [
						{
							"internalType": "address",
							"name": "owner",
							"type": "address"
						},
						{
							"internalType": "address",
							"name": "spender",
							"type": "address"
						}
					],
					"name": "allowance",
					"outputs": [
						{
							"internalType": "uint256",
							"name": "",
							"type": "uint256"
						}
					],
					"stateMutability": "view",
					"type": "function"
				},
				{
					"inputs": [
						{
							"internalType": "address",
							"name": "spender",
							"type": "address"
						},
						{
							"internalType": "uint256",
							"name": "value",
							"type": "uint256"
						}
					],
					"name": "approve",
					"outputs": [
						{
							"internalType": "bool",
							"name": "",
							"type": "bool"
						}
					],
					"stateMutability": "nonpayable",
					"type": "function"
				},
				{
					"inputs": [
						{
							"internalType": "address",
							"name": "account",
							"type": "address"
						}
					],
					"name": "balanceOf",
					"outputs": [
						{
							"internalType": "uint256",
							"name": "",
							"type": "uint256"
						}
					],
					"stateMutability": "view",
					"type": "function"
				},
				{
					"inputs": [],
					"name": "decimals",
					"outputs": [
						{
							"internalType": "uint8",
							"name": "",
							"type": "uint8"
						}
					],
					"stateMutability": "view",
					"type": "function"
				},
				{
					"inputs": [],
					"name": "deposit",
					"outputs": [],
					"stateMutability": "payable",
					"type": "function"
				},
				{
					"inputs": [
						{
							"internalType": "address",
							"name": "user",
							"type": "address"
						}
					],
					"name": "earned",
					"outputs": [
						{
							"internalType": "uint256",
							"name": "",
							"type": "uint256"
						}
					],
					"stateMutability": "view",
					"type": "function"
				},
				{
					"inputs": [],
					"name": "gasReserve",
					"outputs": [
						{
							"internalType": "contract IGasReserve",
							"name": "",
							"type": "address"
						}
					],
					"stateMutability": "view",
					"type": "function"
				},
				{
					"inputs": [],
					"name": "harvest",
					"outputs": [],
					"stateMutability": "nonpayable",
					"type": "function"
				},
				{
					"inputs": [],
					"name": "lastHarvestTime",
					"outputs": [
						{
							"internalType": "uint256",
							"name": "",
							"type": "uint256"
						}
					],
					"stateMutability": "view",
					"type": "function"
				},
				{
					"inputs": [],
					"name": "name",
					"outputs": [
						{
							"internalType": "string",
							"name": "",
							"type": "string"
						}
					],
					"stateMutability": "view",
					"type": "function"
				},
				{
					"inputs": [],
					"name": "owner",
					"outputs": [
						{
							"internalType": "address",
							"name": "",
							"type": "address"
						}
					],
					"stateMutability": "view",
					"type": "function"
				},
				{
					"inputs": [],
					"name": "renounceOwnership",
					"outputs": [],
					"stateMutability": "nonpayable",
					"type": "function"
				},
				{
					"inputs": [],
					"name": "stETH",
					"outputs": [
						{
							"internalType": "contract IERC20",
							"name": "",
							"type": "address"
						}
					],
					"stateMutability": "view",
					"type": "function"
				},
				{
					"inputs": [],
					"name": "symbol",
					"outputs": [
						{
							"internalType": "string",
							"name": "",
							"type": "string"
						}
					],
					"stateMutability": "view",
					"type": "function"
				},
				{
					"inputs": [],
					"name": "totalRewardsDistributed",
					"outputs": [
						{
							"internalType": "uint256",
							"name": "",
							"type": "uint256"
						}
					],
					"stateMutability": "view",
					"type": "function"
				},
				{
					"inputs": [],
					"name": "totalSupply",
					"outputs": [
						{
							"internalType": "uint256",
							"name": "",
							"type": "uint256"
						}
					],
					"stateMutability": "view",
					"type": "function"
				},
				{
					"inputs": [
						{
							"internalType": "address",
							"name": "to",
							"type": "address"
						},
						{
							"internalType": "uint256",
							"name": "value",
							"type": "uint256"
						}
					],
					"name": "transfer",
					"outputs": [
						{
							"internalType": "bool",
							"name": "",
							"type": "bool"
						}
					],
					"stateMutability": "nonpayable",
					"type": "function"
				},
				{
					"inputs": [
						{
							"internalType": "address",
							"name": "from",
							"type": "address"
						},
						{
							"internalType": "address",
							"name": "to",
							"type": "address"
						},
						{
							"internalType": "uint256",
							"name": "value",
							"type": "uint256"
						}
					],
					"name": "transferFrom",
					"outputs": [
						{
							"internalType": "bool",
							"name": "",
							"type": "bool"
						}
					],
					"stateMutability": "nonpayable",
					"type": "function"
				},
				{
					"inputs": [
						{
							"internalType": "address",
							"name": "newOwner",
							"type": "address"
						}
					],
					"name": "transferOwnership",
					"outputs": [],
					"stateMutability": "nonpayable",
					"type": "function"
				},
				{
					"inputs": [
						{
							"internalType": "uint256",
							"name": "_amount",
							"type": "uint256"
						}
					],
					"name": "withdraw",
					"outputs": [],
					"stateMutability": "nonpayable",
					"type": "function"
				},
				{
					"stateMutability": "payable",
					"type": "receive"
				}
			],
			"devdoc": {
				"errors": {
					"ERC20InsufficientAllowance(address,uint256,uint256)": [
						{
							"details": "Indicates a failure with the `spender`’s `allowance`. Used in transfers.",
							"params": {
								"allowance": "Amount of tokens a `spender` is allowed to operate with.",
								"needed": "Minimum amount required to perform a transfer.",
								"spender": "Address that may be allowed to operate on tokens without being their owner."
							}
						}
					],
					"ERC20InsufficientBalance(address,uint256,uint256)": [
						{
							"details": "Indicates an error related to the current `balance` of a `sender`. Used in transfers.",
							"params": {
								"balance": "Current balance for the interacting account.",
								"needed": "Minimum amount required to perform a transfer.",
								"sender": "Address whose tokens are being transferred."
							}
						}
					],
					"ERC20InvalidApprover(address)": [
						{
							"details": "Indicates a failure with the `approver` of a token to be approved. Used in approvals.",
							"params": {
								"approver": "Address initiating an approval operation."
							}
						}
					],
					"ERC20InvalidReceiver(address)": [
						{
							"details": "Indicates a failure with the token `receiver`. Used in transfers.",
							"params": {
								"receiver": "Address to which tokens are being transferred."
							}
						}
					],
					"ERC20InvalidSender(address)": [
						{
							"details": "Indicates a failure with the token `sender`. Used in transfers.",
							"params": {
								"sender": "Address whose tokens are being transferred."
							}
						}
					],
					"ERC20InvalidSpender(address)": [
						{
							"details": "Indicates a failure with the `spender` to be approved. Used in approvals.",
							"params": {
								"spender": "Address that may be allowed to operate on tokens without being their owner."
							}
						}
					],
					"OwnableInvalidOwner(address)": [
						{
							"details": "The owner is not a valid owner account. (eg. `address(0)`)"
						}
					],
					"OwnableUnauthorizedAccount(address)": [
						{
							"details": "The caller account is not authorized to perform an operation."
						}
					]
				},
				"events": {
					"Approval(address,address,uint256)": {
						"details": "Emitted when the allowance of a `spender` for an `owner` is set by a call to {approve}. `value` is the new allowance."
					},
					"Transfer(address,address,uint256)": {
						"details": "Emitted when `value` tokens are moved from one account (`from`) to another (`to`). Note that `value` may be zero."
					}
				},
				"kind": "dev",
				"methods": {
					"allowance(address,address)": {
						"details": "See {IERC20-allowance}."
					},
					"approve(address,uint256)": {
						"details": "See {IERC20-approve}. NOTE: If `value` is the maximum `uint256`, the allowance is not updated on `transferFrom`. This is semantically equivalent to an infinite approval. Requirements: - `spender` cannot be the zero address."
					},
					"balanceOf(address)": {
						"details": "See {IERC20-balanceOf}."
					},
					"decimals()": {
						"details": "Returns the number of decimals used to get its user representation. For example, if `decimals` equals `2`, a balance of `505` tokens should be displayed to a user as `5.05` (`505 / 10 ** 2`). Tokens usually opt for a value of 18, imitating the relationship between Ether and Wei. This is the default value returned by this function, unless it's overridden. NOTE: This information is only used for _display_ purposes: it in no way affects any of the arithmetic of the contract, including {IERC20-balanceOf} and {IERC20-transfer}."
					},
					"name()": {
						"details": "Returns the name of the token."
					},
					"owner()": {
						"details": "Returns the address of the current owner."
					},
					"renounceOwnership()": {
						"details": "Leaves the contract without owner. It will not be possible to call `onlyOwner` functions. Can only be called by the current owner. NOTE: Renouncing ownership will leave the contract without an owner, thereby disabling any functionality that is only available to the owner."
					},
					"symbol()": {
						"details": "Returns the symbol of the token, usually a shorter version of the name."
					},
					"totalSupply()": {
						"details": "See {IERC20-totalSupply}."
					},
					"transfer(address,uint256)": {
						"details": "See {IERC20-transfer}. Requirements: - `to` cannot be the zero address. - the caller must have a balance of at least `value`."
					},
					"transferFrom(address,address,uint256)": {
						"details": "See {IERC20-transferFrom}. Skips emitting an {Approval} event indicating an allowance update. This is not required by the ERC. See {xref-ERC20-_approve-address-address-uint256-bool-}[_approve]. NOTE: Does not update the allowance if the current allowance is the maximum `uint256`. Requirements: - `from` and `to` cannot be the zero address. - `from` must have a balance of at least `value`. - the caller must have allowance for ``from``'s tokens of at least `value`."
					},
					"transferOwnership(address)": {
						"details": "Transfers ownership of the contract to a new account (`newOwner`). Can only be called by the current owner."
					}
				},
				"version": 1
			},
			"evm": {
				"assembly": "    /* \"contracts/vault.sol\":426:3422  contract YieldVault is ERC20, Ownable {... */\n  mstore(0x40, 0x80)\n    /* \"contracts/vault.sol\":698:1028  constructor(address _liquidStaking, address _gasReserve)... */\n  callvalue\n  dup1\n  iszero\n  tag_1\n  jumpi\n  0x00\n  dup1\n  revert\ntag_1:\n  pop\n  mload(0x40)\n  sub(codesize, bytecodeSize)\n  dup1\n  bytecodeSize\n  dup4\n  codecopy\n  dup2\n  add\n  0x40\n  dup2\n  swap1\n  mstore\n  tag_2\n  swap2\n  tag_3\n  jump\t// in\ntag_2:\n    /* \"contracts/vault.sol\":824:834  msg.sender */\n  caller\n    /* \"@openzeppelin/contracts/token/ERC20/ERC20.sol\":1601:1714  constructor(string memory name_, string memory symbol_) {... */\n  mload(0x40)\n  dup1\n  0x40\n  add\n  0x40\n  mstore\n  dup1\n  0x16\n  dup2\n  mstore\n  0x20\n  add\n  0x5969656c64205661756c74205374616b65642045544800000000000000000000\n  dup2\n  mstore\n  pop\n  mload(0x40)\n  dup1\n  0x40\n  add\n  0x40\n  mstore\n  dup1\n  0x07\n  dup2\n  mstore\n  0x20\n  add\n  shl(0xcb, 0x0f2eca6a88aa89)\n  dup2\n  mstore\n  pop\n    /* \"@openzeppelin/contracts/token/ERC20/ERC20.sol\":1675:1680  name_ */\n  dup2\n    /* \"@openzeppelin/contracts/token/ERC20/ERC20.sol\":1667:1672  _name */\n  0x03\n    /* \"@openzeppelin/contracts/token/ERC20/ERC20.sol\":1667:1680  _name = name_ */\n  swap1\n  dup2\n  tag_8\n  swap2\n  swap1\n  tag_9\n  jump\t// in\ntag_8:\n  pop\n    /* \"@openzeppelin/contracts/token/ERC20/ERC20.sol\":1690:1697  _symbol */\n  0x04\n    /* \"@openzeppelin/contracts/token/ERC20/ERC20.sol\":1690:1707  _symbol = symbol_ */\n  tag_10\n    /* \"@openzeppelin/contracts/token/ERC20/ERC20.sol\":1700:1707  symbol_ */\n  dup3\n    /* \"@openzeppelin/contracts/token/ERC20/ERC20.sol\":1690:1697  _symbol */\n  dup3\n    /* \"@openzeppelin/contracts/token/ERC20/ERC20.sol\":1690:1707  _symbol = symbol_ */\n  tag_9\n  jump\t// in\ntag_10:\n  pop\n  pop\n  pop\n  sub(shl(0xa0, 0x01), 0x01)\n    /* \"@openzeppelin/contracts/access/Ownable.sol\":1273:1299  initialOwner == address(0) */\n  dup2\n  and\n    /* \"@openzeppelin/contracts/access/Ownable.sol\":1269:1364  if (initialOwner == address(0)) {... */\n  tag_12\n  jumpi\n    /* \"@openzeppelin/contracts/access/Ownable.sol\":1322:1353  OwnableInvalidOwner(address(0)) */\n  mload(0x40)\n  shl(0xe0, 0x1e4fbdf7)\n  dup2\n  mstore\n    /* \"@openzeppelin/contracts/access/Ownable.sol\":1350:1351  0 */\n  0x00\n    /* \"@openzeppelin/contracts/access/Ownable.sol\":1322:1353  OwnableInvalidOwner(address(0)) */\n  0x04\n  dup3\n  add\n    /* \"#utility.yul\":3281:3332   */\n  mstore\n    /* \"#utility.yul\":3254:3272   */\n  0x24\n  add\n    /* \"@openzeppelin/contracts/access/Ownable.sol\":1322:1353  OwnableInvalidOwner(address(0)) */\n  mload(0x40)\n  dup1\n  swap2\n  sub\n  swap1\n  revert\n    /* \"@openzeppelin/contracts/access/Ownable.sol\":1269:1364  if (initialOwner == address(0)) {... */\ntag_12:\n    /* \"@openzeppelin/contracts/access/Ownable.sol\":1373:1405  _transferOwnership(initialOwner) */\n  tag_15\n    /* \"@openzeppelin/contracts/access/Ownable.sol\":1392:1404  initialOwner */\n  dup2\n    /* \"@openzeppelin/contracts/access/Ownable.sol\":1373:1391  _transferOwnership */\n  tag_16\n    /* \"@openzeppelin/contracts/access/Ownable.sol\":1373:1405  _transferOwnership(initialOwner) */\n  jump\t// in\ntag_15:\n  pop\n    /* \"contracts/vault.sol\":852:857  stETH */\n  0x06\n    /* \"contracts/vault.sol\":852:882  stETH = IERC20(_liquidStaking) */\n  dup1\n  sload\n  sub(shl(0xa0, 0x01), 0x01)\n  swap4\n  dup5\n  and\n  not(sub(shl(0xa0, 0x01), 0x01))\n  swap2\n  dup3\n  and\n  or\n  swap1\n  swap2\n  sstore\n    /* \"contracts/vault.sol\":939:949  gasReserve */\n  0x07\n    /* \"contracts/vault.sol\":939:976  gasReserve = IGasReserve(_gasReserve) */\n  dup1\n  sload\n  swap3\n  swap1\n  swap4\n  and\n  swap2\n  and\n  or\n  swap1\n  sstore\n    /* \"contracts/vault.sol\":1005:1020  block.timestamp */\n  timestamp\n    /* \"contracts/vault.sol\":987:1002  lastHarvestTime */\n  0x08\n    /* \"contracts/vault.sol\":987:1020  lastHarvestTime = block.timestamp */\n  sstore\n    /* \"contracts/vault.sol\":426:3422  contract YieldVault is ERC20, Ownable {... */\n  jump(tag_26)\n    /* \"@openzeppelin/contracts/access/Ownable.sol\":2912:3099  function _transferOwnership(address newOwner) internal virtual {... */\ntag_16:\n    /* \"@openzeppelin/contracts/access/Ownable.sol\":3004:3010  _owner */\n  0x05\n  dup1\n  sload\n  sub(shl(0xa0, 0x01), 0x01)\n    /* \"@openzeppelin/contracts/access/Ownable.sol\":3020:3037  _owner = newOwner */\n  dup4\n  dup2\n  and\n  not(sub(shl(0xa0, 0x01), 0x01))\n  dup4\n  and\n  dup2\n  or\n  swap1\n  swap4\n  sstore\n    /* \"@openzeppelin/contracts/access/Ownable.sol\":3052:3092  OwnershipTransferred(oldOwner, newOwner) */\n  mload(0x40)\n    /* \"@openzeppelin/contracts/access/Ownable.sol\":3004:3010  _owner */\n  swap2\n  and\n  swap2\n    /* \"@openzeppelin/contracts/access/Ownable.sol\":3020:3037  _owner = newOwner */\n  swap1\n    /* \"@openzeppelin/contracts/access/Ownable.sol\":3004:3010  _owner */\n  dup3\n  swap1\n    /* \"@openzeppelin/contracts/access/Ownable.sol\":3052:3092  OwnershipTransferred(oldOwner, newOwner) */\n  0x8be0079c531659141344cd1fd0a4f28419497f9722a3daafe3b4186f6b6457e0\n  swap1\n    /* \"@openzeppelin/contracts/access/Ownable.sol\":2985:3001  address oldOwner */\n  0x00\n  swap1\n    /* \"@openzeppelin/contracts/access/Ownable.sol\":3052:3092  OwnershipTransferred(oldOwner, newOwner) */\n  log3\n    /* \"@openzeppelin/contracts/access/Ownable.sol\":2975:3099  {... */\n  pop\n    /* \"@openzeppelin/contracts/access/Ownable.sol\":2912:3099  function _transferOwnership(address newOwner) internal virtual {... */\n  pop\n  jump\t// out\n    /* \"#utility.yul\":14:191   */\ntag_20:\n    /* \"#utility.yul\":93:106   */\n  dup1\n  mload\n  sub(shl(0xa0, 0x01), 0x01)\n    /* \"#utility.yul\":135:166   */\n  dup2\n  and\n    /* \"#utility.yul\":125:167   */\n  dup2\n  eq\n    /* \"#utility.yul\":115:185   */\n  tag_28\n  jumpi\n    /* \"#utility.yul\":181:182   */\n  0x00\n    /* \"#utility.yul\":178:179   */\n  dup1\n    /* \"#utility.yul\":171:183   */\n  revert\n    /* \"#utility.yul\":115:185   */\ntag_28:\n    /* \"#utility.yul\":14:191   */\n  swap2\n  swap1\n  pop\n  jump\t// out\n    /* \"#utility.yul\":196:489   */\ntag_3:\n    /* \"#utility.yul\":275:281   */\n  0x00\n    /* \"#utility.yul\":283:289   */\n  dup1\n    /* \"#utility.yul\":336:338   */\n  0x40\n    /* \"#utility.yul\":324:333   */\n  dup4\n    /* \"#utility.yul\":315:322   */\n  dup6\n    /* \"#utility.yul\":311:334   */\n  sub\n    /* \"#utility.yul\":307:339   */\n  slt\n    /* \"#utility.yul\":304:356   */\n  iszero\n  tag_30\n  jumpi\n    /* \"#utility.yul\":352:353   */\n  0x00\n    /* \"#utility.yul\":349:350   */\n  dup1\n    /* \"#utility.yul\":342:354   */\n  revert\n    /* \"#utility.yul\":304:356   */\ntag_30:\n    /* \"#utility.yul\":375:415   */\n  tag_31\n    /* \"#utility.yul\":405:414   */\n  dup4\n    /* \"#utility.yul\":375:415   */\n  tag_20\n  jump\t// in\ntag_31:\n    /* \"#utility.yul\":365:415   */\n  swap2\n  pop\n    /* \"#utility.yul\":434:483   */\n  tag_32\n    /* \"#utility.yul\":479:481   */\n  0x20\n    /* \"#utility.yul\":468:477   */\n  dup5\n    /* \"#utility.yul\":464:482   */\n  add\n    /* \"#utility.yul\":434:483   */\n  tag_20\n  jump\t// in\ntag_32:\n    /* \"#utility.yul\":424:483   */\n  swap1\n  pop\n    /* \"#utility.yul\":196:489   */\n  swap3\n  pop\n  swap3\n  swap1\n  pop\n  jump\t// out\n    /* \"#utility.yul\":494:621   */\ntag_21:\n    /* \"#utility.yul\":555:565   */\n  0x4e487b71\n    /* \"#utility.yul\":550:553   */\n  0xe0\n    /* \"#utility.yul\":546:566   */\n  shl\n    /* \"#utility.yul\":543:544   */\n  0x00\n    /* \"#utility.yul\":536:567   */\n  mstore\n    /* \"#utility.yul\":586:590   */\n  0x41\n    /* \"#utility.yul\":583:584   */\n  0x04\n    /* \"#utility.yul\":576:591   */\n  mstore\n    /* \"#utility.yul\":610:614   */\n  0x24\n    /* \"#utility.yul\":607:608   */\n  0x00\n    /* \"#utility.yul\":600:615   */\n  revert\n    /* \"#utility.yul\":626:1006   */\ntag_22:\n    /* \"#utility.yul\":705:706   */\n  0x01\n    /* \"#utility.yul\":701:713   */\n  dup2\n  dup2\n  shr\n  swap1\n    /* \"#utility.yul\":748:760   */\n  dup3\n  and\n  dup1\n    /* \"#utility.yul\":769:830   */\n  tag_35\n  jumpi\n    /* \"#utility.yul\":823:827   */\n  0x7f\n    /* \"#utility.yul\":815:821   */\n  dup3\n    /* \"#utility.yul\":811:828   */\n  and\n    /* \"#utility.yul\":801:828   */\n  swap2\n  pop\n    /* \"#utility.yul\":769:830   */\ntag_35:\n    /* \"#utility.yul\":876:878   */\n  0x20\n    /* \"#utility.yul\":868:874   */\n  dup3\n    /* \"#utility.yul\":865:879   */\n  lt\n    /* \"#utility.yul\":845:863   */\n  dup2\n    /* \"#utility.yul\":842:880   */\n  sub\n    /* \"#utility.yul\":839:1000   */\n  tag_36\n  jumpi\n    /* \"#utility.yul\":922:932   */\n  0x4e487b71\n    /* \"#utility.yul\":917:920   */\n  0xe0\n    /* \"#utility.yul\":913:933   */\n  shl\n    /* \"#utility.yul\":910:911   */\n  0x00\n    /* \"#utility.yul\":903:934   */\n  mstore\n    /* \"#utility.yul\":957:961   */\n  0x22\n    /* \"#utility.yul\":954:955   */\n  0x04\n    /* \"#utility.yul\":947:962   */\n  mstore\n    /* \"#utility.yul\":985:989   */\n  0x24\n    /* \"#utility.yul\":982:983   */\n  0x00\n    /* \"#utility.yul\":975:990   */\n  revert\n    /* \"#utility.yul\":839:1000   */\ntag_36:\n  pop\n    /* \"#utility.yul\":626:1006   */\n  swap2\n  swap1\n  pop\n  jump\t// out\n    /* \"#utility.yul\":1137:1655   */\ntag_24:\n    /* \"#utility.yul\":1239:1241   */\n  0x1f\n    /* \"#utility.yul\":1234:1237   */\n  dup3\n    /* \"#utility.yul\":1231:1242   */\n  gt\n    /* \"#utility.yul\":1228:1649   */\n  iszero\n  tag_39\n  jumpi\n    /* \"#utility.yul\":1275:1280   */\n  dup1\n    /* \"#utility.yul\":1272:1273   */\n  0x00\n    /* \"#utility.yul\":1265:1281   */\n  mstore\n    /* \"#utility.yul\":1319:1323   */\n  0x20\n    /* \"#utility.yul\":1316:1317   */\n  0x00\n    /* \"#utility.yul\":1306:1324   */\n  keccak256\n    /* \"#utility.yul\":1389:1391   */\n  0x1f\n    /* \"#utility.yul\":1377:1387   */\n  dup5\n    /* \"#utility.yul\":1373:1392   */\n  add\n    /* \"#utility.yul\":1370:1371   */\n  0x05\n    /* \"#utility.yul\":1366:1393   */\n  shr\n    /* \"#utility.yul\":1360:1364   */\n  dup2\n    /* \"#utility.yul\":1356:1394   */\n  add\n    /* \"#utility.yul\":1425:1429   */\n  0x20\n    /* \"#utility.yul\":1413:1423   */\n  dup6\n    /* \"#utility.yul\":1410:1430   */\n  lt\n    /* \"#utility.yul\":1407:1454   */\n  iszero\n  tag_40\n  jumpi\n  pop\n    /* \"#utility.yul\":1448:1452   */\n  dup1\n    /* \"#utility.yul\":1407:1454   */\ntag_40:\n    /* \"#utility.yul\":1503:1505   */\n  0x1f\n    /* \"#utility.yul\":1498:1501   */\n  dup5\n    /* \"#utility.yul\":1494:1506   */\n  add\n    /* \"#utility.yul\":1491:1492   */\n  0x05\n    /* \"#utility.yul\":1487:1507   */\n  shr\n    /* \"#utility.yul\":1481:1485   */\n  dup3\n    /* \"#utility.yul\":1477:1508   */\n  add\n    /* \"#utility.yul\":1467:1508   */\n  swap2\n  pop\n    /* \"#utility.yul\":1558:1639   */\ntag_41:\n    /* \"#utility.yul\":1576:1578   */\n  dup2\n    /* \"#utility.yul\":1569:1574   */\n  dup2\n    /* \"#utility.yul\":1566:1579   */\n  lt\n    /* \"#utility.yul\":1558:1639   */\n  iszero\n  tag_43\n  jumpi\n    /* \"#utility.yul\":1635:1636   */\n  0x00\n    /* \"#utility.yul\":1621:1637   */\n  dup2\n  sstore\n    /* \"#utility.yul\":1602:1603   */\n  0x01\n    /* \"#utility.yul\":1591:1604   */\n  add\n    /* \"#utility.yul\":1558:1639   */\n  jump(tag_41)\ntag_43:\n    /* \"#utility.yul\":1562:1565   */\n  pop\n  pop\n    /* \"#utility.yul\":1228:1649   */\ntag_39:\n    /* \"#utility.yul\":1137:1655   */\n  pop\n  pop\n  pop\n  jump\t// out\n    /* \"#utility.yul\":1831:3130   */\ntag_9:\n    /* \"#utility.yul\":1951:1961   */\n  dup2\n  mload\n  sub(shl(0x40, 0x01), 0x01)\n    /* \"#utility.yul\":1973:2003   */\n  dup2\n  gt\n    /* \"#utility.yul\":1970:2026   */\n  iszero\n  tag_47\n  jumpi\n    /* \"#utility.yul\":2006:2024   */\n  tag_47\n  tag_21\n  jump\t// in\ntag_47:\n    /* \"#utility.yul\":2035:2132   */\n  tag_48\n    /* \"#utility.yul\":2125:2131   */\n  dup2\n    /* \"#utility.yul\":2085:2123   */\n  tag_49\n    /* \"#utility.yul\":2117:2121   */\n  dup5\n    /* \"#utility.yul\":2111:2122   */\n  sload\n    /* \"#utility.yul\":2085:2123   */\n  tag_22\n  jump\t// in\ntag_49:\n    /* \"#utility.yul\":2079:2083   */\n  dup5\n    /* \"#utility.yul\":2035:2132   */\n  tag_24\n  jump\t// in\ntag_48:\n    /* \"#utility.yul\":2181:2185   */\n  0x20\n    /* \"#utility.yul\":2212:2214   */\n  0x1f\n    /* \"#utility.yul\":2201:2215   */\n  dup3\n  gt\n    /* \"#utility.yul\":2229:2230   */\n  0x01\n    /* \"#utility.yul\":2224:2873   */\n  dup2\n  eq\n  tag_51\n  jumpi\n    /* \"#utility.yul\":2917:2918   */\n  0x00\n    /* \"#utility.yul\":2934:2940   */\n  dup4\n    /* \"#utility.yul\":2931:3020   */\n  iszero\n  tag_52\n  jumpi\n  pop\n    /* \"#utility.yul\":2986:3005   */\n  dup5\n  dup3\n  add\n    /* \"#utility.yul\":2980:3006   */\n  mload\n    /* \"#utility.yul\":2931:3020   */\ntag_52:\n  not(0x00)\n    /* \"#utility.yul\":1788:1789   */\n  0x03\n    /* \"#utility.yul\":1784:1795   */\n  dup6\n  swap1\n  shl\n    /* \"#utility.yul\":1780:1804   */\n  shr\n    /* \"#utility.yul\":1776:1805   */\n  not\n    /* \"#utility.yul\":1766:1806   */\n  and\n    /* \"#utility.yul\":1812:1813   */\n  0x01\n    /* \"#utility.yul\":1808:1819   */\n  dup5\n  swap1\n  shl\n    /* \"#utility.yul\":1763:1820   */\n  or\n    /* \"#utility.yul\":3033:3114   */\n  dup5\n  sstore\n    /* \"#utility.yul\":2194:3124   */\n  jump(tag_43)\n    /* \"#utility.yul\":2224:2873   */\ntag_51:\n    /* \"#utility.yul\":1084:1085   */\n  0x00\n    /* \"#utility.yul\":1077:1091   */\n  dup5\n  dup2\n  mstore\n    /* \"#utility.yul\":1121:1125   */\n  0x20\n    /* \"#utility.yul\":1108:1126   */\n  dup2\n  keccak256\n  not(0x1f)\n    /* \"#utility.yul\":2260:2280   */\n  dup6\n  and\n  swap2\n    /* \"#utility.yul\":2378:2600   */\ntag_55:\n    /* \"#utility.yul\":2392:2399   */\n  dup3\n    /* \"#utility.yul\":2389:2390   */\n  dup2\n    /* \"#utility.yul\":2386:2400   */\n  lt\n    /* \"#utility.yul\":2378:2600   */\n  iszero\n  tag_57\n  jumpi\n    /* \"#utility.yul\":2474:2493   */\n  dup8\n  dup6\n  add\n    /* \"#utility.yul\":2468:2494   */\n  mload\n    /* \"#utility.yul\":2453:2495   */\n  dup3\n  sstore\n    /* \"#utility.yul\":2581:2585   */\n  0x20\n    /* \"#utility.yul\":2566:2586   */\n  swap5\n  dup6\n  add\n  swap5\n    /* \"#utility.yul\":2534:2535   */\n  0x01\n    /* \"#utility.yul\":2522:2536   */\n  swap1\n  swap3\n  add\n  swap2\n    /* \"#utility.yul\":2408:2420   */\n  add\n    /* \"#utility.yul\":2378:2600   */\n  jump(tag_55)\ntag_57:\n    /* \"#utility.yul\":2382:2385   */\n  pop\n    /* \"#utility.yul\":2628:2634   */\n  dup5\n    /* \"#utility.yul\":2619:2626   */\n  dup3\n    /* \"#utility.yul\":2616:2635   */\n  lt\n    /* \"#utility.yul\":2613:2814   */\n  iszero\n  tag_58\n  jumpi\n    /* \"#utility.yul\":2689:2708   */\n  dup7\n  dup5\n  add\n    /* \"#utility.yul\":2683:2709   */\n  mload\n  not(0x00)\n    /* \"#utility.yul\":2772:2773   */\n  0x03\n    /* \"#utility.yul\":2768:2782   */\n  dup8\n  swap1\n  shl\n    /* \"#utility.yul\":2784:2787   */\n  0xf8\n    /* \"#utility.yul\":2764:2788   */\n  and\n    /* \"#utility.yul\":2760:2797   */\n  shr\n    /* \"#utility.yul\":2756:2798   */\n  not\n    /* \"#utility.yul\":2741:2799   */\n  and\n    /* \"#utility.yul\":2726:2800   */\n  dup2\n  sstore\n    /* \"#utility.yul\":2613:2814   */\ntag_58:\n  pop\n  pop\n  pop\n  pop\n    /* \"#utility.yul\":2860:2861   */\n  0x01\n    /* \"#utility.yul\":2844:2858   */\n  swap1\n  dup2\n  shl\n    /* \"#utility.yul\":2840:2862   */\n  add\n    /* \"#utility.yul\":2827:2863   */\n  swap1\n  sstore\n  pop\n    /* \"#utility.yul\":1831:3130   */\n  jump\t// out\n    /* \"#utility.yul\":3135:3338   */\ntag_26:\n    /* \"contracts/vault.sol\":426:3422  contract YieldVault is ERC20, Ownable {... */\n  dataSize(sub_0)\n  dup1\n  dataOffset(sub_0)\n  0x00\n  codecopy\n  0x00\n  return\nstop\n\nsub_0: assembly {\n        /* \"contracts/vault.sol\":426:3422  contract YieldVault is ERC20, Ownable {... */\n      mstore(0x40, 0x80)\n      jumpi(tag_1, lt(calldatasize, 0x04))\n      shr(0xe0, calldataload(0x00))\n      dup1\n      0x8da5cb5b\n      gt\n      tag_23\n      jumpi\n      dup1\n      0xd0e30db0\n      gt\n      tag_24\n      jumpi\n      dup1\n      0xd0e30db0\n      eq\n      tag_18\n      jumpi\n      dup1\n      0xdd62ed3e\n      eq\n      tag_19\n      jumpi\n      dup1\n      0xee172546\n      eq\n      tag_20\n      jumpi\n      dup1\n      0xeea7570e\n      eq\n      tag_21\n      jumpi\n      dup1\n      0xf2fde38b\n      eq\n      tag_22\n      jumpi\n      0x00\n      dup1\n      revert\n    tag_24:\n      dup1\n      0x8da5cb5b\n      eq\n      tag_13\n      jumpi\n      dup1\n      0x95d89b41\n      eq\n      tag_14\n      jumpi\n      dup1\n      0xa9059cbb\n      eq\n      tag_15\n      jumpi\n      dup1\n      0xc1fe3e48\n      eq\n      tag_16\n      jumpi\n      dup1\n      0xceb0f626\n      eq\n      tag_17\n      jumpi\n      0x00\n      dup1\n      revert\n    tag_23:\n      dup1\n      0x2e1a7d4d\n      gt\n      tag_25\n      jumpi\n      dup1\n      0x2e1a7d4d\n      eq\n      tag_8\n      jumpi\n      dup1\n      0x313ce567\n      eq\n      tag_9\n      jumpi\n      dup1\n      0x4641257d\n      eq\n      tag_10\n      jumpi\n      dup1\n      0x70a08231\n      eq\n      tag_11\n      jumpi\n      dup1\n      0x715018a6\n      eq\n      tag_12\n      jumpi\n      0x00\n      dup1\n      revert\n    tag_25:\n      dup1\n      0x8cc262\n      eq\n      tag_3\n      jumpi\n      dup1\n      0x06fdde03\n      eq\n      tag_4\n      jumpi\n      dup1\n      0x095ea7b3\n      eq\n      tag_5\n      jumpi\n      dup1\n      0x18160ddd\n      eq\n      tag_6\n      jumpi\n      dup1\n      0x23b872dd\n      eq\n      tag_7\n      jumpi\n      0x00\n      dup1\n      revert\n    tag_1:\n      jumpi(tag_2, calldatasize)\n      stop\n    tag_2:\n      0x00\n      dup1\n      revert\n        /* \"contracts/vault.sol\":3088:3382  function earned(address user) external view returns (uint256) {... */\n    tag_3:\n      callvalue\n      dup1\n      iszero\n      tag_28\n      jumpi\n      0x00\n      dup1\n      revert\n    tag_28:\n      pop\n      tag_29\n      tag_30\n      calldatasize\n      0x04\n      tag_31\n      jump\t// in\n    tag_30:\n      tag_32\n      jump\t// in\n    tag_29:\n      mload(0x40)\n        /* \"#utility.yul\":529:554   */\n      swap1\n      dup2\n      mstore\n        /* \"#utility.yul\":517:519   */\n      0x20\n        /* \"#utility.yul\":502:520   */\n      add\n        /* \"contracts/vault.sol\":3088:3382  function earned(address user) external view returns (uint256) {... */\n    tag_33:\n      mload(0x40)\n      dup1\n      swap2\n      sub\n      swap1\n      return\n        /* \"@openzeppelin/contracts/token/ERC20/ERC20.sol\":1779:1868  function name() public view virtual returns (string memory) {... */\n    tag_4:\n      callvalue\n      dup1\n      iszero\n      tag_35\n      jumpi\n      0x00\n      dup1\n      revert\n    tag_35:\n      pop\n      tag_36\n      tag_37\n      jump\t// in\n    tag_36:\n      mload(0x40)\n      tag_33\n      swap2\n      swap1\n      tag_39\n      jump\t// in\n        /* \"@openzeppelin/contracts/token/ERC20/ERC20.sol\":3998:4184  function approve(address spender, uint256 value) public virtual returns (bool) {... */\n    tag_5:\n      callvalue\n      dup1\n      iszero\n      tag_40\n      jumpi\n      0x00\n      dup1\n      revert\n    tag_40:\n      pop\n      tag_41\n      tag_42\n      calldatasize\n      0x04\n      tag_43\n      jump\t// in\n    tag_42:\n      tag_44\n      jump\t// in\n    tag_41:\n      mload(0x40)\n        /* \"#utility.yul\":1458:1472   */\n      swap1\n      iszero\n        /* \"#utility.yul\":1451:1473   */\n      iszero\n        /* \"#utility.yul\":1433:1474   */\n      dup2\n      mstore\n        /* \"#utility.yul\":1421:1423   */\n      0x20\n        /* \"#utility.yul\":1406:1424   */\n      add\n        /* \"@openzeppelin/contracts/token/ERC20/ERC20.sol\":3998:4184  function approve(address spender, uint256 value) public virtual returns (bool) {... */\n      tag_33\n        /* \"#utility.yul\":1293:1480   */\n      jump\n        /* \"@openzeppelin/contracts/token/ERC20/ERC20.sol\":2849:2946  function totalSupply() public view virtual returns (uint256) {... */\n    tag_6:\n      callvalue\n      dup1\n      iszero\n      tag_47\n      jumpi\n      0x00\n      dup1\n      revert\n    tag_47:\n      pop\n        /* \"@openzeppelin/contracts/token/ERC20/ERC20.sol\":2927:2939  _totalSupply */\n      sload(0x02)\n        /* \"@openzeppelin/contracts/token/ERC20/ERC20.sol\":2849:2946  function totalSupply() public view virtual returns (uint256) {... */\n      jump(tag_29)\n        /* \"@openzeppelin/contracts/token/ERC20/ERC20.sol\":4776:5020  function transferFrom(address from, address to, uint256 value) public virtual returns (bool) {... */\n    tag_7:\n      callvalue\n      dup1\n      iszero\n      tag_51\n      jumpi\n      0x00\n      dup1\n      revert\n    tag_51:\n      pop\n      tag_41\n      tag_53\n      calldatasize\n      0x04\n      tag_54\n      jump\t// in\n    tag_53:\n      tag_55\n      jump\t// in\n        /* \"contracts/vault.sol\":1657:2179  function withdraw(uint256 _amount) external {... */\n    tag_8:\n      callvalue\n      dup1\n      iszero\n      tag_57\n      jumpi\n      0x00\n      dup1\n      revert\n    tag_57:\n      pop\n      tag_58\n      tag_59\n      calldatasize\n      0x04\n      tag_60\n      jump\t// in\n    tag_59:\n      tag_61\n      jump\t// in\n    tag_58:\n      stop\n        /* \"@openzeppelin/contracts/token/ERC20/ERC20.sol\":2707:2789  function decimals() public view virtual returns (uint8) {... */\n    tag_9:\n      callvalue\n      dup1\n      iszero\n      tag_62\n      jumpi\n      0x00\n      dup1\n      revert\n    tag_62:\n      pop\n      mload(0x40)\n        /* \"@openzeppelin/contracts/token/ERC20/ERC20.sol\":2780:2782  18 */\n      0x12\n        /* \"#utility.yul\":2237:2273   */\n      dup2\n      mstore\n        /* \"#utility.yul\":2225:2227   */\n      0x20\n        /* \"#utility.yul\":2210:2228   */\n      add\n        /* \"@openzeppelin/contracts/token/ERC20/ERC20.sol\":2707:2789  function decimals() public view virtual returns (uint8) {... */\n      tag_33\n        /* \"#utility.yul\":2095:2279   */\n      jump\n        /* \"contracts/vault.sol\":2265:3005  function harvest() external onlyOwner {... */\n    tag_10:\n      callvalue\n      dup1\n      iszero\n      tag_67\n      jumpi\n      0x00\n      dup1\n      revert\n    tag_67:\n      pop\n      tag_58\n      tag_69\n      jump\t// in\n        /* \"@openzeppelin/contracts/token/ERC20/ERC20.sol\":3004:3120  function balanceOf(address account) public view virtual returns (uint256) {... */\n    tag_11:\n      callvalue\n      dup1\n      iszero\n      tag_70\n      jumpi\n      0x00\n      dup1\n      revert\n    tag_70:\n      pop\n      tag_29\n      tag_72\n      calldatasize\n      0x04\n      tag_31\n      jump\t// in\n    tag_72:\n      sub(shl(0xa0, 0x01), 0x01)\n        /* \"@openzeppelin/contracts/token/ERC20/ERC20.sol\":3095:3113  _balances[account] */\n      and\n        /* \"@openzeppelin/contracts/token/ERC20/ERC20.sol\":3069:3076  uint256 */\n      0x00\n        /* \"@openzeppelin/contracts/token/ERC20/ERC20.sol\":3095:3113  _balances[account] */\n      swap1\n      dup2\n      mstore\n      0x20\n      dup2\n      swap1\n      mstore\n      0x40\n      swap1\n      keccak256\n      sload\n      swap1\n        /* \"@openzeppelin/contracts/token/ERC20/ERC20.sol\":3004:3120  function balanceOf(address account) public view virtual returns (uint256) {... */\n      jump\n        /* \"@openzeppelin/contracts/access/Ownable.sol\":2293:2394  function renounceOwnership() public virtual onlyOwner {... */\n    tag_12:\n      callvalue\n      dup1\n      iszero\n      tag_75\n      jumpi\n      0x00\n      dup1\n      revert\n    tag_75:\n      pop\n      tag_58\n      tag_77\n      jump\t// in\n        /* \"@openzeppelin/contracts/access/Ownable.sol\":1638:1723  function owner() public view virtual returns (address) {... */\n    tag_13:\n      callvalue\n      dup1\n      iszero\n      tag_78\n      jumpi\n      0x00\n      dup1\n      revert\n    tag_78:\n      pop\n        /* \"@openzeppelin/contracts/access/Ownable.sol\":1710:1716  _owner */\n      and(sub(shl(0xa0, 0x01), 0x01), sload(0x05))\n        /* \"@openzeppelin/contracts/access/Ownable.sol\":1638:1723  function owner() public view virtual returns (address) {... */\n    tag_79:\n      mload(0x40)\n      sub(shl(0xa0, 0x01), 0x01)\n        /* \"#utility.yul\":2448:2480   */\n      swap1\n      swap2\n      and\n        /* \"#utility.yul\":2430:2481   */\n      dup2\n      mstore\n        /* \"#utility.yul\":2418:2420   */\n      0x20\n        /* \"#utility.yul\":2403:2421   */\n      add\n        /* \"@openzeppelin/contracts/access/Ownable.sol\":1638:1723  function owner() public view virtual returns (address) {... */\n      tag_33\n        /* \"#utility.yul\":2284:2487   */\n      jump\n        /* \"@openzeppelin/contracts/token/ERC20/ERC20.sol\":1981:2074  function symbol() public view virtual returns (string memory) {... */\n    tag_14:\n      callvalue\n      dup1\n      iszero\n      tag_83\n      jumpi\n      0x00\n      dup1\n      revert\n    tag_83:\n      pop\n      tag_36\n      tag_85\n      jump\t// in\n        /* \"@openzeppelin/contracts/token/ERC20/ERC20.sol\":3315:3493  function transfer(address to, uint256 value) public virtual returns (bool) {... */\n    tag_15:\n      callvalue\n      dup1\n      iszero\n      tag_87\n      jumpi\n      0x00\n      dup1\n      revert\n    tag_87:\n      pop\n      tag_41\n      tag_89\n      calldatasize\n      0x04\n      tag_43\n      jump\t// in\n    tag_89:\n      tag_90\n      jump\t// in\n        /* \"contracts/vault.sol\":471:490  IERC20 public stETH */\n    tag_16:\n      callvalue\n      dup1\n      iszero\n      tag_92\n      jumpi\n      0x00\n      dup1\n      revert\n    tag_92:\n      pop\n      sload(0x06)\n      tag_79\n      swap1\n      sub(shl(0xa0, 0x01), 0x01)\n      and\n      dup2\n      jump\n        /* \"contracts/vault.sol\":583:613  uint256 public lastHarvestTime */\n    tag_17:\n      callvalue\n      dup1\n      iszero\n      tag_97\n      jumpi\n      0x00\n      dup1\n      revert\n    tag_97:\n      pop\n      tag_29\n      sload(0x08)\n      dup2\n      jump\n        /* \"contracts/vault.sol\":1130:1569  function deposit() external payable {... */\n    tag_18:\n      tag_58\n      tag_102\n      jump\t// in\n        /* \"@openzeppelin/contracts/token/ERC20/ERC20.sol\":3551:3691  function allowance(address owner, address spender) public view virtual returns (uint256) {... */\n    tag_19:\n      callvalue\n      dup1\n      iszero\n      tag_103\n      jumpi\n      0x00\n      dup1\n      revert\n    tag_103:\n      pop\n      tag_29\n      tag_105\n      calldatasize\n      0x04\n      tag_106\n      jump\t// in\n    tag_105:\n      sub(shl(0xa0, 0x01), 0x01)\n        /* \"@openzeppelin/contracts/token/ERC20/ERC20.sol\":3657:3675  _allowances[owner] */\n      swap2\n      dup3\n      and\n        /* \"@openzeppelin/contracts/token/ERC20/ERC20.sol\":3631:3638  uint256 */\n      0x00\n        /* \"@openzeppelin/contracts/token/ERC20/ERC20.sol\":3657:3675  _allowances[owner] */\n      swap1\n      dup2\n      mstore\n        /* \"@openzeppelin/contracts/token/ERC20/ERC20.sol\":3657:3668  _allowances */\n      0x01\n        /* \"@openzeppelin/contracts/token/ERC20/ERC20.sol\":3657:3675  _allowances[owner] */\n      0x20\n      swap1\n      dup2\n      mstore\n      0x40\n      dup1\n      dup4\n      keccak256\n        /* \"@openzeppelin/contracts/token/ERC20/ERC20.sol\":3657:3684  _allowances[owner][spender] */\n      swap4\n      swap1\n      swap5\n      and\n      dup3\n      mstore\n      swap2\n      swap1\n      swap2\n      mstore\n      keccak256\n      sload\n      swap1\n        /* \"@openzeppelin/contracts/token/ERC20/ERC20.sol\":3551:3691  function allowance(address owner, address spender) public view virtual returns (uint256) {... */\n      jump\n        /* \"contracts/vault.sol\":620:658  uint256 public totalRewardsDistributed */\n    tag_20:\n      callvalue\n      dup1\n      iszero\n      tag_109\n      jumpi\n      0x00\n      dup1\n      revert\n    tag_109:\n      pop\n      tag_29\n      sload(0x09)\n      dup2\n      jump\n        /* \"contracts/vault.sol\":545:574  IGasReserve public gasReserve */\n    tag_21:\n      callvalue\n      dup1\n      iszero\n      tag_113\n      jumpi\n      0x00\n      dup1\n      revert\n    tag_113:\n      pop\n      sload(0x07)\n      tag_79\n      swap1\n      sub(shl(0xa0, 0x01), 0x01)\n      and\n      dup2\n      jump\n        /* \"@openzeppelin/contracts/access/Ownable.sol\":2543:2758  function transferOwnership(address newOwner) public virtual onlyOwner {... */\n    tag_22:\n      callvalue\n      dup1\n      iszero\n      tag_118\n      jumpi\n      0x00\n      dup1\n      revert\n    tag_118:\n      pop\n      tag_58\n      tag_120\n      calldatasize\n      0x04\n      tag_31\n      jump\t// in\n    tag_120:\n      tag_121\n      jump\t// in\n        /* \"contracts/vault.sol\":3088:3382  function earned(address user) external view returns (uint256) {... */\n    tag_32:\n        /* \"contracts/vault.sol\":3141:3148  uint256 */\n      0x00\n        /* \"contracts/vault.sol\":3161:3185  uint256 totalSupplyVault */\n      dup1\n        /* \"contracts/vault.sol\":3188:3201  totalSupply() */\n      tag_123\n        /* \"@openzeppelin/contracts/token/ERC20/ERC20.sol\":2927:2939  _totalSupply */\n      sload(0x02)\n      swap1\n        /* \"@openzeppelin/contracts/token/ERC20/ERC20.sol\":2849:2946  function totalSupply() public view virtual returns (uint256) {... */\n      jump\n        /* \"contracts/vault.sol\":3188:3201  totalSupply() */\n    tag_123:\n        /* \"contracts/vault.sol\":3235:3240  stETH */\n      sload(0x06)\n        /* \"contracts/vault.sol\":3235:3265  stETH.balanceOf(address(this)) */\n      mload(0x40)\n      shl(0xe0, 0x70a08231)\n      dup2\n      mstore\n        /* \"contracts/vault.sol\":3259:3263  this */\n      address\n        /* \"contracts/vault.sol\":3235:3265  stETH.balanceOf(address(this)) */\n      0x04\n      dup3\n      add\n        /* \"#utility.yul\":2430:2481   */\n      mstore\n        /* \"contracts/vault.sol\":3161:3201  uint256 totalSupplyVault = totalSupply() */\n      swap2\n      swap3\n      pop\n        /* \"contracts/vault.sol\":3212:3232  uint256 vaultBalance */\n      0x00\n      swap2\n      sub(shl(0xa0, 0x01), 0x01)\n        /* \"contracts/vault.sol\":3235:3240  stETH */\n      swap1\n      swap2\n      and\n      swap1\n        /* \"contracts/vault.sol\":3235:3250  stETH.balanceOf */\n      0x70a08231\n      swap1\n        /* \"#utility.yul\":2403:2421   */\n      0x24\n      add\n        /* \"contracts/vault.sol\":3235:3265  stETH.balanceOf(address(this)) */\n      0x20\n      mload(0x40)\n      dup1\n      dup4\n      sub\n      dup2\n      dup7\n      gas\n      staticcall\n      iszero\n      dup1\n      iszero\n      tag_126\n      jumpi\n      returndatasize\n      0x00\n      dup1\n      returndatacopy\n      revert(0x00, returndatasize)\n    tag_126:\n      pop\n      pop\n      pop\n      pop\n      mload(0x40)\n      returndatasize\n      not(0x1f)\n      0x1f\n      dup3\n      add\n      and\n      dup3\n      add\n      dup1\n      0x40\n      mstore\n      pop\n      dup2\n      add\n      swap1\n      tag_127\n      swap2\n      swap1\n      tag_128\n      jump\t// in\n    tag_127:\n        /* \"contracts/vault.sol\":3212:3265  uint256 vaultBalance = stETH.balanceOf(address(this)) */\n      swap1\n      pop\n        /* \"contracts/vault.sol\":3276:3293  uint256 userShare */\n      0x00\n        /* \"contracts/vault.sol\":3331:3347  totalSupplyVault */\n      dup3\n        /* \"contracts/vault.sol\":3312:3327  balanceOf(user) */\n      tag_129\n        /* \"contracts/vault.sol\":3322:3326  user */\n      dup7\n      sub(shl(0xa0, 0x01), 0x01)\n        /* \"@openzeppelin/contracts/token/ERC20/ERC20.sol\":3095:3113  _balances[account] */\n      and\n        /* \"@openzeppelin/contracts/token/ERC20/ERC20.sol\":3069:3076  uint256 */\n      0x00\n        /* \"@openzeppelin/contracts/token/ERC20/ERC20.sol\":3095:3113  _balances[account] */\n      swap1\n      dup2\n      mstore\n      0x20\n      dup2\n      swap1\n      mstore\n      0x40\n      swap1\n      keccak256\n      sload\n      swap1\n        /* \"@openzeppelin/contracts/token/ERC20/ERC20.sol\":3004:3120  function balanceOf(address account) public view virtual returns (uint256) {... */\n      jump\n        /* \"contracts/vault.sol\":3312:3327  balanceOf(user) */\n    tag_129:\n        /* \"contracts/vault.sol\":3297:3327  vaultBalance * balanceOf(user) */\n      tag_130\n      swap1\n        /* \"contracts/vault.sol\":3297:3309  vaultBalance */\n      dup5\n        /* \"contracts/vault.sol\":3297:3327  vaultBalance * balanceOf(user) */\n      tag_131\n      jump\t// in\n    tag_130:\n        /* \"contracts/vault.sol\":3296:3347  (vaultBalance * balanceOf(user)) / totalSupplyVault */\n      tag_132\n      swap2\n      swap1\n      tag_133\n      jump\t// in\n    tag_132:\n        /* \"contracts/vault.sol\":3276:3347  uint256 userShare = (vaultBalance * balanceOf(user)) / totalSupplyVault */\n      swap6\n        /* \"contracts/vault.sol\":3088:3382  function earned(address user) external view returns (uint256) {... */\n      swap5\n      pop\n      pop\n      pop\n      pop\n      pop\n      jump\t// out\n        /* \"@openzeppelin/contracts/token/ERC20/ERC20.sol\":1779:1868  function name() public view virtual returns (string memory) {... */\n    tag_37:\n        /* \"@openzeppelin/contracts/token/ERC20/ERC20.sol\":1824:1837  string memory */\n      0x60\n        /* \"@openzeppelin/contracts/token/ERC20/ERC20.sol\":1856:1861  _name */\n      0x03\n        /* \"@openzeppelin/contracts/token/ERC20/ERC20.sol\":1849:1861  return _name */\n      dup1\n      sload\n      tag_135\n      swap1\n      tag_136\n      jump\t// in\n    tag_135:\n      dup1\n      0x1f\n      add\n      0x20\n      dup1\n      swap2\n      div\n      mul\n      0x20\n      add\n      mload(0x40)\n      swap1\n      dup2\n      add\n      0x40\n      mstore\n      dup1\n      swap3\n      swap2\n      swap1\n      dup2\n      dup2\n      mstore\n      0x20\n      add\n      dup3\n      dup1\n      sload\n      tag_137\n      swap1\n      tag_136\n      jump\t// in\n    tag_137:\n      dup1\n      iszero\n      tag_138\n      jumpi\n      dup1\n      0x1f\n      lt\n      tag_139\n      jumpi\n      0x0100\n      dup1\n      dup4\n      sload\n      div\n      mul\n      dup4\n      mstore\n      swap2\n      0x20\n      add\n      swap2\n      jump(tag_138)\n    tag_139:\n      dup3\n      add\n      swap2\n      swap1\n      0x00\n      mstore\n      keccak256(0x00, 0x20)\n      swap1\n    tag_140:\n      dup2\n      sload\n      dup2\n      mstore\n      swap1\n      0x01\n      add\n      swap1\n      0x20\n      add\n      dup1\n      dup4\n      gt\n      tag_140\n      jumpi\n      dup3\n      swap1\n      sub\n      0x1f\n      and\n      dup3\n      add\n      swap2\n    tag_138:\n      pop\n      pop\n      pop\n      pop\n      pop\n      swap1\n      pop\n        /* \"@openzeppelin/contracts/token/ERC20/ERC20.sol\":1779:1868  function name() public view virtual returns (string memory) {... */\n      swap1\n      jump\t// out\n        /* \"@openzeppelin/contracts/token/ERC20/ERC20.sol\":3998:4184  function approve(address spender, uint256 value) public virtual returns (bool) {... */\n    tag_44:\n        /* \"@openzeppelin/contracts/token/ERC20/ERC20.sol\":4071:4075  bool */\n      0x00\n        /* \"@openzeppelin/contracts/utils/Context.sol\":735:745  msg.sender */\n      caller\n        /* \"@openzeppelin/contracts/token/ERC20/ERC20.sol\":4125:4156  _approve(owner, spender, value) */\n      tag_144\n        /* \"@openzeppelin/contracts/utils/Context.sol\":735:745  msg.sender */\n      dup2\n        /* \"@openzeppelin/contracts/token/ERC20/ERC20.sol\":4141:4148  spender */\n      dup6\n        /* \"@openzeppelin/contracts/token/ERC20/ERC20.sol\":4150:4155  value */\n      dup6\n        /* \"@openzeppelin/contracts/token/ERC20/ERC20.sol\":4125:4133  _approve */\n      tag_145\n        /* \"@openzeppelin/contracts/token/ERC20/ERC20.sol\":4125:4156  _approve(owner, spender, value) */\n      jump\t// in\n    tag_144:\n        /* \"@openzeppelin/contracts/token/ERC20/ERC20.sol\":4173:4177  true */\n      0x01\n        /* \"@openzeppelin/contracts/token/ERC20/ERC20.sol\":4166:4177  return true */\n      swap2\n      pop\n      pop\n        /* \"@openzeppelin/contracts/token/ERC20/ERC20.sol\":3998:4184  function approve(address spender, uint256 value) public virtual returns (bool) {... */\n    tag_141:\n      swap3\n      swap2\n      pop\n      pop\n      jump\t// out\n        /* \"@openzeppelin/contracts/token/ERC20/ERC20.sol\":4776:5020  function transferFrom(address from, address to, uint256 value) public virtual returns (bool) {... */\n    tag_55:\n        /* \"@openzeppelin/contracts/token/ERC20/ERC20.sol\":4863:4867  bool */\n      0x00\n        /* \"@openzeppelin/contracts/utils/Context.sol\":735:745  msg.sender */\n      caller\n        /* \"@openzeppelin/contracts/token/ERC20/ERC20.sol\":4919:4956  _spendAllowance(from, spender, value) */\n      tag_149\n        /* \"@openzeppelin/contracts/token/ERC20/ERC20.sol\":4935:4939  from */\n      dup6\n        /* \"@openzeppelin/contracts/utils/Context.sol\":735:745  msg.sender */\n      dup3\n        /* \"@openzeppelin/contracts/token/ERC20/ERC20.sol\":4950:4955  value */\n      dup6\n        /* \"@openzeppelin/contracts/token/ERC20/ERC20.sol\":4919:4934  _spendAllowance */\n      tag_150\n        /* \"@openzeppelin/contracts/token/ERC20/ERC20.sol\":4919:4956  _spendAllowance(from, spender, value) */\n      jump\t// in\n    tag_149:\n        /* \"@openzeppelin/contracts/token/ERC20/ERC20.sol\":4966:4992  _transfer(from, to, value) */\n      tag_151\n        /* \"@openzeppelin/contracts/token/ERC20/ERC20.sol\":4976:4980  from */\n      dup6\n        /* \"@openzeppelin/contracts/token/ERC20/ERC20.sol\":4982:4984  to */\n      dup6\n        /* \"@openzeppelin/contracts/token/ERC20/ERC20.sol\":4986:4991  value */\n      dup6\n        /* \"@openzeppelin/contracts/token/ERC20/ERC20.sol\":4966:4975  _transfer */\n      tag_152\n        /* \"@openzeppelin/contracts/token/ERC20/ERC20.sol\":4966:4992  _transfer(from, to, value) */\n      jump\t// in\n    tag_151:\n      pop\n        /* \"@openzeppelin/contracts/token/ERC20/ERC20.sol\":5009:5013  true */\n      0x01\n      swap5\n        /* \"@openzeppelin/contracts/token/ERC20/ERC20.sol\":4776:5020  function transferFrom(address from, address to, uint256 value) public virtual returns (bool) {... */\n      swap4\n      pop\n      pop\n      pop\n      pop\n      jump\t// out\n        /* \"contracts/vault.sol\":1657:2179  function withdraw(uint256 _amount) external {... */\n    tag_61:\n        /* \"contracts/vault.sol\":1730:1740  msg.sender */\n      caller\n        /* \"@openzeppelin/contracts/token/ERC20/ERC20.sol\":3069:3076  uint256 */\n      0x00\n        /* \"@openzeppelin/contracts/token/ERC20/ERC20.sol\":3095:3113  _balances[account] */\n      swap1\n      dup2\n      mstore\n      0x20\n      dup2\n      swap1\n      mstore\n      0x40\n      swap1\n      keccak256\n      sload\n        /* \"contracts/vault.sol\":1745:1752  _amount */\n      dup2\n      gt\n        /* \"contracts/vault.sol\":1720:1752  balanceOf(msg.sender) >= _amount */\n      iszero\n        /* \"contracts/vault.sol\":1712:1775  require(balanceOf(msg.sender) >= _amount, \"Not enough yvSTETH\") */\n      tag_155\n      jumpi\n      mload(0x40)\n      shl(0xe5, 0x461bcd)\n      dup2\n      mstore\n        /* \"#utility.yul\":4509:4511   */\n      0x20\n        /* \"contracts/vault.sol\":1712:1775  require(balanceOf(msg.sender) >= _amount, \"Not enough yvSTETH\") */\n      0x04\n      dup3\n      add\n        /* \"#utility.yul\":4491:4512   */\n      mstore\n        /* \"#utility.yul\":4548:4550   */\n      0x12\n        /* \"#utility.yul\":4528:4546   */\n      0x24\n      dup3\n      add\n        /* \"#utility.yul\":4521:4551   */\n      mstore\n      shl(0x73, 0x09cdee840cadcdeeaced040f2eca6a88aa89)\n        /* \"#utility.yul\":4567:4585   */\n      0x44\n      dup3\n      add\n        /* \"#utility.yul\":4560:4608   */\n      mstore\n        /* \"#utility.yul\":4625:4643   */\n      0x64\n      add\n        /* \"contracts/vault.sol\":1712:1775  require(balanceOf(msg.sender) >= _amount, \"Not enough yvSTETH\") */\n    tag_156:\n      mload(0x40)\n      dup1\n      swap2\n      sub\n      swap1\n      revert\n    tag_155:\n        /* \"contracts/vault.sol\":1788:1812  uint256 totalSupplyVault */\n      0x00\n        /* \"contracts/vault.sol\":1815:1828  totalSupply() */\n      tag_158\n        /* \"@openzeppelin/contracts/token/ERC20/ERC20.sol\":2927:2939  _totalSupply */\n      sload(0x02)\n      swap1\n        /* \"@openzeppelin/contracts/token/ERC20/ERC20.sol\":2849:2946  function totalSupply() public view virtual returns (uint256) {... */\n      jump\n        /* \"contracts/vault.sol\":1815:1828  totalSupply() */\n    tag_158:\n        /* \"contracts/vault.sol\":1862:1867  stETH */\n      sload(0x06)\n        /* \"contracts/vault.sol\":1862:1892  stETH.balanceOf(address(this)) */\n      mload(0x40)\n      shl(0xe0, 0x70a08231)\n      dup2\n      mstore\n        /* \"contracts/vault.sol\":1886:1890  this */\n      address\n        /* \"contracts/vault.sol\":1862:1892  stETH.balanceOf(address(this)) */\n      0x04\n      dup3\n      add\n        /* \"#utility.yul\":2430:2481   */\n      mstore\n        /* \"contracts/vault.sol\":1788:1828  uint256 totalSupplyVault = totalSupply() */\n      swap2\n      swap3\n      pop\n        /* \"contracts/vault.sol\":1839:1859  uint256 vaultBalance */\n      0x00\n      swap2\n      sub(shl(0xa0, 0x01), 0x01)\n        /* \"contracts/vault.sol\":1862:1867  stETH */\n      swap1\n      swap2\n      and\n      swap1\n        /* \"contracts/vault.sol\":1862:1877  stETH.balanceOf */\n      0x70a08231\n      swap1\n        /* \"#utility.yul\":2403:2421   */\n      0x24\n      add\n        /* \"contracts/vault.sol\":1862:1892  stETH.balanceOf(address(this)) */\n      0x20\n      mload(0x40)\n      dup1\n      dup4\n      sub\n      dup2\n      dup7\n      gas\n      staticcall\n      iszero\n      dup1\n      iszero\n      tag_161\n      jumpi\n      returndatasize\n      0x00\n      dup1\n      returndatacopy\n      revert(0x00, returndatasize)\n    tag_161:\n      pop\n      pop\n      pop\n      pop\n      mload(0x40)\n      returndatasize\n      not(0x1f)\n      0x1f\n      dup3\n      add\n      and\n      dup3\n      add\n      dup1\n      0x40\n      mstore\n      pop\n      dup2\n      add\n      swap1\n      tag_162\n      swap2\n      swap1\n      tag_128\n      jump\t// in\n    tag_162:\n        /* \"contracts/vault.sol\":1839:1892  uint256 vaultBalance = stETH.balanceOf(address(this)) */\n      swap1\n      pop\n        /* \"contracts/vault.sol\":1972:1989  uint256 userShare */\n      0x00\n        /* \"contracts/vault.sol\":2019:2035  totalSupplyVault */\n      dup3\n        /* \"contracts/vault.sol\":1993:2015  vaultBalance * _amount */\n      tag_163\n        /* \"contracts/vault.sol\":2008:2015  _amount */\n      dup6\n        /* \"contracts/vault.sol\":1839:1892  uint256 vaultBalance = stETH.balanceOf(address(this)) */\n      dup5\n        /* \"contracts/vault.sol\":1993:2015  vaultBalance * _amount */\n      tag_131\n      jump\t// in\n    tag_163:\n        /* \"contracts/vault.sol\":1992:2035  (vaultBalance * _amount) / totalSupplyVault */\n      tag_164\n      swap2\n      swap1\n      tag_133\n      jump\t// in\n    tag_164:\n        /* \"contracts/vault.sol\":1972:2035  uint256 userShare = (vaultBalance * _amount) / totalSupplyVault */\n      swap1\n      pop\n        /* \"contracts/vault.sol\":2048:2074  _burn(msg.sender, _amount) */\n      tag_165\n        /* \"contracts/vault.sol\":2054:2064  msg.sender */\n      caller\n        /* \"contracts/vault.sol\":2066:2073  _amount */\n      dup6\n        /* \"contracts/vault.sol\":2048:2053  _burn */\n      tag_166\n        /* \"contracts/vault.sol\":2048:2074  _burn(msg.sender, _amount) */\n      jump\t// in\n    tag_165:\n        /* \"contracts/vault.sol\":2108:2113  stETH */\n      sload(0x06)\n        /* \"contracts/vault.sol\":2108:2145  stETH.transfer(msg.sender, userShare) */\n      mload(0x40)\n      shl(0xe0, 0xa9059cbb)\n      dup2\n      mstore\n        /* \"contracts/vault.sol\":2123:2133  msg.sender */\n      caller\n        /* \"contracts/vault.sol\":2108:2145  stETH.transfer(msg.sender, userShare) */\n      0x04\n      dup3\n      add\n        /* \"#utility.yul\":4828:4879   */\n      mstore\n        /* \"#utility.yul\":4895:4913   */\n      0x24\n      dup2\n      add\n        /* \"#utility.yul\":4888:4922   */\n      dup4\n      swap1\n      mstore\n      sub(shl(0xa0, 0x01), 0x01)\n        /* \"contracts/vault.sol\":2108:2113  stETH */\n      swap1\n      swap2\n      and\n      swap1\n        /* \"contracts/vault.sol\":2108:2122  stETH.transfer */\n      0xa9059cbb\n      swap1\n        /* \"#utility.yul\":4801:4819   */\n      0x44\n      add\n        /* \"contracts/vault.sol\":2108:2145  stETH.transfer(msg.sender, userShare) */\n      0x20\n      mload(0x40)\n      dup1\n      dup4\n      sub\n      dup2\n      0x00\n      dup8\n      gas\n      call\n      iszero\n      dup1\n      iszero\n      tag_170\n      jumpi\n      returndatasize\n      0x00\n      dup1\n      returndatacopy\n      revert(0x00, returndatasize)\n    tag_170:\n      pop\n      pop\n      pop\n      pop\n      mload(0x40)\n      returndatasize\n      not(0x1f)\n      0x1f\n      dup3\n      add\n      and\n      dup3\n      add\n      dup1\n      0x40\n      mstore\n      pop\n      dup2\n      add\n      swap1\n      tag_171\n      swap2\n      swap1\n      tag_172\n      jump\t// in\n    tag_171:\n      pop\n        /* \"contracts/vault.sol\":1701:2179  {... */\n      pop\n      pop\n      pop\n        /* \"contracts/vault.sol\":1657:2179  function withdraw(uint256 _amount) external {... */\n      pop\n      jump\t// out\n        /* \"contracts/vault.sol\":2265:3005  function harvest() external onlyOwner {... */\n    tag_69:\n        /* \"@openzeppelin/contracts/access/Ownable.sol\":1531:1544  _checkOwner() */\n      tag_175\n        /* \"@openzeppelin/contracts/access/Ownable.sol\":1531:1542  _checkOwner */\n      tag_176\n        /* \"@openzeppelin/contracts/access/Ownable.sol\":1531:1544  _checkOwner() */\n      jump\t// in\n    tag_175:\n        /* \"contracts/vault.sol\":2373:2383  gasReserve */\n      sload(0x07)\n        /* \"contracts/vault.sol\":2373:2406  gasReserve.requestGas(0.01 ether) */\n      mload(0x40)\n      shl(0xe0, 0x6e1cdf89)\n      dup2\n      mstore\n        /* \"contracts/vault.sol\":2395:2405  0.01 ether */\n      0x2386f26fc10000\n        /* \"contracts/vault.sol\":2373:2406  gasReserve.requestGas(0.01 ether) */\n      0x04\n      dup3\n      add\n        /* \"#utility.yul\":529:554   */\n      mstore\n      sub(shl(0xa0, 0x01), 0x01)\n        /* \"contracts/vault.sol\":2373:2383  gasReserve */\n      swap1\n      swap2\n      and\n      swap1\n        /* \"contracts/vault.sol\":2373:2394  gasReserve.requestGas */\n      0x6e1cdf89\n      swap1\n        /* \"#utility.yul\":502:520   */\n      0x24\n      add\n        /* \"contracts/vault.sol\":2373:2406  gasReserve.requestGas(0.01 ether) */\n      0x00\n      mload(0x40)\n      dup1\n      dup4\n      sub\n      dup2\n      0x00\n      dup8\n      dup1\n      extcodesize\n      iszero\n      dup1\n      iszero\n      tag_180\n      jumpi\n      0x00\n      dup1\n      revert\n    tag_180:\n      pop\n      gas\n      call\n      iszero\n      dup1\n      iszero\n      tag_182\n      jumpi\n      returndatasize\n      0x00\n      dup1\n      returndatacopy\n      revert(0x00, returndatasize)\n    tag_182:\n      pop\n      pop\n        /* \"contracts/vault.sol\":2517:2522  stETH */\n      sload(0x06)\n        /* \"contracts/vault.sol\":2517:2547  stETH.balanceOf(address(this)) */\n      mload(0x40)\n      shl(0xe0, 0x70a08231)\n      dup2\n      mstore\n        /* \"contracts/vault.sol\":2541:2545  this */\n      address\n        /* \"contracts/vault.sol\":2517:2547  stETH.balanceOf(address(this)) */\n      0x04\n      dup3\n      add\n        /* \"#utility.yul\":2430:2481   */\n      mstore\n        /* \"contracts/vault.sol\":2496:2514  uint256 preBalance */\n      0x00\n      swap4\n      pop\n      sub(shl(0xa0, 0x01), 0x01)\n        /* \"contracts/vault.sol\":2517:2522  stETH */\n      swap1\n      swap2\n      and\n      swap2\n      pop\n        /* \"contracts/vault.sol\":2517:2532  stETH.balanceOf */\n      0x70a08231\n      swap1\n        /* \"#utility.yul\":2403:2421   */\n      0x24\n      add\n        /* \"contracts/vault.sol\":2517:2547  stETH.balanceOf(address(this)) */\n      0x20\n      mload(0x40)\n      dup1\n      dup4\n      sub\n      dup2\n      dup7\n      gas\n      staticcall\n      iszero\n      dup1\n      iszero\n      tag_185\n      jumpi\n      returndatasize\n      0x00\n      dup1\n      returndatacopy\n      revert(0x00, returndatasize)\n    tag_185:\n      pop\n      pop\n      pop\n      pop\n      mload(0x40)\n      returndatasize\n      not(0x1f)\n      0x1f\n      dup3\n      add\n      and\n      dup3\n      add\n      dup1\n      0x40\n      mstore\n      pop\n      dup2\n      add\n      swap1\n      tag_186\n      swap2\n      swap1\n      tag_128\n      jump\t// in\n    tag_186:\n        /* \"contracts/vault.sol\":2496:2547  uint256 preBalance = stETH.balanceOf(address(this)) */\n      swap1\n      pop\n        /* \"contracts/vault.sol\":2611:2616  stETH */\n      0x06\n      0x00\n      swap1\n      sload\n      swap1\n      0x0100\n      exp\n      swap1\n      div\n      sub(shl(0xa0, 0x01), 0x01)\n      and\n      sub(shl(0xa0, 0x01), 0x01)\n        /* \"contracts/vault.sol\":2588:2631  ILiquidStaking(address(stETH)).claimRewards */\n      and\n      0x372500ab\n        /* \"contracts/vault.sol\":2588:2633  ILiquidStaking(address(stETH)).claimRewards() */\n      mload(0x40)\n      dup2\n      0xffffffff\n      and\n      0xe0\n      shl\n      dup2\n      mstore\n      0x04\n      add\n      0x00\n      mload(0x40)\n      dup1\n      dup4\n      sub\n      dup2\n      0x00\n      dup8\n      dup1\n      extcodesize\n      iszero\n      dup1\n      iszero\n      tag_187\n      jumpi\n      0x00\n      dup1\n      revert\n    tag_187:\n      pop\n      gas\n      call\n      iszero\n      dup1\n      iszero\n      tag_189\n      jumpi\n      returndatasize\n      0x00\n      dup1\n      returndatacopy\n      revert(0x00, returndatasize)\n    tag_189:\n      pop\n      pop\n        /* \"contracts/vault.sol\":2666:2671  stETH */\n      sload(0x06)\n        /* \"contracts/vault.sol\":2666:2696  stETH.balanceOf(address(this)) */\n      mload(0x40)\n      shl(0xe0, 0x70a08231)\n      dup2\n      mstore\n        /* \"contracts/vault.sol\":2690:2694  this */\n      address\n        /* \"contracts/vault.sol\":2666:2696  stETH.balanceOf(address(this)) */\n      0x04\n      dup3\n      add\n        /* \"#utility.yul\":2430:2481   */\n      mstore\n        /* \"contracts/vault.sol\":2644:2663  uint256 postBalance */\n      0x00\n      swap4\n      pop\n      sub(shl(0xa0, 0x01), 0x01)\n        /* \"contracts/vault.sol\":2666:2671  stETH */\n      swap1\n      swap2\n      and\n      swap2\n      pop\n        /* \"contracts/vault.sol\":2666:2681  stETH.balanceOf */\n      0x70a08231\n      swap1\n        /* \"#utility.yul\":2403:2421   */\n      0x24\n      add\n        /* \"contracts/vault.sol\":2666:2696  stETH.balanceOf(address(this)) */\n      0x20\n      mload(0x40)\n      dup1\n      dup4\n      sub\n      dup2\n      dup7\n      gas\n      staticcall\n      iszero\n      dup1\n      iszero\n      tag_192\n      jumpi\n      returndatasize\n      0x00\n      dup1\n      returndatacopy\n      revert(0x00, returndatasize)\n    tag_192:\n      pop\n      pop\n      pop\n      pop\n      mload(0x40)\n      returndatasize\n      not(0x1f)\n      0x1f\n      dup3\n      add\n      and\n      dup3\n      add\n      dup1\n      0x40\n      mstore\n      pop\n      dup2\n      add\n      swap1\n      tag_193\n      swap2\n      swap1\n      tag_128\n      jump\t// in\n    tag_193:\n        /* \"contracts/vault.sol\":2644:2696  uint256 postBalance = stETH.balanceOf(address(this)) */\n      swap1\n      pop\n        /* \"contracts/vault.sol\":2786:2807  uint256 earnedRewards */\n      0x00\n        /* \"contracts/vault.sol\":2810:2834  postBalance - preBalance */\n      tag_194\n        /* \"contracts/vault.sol\":2824:2834  preBalance */\n      dup4\n        /* \"contracts/vault.sol\":2644:2696  uint256 postBalance = stETH.balanceOf(address(this)) */\n      dup4\n        /* \"contracts/vault.sol\":2810:2834  postBalance - preBalance */\n      tag_195\n      jump\t// in\n    tag_194:\n        /* \"contracts/vault.sol\":2786:2834  uint256 earnedRewards = postBalance - preBalance */\n      swap1\n      pop\n        /* \"contracts/vault.sol\":2872:2885  earnedRewards */\n      dup1\n        /* \"contracts/vault.sol\":2845:2868  totalRewardsDistributed */\n      0x09\n      0x00\n        /* \"contracts/vault.sol\":2845:2885  totalRewardsDistributed += earnedRewards */\n      dup3\n      dup3\n      sload\n      tag_196\n      swap2\n      swap1\n      tag_197\n      jump\t// in\n    tag_196:\n      swap1\n      swap2\n      sstore\n      pop\n      pop\n        /* \"contracts/vault.sol\":2954:2969  block.timestamp */\n      timestamp\n        /* \"contracts/vault.sol\":2936:2951  lastHarvestTime */\n      0x08\n        /* \"contracts/vault.sol\":2936:2969  lastHarvestTime = block.timestamp */\n      sstore\n      pop\n      pop\n      pop\n        /* \"contracts/vault.sol\":2265:3005  function harvest() external onlyOwner {... */\n      jump\t// out\n        /* \"@openzeppelin/contracts/access/Ownable.sol\":2293:2394  function renounceOwnership() public virtual onlyOwner {... */\n    tag_77:\n        /* \"@openzeppelin/contracts/access/Ownable.sol\":1531:1544  _checkOwner() */\n      tag_200\n        /* \"@openzeppelin/contracts/access/Ownable.sol\":1531:1542  _checkOwner */\n      tag_176\n        /* \"@openzeppelin/contracts/access/Ownable.sol\":1531:1544  _checkOwner() */\n      jump\t// in\n    tag_200:\n        /* \"@openzeppelin/contracts/access/Ownable.sol\":2357:2387  _transferOwnership(address(0)) */\n      tag_202\n        /* \"@openzeppelin/contracts/access/Ownable.sol\":2384:2385  0 */\n      0x00\n        /* \"@openzeppelin/contracts/access/Ownable.sol\":2357:2375  _transferOwnership */\n      tag_203\n        /* \"@openzeppelin/contracts/access/Ownable.sol\":2357:2387  _transferOwnership(address(0)) */\n      jump\t// in\n    tag_202:\n        /* \"@openzeppelin/contracts/access/Ownable.sol\":2293:2394  function renounceOwnership() public virtual onlyOwner {... */\n      jump\t// out\n        /* \"@openzeppelin/contracts/token/ERC20/ERC20.sol\":1981:2074  function symbol() public view virtual returns (string memory) {... */\n    tag_85:\n        /* \"@openzeppelin/contracts/token/ERC20/ERC20.sol\":2028:2041  string memory */\n      0x60\n        /* \"@openzeppelin/contracts/token/ERC20/ERC20.sol\":2060:2067  _symbol */\n      0x04\n        /* \"@openzeppelin/contracts/token/ERC20/ERC20.sol\":2053:2067  return _symbol */\n      dup1\n      sload\n      tag_135\n      swap1\n      tag_136\n      jump\t// in\n        /* \"@openzeppelin/contracts/token/ERC20/ERC20.sol\":3315:3493  function transfer(address to, uint256 value) public virtual returns (bool) {... */\n    tag_90:\n        /* \"@openzeppelin/contracts/token/ERC20/ERC20.sol\":3384:3388  bool */\n      0x00\n        /* \"@openzeppelin/contracts/utils/Context.sol\":735:745  msg.sender */\n      caller\n        /* \"@openzeppelin/contracts/token/ERC20/ERC20.sol\":3438:3465  _transfer(owner, to, value) */\n      tag_144\n        /* \"@openzeppelin/contracts/utils/Context.sol\":735:745  msg.sender */\n      dup2\n        /* \"@openzeppelin/contracts/token/ERC20/ERC20.sol\":3455:3457  to */\n      dup6\n        /* \"@openzeppelin/contracts/token/ERC20/ERC20.sol\":3459:3464  value */\n      dup6\n        /* \"@openzeppelin/contracts/token/ERC20/ERC20.sol\":3438:3447  _transfer */\n      tag_152\n        /* \"@openzeppelin/contracts/token/ERC20/ERC20.sol\":3438:3465  _transfer(owner, to, value) */\n      jump\t// in\n        /* \"contracts/vault.sol\":1130:1569  function deposit() external payable {... */\n    tag_102:\n        /* \"contracts/vault.sol\":1197:1198  0 */\n      0x00\n        /* \"contracts/vault.sol\":1185:1194  msg.value */\n      callvalue\n        /* \"contracts/vault.sol\":1185:1198  msg.value > 0 */\n      gt\n        /* \"contracts/vault.sol\":1177:1219  require(msg.value > 0, \"Must deposit ETH\") */\n      tag_215\n      jumpi\n      mload(0x40)\n      shl(0xe5, 0x461bcd)\n      dup2\n      mstore\n        /* \"#utility.yul\":5886:5888   */\n      0x20\n        /* \"contracts/vault.sol\":1177:1219  require(msg.value > 0, \"Must deposit ETH\") */\n      0x04\n      dup3\n      add\n        /* \"#utility.yul\":5868:5889   */\n      mstore\n        /* \"#utility.yul\":5925:5927   */\n      0x10\n        /* \"#utility.yul\":5905:5923   */\n      0x24\n      dup3\n      add\n        /* \"#utility.yul\":5898:5928   */\n      mstore\n      shl(0x83, 0x09aeae6e840c8cae0dee6d2e8408aa89)\n        /* \"#utility.yul\":5944:5962   */\n      0x44\n      dup3\n      add\n        /* \"#utility.yul\":5937:5983   */\n      mstore\n        /* \"#utility.yul\":6000:6018   */\n      0x64\n      add\n        /* \"contracts/vault.sol\":1177:1219  require(msg.value > 0, \"Must deposit ETH\") */\n      tag_156\n        /* \"#utility.yul\":5684:6024   */\n      jump\n        /* \"contracts/vault.sol\":1177:1219  require(msg.value > 0, \"Must deposit ETH\") */\n    tag_215:\n        /* \"contracts/vault.sol\":1341:1346  stETH */\n      0x06\n      0x00\n      swap1\n      sload\n      swap1\n      0x0100\n      exp\n      swap1\n      div\n      sub(shl(0xa0, 0x01), 0x01)\n      and\n      sub(shl(0xa0, 0x01), 0x01)\n        /* \"contracts/vault.sol\":1318:1354  ILiquidStaking(address(stETH)).stake */\n      and\n      0x3a4b66f1\n        /* \"contracts/vault.sol\":1362:1371  msg.value */\n      callvalue\n        /* \"contracts/vault.sol\":1318:1374  ILiquidStaking(address(stETH)).stake{value: msg.value}() */\n      mload(0x40)\n      dup3\n      0xffffffff\n      and\n      0xe0\n      shl\n      dup2\n      mstore\n      0x04\n      add\n      0x00\n      mload(0x40)\n      dup1\n      dup4\n      sub\n      dup2\n      dup6\n      dup9\n      dup1\n      extcodesize\n      iszero\n      dup1\n      iszero\n      tag_218\n      jumpi\n      0x00\n      dup1\n      revert\n    tag_218:\n      pop\n      gas\n      call\n      iszero\n      dup1\n      iszero\n      tag_220\n      jumpi\n      returndatasize\n      0x00\n      dup1\n      returndatacopy\n      revert(0x00, returndatasize)\n    tag_220:\n      pop\n      pop\n        /* \"contracts/vault.sol\":1454:1459  stETH */\n      sload(0x06)\n        /* \"contracts/vault.sol\":1454:1484  stETH.balanceOf(address(this)) */\n      mload(0x40)\n      shl(0xe0, 0x70a08231)\n      dup2\n      mstore\n        /* \"contracts/vault.sol\":1478:1482  this */\n      address\n        /* \"contracts/vault.sol\":1454:1484  stETH.balanceOf(address(this)) */\n      0x04\n      dup3\n      add\n        /* \"#utility.yul\":2430:2481   */\n      mstore\n        /* \"contracts/vault.sol\":1431:1451  uint256 stETHBalance */\n      0x00\n      swap5\n      pop\n      sub(shl(0xa0, 0x01), 0x01)\n        /* \"contracts/vault.sol\":1454:1459  stETH */\n      swap1\n      swap2\n      and\n      swap3\n      pop\n        /* \"contracts/vault.sol\":1454:1469  stETH.balanceOf */\n      0x70a08231\n      swap2\n      pop\n        /* \"#utility.yul\":2403:2421   */\n      0x24\n      add\n        /* \"contracts/vault.sol\":1454:1484  stETH.balanceOf(address(this)) */\n      0x20\n      mload(0x40)\n      dup1\n      dup4\n      sub\n      dup2\n      dup7\n      gas\n      staticcall\n      iszero\n      dup1\n      iszero\n      tag_223\n      jumpi\n      returndatasize\n      0x00\n      dup1\n      returndatacopy\n      revert(0x00, returndatasize)\n    tag_223:\n      pop\n      pop\n      pop\n      pop\n      mload(0x40)\n      returndatasize\n      not(0x1f)\n      0x1f\n      dup3\n      add\n      and\n      dup3\n      add\n      dup1\n      0x40\n      mstore\n      pop\n      dup2\n      add\n      swap1\n      tag_224\n      swap2\n      swap1\n      tag_128\n      jump\t// in\n    tag_224:\n        /* \"contracts/vault.sol\":1431:1484  uint256 stETHBalance = stETH.balanceOf(address(this)) */\n      swap1\n      pop\n        /* \"contracts/vault.sol\":1530:1561  _mint(msg.sender, stETHBalance) */\n      tag_225\n        /* \"contracts/vault.sol\":1536:1546  msg.sender */\n      caller\n        /* \"contracts/vault.sol\":1548:1560  stETHBalance */\n      dup3\n        /* \"contracts/vault.sol\":1530:1535  _mint */\n      tag_226\n        /* \"contracts/vault.sol\":1530:1561  _mint(msg.sender, stETHBalance) */\n      jump\t// in\n    tag_225:\n        /* \"contracts/vault.sol\":1166:1569  {... */\n      pop\n        /* \"contracts/vault.sol\":1130:1569  function deposit() external payable {... */\n      jump\t// out\n        /* \"@openzeppelin/contracts/access/Ownable.sol\":2543:2758  function transferOwnership(address newOwner) public virtual onlyOwner {... */\n    tag_121:\n        /* \"@openzeppelin/contracts/access/Ownable.sol\":1531:1544  _checkOwner() */\n      tag_229\n        /* \"@openzeppelin/contracts/access/Ownable.sol\":1531:1542  _checkOwner */\n      tag_176\n        /* \"@openzeppelin/contracts/access/Ownable.sol\":1531:1544  _checkOwner() */\n      jump\t// in\n    tag_229:\n      sub(shl(0xa0, 0x01), 0x01)\n        /* \"@openzeppelin/contracts/access/Ownable.sol\":2627:2649  newOwner == address(0) */\n      dup2\n      and\n        /* \"@openzeppelin/contracts/access/Ownable.sol\":2623:2714  if (newOwner == address(0)) {... */\n      tag_231\n      jumpi\n        /* \"@openzeppelin/contracts/access/Ownable.sol\":2672:2703  OwnableInvalidOwner(address(0)) */\n      mload(0x40)\n      shl(0xe0, 0x1e4fbdf7)\n      dup2\n      mstore\n        /* \"@openzeppelin/contracts/access/Ownable.sol\":2700:2701  0 */\n      0x00\n        /* \"@openzeppelin/contracts/access/Ownable.sol\":2672:2703  OwnableInvalidOwner(address(0)) */\n      0x04\n      dup3\n      add\n        /* \"#utility.yul\":2430:2481   */\n      mstore\n        /* \"#utility.yul\":2403:2421   */\n      0x24\n      add\n        /* \"@openzeppelin/contracts/access/Ownable.sol\":2672:2703  OwnableInvalidOwner(address(0)) */\n      tag_156\n        /* \"#utility.yul\":2284:2487   */\n      jump\n        /* \"@openzeppelin/contracts/access/Ownable.sol\":2623:2714  if (newOwner == address(0)) {... */\n    tag_231:\n        /* \"@openzeppelin/contracts/access/Ownable.sol\":2723:2751  _transferOwnership(newOwner) */\n      tag_225\n        /* \"@openzeppelin/contracts/access/Ownable.sol\":2742:2750  newOwner */\n      dup2\n        /* \"@openzeppelin/contracts/access/Ownable.sol\":2723:2741  _transferOwnership */\n      tag_203\n        /* \"@openzeppelin/contracts/access/Ownable.sol\":2723:2751  _transferOwnership(newOwner) */\n      jump\t// in\n        /* \"@openzeppelin/contracts/token/ERC20/ERC20.sol\":8726:8854  function _approve(address owner, address spender, uint256 value) internal {... */\n    tag_145:\n        /* \"@openzeppelin/contracts/token/ERC20/ERC20.sol\":8810:8847  _approve(owner, spender, value, true) */\n      tag_236\n        /* \"@openzeppelin/contracts/token/ERC20/ERC20.sol\":8819:8824  owner */\n      dup4\n        /* \"@openzeppelin/contracts/token/ERC20/ERC20.sol\":8826:8833  spender */\n      dup4\n        /* \"@openzeppelin/contracts/token/ERC20/ERC20.sol\":8835:8840  value */\n      dup4\n        /* \"@openzeppelin/contracts/token/ERC20/ERC20.sol\":8842:8846  true */\n      0x01\n        /* \"@openzeppelin/contracts/token/ERC20/ERC20.sol\":8810:8818  _approve */\n      tag_237\n        /* \"@openzeppelin/contracts/token/ERC20/ERC20.sol\":8810:8847  _approve(owner, spender, value, true) */\n      jump\t// in\n    tag_236:\n        /* \"@openzeppelin/contracts/token/ERC20/ERC20.sol\":8726:8854  function _approve(address owner, address spender, uint256 value) internal {... */\n      pop\n      pop\n      pop\n      jump\t// out\n        /* \"@openzeppelin/contracts/token/ERC20/ERC20.sol\":10415:10891  function _spendAllowance(address owner, address spender, uint256 value) internal virtual {... */\n    tag_150:\n      sub(shl(0xa0, 0x01), 0x01)\n        /* \"@openzeppelin/contracts/token/ERC20/ERC20.sol\":3657:3675  _allowances[owner] */\n      dup4\n      dup2\n      and\n        /* \"@openzeppelin/contracts/token/ERC20/ERC20.sol\":10514:10538  uint256 currentAllowance */\n      0x00\n        /* \"@openzeppelin/contracts/token/ERC20/ERC20.sol\":3657:3675  _allowances[owner] */\n      swap1\n      dup2\n      mstore\n        /* \"@openzeppelin/contracts/token/ERC20/ERC20.sol\":3657:3668  _allowances */\n      0x01\n        /* \"@openzeppelin/contracts/token/ERC20/ERC20.sol\":3657:3675  _allowances[owner] */\n      0x20\n      swap1\n      dup2\n      mstore\n      0x40\n      dup1\n      dup4\n      keccak256\n        /* \"@openzeppelin/contracts/token/ERC20/ERC20.sol\":3657:3684  _allowances[owner][spender] */\n      swap4\n      dup7\n      and\n      dup4\n      mstore\n      swap3\n      swap1\n      mstore\n      keccak256\n      sload\n      not(0x00)\n        /* \"@openzeppelin/contracts/token/ERC20/ERC20.sol\":10580:10616  currentAllowance < type(uint256).max */\n      dup2\n      lt\n        /* \"@openzeppelin/contracts/token/ERC20/ERC20.sol\":10576:10885  if (currentAllowance < type(uint256).max) {... */\n      iszero\n      tag_244\n      jumpi\n        /* \"@openzeppelin/contracts/token/ERC20/ERC20.sol\":10655:10660  value */\n      dup2\n        /* \"@openzeppelin/contracts/token/ERC20/ERC20.sol\":10636:10652  currentAllowance */\n      dup2\n        /* \"@openzeppelin/contracts/token/ERC20/ERC20.sol\":10636:10660  currentAllowance < value */\n      lt\n        /* \"@openzeppelin/contracts/token/ERC20/ERC20.sol\":10632:10762  if (currentAllowance < value) {... */\n      iszero\n      tag_241\n      jumpi\n        /* \"@openzeppelin/contracts/token/ERC20/ERC20.sol\":10687:10747  ERC20InsufficientAllowance(spender, currentAllowance, value) */\n      mload(0x40)\n      shl(0xe1, 0x7dc7a0d9)\n      dup2\n      mstore\n      sub(shl(0xa0, 0x01), 0x01)\n        /* \"#utility.yul\":6249:6281   */\n      dup5\n      and\n        /* \"@openzeppelin/contracts/token/ERC20/ERC20.sol\":10687:10747  ERC20InsufficientAllowance(spender, currentAllowance, value) */\n      0x04\n      dup3\n      add\n        /* \"#utility.yul\":6231:6282   */\n      mstore\n        /* \"#utility.yul\":6298:6316   */\n      0x24\n      dup2\n      add\n        /* \"#utility.yul\":6291:6325   */\n      dup3\n      swap1\n      mstore\n        /* \"#utility.yul\":6341:6359   */\n      0x44\n      dup2\n      add\n        /* \"#utility.yul\":6334:6368   */\n      dup4\n      swap1\n      mstore\n        /* \"#utility.yul\":6204:6222   */\n      0x64\n      add\n        /* \"@openzeppelin/contracts/token/ERC20/ERC20.sol\":10687:10747  ERC20InsufficientAllowance(spender, currentAllowance, value) */\n      tag_156\n        /* \"#utility.yul\":6029:6374   */\n      jump\n        /* \"@openzeppelin/contracts/token/ERC20/ERC20.sol\":10632:10762  if (currentAllowance < value) {... */\n    tag_241:\n        /* \"@openzeppelin/contracts/token/ERC20/ERC20.sol\":10803:10860  _approve(owner, spender, currentAllowance - value, false) */\n      tag_244\n        /* \"@openzeppelin/contracts/token/ERC20/ERC20.sol\":10812:10817  owner */\n      dup5\n        /* \"@openzeppelin/contracts/token/ERC20/ERC20.sol\":10819:10826  spender */\n      dup5\n        /* \"@openzeppelin/contracts/token/ERC20/ERC20.sol\":10847:10852  value */\n      dup5\n        /* \"@openzeppelin/contracts/token/ERC20/ERC20.sol\":10828:10844  currentAllowance */\n      dup5\n        /* \"@openzeppelin/contracts/token/ERC20/ERC20.sol\":10828:10852  currentAllowance - value */\n      sub\n        /* \"@openzeppelin/contracts/token/ERC20/ERC20.sol\":10854:10859  false */\n      0x00\n        /* \"@openzeppelin/contracts/token/ERC20/ERC20.sol\":10803:10811  _approve */\n      tag_237\n        /* \"@openzeppelin/contracts/token/ERC20/ERC20.sol\":10803:10860  _approve(owner, spender, currentAllowance - value, false) */\n      jump\t// in\n    tag_244:\n        /* \"@openzeppelin/contracts/token/ERC20/ERC20.sol\":10504:10891  {... */\n      pop\n        /* \"@openzeppelin/contracts/token/ERC20/ERC20.sol\":10415:10891  function _spendAllowance(address owner, address spender, uint256 value) internal virtual {... */\n      pop\n      pop\n      pop\n      jump\t// out\n        /* \"@openzeppelin/contracts/token/ERC20/ERC20.sol\":5393:5693  function _transfer(address from, address to, uint256 value) internal {... */\n    tag_152:\n      sub(shl(0xa0, 0x01), 0x01)\n        /* \"@openzeppelin/contracts/token/ERC20/ERC20.sol\":5476:5494  from == address(0) */\n      dup4\n      and\n        /* \"@openzeppelin/contracts/token/ERC20/ERC20.sol\":5472:5558  if (from == address(0)) {... */\n      tag_246\n      jumpi\n        /* \"@openzeppelin/contracts/token/ERC20/ERC20.sol\":5517:5547  ERC20InvalidSender(address(0)) */\n      mload(0x40)\n      shl(0xe1, 0x4b637e8f)\n      dup2\n      mstore\n        /* \"@openzeppelin/contracts/token/ERC20/ERC20.sol\":5544:5545  0 */\n      0x00\n        /* \"@openzeppelin/contracts/token/ERC20/ERC20.sol\":5517:5547  ERC20InvalidSender(address(0)) */\n      0x04\n      dup3\n      add\n        /* \"#utility.yul\":2430:2481   */\n      mstore\n        /* \"#utility.yul\":2403:2421   */\n      0x24\n      add\n        /* \"@openzeppelin/contracts/token/ERC20/ERC20.sol\":5517:5547  ERC20InvalidSender(address(0)) */\n      tag_156\n        /* \"#utility.yul\":2284:2487   */\n      jump\n        /* \"@openzeppelin/contracts/token/ERC20/ERC20.sol\":5472:5558  if (from == address(0)) {... */\n    tag_246:\n      sub(shl(0xa0, 0x01), 0x01)\n        /* \"@openzeppelin/contracts/token/ERC20/ERC20.sol\":5571:5587  to == address(0) */\n      dup3\n      and\n        /* \"@openzeppelin/contracts/token/ERC20/ERC20.sol\":5567:5653  if (to == address(0)) {... */\n      tag_248\n      jumpi\n        /* \"@openzeppelin/contracts/token/ERC20/ERC20.sol\":5610:5642  ERC20InvalidReceiver(address(0)) */\n      mload(0x40)\n      shl(0xe0, 0xec442f05)\n      dup2\n      mstore\n        /* \"@openzeppelin/contracts/token/ERC20/ERC20.sol\":5639:5640  0 */\n      0x00\n        /* \"@openzeppelin/contracts/token/ERC20/ERC20.sol\":5610:5642  ERC20InvalidReceiver(address(0)) */\n      0x04\n      dup3\n      add\n        /* \"#utility.yul\":2430:2481   */\n      mstore\n        /* \"#utility.yul\":2403:2421   */\n      0x24\n      add\n        /* \"@openzeppelin/contracts/token/ERC20/ERC20.sol\":5610:5642  ERC20InvalidReceiver(address(0)) */\n      tag_156\n        /* \"#utility.yul\":2284:2487   */\n      jump\n        /* \"@openzeppelin/contracts/token/ERC20/ERC20.sol\":5567:5653  if (to == address(0)) {... */\n    tag_248:\n        /* \"@openzeppelin/contracts/token/ERC20/ERC20.sol\":5662:5686  _update(from, to, value) */\n      tag_236\n        /* \"@openzeppelin/contracts/token/ERC20/ERC20.sol\":5670:5674  from */\n      dup4\n        /* \"@openzeppelin/contracts/token/ERC20/ERC20.sol\":5676:5678  to */\n      dup4\n        /* \"@openzeppelin/contracts/token/ERC20/ERC20.sol\":5680:5685  value */\n      dup4\n        /* \"@openzeppelin/contracts/token/ERC20/ERC20.sol\":5662:5669  _update */\n      tag_251\n        /* \"@openzeppelin/contracts/token/ERC20/ERC20.sol\":5662:5686  _update(from, to, value) */\n      jump\t// in\n        /* \"@openzeppelin/contracts/token/ERC20/ERC20.sol\":7984:8190  function _burn(address account, uint256 value) internal {... */\n    tag_166:\n      sub(shl(0xa0, 0x01), 0x01)\n        /* \"@openzeppelin/contracts/token/ERC20/ERC20.sol\":8054:8075  account == address(0) */\n      dup3\n      and\n        /* \"@openzeppelin/contracts/token/ERC20/ERC20.sol\":8050:8139  if (account == address(0)) {... */\n      tag_253\n      jumpi\n        /* \"@openzeppelin/contracts/token/ERC20/ERC20.sol\":8098:8128  ERC20InvalidSender(address(0)) */\n      mload(0x40)\n      shl(0xe1, 0x4b637e8f)\n      dup2\n      mstore\n        /* \"@openzeppelin/contracts/token/ERC20/ERC20.sol\":8125:8126  0 */\n      0x00\n        /* \"@openzeppelin/contracts/token/ERC20/ERC20.sol\":8098:8128  ERC20InvalidSender(address(0)) */\n      0x04\n      dup3\n      add\n        /* \"#utility.yul\":2430:2481   */\n      mstore\n        /* \"#utility.yul\":2403:2421   */\n      0x24\n      add\n        /* \"@openzeppelin/contracts/token/ERC20/ERC20.sol\":8098:8128  ERC20InvalidSender(address(0)) */\n      tag_156\n        /* \"#utility.yul\":2284:2487   */\n      jump\n        /* \"@openzeppelin/contracts/token/ERC20/ERC20.sol\":8050:8139  if (account == address(0)) {... */\n    tag_253:\n        /* \"@openzeppelin/contracts/token/ERC20/ERC20.sol\":8148:8183  _update(account, address(0), value) */\n      tag_255\n        /* \"@openzeppelin/contracts/token/ERC20/ERC20.sol\":8156:8163  account */\n      dup3\n        /* \"@openzeppelin/contracts/token/ERC20/ERC20.sol\":8173:8174  0 */\n      0x00\n        /* \"@openzeppelin/contracts/token/ERC20/ERC20.sol\":8177:8182  value */\n      dup4\n        /* \"@openzeppelin/contracts/token/ERC20/ERC20.sol\":8148:8155  _update */\n      tag_251\n        /* \"@openzeppelin/contracts/token/ERC20/ERC20.sol\":8148:8183  _update(account, address(0), value) */\n      jump\t// in\n    tag_255:\n        /* \"@openzeppelin/contracts/token/ERC20/ERC20.sol\":7984:8190  function _burn(address account, uint256 value) internal {... */\n      pop\n      pop\n      jump\t// out\n        /* \"@openzeppelin/contracts/access/Ownable.sol\":1796:1958  function _checkOwner() internal view virtual {... */\n    tag_176:\n        /* \"@openzeppelin/contracts/access/Ownable.sol\":1710:1716  _owner */\n      and(sub(shl(0xa0, 0x01), 0x01), sload(0x05))\n        /* \"@openzeppelin/contracts/utils/Context.sol\":735:745  msg.sender */\n      caller\n        /* \"@openzeppelin/contracts/access/Ownable.sol\":1855:1878  owner() != _msgSender() */\n      eq\n        /* \"@openzeppelin/contracts/access/Ownable.sol\":1851:1952  if (owner() != _msgSender()) {... */\n      tag_202\n      jumpi\n        /* \"@openzeppelin/contracts/access/Ownable.sol\":1901:1941  OwnableUnauthorizedAccount(_msgSender()) */\n      mload(0x40)\n      shl(0xe0, 0x118cdaa7)\n      dup2\n      mstore\n        /* \"@openzeppelin/contracts/utils/Context.sol\":735:745  msg.sender */\n      caller\n        /* \"@openzeppelin/contracts/access/Ownable.sol\":1901:1941  OwnableUnauthorizedAccount(_msgSender()) */\n      0x04\n      dup3\n      add\n        /* \"#utility.yul\":2430:2481   */\n      mstore\n        /* \"#utility.yul\":2403:2421   */\n      0x24\n      add\n        /* \"@openzeppelin/contracts/access/Ownable.sol\":1901:1941  OwnableUnauthorizedAccount(_msgSender()) */\n      tag_156\n        /* \"#utility.yul\":2284:2487   */\n      jump\n        /* \"@openzeppelin/contracts/access/Ownable.sol\":2912:3099  function _transferOwnership(address newOwner) internal virtual {... */\n    tag_203:\n        /* \"@openzeppelin/contracts/access/Ownable.sol\":3004:3010  _owner */\n      0x05\n      dup1\n      sload\n      sub(shl(0xa0, 0x01), 0x01)\n        /* \"@openzeppelin/contracts/access/Ownable.sol\":3020:3037  _owner = newOwner */\n      dup4\n      dup2\n      and\n      not(sub(shl(0xa0, 0x01), 0x01))\n      dup4\n      and\n      dup2\n      or\n      swap1\n      swap4\n      sstore\n        /* \"@openzeppelin/contracts/access/Ownable.sol\":3052:3092  OwnershipTransferred(oldOwner, newOwner) */\n      mload(0x40)\n        /* \"@openzeppelin/contracts/access/Ownable.sol\":3004:3010  _owner */\n      swap2\n      and\n      swap2\n        /* \"@openzeppelin/contracts/access/Ownable.sol\":3020:3037  _owner = newOwner */\n      swap1\n        /* \"@openzeppelin/contracts/access/Ownable.sol\":3004:3010  _owner */\n      dup3\n      swap1\n        /* \"@openzeppelin/contracts/access/Ownable.sol\":3052:3092  OwnershipTransferred(oldOwner, newOwner) */\n      0x8be0079c531659141344cd1fd0a4f28419497f9722a3daafe3b4186f6b6457e0\n      swap1\n        /* \"@openzeppelin/contracts/access/Ownable.sol\":2985:3001  address oldOwner */\n      0x00\n      swap1\n        /* \"@openzeppelin/contracts/access/Ownable.sol\":3052:3092  OwnershipTransferred(oldOwner, newOwner) */\n      log3\n        /* \"@openzeppelin/contracts/access/Ownable.sol\":2975:3099  {... */\n      pop\n        /* \"@openzeppelin/contracts/access/Ownable.sol\":2912:3099  function _transferOwnership(address newOwner) internal virtual {... */\n      pop\n      jump\t// out\n        /* \"@openzeppelin/contracts/token/ERC20/ERC20.sol\":7458:7666  function _mint(address account, uint256 value) internal {... */\n    tag_226:\n      sub(shl(0xa0, 0x01), 0x01)\n        /* \"@openzeppelin/contracts/token/ERC20/ERC20.sol\":7528:7549  account == address(0) */\n      dup3\n      and\n        /* \"@openzeppelin/contracts/token/ERC20/ERC20.sol\":7524:7615  if (account == address(0)) {... */\n      tag_264\n      jumpi\n        /* \"@openzeppelin/contracts/token/ERC20/ERC20.sol\":7572:7604  ERC20InvalidReceiver(address(0)) */\n      mload(0x40)\n      shl(0xe0, 0xec442f05)\n      dup2\n      mstore\n        /* \"@openzeppelin/contracts/token/ERC20/ERC20.sol\":7601:7602  0 */\n      0x00\n        /* \"@openzeppelin/contracts/token/ERC20/ERC20.sol\":7572:7604  ERC20InvalidReceiver(address(0)) */\n      0x04\n      dup3\n      add\n        /* \"#utility.yul\":2430:2481   */\n      mstore\n        /* \"#utility.yul\":2403:2421   */\n      0x24\n      add\n        /* \"@openzeppelin/contracts/token/ERC20/ERC20.sol\":7572:7604  ERC20InvalidReceiver(address(0)) */\n      tag_156\n        /* \"#utility.yul\":2284:2487   */\n      jump\n        /* \"@openzeppelin/contracts/token/ERC20/ERC20.sol\":7524:7615  if (account == address(0)) {... */\n    tag_264:\n        /* \"@openzeppelin/contracts/token/ERC20/ERC20.sol\":7624:7659  _update(address(0), account, value) */\n      tag_255\n        /* \"@openzeppelin/contracts/token/ERC20/ERC20.sol\":7640:7641  0 */\n      0x00\n        /* \"@openzeppelin/contracts/token/ERC20/ERC20.sol\":7644:7651  account */\n      dup4\n        /* \"@openzeppelin/contracts/token/ERC20/ERC20.sol\":7653:7658  value */\n      dup4\n        /* \"@openzeppelin/contracts/token/ERC20/ERC20.sol\":7624:7631  _update */\n      tag_251\n        /* \"@openzeppelin/contracts/token/ERC20/ERC20.sol\":7624:7659  _update(address(0), account, value) */\n      jump\t// in\n        /* \"@openzeppelin/contracts/token/ERC20/ERC20.sol\":9701:10133  function _approve(address owner, address spender, uint256 value, bool emitEvent) internal virtual {... */\n    tag_237:\n      sub(shl(0xa0, 0x01), 0x01)\n        /* \"@openzeppelin/contracts/token/ERC20/ERC20.sol\":9813:9832  owner == address(0) */\n      dup5\n      and\n        /* \"@openzeppelin/contracts/token/ERC20/ERC20.sol\":9809:9898  if (owner == address(0)) {... */\n      tag_268\n      jumpi\n        /* \"@openzeppelin/contracts/token/ERC20/ERC20.sol\":9855:9887  ERC20InvalidApprover(address(0)) */\n      mload(0x40)\n      shl(0xe0, 0xe602df05)\n      dup2\n      mstore\n        /* \"@openzeppelin/contracts/token/ERC20/ERC20.sol\":9884:9885  0 */\n      0x00\n        /* \"@openzeppelin/contracts/token/ERC20/ERC20.sol\":9855:9887  ERC20InvalidApprover(address(0)) */\n      0x04\n      dup3\n      add\n        /* \"#utility.yul\":2430:2481   */\n      mstore\n        /* \"#utility.yul\":2403:2421   */\n      0x24\n      add\n        /* \"@openzeppelin/contracts/token/ERC20/ERC20.sol\":9855:9887  ERC20InvalidApprover(address(0)) */\n      tag_156\n        /* \"#utility.yul\":2284:2487   */\n      jump\n        /* \"@openzeppelin/contracts/token/ERC20/ERC20.sol\":9809:9898  if (owner == address(0)) {... */\n    tag_268:\n      sub(shl(0xa0, 0x01), 0x01)\n        /* \"@openzeppelin/contracts/token/ERC20/ERC20.sol\":9911:9932  spender == address(0) */\n      dup4\n      and\n        /* \"@openzeppelin/contracts/token/ERC20/ERC20.sol\":9907:9997  if (spender == address(0)) {... */\n      tag_270\n      jumpi\n        /* \"@openzeppelin/contracts/token/ERC20/ERC20.sol\":9955:9986  ERC20InvalidSpender(address(0)) */\n      mload(0x40)\n      shl(0xe1, 0x4a1406b1)\n      dup2\n      mstore\n        /* \"@openzeppelin/contracts/token/ERC20/ERC20.sol\":9983:9984  0 */\n      0x00\n        /* \"@openzeppelin/contracts/token/ERC20/ERC20.sol\":9955:9986  ERC20InvalidSpender(address(0)) */\n      0x04\n      dup3\n      add\n        /* \"#utility.yul\":2430:2481   */\n      mstore\n        /* \"#utility.yul\":2403:2421   */\n      0x24\n      add\n        /* \"@openzeppelin/contracts/token/ERC20/ERC20.sol\":9955:9986  ERC20InvalidSpender(address(0)) */\n      tag_156\n        /* \"#utility.yul\":2284:2487   */\n      jump\n        /* \"@openzeppelin/contracts/token/ERC20/ERC20.sol\":9907:9997  if (spender == address(0)) {... */\n    tag_270:\n      sub(shl(0xa0, 0x01), 0x01)\n        /* \"@openzeppelin/contracts/token/ERC20/ERC20.sol\":10006:10024  _allowances[owner] */\n      dup1\n      dup6\n      and\n      0x00\n      swap1\n      dup2\n      mstore\n        /* \"@openzeppelin/contracts/token/ERC20/ERC20.sol\":10006:10017  _allowances */\n      0x01\n        /* \"@openzeppelin/contracts/token/ERC20/ERC20.sol\":10006:10024  _allowances[owner] */\n      0x20\n      swap1\n      dup2\n      mstore\n      0x40\n      dup1\n      dup4\n      keccak256\n        /* \"@openzeppelin/contracts/token/ERC20/ERC20.sol\":10006:10033  _allowances[owner][spender] */\n      swap4\n      dup8\n      and\n      dup4\n      mstore\n      swap3\n      swap1\n      mstore\n      keccak256\n        /* \"@openzeppelin/contracts/token/ERC20/ERC20.sol\":10006:10041  _allowances[owner][spender] = value */\n      dup3\n      swap1\n      sstore\n        /* \"@openzeppelin/contracts/token/ERC20/ERC20.sol\":10051:10127  if (emitEvent) {... */\n      dup1\n      iszero\n      tag_244\n      jumpi\n        /* \"@openzeppelin/contracts/token/ERC20/ERC20.sol\":10101:10108  spender */\n      dup3\n      sub(shl(0xa0, 0x01), 0x01)\n        /* \"@openzeppelin/contracts/token/ERC20/ERC20.sol\":10085:10116  Approval(owner, spender, value) */\n      and\n        /* \"@openzeppelin/contracts/token/ERC20/ERC20.sol\":10094:10099  owner */\n      dup5\n      sub(shl(0xa0, 0x01), 0x01)\n        /* \"@openzeppelin/contracts/token/ERC20/ERC20.sol\":10085:10116  Approval(owner, spender, value) */\n      and\n      0x8c5be1e5ebec7d5bd14f71427d1e84f3dd0314c0f7b2291e5b200ac8c7c3b925\n        /* \"@openzeppelin/contracts/token/ERC20/ERC20.sol\":10110:10115  value */\n      dup5\n        /* \"@openzeppelin/contracts/token/ERC20/ERC20.sol\":10085:10116  Approval(owner, spender, value) */\n      mload(0x40)\n      tag_273\n      swap2\n        /* \"#utility.yul\":529:554   */\n      dup2\n      mstore\n        /* \"#utility.yul\":517:519   */\n      0x20\n        /* \"#utility.yul\":502:520   */\n      add\n      swap1\n        /* \"#utility.yul\":383:560   */\n      jump\n        /* \"@openzeppelin/contracts/token/ERC20/ERC20.sol\":10085:10116  Approval(owner, spender, value) */\n    tag_273:\n      mload(0x40)\n      dup1\n      swap2\n      sub\n      swap1\n      log3\n        /* \"@openzeppelin/contracts/token/ERC20/ERC20.sol\":9701:10133  function _approve(address owner, address spender, uint256 value, bool emitEvent) internal virtual {... */\n      pop\n      pop\n      pop\n      pop\n      jump\t// out\n        /* \"@openzeppelin/contracts/token/ERC20/ERC20.sol\":6008:7115  function _update(address from, address to, uint256 value) internal virtual {... */\n    tag_251:\n      sub(shl(0xa0, 0x01), 0x01)\n        /* \"@openzeppelin/contracts/token/ERC20/ERC20.sol\":6097:6115  from == address(0) */\n      dup4\n      and\n        /* \"@openzeppelin/contracts/token/ERC20/ERC20.sol\":6093:6633  if (from == address(0)) {... */\n      tag_275\n      jumpi\n        /* \"@openzeppelin/contracts/token/ERC20/ERC20.sol\":6249:6254  value */\n      dup1\n        /* \"@openzeppelin/contracts/token/ERC20/ERC20.sol\":6233:6245  _totalSupply */\n      0x02\n      0x00\n        /* \"@openzeppelin/contracts/token/ERC20/ERC20.sol\":6233:6254  _totalSupply += value */\n      dup3\n      dup3\n      sload\n      tag_276\n      swap2\n      swap1\n      tag_197\n      jump\t// in\n    tag_276:\n      swap1\n      swap2\n      sstore\n      pop\n        /* \"@openzeppelin/contracts/token/ERC20/ERC20.sol\":6093:6633  if (from == address(0)) {... */\n      tag_277\n      swap1\n      pop\n      jump\n    tag_275:\n      sub(shl(0xa0, 0x01), 0x01)\n        /* \"@openzeppelin/contracts/token/ERC20/ERC20.sol\":6307:6322  _balances[from] */\n      dup4\n      and\n        /* \"@openzeppelin/contracts/token/ERC20/ERC20.sol\":6285:6304  uint256 fromBalance */\n      0x00\n        /* \"@openzeppelin/contracts/token/ERC20/ERC20.sol\":6307:6322  _balances[from] */\n      swap1\n      dup2\n      mstore\n      0x20\n      dup2\n      swap1\n      mstore\n      0x40\n      swap1\n      keccak256\n      sload\n        /* \"@openzeppelin/contracts/token/ERC20/ERC20.sol\":6340:6359  fromBalance < value */\n      dup2\n      dup2\n      lt\n        /* \"@openzeppelin/contracts/token/ERC20/ERC20.sol\":6336:6451  if (fromBalance < value) {... */\n      iszero\n      tag_278\n      jumpi\n        /* \"@openzeppelin/contracts/token/ERC20/ERC20.sol\":6386:6436  ERC20InsufficientBalance(from, fromBalance, value) */\n      mload(0x40)\n      shl(0xe2, 0x391434e3)\n      dup2\n      mstore\n      sub(shl(0xa0, 0x01), 0x01)\n        /* \"#utility.yul\":6249:6281   */\n      dup6\n      and\n        /* \"@openzeppelin/contracts/token/ERC20/ERC20.sol\":6386:6436  ERC20InsufficientBalance(from, fromBalance, value) */\n      0x04\n      dup3\n      add\n        /* \"#utility.yul\":6231:6282   */\n      mstore\n        /* \"#utility.yul\":6298:6316   */\n      0x24\n      dup2\n      add\n        /* \"#utility.yul\":6291:6325   */\n      dup3\n      swap1\n      mstore\n        /* \"#utility.yul\":6341:6359   */\n      0x44\n      dup2\n      add\n        /* \"#utility.yul\":6334:6368   */\n      dup4\n      swap1\n      mstore\n        /* \"#utility.yul\":6204:6222   */\n      0x64\n      add\n        /* \"@openzeppelin/contracts/token/ERC20/ERC20.sol\":6386:6436  ERC20InsufficientBalance(from, fromBalance, value) */\n      tag_156\n        /* \"#utility.yul\":6029:6374   */\n      jump\n        /* \"@openzeppelin/contracts/token/ERC20/ERC20.sol\":6336:6451  if (fromBalance < value) {... */\n    tag_278:\n      sub(shl(0xa0, 0x01), 0x01)\n        /* \"@openzeppelin/contracts/token/ERC20/ERC20.sol\":6571:6586  _balances[from] */\n      dup5\n      and\n        /* \"@openzeppelin/contracts/token/ERC20/ERC20.sol\":6571:6580  _balances */\n      0x00\n        /* \"@openzeppelin/contracts/token/ERC20/ERC20.sol\":6571:6586  _balances[from] */\n      swap1\n      dup2\n      mstore\n      0x20\n      dup2\n      swap1\n      mstore\n      0x40\n      swap1\n      keccak256\n        /* \"@openzeppelin/contracts/token/ERC20/ERC20.sol\":6589:6608  fromBalance - value */\n      swap1\n      dup3\n      swap1\n      sub\n        /* \"@openzeppelin/contracts/token/ERC20/ERC20.sol\":6571:6608  _balances[from] = fromBalance - value */\n      swap1\n      sstore\n        /* \"@openzeppelin/contracts/token/ERC20/ERC20.sol\":6093:6633  if (from == address(0)) {... */\n    tag_277:\n      sub(shl(0xa0, 0x01), 0x01)\n        /* \"@openzeppelin/contracts/token/ERC20/ERC20.sol\":6647:6663  to == address(0) */\n      dup3\n      and\n        /* \"@openzeppelin/contracts/token/ERC20/ERC20.sol\":6643:7068  if (to == address(0)) {... */\n      tag_280\n      jumpi\n        /* \"@openzeppelin/contracts/token/ERC20/ERC20.sol\":6810:6822  _totalSupply */\n      0x02\n        /* \"@openzeppelin/contracts/token/ERC20/ERC20.sol\":6810:6831  _totalSupply -= value */\n      dup1\n      sload\n      dup3\n      swap1\n      sub\n      swap1\n      sstore\n        /* \"@openzeppelin/contracts/token/ERC20/ERC20.sol\":6643:7068  if (to == address(0)) {... */\n      jump(tag_281)\n    tag_280:\n      sub(shl(0xa0, 0x01), 0x01)\n        /* \"@openzeppelin/contracts/token/ERC20/ERC20.sol\":7021:7034  _balances[to] */\n      dup3\n      and\n        /* \"@openzeppelin/contracts/token/ERC20/ERC20.sol\":7021:7030  _balances */\n      0x00\n        /* \"@openzeppelin/contracts/token/ERC20/ERC20.sol\":7021:7034  _balances[to] */\n      swap1\n      dup2\n      mstore\n      0x20\n      dup2\n      swap1\n      mstore\n      0x40\n      swap1\n      keccak256\n        /* \"@openzeppelin/contracts/token/ERC20/ERC20.sol\":7021:7043  _balances[to] += value */\n      dup1\n      sload\n      dup3\n      add\n      swap1\n      sstore\n        /* \"@openzeppelin/contracts/token/ERC20/ERC20.sol\":6643:7068  if (to == address(0)) {... */\n    tag_281:\n        /* \"@openzeppelin/contracts/token/ERC20/ERC20.sol\":7098:7100  to */\n      dup2\n      sub(shl(0xa0, 0x01), 0x01)\n        /* \"@openzeppelin/contracts/token/ERC20/ERC20.sol\":7083:7108  Transfer(from, to, value) */\n      and\n        /* \"@openzeppelin/contracts/token/ERC20/ERC20.sol\":7092:7096  from */\n      dup4\n      sub(shl(0xa0, 0x01), 0x01)\n        /* \"@openzeppelin/contracts/token/ERC20/ERC20.sol\":7083:7108  Transfer(from, to, value) */\n      and\n      0xddf252ad1be2c89b69c2b068fc378daa952ba7f163c4a11628f55a4df523b3ef\n        /* \"@openzeppelin/contracts/token/ERC20/ERC20.sol\":7102:7107  value */\n      dup4\n        /* \"@openzeppelin/contracts/token/ERC20/ERC20.sol\":7083:7108  Transfer(from, to, value) */\n      mload(0x40)\n      tag_282\n      swap2\n        /* \"#utility.yul\":529:554   */\n      dup2\n      mstore\n        /* \"#utility.yul\":517:519   */\n      0x20\n        /* \"#utility.yul\":502:520   */\n      add\n      swap1\n        /* \"#utility.yul\":383:560   */\n      jump\n        /* \"@openzeppelin/contracts/token/ERC20/ERC20.sol\":7083:7108  Transfer(from, to, value) */\n    tag_282:\n      mload(0x40)\n      dup1\n      swap2\n      sub\n      swap1\n      log3\n        /* \"@openzeppelin/contracts/token/ERC20/ERC20.sol\":6008:7115  function _update(address from, address to, uint256 value) internal virtual {... */\n      pop\n      pop\n      pop\n      jump\t// out\n        /* \"#utility.yul\":14:187   */\n    tag_283:\n        /* \"#utility.yul\":82:102   */\n      dup1\n      calldataload\n      sub(shl(0xa0, 0x01), 0x01)\n        /* \"#utility.yul\":131:162   */\n      dup2\n      and\n        /* \"#utility.yul\":121:163   */\n      dup2\n      eq\n        /* \"#utility.yul\":111:181   */\n      tag_287\n      jumpi\n        /* \"#utility.yul\":177:178   */\n      0x00\n        /* \"#utility.yul\":174:175   */\n      dup1\n        /* \"#utility.yul\":167:179   */\n      revert\n        /* \"#utility.yul\":111:181   */\n    tag_287:\n        /* \"#utility.yul\":14:187   */\n      swap2\n      swap1\n      pop\n      jump\t// out\n        /* \"#utility.yul\":192:378   */\n    tag_31:\n        /* \"#utility.yul\":251:257   */\n      0x00\n        /* \"#utility.yul\":304:306   */\n      0x20\n        /* \"#utility.yul\":292:301   */\n      dup3\n        /* \"#utility.yul\":283:290   */\n      dup5\n        /* \"#utility.yul\":279:302   */\n      sub\n        /* \"#utility.yul\":275:307   */\n      slt\n        /* \"#utility.yul\":272:324   */\n      iszero\n      tag_289\n      jumpi\n        /* \"#utility.yul\":320:321   */\n      0x00\n        /* \"#utility.yul\":317:318   */\n      dup1\n        /* \"#utility.yul\":310:322   */\n      revert\n        /* \"#utility.yul\":272:324   */\n    tag_289:\n        /* \"#utility.yul\":343:372   */\n      tag_290\n        /* \"#utility.yul\":362:371   */\n      dup3\n        /* \"#utility.yul\":343:372   */\n      tag_283\n      jump\t// in\n    tag_290:\n        /* \"#utility.yul\":333:372   */\n      swap4\n        /* \"#utility.yul\":192:378   */\n      swap3\n      pop\n      pop\n      pop\n      jump\t// out\n        /* \"#utility.yul\":565:983   */\n    tag_39:\n        /* \"#utility.yul\":714:716   */\n      0x20\n        /* \"#utility.yul\":703:712   */\n      dup2\n        /* \"#utility.yul\":696:717   */\n      mstore\n        /* \"#utility.yul\":677:681   */\n      0x00\n        /* \"#utility.yul\":746:752   */\n      dup3\n        /* \"#utility.yul\":740:753   */\n      mload\n        /* \"#utility.yul\":789:795   */\n      dup1\n        /* \"#utility.yul\":784:786   */\n      0x20\n        /* \"#utility.yul\":773:782   */\n      dup5\n        /* \"#utility.yul\":769:787   */\n      add\n        /* \"#utility.yul\":762:796   */\n      mstore\n        /* \"#utility.yul\":848:854   */\n      dup1\n        /* \"#utility.yul\":843:845   */\n      0x20\n        /* \"#utility.yul\":835:841   */\n      dup6\n        /* \"#utility.yul\":831:846   */\n      add\n        /* \"#utility.yul\":826:828   */\n      0x40\n        /* \"#utility.yul\":815:824   */\n      dup6\n        /* \"#utility.yul\":811:829   */\n      add\n        /* \"#utility.yul\":805:855   */\n      mcopy\n        /* \"#utility.yul\":904:905   */\n      0x00\n        /* \"#utility.yul\":899:901   */\n      0x40\n        /* \"#utility.yul\":890:896   */\n      dup3\n        /* \"#utility.yul\":879:888   */\n      dup6\n        /* \"#utility.yul\":875:897   */\n      add\n        /* \"#utility.yul\":871:902   */\n      add\n        /* \"#utility.yul\":864:906   */\n      mstore\n        /* \"#utility.yul\":974:976   */\n      0x40\n        /* \"#utility.yul\":967:969   */\n      0x1f\n        /* \"#utility.yul\":963:970   */\n      not\n        /* \"#utility.yul\":958:960   */\n      0x1f\n        /* \"#utility.yul\":950:956   */\n      dup4\n        /* \"#utility.yul\":946:961   */\n      add\n        /* \"#utility.yul\":942:971   */\n      and\n        /* \"#utility.yul\":931:940   */\n      dup5\n        /* \"#utility.yul\":927:972   */\n      add\n        /* \"#utility.yul\":923:977   */\n      add\n        /* \"#utility.yul\":915:977   */\n      swap2\n      pop\n      pop\n        /* \"#utility.yul\":565:983   */\n      swap3\n      swap2\n      pop\n      pop\n      jump\t// out\n        /* \"#utility.yul\":988:1288   */\n    tag_43:\n        /* \"#utility.yul\":1056:1062   */\n      0x00\n        /* \"#utility.yul\":1064:1070   */\n      dup1\n        /* \"#utility.yul\":1117:1119   */\n      0x40\n        /* \"#utility.yul\":1105:1114   */\n      dup4\n        /* \"#utility.yul\":1096:1103   */\n      dup6\n        /* \"#utility.yul\":1092:1115   */\n      sub\n        /* \"#utility.yul\":1088:1120   */\n      slt\n        /* \"#utility.yul\":1085:1137   */\n      iszero\n      tag_294\n      jumpi\n        /* \"#utility.yul\":1133:1134   */\n      0x00\n        /* \"#utility.yul\":1130:1131   */\n      dup1\n        /* \"#utility.yul\":1123:1135   */\n      revert\n        /* \"#utility.yul\":1085:1137   */\n    tag_294:\n        /* \"#utility.yul\":1156:1185   */\n      tag_295\n        /* \"#utility.yul\":1175:1184   */\n      dup4\n        /* \"#utility.yul\":1156:1185   */\n      tag_283\n      jump\t// in\n    tag_295:\n        /* \"#utility.yul\":1146:1185   */\n      swap5\n        /* \"#utility.yul\":1254:1256   */\n      0x20\n        /* \"#utility.yul\":1239:1257   */\n      swap4\n      swap1\n      swap4\n      add\n        /* \"#utility.yul\":1226:1258   */\n      calldataload\n      swap4\n      pop\n      pop\n      pop\n        /* \"#utility.yul\":988:1288   */\n      jump\t// out\n        /* \"#utility.yul\":1485:1859   */\n    tag_54:\n        /* \"#utility.yul\":1562:1568   */\n      0x00\n        /* \"#utility.yul\":1570:1576   */\n      dup1\n        /* \"#utility.yul\":1578:1584   */\n      0x00\n        /* \"#utility.yul\":1631:1633   */\n      0x60\n        /* \"#utility.yul\":1619:1628   */\n      dup5\n        /* \"#utility.yul\":1610:1617   */\n      dup7\n        /* \"#utility.yul\":1606:1629   */\n      sub\n        /* \"#utility.yul\":1602:1634   */\n      slt\n        /* \"#utility.yul\":1599:1651   */\n      iszero\n      tag_298\n      jumpi\n        /* \"#utility.yul\":1647:1648   */\n      0x00\n        /* \"#utility.yul\":1644:1645   */\n      dup1\n        /* \"#utility.yul\":1637:1649   */\n      revert\n        /* \"#utility.yul\":1599:1651   */\n    tag_298:\n        /* \"#utility.yul\":1670:1699   */\n      tag_299\n        /* \"#utility.yul\":1689:1698   */\n      dup5\n        /* \"#utility.yul\":1670:1699   */\n      tag_283\n      jump\t// in\n    tag_299:\n        /* \"#utility.yul\":1660:1699   */\n      swap3\n      pop\n        /* \"#utility.yul\":1718:1756   */\n      tag_300\n        /* \"#utility.yul\":1752:1754   */\n      0x20\n        /* \"#utility.yul\":1741:1750   */\n      dup6\n        /* \"#utility.yul\":1737:1755   */\n      add\n        /* \"#utility.yul\":1718:1756   */\n      tag_283\n      jump\t// in\n    tag_300:\n        /* \"#utility.yul\":1485:1859   */\n      swap3\n      swap6\n        /* \"#utility.yul\":1708:1756   */\n      swap3\n      swap5\n      pop\n      pop\n      pop\n        /* \"#utility.yul\":1825:1827   */\n      0x40\n        /* \"#utility.yul\":1810:1828   */\n      swap2\n      swap1\n      swap2\n      add\n        /* \"#utility.yul\":1797:1829   */\n      calldataload\n      swap1\n        /* \"#utility.yul\":1485:1859   */\n      jump\t// out\n        /* \"#utility.yul\":1864:2090   */\n    tag_60:\n        /* \"#utility.yul\":1923:1929   */\n      0x00\n        /* \"#utility.yul\":1976:1978   */\n      0x20\n        /* \"#utility.yul\":1964:1973   */\n      dup3\n        /* \"#utility.yul\":1955:1962   */\n      dup5\n        /* \"#utility.yul\":1951:1974   */\n      sub\n        /* \"#utility.yul\":1947:1979   */\n      slt\n        /* \"#utility.yul\":1944:1996   */\n      iszero\n      tag_302\n      jumpi\n        /* \"#utility.yul\":1992:1993   */\n      0x00\n        /* \"#utility.yul\":1989:1990   */\n      dup1\n        /* \"#utility.yul\":1982:1994   */\n      revert\n        /* \"#utility.yul\":1944:1996   */\n    tag_302:\n      pop\n        /* \"#utility.yul\":2037:2060   */\n      calldataload\n      swap2\n        /* \"#utility.yul\":1864:2090   */\n      swap1\n      pop\n      jump\t// out\n        /* \"#utility.yul\":2714:2974   */\n    tag_106:\n        /* \"#utility.yul\":2782:2788   */\n      0x00\n        /* \"#utility.yul\":2790:2796   */\n      dup1\n        /* \"#utility.yul\":2843:2845   */\n      0x40\n        /* \"#utility.yul\":2831:2840   */\n      dup4\n        /* \"#utility.yul\":2822:2829   */\n      dup6\n        /* \"#utility.yul\":2818:2841   */\n      sub\n        /* \"#utility.yul\":2814:2846   */\n      slt\n        /* \"#utility.yul\":2811:2863   */\n      iszero\n      tag_307\n      jumpi\n        /* \"#utility.yul\":2859:2860   */\n      0x00\n        /* \"#utility.yul\":2856:2857   */\n      dup1\n        /* \"#utility.yul\":2849:2861   */\n      revert\n        /* \"#utility.yul\":2811:2863   */\n    tag_307:\n        /* \"#utility.yul\":2882:2911   */\n      tag_308\n        /* \"#utility.yul\":2901:2910   */\n      dup4\n        /* \"#utility.yul\":2882:2911   */\n      tag_283\n      jump\t// in\n    tag_308:\n        /* \"#utility.yul\":2872:2911   */\n      swap2\n      pop\n        /* \"#utility.yul\":2930:2968   */\n      tag_309\n        /* \"#utility.yul\":2964:2966   */\n      0x20\n        /* \"#utility.yul\":2953:2962   */\n      dup5\n        /* \"#utility.yul\":2949:2967   */\n      add\n        /* \"#utility.yul\":2930:2968   */\n      tag_283\n      jump\t// in\n    tag_309:\n        /* \"#utility.yul\":2920:2968   */\n      swap1\n      pop\n        /* \"#utility.yul\":2714:2974   */\n      swap3\n      pop\n      swap3\n      swap1\n      pop\n      jump\t// out\n        /* \"#utility.yul\":3206:3390   */\n    tag_128:\n        /* \"#utility.yul\":3276:3282   */\n      0x00\n        /* \"#utility.yul\":3329:3331   */\n      0x20\n        /* \"#utility.yul\":3317:3326   */\n      dup3\n        /* \"#utility.yul\":3308:3315   */\n      dup5\n        /* \"#utility.yul\":3304:3327   */\n      sub\n        /* \"#utility.yul\":3300:3332   */\n      slt\n        /* \"#utility.yul\":3297:3349   */\n      iszero\n      tag_312\n      jumpi\n        /* \"#utility.yul\":3345:3346   */\n      0x00\n        /* \"#utility.yul\":3342:3343   */\n      dup1\n        /* \"#utility.yul\":3335:3347   */\n      revert\n        /* \"#utility.yul\":3297:3349   */\n    tag_312:\n      pop\n        /* \"#utility.yul\":3368:3384   */\n      mload\n      swap2\n        /* \"#utility.yul\":3206:3390   */\n      swap1\n      pop\n      jump\t// out\n        /* \"#utility.yul\":3395:3522   */\n    tag_284:\n        /* \"#utility.yul\":3456:3466   */\n      0x4e487b71\n        /* \"#utility.yul\":3451:3454   */\n      0xe0\n        /* \"#utility.yul\":3447:3467   */\n      shl\n        /* \"#utility.yul\":3444:3445   */\n      0x00\n        /* \"#utility.yul\":3437:3468   */\n      mstore\n        /* \"#utility.yul\":3487:3491   */\n      0x11\n        /* \"#utility.yul\":3484:3485   */\n      0x04\n        /* \"#utility.yul\":3477:3492   */\n      mstore\n        /* \"#utility.yul\":3511:3515   */\n      0x24\n        /* \"#utility.yul\":3508:3509   */\n      0x00\n        /* \"#utility.yul\":3501:3516   */\n      revert\n        /* \"#utility.yul\":3527:3695   */\n    tag_131:\n        /* \"#utility.yul\":3600:3609   */\n      dup1\n      dup3\n      mul\n        /* \"#utility.yul\":3631:3640   */\n      dup2\n      iszero\n        /* \"#utility.yul\":3648:3663   */\n      dup3\n      dup3\n      div\n        /* \"#utility.yul\":3642:3664   */\n      dup5\n      eq\n        /* \"#utility.yul\":3628:3665   */\n      or\n        /* \"#utility.yul\":3618:3689   */\n      tag_141\n      jumpi\n        /* \"#utility.yul\":3669:3687   */\n      tag_141\n      tag_284\n      jump\t// in\n        /* \"#utility.yul\":3700:3917   */\n    tag_133:\n        /* \"#utility.yul\":3740:3741   */\n      0x00\n        /* \"#utility.yul\":3766:3767   */\n      dup3\n        /* \"#utility.yul\":3756:3888   */\n      tag_318\n      jumpi\n        /* \"#utility.yul\":3810:3820   */\n      0x4e487b71\n        /* \"#utility.yul\":3805:3808   */\n      0xe0\n        /* \"#utility.yul\":3801:3821   */\n      shl\n        /* \"#utility.yul\":3798:3799   */\n      0x00\n        /* \"#utility.yul\":3791:3822   */\n      mstore\n        /* \"#utility.yul\":3845:3849   */\n      0x12\n        /* \"#utility.yul\":3842:3843   */\n      0x04\n        /* \"#utility.yul\":3835:3850   */\n      mstore\n        /* \"#utility.yul\":3873:3877   */\n      0x24\n        /* \"#utility.yul\":3870:3871   */\n      0x00\n        /* \"#utility.yul\":3863:3878   */\n      revert\n        /* \"#utility.yul\":3756:3888   */\n    tag_318:\n      pop\n        /* \"#utility.yul\":3902:3911   */\n      div\n      swap1\n        /* \"#utility.yul\":3700:3917   */\n      jump\t// out\n        /* \"#utility.yul\":3922:4302   */\n    tag_136:\n        /* \"#utility.yul\":4001:4002   */\n      0x01\n        /* \"#utility.yul\":3997:4009   */\n      dup2\n      dup2\n      shr\n      swap1\n        /* \"#utility.yul\":4044:4056   */\n      dup3\n      and\n      dup1\n        /* \"#utility.yul\":4065:4126   */\n      tag_320\n      jumpi\n        /* \"#utility.yul\":4119:4123   */\n      0x7f\n        /* \"#utility.yul\":4111:4117   */\n      dup3\n        /* \"#utility.yul\":4107:4124   */\n      and\n        /* \"#utility.yul\":4097:4124   */\n      swap2\n      pop\n        /* \"#utility.yul\":4065:4126   */\n    tag_320:\n        /* \"#utility.yul\":4172:4174   */\n      0x20\n        /* \"#utility.yul\":4164:4170   */\n      dup3\n        /* \"#utility.yul\":4161:4175   */\n      lt\n        /* \"#utility.yul\":4141:4159   */\n      dup2\n        /* \"#utility.yul\":4138:4176   */\n      sub\n        /* \"#utility.yul\":4135:4296   */\n      tag_321\n      jumpi\n        /* \"#utility.yul\":4218:4228   */\n      0x4e487b71\n        /* \"#utility.yul\":4213:4216   */\n      0xe0\n        /* \"#utility.yul\":4209:4229   */\n      shl\n        /* \"#utility.yul\":4206:4207   */\n      0x00\n        /* \"#utility.yul\":4199:4230   */\n      mstore\n        /* \"#utility.yul\":4253:4257   */\n      0x22\n        /* \"#utility.yul\":4250:4251   */\n      0x04\n        /* \"#utility.yul\":4243:4258   */\n      mstore\n        /* \"#utility.yul\":4281:4285   */\n      0x24\n        /* \"#utility.yul\":4278:4279   */\n      0x00\n        /* \"#utility.yul\":4271:4286   */\n      revert\n        /* \"#utility.yul\":4135:4296   */\n    tag_321:\n      pop\n        /* \"#utility.yul\":3922:4302   */\n      swap2\n      swap1\n      pop\n      jump\t// out\n        /* \"#utility.yul\":4933:5210   */\n    tag_172:\n        /* \"#utility.yul\":5000:5006   */\n      0x00\n        /* \"#utility.yul\":5053:5055   */\n      0x20\n        /* \"#utility.yul\":5041:5050   */\n      dup3\n        /* \"#utility.yul\":5032:5039   */\n      dup5\n        /* \"#utility.yul\":5028:5051   */\n      sub\n        /* \"#utility.yul\":5024:5056   */\n      slt\n        /* \"#utility.yul\":5021:5073   */\n      iszero\n      tag_325\n      jumpi\n        /* \"#utility.yul\":5069:5070   */\n      0x00\n        /* \"#utility.yul\":5066:5067   */\n      dup1\n        /* \"#utility.yul\":5059:5071   */\n      revert\n        /* \"#utility.yul\":5021:5073   */\n    tag_325:\n        /* \"#utility.yul\":5101:5110   */\n      dup2\n        /* \"#utility.yul\":5095:5111   */\n      mload\n        /* \"#utility.yul\":5154:5159   */\n      dup1\n        /* \"#utility.yul\":5147:5160   */\n      iszero\n        /* \"#utility.yul\":5140:5161   */\n      iszero\n        /* \"#utility.yul\":5133:5138   */\n      dup2\n        /* \"#utility.yul\":5130:5162   */\n      eq\n        /* \"#utility.yul\":5120:5180   */\n      tag_290\n      jumpi\n        /* \"#utility.yul\":5176:5177   */\n      0x00\n        /* \"#utility.yul\":5173:5174   */\n      dup1\n        /* \"#utility.yul\":5166:5178   */\n      revert\n        /* \"#utility.yul\":5421:5549   */\n    tag_195:\n        /* \"#utility.yul\":5488:5497   */\n      dup2\n      dup2\n      sub\n        /* \"#utility.yul\":5509:5520   */\n      dup2\n      dup2\n      gt\n        /* \"#utility.yul\":5506:5543   */\n      iszero\n      tag_141\n      jumpi\n        /* \"#utility.yul\":5523:5541   */\n      tag_141\n      tag_284\n      jump\t// in\n        /* \"#utility.yul\":5554:5679   */\n    tag_197:\n        /* \"#utility.yul\":5619:5628   */\n      dup1\n      dup3\n      add\n        /* \"#utility.yul\":5640:5650   */\n      dup1\n      dup3\n      gt\n        /* \"#utility.yul\":5637:5673   */\n      iszero\n      tag_141\n      jumpi\n        /* \"#utility.yul\":5653:5671   */\n      tag_141\n      tag_284\n      jump\t// in\n\n    auxdata: 0xa264697066735822122043a956470bbec98af181333b1d65759dfaf825be45e19f3fedba94b17d6f184d64736f6c634300081a0033\n}\n",
				"bytecode": {
					"linkReferences": {},
					"object": "608060405234801561000f575f80fd5b5060405161130138038061130183398101604081905261002e9161017c565b336040518060400160405280601681526020017f5969656c64205661756c74205374616b65642045544800000000000000000000815250604051806040016040528060078152602001660f2eca6a88aa8960cb1b81525081600390816100949190610245565b5060046100a18282610245565b5050506001600160a01b0381166100d157604051631e4fbdf760e01b81525f600482015260240160405180910390fd5b6100da81610110565b50600680546001600160a01b039384166001600160a01b03199182161790915560078054929093169116179055426008556102ff565b600580546001600160a01b038381166001600160a01b0319831681179093556040519116919082907f8be0079c531659141344cd1fd0a4f28419497f9722a3daafe3b4186f6b6457e0905f90a35050565b80516001600160a01b0381168114610177575f80fd5b919050565b5f806040838503121561018d575f80fd5b61019683610161565b91506101a460208401610161565b90509250929050565b634e487b7160e01b5f52604160045260245ffd5b600181811c908216806101d557607f821691505b6020821081036101f357634e487b7160e01b5f52602260045260245ffd5b50919050565b601f82111561024057805f5260205f20601f840160051c8101602085101561021e5750805b601f840160051c820191505b8181101561023d575f815560010161022a565b50505b505050565b81516001600160401b0381111561025e5761025e6101ad565b6102728161026c84546101c1565b846101f9565b6020601f8211600181146102a4575f831561028d5750848201515b5f19600385901b1c1916600184901b17845561023d565b5f84815260208120601f198516915b828110156102d357878501518255602094850194600190920191016102b3565b50848210156102f057868401515f19600387901b60f8161c191681555b50505050600190811b01905550565b610ff58061030c5f395ff3fe60806040526004361061011d575f3560e01c80638da5cb5b1161009d578063d0e30db011610062578063d0e30db01461030d578063dd62ed3e14610315578063ee17254614610359578063eea7570e1461036e578063f2fde38b1461038d575f80fd5b80638da5cb5b1461027557806395d89b41146102a6578063a9059cbb146102ba578063c1fe3e48146102d9578063ceb0f626146102f8575f80fd5b80632e1a7d4d116100e35780632e1a7d4d146101dd578063313ce567146101fe5780634641257d1461021957806370a082311461022d578063715018a614610261575f80fd5b80628cc2621461012857806306fdde031461015a578063095ea7b31461017b57806318160ddd146101aa57806323b872dd146101be575f80fd5b3661012457005b5f80fd5b348015610133575f80fd5b50610147610142366004610de2565b6103ac565b6040519081526020015b60405180910390f35b348015610165575f80fd5b5061016e610465565b6040516101519190610e02565b348015610186575f80fd5b5061019a610195366004610e37565b6104f5565b6040519015158152602001610151565b3480156101b5575f80fd5b50600254610147565b3480156101c9575f80fd5b5061019a6101d8366004610e5f565b61050e565b3480156101e8575f80fd5b506101fc6101f7366004610e99565b610531565b005b348015610209575f80fd5b5060405160128152602001610151565b348015610224575f80fd5b506101fc61069f565b348015610238575f80fd5b50610147610247366004610de2565b6001600160a01b03165f9081526020819052604090205490565b34801561026c575f80fd5b506101fc610870565b348015610280575f80fd5b506005546001600160a01b03165b6040516001600160a01b039091168152602001610151565b3480156102b1575f80fd5b5061016e610883565b3480156102c5575f80fd5b5061019a6102d4366004610e37565b610892565b3480156102e4575f80fd5b5060065461028e906001600160a01b031681565b348015610303575f80fd5b5061014760085481565b6101fc61089f565b348015610320575f80fd5b5061014761032f366004610eb0565b6001600160a01b039182165f90815260016020908152604080832093909416825291909152205490565b348015610364575f80fd5b5061014760095481565b348015610379575f80fd5b5060075461028e906001600160a01b031681565b348015610398575f80fd5b506101fc6103a7366004610de2565b6109c0565b5f806103b760025490565b6006546040516370a0823160e01b81523060048201529192505f916001600160a01b03909116906370a0823190602401602060405180830381865afa158015610402573d5f803e3d5ffd5b505050506040513d601f19601f820116820180604052508101906104269190610ee1565b90505f82610448866001600160a01b03165f9081526020819052604090205490565b6104529084610f0c565b61045c9190610f23565b95945050505050565b60606003805461047490610f42565b80601f01602080910402602001604051908101604052809291908181526020018280546104a090610f42565b80156104eb5780601f106104c2576101008083540402835291602001916104eb565b820191905f5260205f20905b8154815290600101906020018083116104ce57829003601f168201915b5050505050905090565b5f336105028185856109fa565b60019150505b92915050565b5f3361051b858285610a0c565b610526858585610a88565b506001949350505050565b335f908152602081905260409020548111156105895760405162461bcd60e51b815260206004820152601260248201527109cdee840cadcdeeaced040f2eca6a88aa8960731b60448201526064015b60405180910390fd5b5f61059360025490565b6006546040516370a0823160e01b81523060048201529192505f916001600160a01b03909116906370a0823190602401602060405180830381865afa1580156105de573d5f803e3d5ffd5b505050506040513d601f19601f820116820180604052508101906106029190610ee1565b90505f826106108584610f0c565b61061a9190610f23565b90506106263385610ae5565b60065460405163a9059cbb60e01b8152336004820152602481018390526001600160a01b039091169063a9059cbb906044016020604051808303815f875af1158015610674573d5f803e3d5ffd5b505050506040513d601f19601f820116820180604052508101906106989190610f7a565b5050505050565b6106a7610b1d565b600754604051636e1cdf8960e01b8152662386f26fc1000060048201526001600160a01b0390911690636e1cdf89906024015f604051808303815f87803b1580156106f0575f80fd5b505af1158015610702573d5f803e3d5ffd5b50506006546040516370a0823160e01b81523060048201525f93506001600160a01b0390911691506370a0823190602401602060405180830381865afa15801561074e573d5f803e3d5ffd5b505050506040513d601f19601f820116820180604052508101906107729190610ee1565b905060065f9054906101000a90046001600160a01b03166001600160a01b031663372500ab6040518163ffffffff1660e01b81526004015f604051808303815f87803b1580156107c0575f80fd5b505af11580156107d2573d5f803e3d5ffd5b50506006546040516370a0823160e01b81523060048201525f93506001600160a01b0390911691506370a0823190602401602060405180830381865afa15801561081e573d5f803e3d5ffd5b505050506040513d601f19601f820116820180604052508101906108429190610ee1565b90505f61084f8383610f99565b90508060095f8282546108629190610fac565b909155505042600855505050565b610878610b1d565b6108815f610b4a565b565b60606004805461047490610f42565b5f33610502818585610a88565b5f34116108e15760405162461bcd60e51b815260206004820152601060248201526f09aeae6e840c8cae0dee6d2e8408aa8960831b6044820152606401610580565b60065f9054906101000a90046001600160a01b03166001600160a01b0316633a4b66f1346040518263ffffffff1660e01b81526004015f604051808303818588803b15801561092e575f80fd5b505af1158015610940573d5f803e3d5ffd5b50506006546040516370a0823160e01b81523060048201525f94506001600160a01b0390911692506370a082319150602401602060405180830381865afa15801561098d573d5f803e3d5ffd5b505050506040513d601f19601f820116820180604052508101906109b19190610ee1565b90506109bd3382610b9b565b50565b6109c8610b1d565b6001600160a01b0381166109f157604051631e4fbdf760e01b81525f6004820152602401610580565b6109bd81610b4a565b610a078383836001610bcf565b505050565b6001600160a01b038381165f908152600160209081526040808320938616835292905220545f19811015610a825781811015610a7457604051637dc7a0d960e11b81526001600160a01b03841660048201526024810182905260448101839052606401610580565b610a8284848484035f610bcf565b50505050565b6001600160a01b038316610ab157604051634b637e8f60e11b81525f6004820152602401610580565b6001600160a01b038216610ada5760405163ec442f0560e01b81525f6004820152602401610580565b610a07838383610ca1565b6001600160a01b038216610b0e57604051634b637e8f60e11b81525f6004820152602401610580565b610b19825f83610ca1565b5050565b6005546001600160a01b031633146108815760405163118cdaa760e01b8152336004820152602401610580565b600580546001600160a01b038381166001600160a01b0319831681179093556040519116919082907f8be0079c531659141344cd1fd0a4f28419497f9722a3daafe3b4186f6b6457e0905f90a35050565b6001600160a01b038216610bc45760405163ec442f0560e01b81525f6004820152602401610580565b610b195f8383610ca1565b6001600160a01b038416610bf85760405163e602df0560e01b81525f6004820152602401610580565b6001600160a01b038316610c2157604051634a1406b160e11b81525f6004820152602401610580565b6001600160a01b038085165f9081526001602090815260408083209387168352929052208290558015610a8257826001600160a01b0316846001600160a01b03167f8c5be1e5ebec7d5bd14f71427d1e84f3dd0314c0f7b2291e5b200ac8c7c3b92584604051610c9391815260200190565b60405180910390a350505050565b6001600160a01b038316610ccb578060025f828254610cc09190610fac565b90915550610d3b9050565b6001600160a01b0383165f9081526020819052604090205481811015610d1d5760405163391434e360e21b81526001600160a01b03851660048201526024810182905260448101839052606401610580565b6001600160a01b0384165f9081526020819052604090209082900390555b6001600160a01b038216610d5757600280548290039055610d75565b6001600160a01b0382165f9081526020819052604090208054820190555b816001600160a01b0316836001600160a01b03167fddf252ad1be2c89b69c2b068fc378daa952ba7f163c4a11628f55a4df523b3ef83604051610dba91815260200190565b60405180910390a3505050565b80356001600160a01b0381168114610ddd575f80fd5b919050565b5f60208284031215610df2575f80fd5b610dfb82610dc7565b9392505050565b602081525f82518060208401528060208501604085015e5f604082850101526040601f19601f83011684010191505092915050565b5f8060408385031215610e48575f80fd5b610e5183610dc7565b946020939093013593505050565b5f805f60608486031215610e71575f80fd5b610e7a84610dc7565b9250610e8860208501610dc7565b929592945050506040919091013590565b5f60208284031215610ea9575f80fd5b5035919050565b5f8060408385031215610ec1575f80fd5b610eca83610dc7565b9150610ed860208401610dc7565b90509250929050565b5f60208284031215610ef1575f80fd5b5051919050565b634e487b7160e01b5f52601160045260245ffd5b808202811582820484141761050857610508610ef8565b5f82610f3d57634e487b7160e01b5f52601260045260245ffd5b500490565b600181811c90821680610f5657607f821691505b602082108103610f7457634e487b7160e01b5f52602260045260245ffd5b50919050565b5f60208284031215610f8a575f80fd5b81518015158114610dfb575f80fd5b8181038181111561050857610508610ef8565b8082018082111561050857610508610ef856fea264697066735822122043a956470bbec98af181333b1d65759dfaf825be45e19f3fedba94b17d6f184d64736f6c634300081a0033",
					"opcodes": "PUSH1 0x80 PUSH1 0x40 MSTORE CALLVALUE DUP1 ISZERO PUSH2 0xF JUMPI PUSH0 DUP1 REVERT JUMPDEST POP PUSH1 0x40 MLOAD PUSH2 0x1301 CODESIZE SUB DUP1 PUSH2 0x1301 DUP4 CODECOPY DUP2 ADD PUSH1 0x40 DUP2 SWAP1 MSTORE PUSH2 0x2E SWAP2 PUSH2 0x17C JUMP JUMPDEST CALLER PUSH1 0x40 MLOAD DUP1 PUSH1 0x40 ADD PUSH1 0x40 MSTORE DUP1 PUSH1 0x16 DUP2 MSTORE PUSH1 0x20 ADD PUSH32 0x5969656C64205661756C74205374616B65642045544800000000000000000000 DUP2 MSTORE POP PUSH1 0x40 MLOAD DUP1 PUSH1 0x40 ADD PUSH1 0x40 MSTORE DUP1 PUSH1 0x7 DUP2 MSTORE PUSH1 0x20 ADD PUSH7 0xF2ECA6A88AA89 PUSH1 0xCB SHL DUP2 MSTORE POP DUP2 PUSH1 0x3 SWAP1 DUP2 PUSH2 0x94 SWAP2 SWAP1 PUSH2 0x245 JUMP JUMPDEST POP PUSH1 0x4 PUSH2 0xA1 DUP3 DUP3 PUSH2 0x245 JUMP JUMPDEST POP POP POP PUSH1 0x1 PUSH1 0x1 PUSH1 0xA0 SHL SUB DUP2 AND PUSH2 0xD1 JUMPI PUSH1 0x40 MLOAD PUSH4 0x1E4FBDF7 PUSH1 0xE0 SHL DUP2 MSTORE PUSH0 PUSH1 0x4 DUP3 ADD MSTORE PUSH1 0x24 ADD PUSH1 0x40 MLOAD DUP1 SWAP2 SUB SWAP1 REVERT JUMPDEST PUSH2 0xDA DUP2 PUSH2 0x110 JUMP JUMPDEST POP PUSH1 0x6 DUP1 SLOAD PUSH1 0x1 PUSH1 0x1 PUSH1 0xA0 SHL SUB SWAP4 DUP5 AND PUSH1 0x1 PUSH1 0x1 PUSH1 0xA0 SHL SUB NOT SWAP2 DUP3 AND OR SWAP1 SWAP2 SSTORE PUSH1 0x7 DUP1 SLOAD SWAP3 SWAP1 SWAP4 AND SWAP2 AND OR SWAP1 SSTORE TIMESTAMP PUSH1 0x8 SSTORE PUSH2 0x2FF JUMP JUMPDEST PUSH1 0x5 DUP1 SLOAD PUSH1 0x1 PUSH1 0x1 PUSH1 0xA0 SHL SUB DUP4 DUP2 AND PUSH1 0x1 PUSH1 0x1 PUSH1 0xA0 SHL SUB NOT DUP4 AND DUP2 OR SWAP1 SWAP4 SSTORE PUSH1 0x40 MLOAD SWAP2 AND SWAP2 SWAP1 DUP3 SWAP1 PUSH32 0x8BE0079C531659141344CD1FD0A4F28419497F9722A3DAAFE3B4186F6B6457E0 SWAP1 PUSH0 SWAP1 LOG3 POP POP JUMP JUMPDEST DUP1 MLOAD PUSH1 0x1 PUSH1 0x1 PUSH1 0xA0 SHL SUB DUP2 AND DUP2 EQ PUSH2 0x177 JUMPI PUSH0 DUP1 REVERT JUMPDEST SWAP2 SWAP1 POP JUMP JUMPDEST PUSH0 DUP1 PUSH1 0x40 DUP4 DUP6 SUB SLT ISZERO PUSH2 0x18D JUMPI PUSH0 DUP1 REVERT JUMPDEST PUSH2 0x196 DUP4 PUSH2 0x161 JUMP JUMPDEST SWAP2 POP PUSH2 0x1A4 PUSH1 0x20 DUP5 ADD PUSH2 0x161 JUMP JUMPDEST SWAP1 POP SWAP3 POP SWAP3 SWAP1 POP JUMP JUMPDEST PUSH4 0x4E487B71 PUSH1 0xE0 SHL PUSH0 MSTORE PUSH1 0x41 PUSH1 0x4 MSTORE PUSH1 0x24 PUSH0 REVERT JUMPDEST PUSH1 0x1 DUP2 DUP2 SHR SWAP1 DUP3 AND DUP1 PUSH2 0x1D5 JUMPI PUSH1 0x7F DUP3 AND SWAP2 POP JUMPDEST PUSH1 0x20 DUP3 LT DUP2 SUB PUSH2 0x1F3 JUMPI PUSH4 0x4E487B71 PUSH1 0xE0 SHL PUSH0 MSTORE PUSH1 0x22 PUSH1 0x4 MSTORE PUSH1 0x24 PUSH0 REVERT JUMPDEST POP SWAP2 SWAP1 POP JUMP JUMPDEST PUSH1 0x1F DUP3 GT ISZERO PUSH2 0x240 JUMPI DUP1 PUSH0 MSTORE PUSH1 0x20 PUSH0 KECCAK256 PUSH1 0x1F DUP5 ADD PUSH1 0x5 SHR DUP2 ADD PUSH1 0x20 DUP6 LT ISZERO PUSH2 0x21E JUMPI POP DUP1 JUMPDEST PUSH1 0x1F DUP5 ADD PUSH1 0x5 SHR DUP3 ADD SWAP2 POP JUMPDEST DUP2 DUP2 LT ISZERO PUSH2 0x23D JUMPI PUSH0 DUP2 SSTORE PUSH1 0x1 ADD PUSH2 0x22A JUMP JUMPDEST POP POP JUMPDEST POP POP POP JUMP JUMPDEST DUP2 MLOAD PUSH1 0x1 PUSH1 0x1 PUSH1 0x40 SHL SUB DUP2 GT ISZERO PUSH2 0x25E JUMPI PUSH2 0x25E PUSH2 0x1AD JUMP JUMPDEST PUSH2 0x272 DUP2 PUSH2 0x26C DUP5 SLOAD PUSH2 0x1C1 JUMP JUMPDEST DUP5 PUSH2 0x1F9 JUMP JUMPDEST PUSH1 0x20 PUSH1 0x1F DUP3 GT PUSH1 0x1 DUP2 EQ PUSH2 0x2A4 JUMPI PUSH0 DUP4 ISZERO PUSH2 0x28D JUMPI POP DUP5 DUP3 ADD MLOAD JUMPDEST PUSH0 NOT PUSH1 0x3 DUP6 SWAP1 SHL SHR NOT AND PUSH1 0x1 DUP5 SWAP1 SHL OR DUP5 SSTORE PUSH2 0x23D JUMP JUMPDEST PUSH0 DUP5 DUP2 MSTORE PUSH1 0x20 DUP2 KECCAK256 PUSH1 0x1F NOT DUP6 AND SWAP2 JUMPDEST DUP3 DUP2 LT ISZERO PUSH2 0x2D3 JUMPI DUP8 DUP6 ADD MLOAD DUP3 SSTORE PUSH1 0x20 SWAP5 DUP6 ADD SWAP5 PUSH1 0x1 SWAP1 SWAP3 ADD SWAP2 ADD PUSH2 0x2B3 JUMP JUMPDEST POP DUP5 DUP3 LT ISZERO PUSH2 0x2F0 JUMPI DUP7 DUP5 ADD MLOAD PUSH0 NOT PUSH1 0x3 DUP8 SWAP1 SHL PUSH1 0xF8 AND SHR NOT AND DUP2 SSTORE JUMPDEST POP POP POP POP PUSH1 0x1 SWAP1 DUP2 SHL ADD SWAP1 SSTORE POP JUMP JUMPDEST PUSH2 0xFF5 DUP1 PUSH2 0x30C PUSH0 CODECOPY PUSH0 RETURN INVALID PUSH1 0x80 PUSH1 0x40 MSTORE PUSH1 0x4 CALLDATASIZE LT PUSH2 0x11D JUMPI PUSH0 CALLDATALOAD PUSH1 0xE0 SHR DUP1 PUSH4 0x8DA5CB5B GT PUSH2 0x9D JUMPI DUP1 PUSH4 0xD0E30DB0 GT PUSH2 0x62 JUMPI DUP1 PUSH4 0xD0E30DB0 EQ PUSH2 0x30D JUMPI DUP1 PUSH4 0xDD62ED3E EQ PUSH2 0x315 JUMPI DUP1 PUSH4 0xEE172546 EQ PUSH2 0x359 JUMPI DUP1 PUSH4 0xEEA7570E EQ PUSH2 0x36E JUMPI DUP1 PUSH4 0xF2FDE38B EQ PUSH2 0x38D JUMPI PUSH0 DUP1 REVERT JUMPDEST DUP1 PUSH4 0x8DA5CB5B EQ PUSH2 0x275 JUMPI DUP1 PUSH4 0x95D89B41 EQ PUSH2 0x2A6 JUMPI DUP1 PUSH4 0xA9059CBB EQ PUSH2 0x2BA JUMPI DUP1 PUSH4 0xC1FE3E48 EQ PUSH2 0x2D9 JUMPI DUP1 PUSH4 0xCEB0F626 EQ PUSH2 0x2F8 JUMPI PUSH0 DUP1 REVERT JUMPDEST DUP1 PUSH4 0x2E1A7D4D GT PUSH2 0xE3 JUMPI DUP1 PUSH4 0x2E1A7D4D EQ PUSH2 0x1DD JUMPI DUP1 PUSH4 0x313CE567 EQ PUSH2 0x1FE JUMPI DUP1 PUSH4 0x4641257D EQ PUSH2 0x219 JUMPI DUP1 PUSH4 0x70A08231 EQ PUSH2 0x22D JUMPI DUP1 PUSH4 0x715018A6 EQ PUSH2 0x261 JUMPI PUSH0 DUP1 REVERT JUMPDEST DUP1 PUSH3 0x8CC262 EQ PUSH2 0x128 JUMPI DUP1 PUSH4 0x6FDDE03 EQ PUSH2 0x15A JUMPI DUP1 PUSH4 0x95EA7B3 EQ PUSH2 0x17B JUMPI DUP1 PUSH4 0x18160DDD EQ PUSH2 0x1AA JUMPI DUP1 PUSH4 0x23B872DD EQ PUSH2 0x1BE JUMPI PUSH0 DUP1 REVERT JUMPDEST CALLDATASIZE PUSH2 0x124 JUMPI STOP JUMPDEST PUSH0 DUP1 REVERT JUMPDEST CALLVALUE DUP1 ISZERO PUSH2 0x133 JUMPI PUSH0 DUP1 REVERT JUMPDEST POP PUSH2 0x147 PUSH2 0x142 CALLDATASIZE PUSH1 0x4 PUSH2 0xDE2 JUMP JUMPDEST PUSH2 0x3AC JUMP JUMPDEST PUSH1 0x40 MLOAD SWAP1 DUP2 MSTORE PUSH1 0x20 ADD JUMPDEST PUSH1 0x40 MLOAD DUP1 SWAP2 SUB SWAP1 RETURN JUMPDEST CALLVALUE DUP1 ISZERO PUSH2 0x165 JUMPI PUSH0 DUP1 REVERT JUMPDEST POP PUSH2 0x16E PUSH2 0x465 JUMP JUMPDEST PUSH1 0x40 MLOAD PUSH2 0x151 SWAP2 SWAP1 PUSH2 0xE02 JUMP JUMPDEST CALLVALUE DUP1 ISZERO PUSH2 0x186 JUMPI PUSH0 DUP1 REVERT JUMPDEST POP PUSH2 0x19A PUSH2 0x195 CALLDATASIZE PUSH1 0x4 PUSH2 0xE37 JUMP JUMPDEST PUSH2 0x4F5 JUMP JUMPDEST PUSH1 0x40 MLOAD SWAP1 ISZERO ISZERO DUP2 MSTORE PUSH1 0x20 ADD PUSH2 0x151 JUMP JUMPDEST CALLVALUE DUP1 ISZERO PUSH2 0x1B5 JUMPI PUSH0 DUP1 REVERT JUMPDEST POP PUSH1 0x2 SLOAD PUSH2 0x147 JUMP JUMPDEST CALLVALUE DUP1 ISZERO PUSH2 0x1C9 JUMPI PUSH0 DUP1 REVERT JUMPDEST POP PUSH2 0x19A PUSH2 0x1D8 CALLDATASIZE PUSH1 0x4 PUSH2 0xE5F JUMP JUMPDEST PUSH2 0x50E JUMP JUMPDEST CALLVALUE DUP1 ISZERO PUSH2 0x1E8 JUMPI PUSH0 DUP1 REVERT JUMPDEST POP PUSH2 0x1FC PUSH2 0x1F7 CALLDATASIZE PUSH1 0x4 PUSH2 0xE99 JUMP JUMPDEST PUSH2 0x531 JUMP JUMPDEST STOP JUMPDEST CALLVALUE DUP1 ISZERO PUSH2 0x209 JUMPI PUSH0 DUP1 REVERT JUMPDEST POP PUSH1 0x40 MLOAD PUSH1 0x12 DUP2 MSTORE PUSH1 0x20 ADD PUSH2 0x151 JUMP JUMPDEST CALLVALUE DUP1 ISZERO PUSH2 0x224 JUMPI PUSH0 DUP1 REVERT JUMPDEST POP PUSH2 0x1FC PUSH2 0x69F JUMP JUMPDEST CALLVALUE DUP1 ISZERO PUSH2 0x238 JUMPI PUSH0 DUP1 REVERT JUMPDEST POP PUSH2 0x147 PUSH2 0x247 CALLDATASIZE PUSH1 0x4 PUSH2 0xDE2 JUMP JUMPDEST PUSH1 0x1 PUSH1 0x1 PUSH1 0xA0 SHL SUB AND PUSH0 SWAP1 DUP2 MSTORE PUSH1 0x20 DUP2 SWAP1 MSTORE PUSH1 0x40 SWAP1 KECCAK256 SLOAD SWAP1 JUMP JUMPDEST CALLVALUE DUP1 ISZERO PUSH2 0x26C JUMPI PUSH0 DUP1 REVERT JUMPDEST POP PUSH2 0x1FC PUSH2 0x870 JUMP JUMPDEST CALLVALUE DUP1 ISZERO PUSH2 0x280 JUMPI PUSH0 DUP1 REVERT JUMPDEST POP PUSH1 0x5 SLOAD PUSH1 0x1 PUSH1 0x1 PUSH1 0xA0 SHL SUB AND JUMPDEST PUSH1 0x40 MLOAD PUSH1 0x1 PUSH1 0x1 PUSH1 0xA0 SHL SUB SWAP1 SWAP2 AND DUP2 MSTORE PUSH1 0x20 ADD PUSH2 0x151 JUMP JUMPDEST CALLVALUE DUP1 ISZERO PUSH2 0x2B1 JUMPI PUSH0 DUP1 REVERT JUMPDEST POP PUSH2 0x16E PUSH2 0x883 JUMP JUMPDEST CALLVALUE DUP1 ISZERO PUSH2 0x2C5 JUMPI PUSH0 DUP1 REVERT JUMPDEST POP PUSH2 0x19A PUSH2 0x2D4 CALLDATASIZE PUSH1 0x4 PUSH2 0xE37 JUMP JUMPDEST PUSH2 0x892 JUMP JUMPDEST CALLVALUE DUP1 ISZERO PUSH2 0x2E4 JUMPI PUSH0 DUP1 REVERT JUMPDEST POP PUSH1 0x6 SLOAD PUSH2 0x28E SWAP1 PUSH1 0x1 PUSH1 0x1 PUSH1 0xA0 SHL SUB AND DUP2 JUMP JUMPDEST CALLVALUE DUP1 ISZERO PUSH2 0x303 JUMPI PUSH0 DUP1 REVERT JUMPDEST POP PUSH2 0x147 PUSH1 0x8 SLOAD DUP2 JUMP JUMPDEST PUSH2 0x1FC PUSH2 0x89F JUMP JUMPDEST CALLVALUE DUP1 ISZERO PUSH2 0x320 JUMPI PUSH0 DUP1 REVERT JUMPDEST POP PUSH2 0x147 PUSH2 0x32F CALLDATASIZE PUSH1 0x4 PUSH2 0xEB0 JUMP JUMPDEST PUSH1 0x1 PUSH1 0x1 PUSH1 0xA0 SHL SUB SWAP2 DUP3 AND PUSH0 SWAP1 DUP2 MSTORE PUSH1 0x1 PUSH1 0x20 SWAP1 DUP2 MSTORE PUSH1 0x40 DUP1 DUP4 KECCAK256 SWAP4 SWAP1 SWAP5 AND DUP3 MSTORE SWAP2 SWAP1 SWAP2 MSTORE KECCAK256 SLOAD SWAP1 JUMP JUMPDEST CALLVALUE DUP1 ISZERO PUSH2 0x364 JUMPI PUSH0 DUP1 REVERT JUMPDEST POP PUSH2 0x147 PUSH1 0x9 SLOAD DUP2 JUMP JUMPDEST CALLVALUE DUP1 ISZERO PUSH2 0x379 JUMPI PUSH0 DUP1 REVERT JUMPDEST POP PUSH1 0x7 SLOAD PUSH2 0x28E SWAP1 PUSH1 0x1 PUSH1 0x1 PUSH1 0xA0 SHL SUB AND DUP2 JUMP JUMPDEST CALLVALUE DUP1 ISZERO PUSH2 0x398 JUMPI PUSH0 DUP1 REVERT JUMPDEST POP PUSH2 0x1FC PUSH2 0x3A7 CALLDATASIZE PUSH1 0x4 PUSH2 0xDE2 JUMP JUMPDEST PUSH2 0x9C0 JUMP JUMPDEST PUSH0 DUP1 PUSH2 0x3B7 PUSH1 0x2 SLOAD SWAP1 JUMP JUMPDEST PUSH1 0x6 SLOAD PUSH1 0x40 MLOAD PUSH4 0x70A08231 PUSH1 0xE0 SHL DUP2 MSTORE ADDRESS PUSH1 0x4 DUP3 ADD MSTORE SWAP2 SWAP3 POP PUSH0 SWAP2 PUSH1 0x1 PUSH1 0x1 PUSH1 0xA0 SHL SUB SWAP1 SWAP2 AND SWAP1 PUSH4 0x70A08231 SWAP1 PUSH1 0x24 ADD PUSH1 0x20 PUSH1 0x40 MLOAD DUP1 DUP4 SUB DUP2 DUP7 GAS STATICCALL ISZERO DUP1 ISZERO PUSH2 0x402 JUMPI RETURNDATASIZE PUSH0 DUP1 RETURNDATACOPY RETURNDATASIZE PUSH0 REVERT JUMPDEST POP POP POP POP PUSH1 0x40 MLOAD RETURNDATASIZE PUSH1 0x1F NOT PUSH1 0x1F DUP3 ADD AND DUP3 ADD DUP1 PUSH1 0x40 MSTORE POP DUP2 ADD SWAP1 PUSH2 0x426 SWAP2 SWAP1 PUSH2 0xEE1 JUMP JUMPDEST SWAP1 POP PUSH0 DUP3 PUSH2 0x448 DUP7 PUSH1 0x1 PUSH1 0x1 PUSH1 0xA0 SHL SUB AND PUSH0 SWAP1 DUP2 MSTORE PUSH1 0x20 DUP2 SWAP1 MSTORE PUSH1 0x40 SWAP1 KECCAK256 SLOAD SWAP1 JUMP JUMPDEST PUSH2 0x452 SWAP1 DUP5 PUSH2 0xF0C JUMP JUMPDEST PUSH2 0x45C SWAP2 SWAP1 PUSH2 0xF23 JUMP JUMPDEST SWAP6 SWAP5 POP POP POP POP POP JUMP JUMPDEST PUSH1 0x60 PUSH1 0x3 DUP1 SLOAD PUSH2 0x474 SWAP1 PUSH2 0xF42 JUMP JUMPDEST DUP1 PUSH1 0x1F ADD PUSH1 0x20 DUP1 SWAP2 DIV MUL PUSH1 0x20 ADD PUSH1 0x40 MLOAD SWAP1 DUP2 ADD PUSH1 0x40 MSTORE DUP1 SWAP3 SWAP2 SWAP1 DUP2 DUP2 MSTORE PUSH1 0x20 ADD DUP3 DUP1 SLOAD PUSH2 0x4A0 SWAP1 PUSH2 0xF42 JUMP JUMPDEST DUP1 ISZERO PUSH2 0x4EB JUMPI DUP1 PUSH1 0x1F LT PUSH2 0x4C2 JUMPI PUSH2 0x100 DUP1 DUP4 SLOAD DIV MUL DUP4 MSTORE SWAP2 PUSH1 0x20 ADD SWAP2 PUSH2 0x4EB JUMP JUMPDEST DUP3 ADD SWAP2 SWAP1 PUSH0 MSTORE PUSH1 0x20 PUSH0 KECCAK256 SWAP1 JUMPDEST DUP2 SLOAD DUP2 MSTORE SWAP1 PUSH1 0x1 ADD SWAP1 PUSH1 0x20 ADD DUP1 DUP4 GT PUSH2 0x4CE JUMPI DUP3 SWAP1 SUB PUSH1 0x1F AND DUP3 ADD SWAP2 JUMPDEST POP POP POP POP POP SWAP1 POP SWAP1 JUMP JUMPDEST PUSH0 CALLER PUSH2 0x502 DUP2 DUP6 DUP6 PUSH2 0x9FA JUMP JUMPDEST PUSH1 0x1 SWAP2 POP POP JUMPDEST SWAP3 SWAP2 POP POP JUMP JUMPDEST PUSH0 CALLER PUSH2 0x51B DUP6 DUP3 DUP6 PUSH2 0xA0C JUMP JUMPDEST PUSH2 0x526 DUP6 DUP6 DUP6 PUSH2 0xA88 JUMP JUMPDEST POP PUSH1 0x1 SWAP5 SWAP4 POP POP POP POP JUMP JUMPDEST CALLER PUSH0 SWAP1 DUP2 MSTORE PUSH1 0x20 DUP2 SWAP1 MSTORE PUSH1 0x40 SWAP1 KECCAK256 SLOAD DUP2 GT ISZERO PUSH2 0x589 JUMPI PUSH1 0x40 MLOAD PUSH3 0x461BCD PUSH1 0xE5 SHL DUP2 MSTORE PUSH1 0x20 PUSH1 0x4 DUP3 ADD MSTORE PUSH1 0x12 PUSH1 0x24 DUP3 ADD MSTORE PUSH18 0x9CDEE840CADCDEEACED040F2ECA6A88AA89 PUSH1 0x73 SHL PUSH1 0x44 DUP3 ADD MSTORE PUSH1 0x64 ADD JUMPDEST PUSH1 0x40 MLOAD DUP1 SWAP2 SUB SWAP1 REVERT JUMPDEST PUSH0 PUSH2 0x593 PUSH1 0x2 SLOAD SWAP1 JUMP JUMPDEST PUSH1 0x6 SLOAD PUSH1 0x40 MLOAD PUSH4 0x70A08231 PUSH1 0xE0 SHL DUP2 MSTORE ADDRESS PUSH1 0x4 DUP3 ADD MSTORE SWAP2 SWAP3 POP PUSH0 SWAP2 PUSH1 0x1 PUSH1 0x1 PUSH1 0xA0 SHL SUB SWAP1 SWAP2 AND SWAP1 PUSH4 0x70A08231 SWAP1 PUSH1 0x24 ADD PUSH1 0x20 PUSH1 0x40 MLOAD DUP1 DUP4 SUB DUP2 DUP7 GAS STATICCALL ISZERO DUP1 ISZERO PUSH2 0x5DE JUMPI RETURNDATASIZE PUSH0 DUP1 RETURNDATACOPY RETURNDATASIZE PUSH0 REVERT JUMPDEST POP POP POP POP PUSH1 0x40 MLOAD RETURNDATASIZE PUSH1 0x1F NOT PUSH1 0x1F DUP3 ADD AND DUP3 ADD DUP1 PUSH1 0x40 MSTORE POP DUP2 ADD SWAP1 PUSH2 0x602 SWAP2 SWAP1 PUSH2 0xEE1 JUMP JUMPDEST SWAP1 POP PUSH0 DUP3 PUSH2 0x610 DUP6 DUP5 PUSH2 0xF0C JUMP JUMPDEST PUSH2 0x61A SWAP2 SWAP1 PUSH2 0xF23 JUMP JUMPDEST SWAP1 POP PUSH2 0x626 CALLER DUP6 PUSH2 0xAE5 JUMP JUMPDEST PUSH1 0x6 SLOAD PUSH1 0x40 MLOAD PUSH4 0xA9059CBB PUSH1 0xE0 SHL DUP2 MSTORE CALLER PUSH1 0x4 DUP3 ADD MSTORE PUSH1 0x24 DUP2 ADD DUP4 SWAP1 MSTORE PUSH1 0x1 PUSH1 0x1 PUSH1 0xA0 SHL SUB SWAP1 SWAP2 AND SWAP1 PUSH4 0xA9059CBB SWAP1 PUSH1 0x44 ADD PUSH1 0x20 PUSH1 0x40 MLOAD DUP1 DUP4 SUB DUP2 PUSH0 DUP8 GAS CALL ISZERO DUP1 ISZERO PUSH2 0x674 JUMPI RETURNDATASIZE PUSH0 DUP1 RETURNDATACOPY RETURNDATASIZE PUSH0 REVERT JUMPDEST POP POP POP POP PUSH1 0x40 MLOAD RETURNDATASIZE PUSH1 0x1F NOT PUSH1 0x1F DUP3 ADD AND DUP3 ADD DUP1 PUSH1 0x40 MSTORE POP DUP2 ADD SWAP1 PUSH2 0x698 SWAP2 SWAP1 PUSH2 0xF7A JUMP JUMPDEST POP POP POP POP POP JUMP JUMPDEST PUSH2 0x6A7 PUSH2 0xB1D JUMP JUMPDEST PUSH1 0x7 SLOAD PUSH1 0x40 MLOAD PUSH4 0x6E1CDF89 PUSH1 0xE0 SHL DUP2 MSTORE PUSH7 0x2386F26FC10000 PUSH1 0x4 DUP3 ADD MSTORE PUSH1 0x1 PUSH1 0x1 PUSH1 0xA0 SHL SUB SWAP1 SWAP2 AND SWAP1 PUSH4 0x6E1CDF89 SWAP1 PUSH1 0x24 ADD PUSH0 PUSH1 0x40 MLOAD DUP1 DUP4 SUB DUP2 PUSH0 DUP8 DUP1 EXTCODESIZE ISZERO DUP1 ISZERO PUSH2 0x6F0 JUMPI PUSH0 DUP1 REVERT JUMPDEST POP GAS CALL ISZERO DUP1 ISZERO PUSH2 0x702 JUMPI RETURNDATASIZE PUSH0 DUP1 RETURNDATACOPY RETURNDATASIZE PUSH0 REVERT JUMPDEST POP POP PUSH1 0x6 SLOAD PUSH1 0x40 MLOAD PUSH4 0x70A08231 PUSH1 0xE0 SHL DUP2 MSTORE ADDRESS PUSH1 0x4 DUP3 ADD MSTORE PUSH0 SWAP4 POP PUSH1 0x1 PUSH1 0x1 PUSH1 0xA0 SHL SUB SWAP1 SWAP2 AND SWAP2 POP PUSH4 0x70A08231 SWAP1 PUSH1 0x24 ADD PUSH1 0x20 PUSH1 0x40 MLOAD DUP1 DUP4 SUB DUP2 DUP7 GAS STATICCALL ISZERO DUP1 ISZERO PUSH2 0x74E JUMPI RETURNDATASIZE PUSH0 DUP1 RETURNDATACOPY RETURNDATASIZE PUSH0 REVERT JUMPDEST POP POP POP POP PUSH1 0x40 MLOAD RETURNDATASIZE PUSH1 0x1F NOT PUSH1 0x1F DUP3 ADD AND DUP3 ADD DUP1 PUSH1 0x40 MSTORE POP DUP2 ADD SWAP1 PUSH2 0x772 SWAP2 SWAP1 PUSH2 0xEE1 JUMP JUMPDEST SWAP1 POP PUSH1 0x6 PUSH0 SWAP1 SLOAD SWAP1 PUSH2 0x100 EXP SWAP1 DIV PUSH1 0x1 PUSH1 0x1 PUSH1 0xA0 SHL SUB AND PUSH1 0x1 PUSH1 0x1 PUSH1 0xA0 SHL SUB AND PUSH4 0x372500AB PUSH1 0x40 MLOAD DUP2 PUSH4 0xFFFFFFFF AND PUSH1 0xE0 SHL DUP2 MSTORE PUSH1 0x4 ADD PUSH0 PUSH1 0x40 MLOAD DUP1 DUP4 SUB DUP2 PUSH0 DUP8 DUP1 EXTCODESIZE ISZERO DUP1 ISZERO PUSH2 0x7C0 JUMPI PUSH0 DUP1 REVERT JUMPDEST POP GAS CALL ISZERO DUP1 ISZERO PUSH2 0x7D2 JUMPI RETURNDATASIZE PUSH0 DUP1 RETURNDATACOPY RETURNDATASIZE PUSH0 REVERT JUMPDEST POP POP PUSH1 0x6 SLOAD PUSH1 0x40 MLOAD PUSH4 0x70A08231 PUSH1 0xE0 SHL DUP2 MSTORE ADDRESS PUSH1 0x4 DUP3 ADD MSTORE PUSH0 SWAP4 POP PUSH1 0x1 PUSH1 0x1 PUSH1 0xA0 SHL SUB SWAP1 SWAP2 AND SWAP2 POP PUSH4 0x70A08231 SWAP1 PUSH1 0x24 ADD PUSH1 0x20 PUSH1 0x40 MLOAD DUP1 DUP4 SUB DUP2 DUP7 GAS STATICCALL ISZERO DUP1 ISZERO PUSH2 0x81E JUMPI RETURNDATASIZE PUSH0 DUP1 RETURNDATACOPY RETURNDATASIZE PUSH0 REVERT JUMPDEST POP POP POP POP PUSH1 0x40 MLOAD RETURNDATASIZE PUSH1 0x1F NOT PUSH1 0x1F DUP3 ADD AND DUP3 ADD DUP1 PUSH1 0x40 MSTORE POP DUP2 ADD SWAP1 PUSH2 0x842 SWAP2 SWAP1 PUSH2 0xEE1 JUMP JUMPDEST SWAP1 POP PUSH0 PUSH2 0x84F DUP4 DUP4 PUSH2 0xF99 JUMP JUMPDEST SWAP1 POP DUP1 PUSH1 0x9 PUSH0 DUP3 DUP3 SLOAD PUSH2 0x862 SWAP2 SWAP1 PUSH2 0xFAC JUMP JUMPDEST SWAP1 SWAP2 SSTORE POP POP TIMESTAMP PUSH1 0x8 SSTORE POP POP POP JUMP JUMPDEST PUSH2 0x878 PUSH2 0xB1D JUMP JUMPDEST PUSH2 0x881 PUSH0 PUSH2 0xB4A JUMP JUMPDEST JUMP JUMPDEST PUSH1 0x60 PUSH1 0x4 DUP1 SLOAD PUSH2 0x474 SWAP1 PUSH2 0xF42 JUMP JUMPDEST PUSH0 CALLER PUSH2 0x502 DUP2 DUP6 DUP6 PUSH2 0xA88 JUMP JUMPDEST PUSH0 CALLVALUE GT PUSH2 0x8E1 JUMPI PUSH1 0x40 MLOAD PUSH3 0x461BCD PUSH1 0xE5 SHL DUP2 MSTORE PUSH1 0x20 PUSH1 0x4 DUP3 ADD MSTORE PUSH1 0x10 PUSH1 0x24 DUP3 ADD MSTORE PUSH16 0x9AEAE6E840C8CAE0DEE6D2E8408AA89 PUSH1 0x83 SHL PUSH1 0x44 DUP3 ADD MSTORE PUSH1 0x64 ADD PUSH2 0x580 JUMP JUMPDEST PUSH1 0x6 PUSH0 SWAP1 SLOAD SWAP1 PUSH2 0x100 EXP SWAP1 DIV PUSH1 0x1 PUSH1 0x1 PUSH1 0xA0 SHL SUB AND PUSH1 0x1 PUSH1 0x1 PUSH1 0xA0 SHL SUB AND PUSH4 0x3A4B66F1 CALLVALUE PUSH1 0x40 MLOAD DUP3 PUSH4 0xFFFFFFFF AND PUSH1 0xE0 SHL DUP2 MSTORE PUSH1 0x4 ADD PUSH0 PUSH1 0x40 MLOAD DUP1 DUP4 SUB DUP2 DUP6 DUP9 DUP1 EXTCODESIZE ISZERO DUP1 ISZERO PUSH2 0x92E JUMPI PUSH0 DUP1 REVERT JUMPDEST POP GAS CALL ISZERO DUP1 ISZERO PUSH2 0x940 JUMPI RETURNDATASIZE PUSH0 DUP1 RETURNDATACOPY RETURNDATASIZE PUSH0 REVERT JUMPDEST POP POP PUSH1 0x6 SLOAD PUSH1 0x40 MLOAD PUSH4 0x70A08231 PUSH1 0xE0 SHL DUP2 MSTORE ADDRESS PUSH1 0x4 DUP3 ADD MSTORE PUSH0 SWAP5 POP PUSH1 0x1 PUSH1 0x1 PUSH1 0xA0 SHL SUB SWAP1 SWAP2 AND SWAP3 POP PUSH4 0x70A08231 SWAP2 POP PUSH1 0x24 ADD PUSH1 0x20 PUSH1 0x40 MLOAD DUP1 DUP4 SUB DUP2 DUP7 GAS STATICCALL ISZERO DUP1 ISZERO PUSH2 0x98D JUMPI RETURNDATASIZE PUSH0 DUP1 RETURNDATACOPY RETURNDATASIZE PUSH0 REVERT JUMPDEST POP POP POP POP PUSH1 0x40 MLOAD RETURNDATASIZE PUSH1 0x1F NOT PUSH1 0x1F DUP3 ADD AND DUP3 ADD DUP1 PUSH1 0x40 MSTORE POP DUP2 ADD SWAP1 PUSH2 0x9B1 SWAP2 SWAP1 PUSH2 0xEE1 JUMP JUMPDEST SWAP1 POP PUSH2 0x9BD CALLER DUP3 PUSH2 0xB9B JUMP JUMPDEST POP JUMP JUMPDEST PUSH2 0x9C8 PUSH2 0xB1D JUMP JUMPDEST PUSH1 0x1 PUSH1 0x1 PUSH1 0xA0 SHL SUB DUP2 AND PUSH2 0x9F1 JUMPI PUSH1 0x40 MLOAD PUSH4 0x1E4FBDF7 PUSH1 0xE0 SHL DUP2 MSTORE PUSH0 PUSH1 0x4 DUP3 ADD MSTORE PUSH1 0x24 ADD PUSH2 0x580 JUMP JUMPDEST PUSH2 0x9BD DUP2 PUSH2 0xB4A JUMP JUMPDEST PUSH2 0xA07 DUP4 DUP4 DUP4 PUSH1 0x1 PUSH2 0xBCF JUMP JUMPDEST POP POP POP JUMP JUMPDEST PUSH1 0x1 PUSH1 0x1 PUSH1 0xA0 SHL SUB DUP4 DUP2 AND PUSH0 SWAP1 DUP2 MSTORE PUSH1 0x1 PUSH1 0x20 SWAP1 DUP2 MSTORE PUSH1 0x40 DUP1 DUP4 KECCAK256 SWAP4 DUP7 AND DUP4 MSTORE SWAP3 SWAP1 MSTORE KECCAK256 SLOAD PUSH0 NOT DUP2 LT ISZERO PUSH2 0xA82 JUMPI DUP2 DUP2 LT ISZERO PUSH2 0xA74 JUMPI PUSH1 0x40 MLOAD PUSH4 0x7DC7A0D9 PUSH1 0xE1 SHL DUP2 MSTORE PUSH1 0x1 PUSH1 0x1 PUSH1 0xA0 SHL SUB DUP5 AND PUSH1 0x4 DUP3 ADD MSTORE PUSH1 0x24 DUP2 ADD DUP3 SWAP1 MSTORE PUSH1 0x44 DUP2 ADD DUP4 SWAP1 MSTORE PUSH1 0x64 ADD PUSH2 0x580 JUMP JUMPDEST PUSH2 0xA82 DUP5 DUP5 DUP5 DUP5 SUB PUSH0 PUSH2 0xBCF JUMP JUMPDEST POP POP POP POP JUMP JUMPDEST PUSH1 0x1 PUSH1 0x1 PUSH1 0xA0 SHL SUB DUP4 AND PUSH2 0xAB1 JUMPI PUSH1 0x40 MLOAD PUSH4 0x4B637E8F PUSH1 0xE1 SHL DUP2 MSTORE PUSH0 PUSH1 0x4 DUP3 ADD MSTORE PUSH1 0x24 ADD PUSH2 0x580 JUMP JUMPDEST PUSH1 0x1 PUSH1 0x1 PUSH1 0xA0 SHL SUB DUP3 AND PUSH2 0xADA JUMPI PUSH1 0x40 MLOAD PUSH4 0xEC442F05 PUSH1 0xE0 SHL DUP2 MSTORE PUSH0 PUSH1 0x4 DUP3 ADD MSTORE PUSH1 0x24 ADD PUSH2 0x580 JUMP JUMPDEST PUSH2 0xA07 DUP4 DUP4 DUP4 PUSH2 0xCA1 JUMP JUMPDEST PUSH1 0x1 PUSH1 0x1 PUSH1 0xA0 SHL SUB DUP3 AND PUSH2 0xB0E JUMPI PUSH1 0x40 MLOAD PUSH4 0x4B637E8F PUSH1 0xE1 SHL DUP2 MSTORE PUSH0 PUSH1 0x4 DUP3 ADD MSTORE PUSH1 0x24 ADD PUSH2 0x580 JUMP JUMPDEST PUSH2 0xB19 DUP3 PUSH0 DUP4 PUSH2 0xCA1 JUMP JUMPDEST POP POP JUMP JUMPDEST PUSH1 0x5 SLOAD PUSH1 0x1 PUSH1 0x1 PUSH1 0xA0 SHL SUB AND CALLER EQ PUSH2 0x881 JUMPI PUSH1 0x40 MLOAD PUSH4 0x118CDAA7 PUSH1 0xE0 SHL DUP2 MSTORE CALLER PUSH1 0x4 DUP3 ADD MSTORE PUSH1 0x24 ADD PUSH2 0x580 JUMP JUMPDEST PUSH1 0x5 DUP1 SLOAD PUSH1 0x1 PUSH1 0x1 PUSH1 0xA0 SHL SUB DUP4 DUP2 AND PUSH1 0x1 PUSH1 0x1 PUSH1 0xA0 SHL SUB NOT DUP4 AND DUP2 OR SWAP1 SWAP4 SSTORE PUSH1 0x40 MLOAD SWAP2 AND SWAP2 SWAP1 DUP3 SWAP1 PUSH32 0x8BE0079C531659141344CD1FD0A4F28419497F9722A3DAAFE3B4186F6B6457E0 SWAP1 PUSH0 SWAP1 LOG3 POP POP JUMP JUMPDEST PUSH1 0x1 PUSH1 0x1 PUSH1 0xA0 SHL SUB DUP3 AND PUSH2 0xBC4 JUMPI PUSH1 0x40 MLOAD PUSH4 0xEC442F05 PUSH1 0xE0 SHL DUP2 MSTORE PUSH0 PUSH1 0x4 DUP3 ADD MSTORE PUSH1 0x24 ADD PUSH2 0x580 JUMP JUMPDEST PUSH2 0xB19 PUSH0 DUP4 DUP4 PUSH2 0xCA1 JUMP JUMPDEST PUSH1 0x1 PUSH1 0x1 PUSH1 0xA0 SHL SUB DUP5 AND PUSH2 0xBF8 JUMPI PUSH1 0x40 MLOAD PUSH4 0xE602DF05 PUSH1 0xE0 SHL DUP2 MSTORE PUSH0 PUSH1 0x4 DUP3 ADD MSTORE PUSH1 0x24 ADD PUSH2 0x580 JUMP JUMPDEST PUSH1 0x1 PUSH1 0x1 PUSH1 0xA0 SHL SUB DUP4 AND PUSH2 0xC21 JUMPI PUSH1 0x40 MLOAD PUSH4 0x4A1406B1 PUSH1 0xE1 SHL DUP2 MSTORE PUSH0 PUSH1 0x4 DUP3 ADD MSTORE PUSH1 0x24 ADD PUSH2 0x580 JUMP JUMPDEST PUSH1 0x1 PUSH1 0x1 PUSH1 0xA0 SHL SUB DUP1 DUP6 AND PUSH0 SWAP1 DUP2 MSTORE PUSH1 0x1 PUSH1 0x20 SWAP1 DUP2 MSTORE PUSH1 0x40 DUP1 DUP4 KECCAK256 SWAP4 DUP8 AND DUP4 MSTORE SWAP3 SWAP1 MSTORE KECCAK256 DUP3 SWAP1 SSTORE DUP1 ISZERO PUSH2 0xA82 JUMPI DUP3 PUSH1 0x1 PUSH1 0x1 PUSH1 0xA0 SHL SUB AND DUP5 PUSH1 0x1 PUSH1 0x1 PUSH1 0xA0 SHL SUB AND PUSH32 0x8C5BE1E5EBEC7D5BD14F71427D1E84F3DD0314C0F7B2291E5B200AC8C7C3B925 DUP5 PUSH1 0x40 MLOAD PUSH2 0xC93 SWAP2 DUP2 MSTORE PUSH1 0x20 ADD SWAP1 JUMP JUMPDEST PUSH1 0x40 MLOAD DUP1 SWAP2 SUB SWAP1 LOG3 POP POP POP POP JUMP JUMPDEST PUSH1 0x1 PUSH1 0x1 PUSH1 0xA0 SHL SUB DUP4 AND PUSH2 0xCCB JUMPI DUP1 PUSH1 0x2 PUSH0 DUP3 DUP3 SLOAD PUSH2 0xCC0 SWAP2 SWAP1 PUSH2 0xFAC JUMP JUMPDEST SWAP1 SWAP2 SSTORE POP PUSH2 0xD3B SWAP1 POP JUMP JUMPDEST PUSH1 0x1 PUSH1 0x1 PUSH1 0xA0 SHL SUB DUP4 AND PUSH0 SWAP1 DUP2 MSTORE PUSH1 0x20 DUP2 SWAP1 MSTORE PUSH1 0x40 SWAP1 KECCAK256 SLOAD DUP2 DUP2 LT ISZERO PUSH2 0xD1D JUMPI PUSH1 0x40 MLOAD PUSH4 0x391434E3 PUSH1 0xE2 SHL DUP2 MSTORE PUSH1 0x1 PUSH1 0x1 PUSH1 0xA0 SHL SUB DUP6 AND PUSH1 0x4 DUP3 ADD MSTORE PUSH1 0x24 DUP2 ADD DUP3 SWAP1 MSTORE PUSH1 0x44 DUP2 ADD DUP4 SWAP1 MSTORE PUSH1 0x64 ADD PUSH2 0x580 JUMP JUMPDEST PUSH1 0x1 PUSH1 0x1 PUSH1 0xA0 SHL SUB DUP5 AND PUSH0 SWAP1 DUP2 MSTORE PUSH1 0x20 DUP2 SWAP1 MSTORE PUSH1 0x40 SWAP1 KECCAK256 SWAP1 DUP3 SWAP1 SUB SWAP1 SSTORE JUMPDEST PUSH1 0x1 PUSH1 0x1 PUSH1 0xA0 SHL SUB DUP3 AND PUSH2 0xD57 JUMPI PUSH1 0x2 DUP1 SLOAD DUP3 SWAP1 SUB SWAP1 SSTORE PUSH2 0xD75 JUMP JUMPDEST PUSH1 0x1 PUSH1 0x1 PUSH1 0xA0 SHL SUB DUP3 AND PUSH0 SWAP1 DUP2 MSTORE PUSH1 0x20 DUP2 SWAP1 MSTORE PUSH1 0x40 SWAP1 KECCAK256 DUP1 SLOAD DUP3 ADD SWAP1 SSTORE JUMPDEST DUP2 PUSH1 0x1 PUSH1 0x1 PUSH1 0xA0 SHL SUB AND DUP4 PUSH1 0x1 PUSH1 0x1 PUSH1 0xA0 SHL SUB AND PUSH32 0xDDF252AD1BE2C89B69C2B068FC378DAA952BA7F163C4A11628F55A4DF523B3EF DUP4 PUSH1 0x40 MLOAD PUSH2 0xDBA SWAP2 DUP2 MSTORE PUSH1 0x20 ADD SWAP1 JUMP JUMPDEST PUSH1 0x40 MLOAD DUP1 SWAP2 SUB SWAP1 LOG3 POP POP POP JUMP JUMPDEST DUP1 CALLDATALOAD PUSH1 0x1 PUSH1 0x1 PUSH1 0xA0 SHL SUB DUP2 AND DUP2 EQ PUSH2 0xDDD JUMPI PUSH0 DUP1 REVERT JUMPDEST SWAP2 SWAP1 POP JUMP JUMPDEST PUSH0 PUSH1 0x20 DUP3 DUP5 SUB SLT ISZERO PUSH2 0xDF2 JUMPI PUSH0 DUP1 REVERT JUMPDEST PUSH2 0xDFB DUP3 PUSH2 0xDC7 JUMP JUMPDEST SWAP4 SWAP3 POP POP POP JUMP JUMPDEST PUSH1 0x20 DUP2 MSTORE PUSH0 DUP3 MLOAD DUP1 PUSH1 0x20 DUP5 ADD MSTORE DUP1 PUSH1 0x20 DUP6 ADD PUSH1 0x40 DUP6 ADD MCOPY PUSH0 PUSH1 0x40 DUP3 DUP6 ADD ADD MSTORE PUSH1 0x40 PUSH1 0x1F NOT PUSH1 0x1F DUP4 ADD AND DUP5 ADD ADD SWAP2 POP POP SWAP3 SWAP2 POP POP JUMP JUMPDEST PUSH0 DUP1 PUSH1 0x40 DUP4 DUP6 SUB SLT ISZERO PUSH2 0xE48 JUMPI PUSH0 DUP1 REVERT JUMPDEST PUSH2 0xE51 DUP4 PUSH2 0xDC7 JUMP JUMPDEST SWAP5 PUSH1 0x20 SWAP4 SWAP1 SWAP4 ADD CALLDATALOAD SWAP4 POP POP POP JUMP JUMPDEST PUSH0 DUP1 PUSH0 PUSH1 0x60 DUP5 DUP7 SUB SLT ISZERO PUSH2 0xE71 JUMPI PUSH0 DUP1 REVERT JUMPDEST PUSH2 0xE7A DUP5 PUSH2 0xDC7 JUMP JUMPDEST SWAP3 POP PUSH2 0xE88 PUSH1 0x20 DUP6 ADD PUSH2 0xDC7 JUMP JUMPDEST SWAP3 SWAP6 SWAP3 SWAP5 POP POP POP PUSH1 0x40 SWAP2 SWAP1 SWAP2 ADD CALLDATALOAD SWAP1 JUMP JUMPDEST PUSH0 PUSH1 0x20 DUP3 DUP5 SUB SLT ISZERO PUSH2 0xEA9 JUMPI PUSH0 DUP1 REVERT JUMPDEST POP CALLDATALOAD SWAP2 SWAP1 POP JUMP JUMPDEST PUSH0 DUP1 PUSH1 0x40 DUP4 DUP6 SUB SLT ISZERO PUSH2 0xEC1 JUMPI PUSH0 DUP1 REVERT JUMPDEST PUSH2 0xECA DUP4 PUSH2 0xDC7 JUMP JUMPDEST SWAP2 POP PUSH2 0xED8 PUSH1 0x20 DUP5 ADD PUSH2 0xDC7 JUMP JUMPDEST SWAP1 POP SWAP3 POP SWAP3 SWAP1 POP JUMP JUMPDEST PUSH0 PUSH1 0x20 DUP3 DUP5 SUB SLT ISZERO PUSH2 0xEF1 JUMPI PUSH0 DUP1 REVERT JUMPDEST POP MLOAD SWAP2 SWAP1 POP JUMP JUMPDEST PUSH4 0x4E487B71 PUSH1 0xE0 SHL PUSH0 MSTORE PUSH1 0x11 PUSH1 0x4 MSTORE PUSH1 0x24 PUSH0 REVERT JUMPDEST DUP1 DUP3 MUL DUP2 ISZERO DUP3 DUP3 DIV DUP5 EQ OR PUSH2 0x508 JUMPI PUSH2 0x508 PUSH2 0xEF8 JUMP JUMPDEST PUSH0 DUP3 PUSH2 0xF3D JUMPI PUSH4 0x4E487B71 PUSH1 0xE0 SHL PUSH0 MSTORE PUSH1 0x12 PUSH1 0x4 MSTORE PUSH1 0x24 PUSH0 REVERT JUMPDEST POP DIV SWAP1 JUMP JUMPDEST PUSH1 0x1 DUP2 DUP2 SHR SWAP1 DUP3 AND DUP1 PUSH2 0xF56 JUMPI PUSH1 0x7F DUP3 AND SWAP2 POP JUMPDEST PUSH1 0x20 DUP3 LT DUP2 SUB PUSH2 0xF74 JUMPI PUSH4 0x4E487B71 PUSH1 0xE0 SHL PUSH0 MSTORE PUSH1 0x22 PUSH1 0x4 MSTORE PUSH1 0x24 PUSH0 REVERT JUMPDEST POP SWAP2 SWAP1 POP JUMP JUMPDEST PUSH0 PUSH1 0x20 DUP3 DUP5 SUB SLT ISZERO PUSH2 0xF8A JUMPI PUSH0 DUP1 REVERT JUMPDEST DUP2 MLOAD DUP1 ISZERO ISZERO DUP2 EQ PUSH2 0xDFB JUMPI PUSH0 DUP1 REVERT JUMPDEST DUP2 DUP2 SUB DUP2 DUP2 GT ISZERO PUSH2 0x508 JUMPI PUSH2 0x508 PUSH2 0xEF8 JUMP JUMPDEST DUP1 DUP3 ADD DUP1 DUP3 GT ISZERO PUSH2 0x508 JUMPI PUSH2 0x508 PUSH2 0xEF8 JUMP INVALID LOG2 PUSH5 0x6970667358 0x22 SLT KECCAK256 NUMBER 0xA9 JUMP SELFBALANCE SIGNEXTEND 0xBE 0xC9 DUP11 CALL DUP2 CALLER EXTCODESIZE SAR PUSH6 0x759DFAF825BE GASLIMIT 0xE1 SWAP16 EXTCODEHASH 0xED 0xBA SWAP5 0xB1 PUSH30 0x6F184D64736F6C634300081A003300000000000000000000000000000000 "
				},
				"gasEstimates": {
					"creation": {
						"codeDepositCost": "817000",
						"executionCost": "infinite",
						"totalCost": "infinite"
					},
					"external": {
						"allowance(address,address)": "infinite",
						"approve(address,uint256)": "24780",
						"balanceOf(address)": "2615",
						"decimals()": "221",
						"deposit()": "infinite",
						"earned(address)": "infinite",
						"gasReserve()": "2424",
						"harvest()": "infinite",
						"lastHarvestTime()": "2394",
						"name()": "infinite",
						"owner()": "2342",
						"renounceOwnership()": "infinite",
						"stETH()": "2425",
						"symbol()": "infinite",
						"totalRewardsDistributed()": "2349",
						"totalSupply()": "2370",
						"transfer(address,uint256)": "51283",
						"transferFrom(address,address,uint256)": "infinite",
						"transferOwnership(address)": "28443",
						"withdraw(uint256)": "infinite"
					}
				},
				"methodIdentifiers": {
					"allowance(address,address)": "dd62ed3e",
					"approve(address,uint256)": "095ea7b3",
					"balanceOf(address)": "70a08231",
					"decimals()": "313ce567",
					"deposit()": "d0e30db0",
					"earned(address)": "008cc262",
					"gasReserve()": "eea7570e",
					"harvest()": "4641257d",
					"lastHarvestTime()": "ceb0f626",
					"name()": "06fdde03",
					"owner()": "8da5cb5b",
					"renounceOwnership()": "715018a6",
					"stETH()": "c1fe3e48",
					"symbol()": "95d89b41",
					"totalRewardsDistributed()": "ee172546",
					"totalSupply()": "18160ddd",
					"transfer(address,uint256)": "a9059cbb",
					"transferFrom(address,address,uint256)": "23b872dd",
					"transferOwnership(address)": "f2fde38b",
					"withdraw(uint256)": "2e1a7d4d"
				}
			},
			"storageLayout": {
				"storage": [
					{
						"astId": 307,
						"contract": "contracts/vault.sol:YieldVault",
						"label": "_balances",
						"offset": 0,
						"slot": "0",
						"type": "t_mapping(t_address,t_uint256)"
					},
					{
						"astId": 313,
						"contract": "contracts/vault.sol:YieldVault",
						"label": "_allowances",
						"offset": 0,
						"slot": "1",
						"type": "t_mapping(t_address,t_mapping(t_address,t_uint256))"
					},
					{
						"astId": 315,
						"contract": "contracts/vault.sol:YieldVault",
						"label": "_totalSupply",
						"offset": 0,
						"slot": "2",
						"type": "t_uint256"
					},
					{
						"astId": 317,
						"contract": "contracts/vault.sol:YieldVault",
						"label": "_name",
						"offset": 0,
						"slot": "3",
						"type": "t_string_storage"
					},
					{
						"astId": 319,
						"contract": "contracts/vault.sol:YieldVault",
						"label": "_symbol",
						"offset": 0,
						"slot": "4",
						"type": "t_string_storage"
					},
					{
						"astId": 8,
						"contract": "contracts/vault.sol:YieldVault",
						"label": "_owner",
						"offset": 0,
						"slot": "5",
						"type": "t_address"
					},
					{
						"astId": 958,
						"contract": "contracts/vault.sol:YieldVault",
						"label": "stETH",
						"offset": 0,
						"slot": "6",
						"type": "t_contract(IERC20)877"
					},
					{
						"astId": 961,
						"contract": "contracts/vault.sol:YieldVault",
						"label": "gasReserve",
						"offset": 0,
						"slot": "7",
						"type": "t_contract(IGasReserve)944"
					},
					{
						"astId": 963,
						"contract": "contracts/vault.sol:YieldVault",
						"label": "lastHarvestTime",
						"offset": 0,
						"slot": "8",
						"type": "t_uint256"
					},
					{
						"astId": 965,
						"contract": "contracts/vault.sol:YieldVault",
						"label": "totalRewardsDistributed",
						"offset": 0,
						"slot": "9",
						"type": "t_uint256"
					}
				],
				"types": {
					"t_address": {
						"encoding": "inplace",
						"label": "address",
						"numberOfBytes": "20"
					},
					"t_contract(IERC20)877": {
						"encoding": "inplace",
						"label": "contract IERC20",
						"numberOfBytes": "20"
					},
					"t_contract(IGasReserve)944": {
						"encoding": "inplace",
						"label": "contract IGasReserve",
						"numberOfBytes": "20"
					},
					"t_mapping(t_address,t_mapping(t_address,t_uint256))": {
						"encoding": "mapping",
						"key": "t_address",
						"label": "mapping(address => mapping(address => uint256))",
						"numberOfBytes": "32",
						"value": "t_mapping(t_address,t_uint256)"
					},
					"t_mapping(t_address,t_uint256)": {
						"encoding": "mapping",
						"key": "t_address",
						"label": "mapping(address => uint256)",
						"numberOfBytes": "32",
						"value": "t_uint256"
					},
					"t_string_storage": {
						"encoding": "bytes",
						"label": "string",
						"numberOfBytes": "32"
					},
					"t_uint256": {
						"encoding": "inplace",
						"label": "uint256",
						"numberOfBytes": "32"
					}
				}
			},
			"userdoc": {
				"kind": "user",
				"methods": {},
				"version": 1
			}
		}
	}
}