{
	"contracts/strategy.sol": {
		"StETHStrategy": {
			"abi": [
				{
					"inputs": [
						{
							"internalType": "address",
							"name": "_stETH",
							"type": "address"
						},
						{
							"internalType": "address",
							"name": "_vault",
							"type": "address"
						},
						{
							"internalType": "address",
							"name": "_farmingPool",
							"type": "address"
						},
						{
							"internalType": "address",
							"name": "_gasReserve",
							"type": "address"
						}
					],
					"stateMutability": "nonpayable",
					"type": "constructor"
				},
				{
					"inputs": [],
					"name": "claimRewards",
					"outputs": [],
					"stateMutability": "nonpayable",
					"type": "function"
				},
				{
					"inputs": [
						{
							"internalType": "uint256",
							"name": "_amount",
							"type": "uint256"
						}
					],
					"name": "deposit",
					"outputs": [],
					"stateMutability": "nonpayable",
					"type": "function"
				},
				{
					"inputs": [],
					"name": "farmingPool",
					"outputs": [
						{
							"internalType": "address",
							"name": "",
							"type": "address"
						}
					],
					"stateMutability": "view",
					"type": "function"
				},
				{
					"inputs": [],
					"name": "gasReserve",
					"outputs": [
						{
							"internalType": "address",
							"name": "",
							"type": "address"
						}
					],
					"stateMutability": "view",
					"type": "function"
				},
				{
					"inputs": [],
					"name": "stETH",
					"outputs": [
						{
							"internalType": "contract IERC20",
							"name": "",
							"type": "address"
						}
					],
					"stateMutability": "view",
					"type": "function"
				},
				{
					"inputs": [],
					"name": "vault",
					"outputs": [
						{
							"internalType": "address",
							"name": "",
							"type": "address"
						}
					],
					"stateMutability": "view",
					"type": "function"
				},
				{
					"stateMutability": "payable",
					"type": "receive"
				}
			],
			"devdoc": {
				"kind": "dev",
				"methods": {},
				"version": 1
			},
			"evm": {
				"assembly": "    /* \"contracts/strategy.sol\":121:1541  contract StETHStrategy {... */\n  mstore(0x40, 0x80)\n    /* \"contracts/strategy.sol\":330:555  constructor(address _stETH, address _vault, address _farmingPool, address _gasReserve) {... */\n  callvalue\n  dup1\n  iszero\n  tag_1\n  jumpi\n  0x00\n  dup1\n  revert\ntag_1:\n  pop\n  mload(0x40)\n  sub(codesize, bytecodeSize)\n  dup1\n  bytecodeSize\n  dup4\n  codecopy\n  dup2\n  add\n  0x40\n  dup2\n  swap1\n  mstore\n  tag_2\n  swap2\n  tag_3\n  jump\t// in\ntag_2:\n    /* \"contracts/strategy.sol\":428:433  stETH */\n  0x00\n    /* \"contracts/strategy.sol\":428:450  stETH = IERC20(_stETH) */\n  dup1\n  sload\n  sub(shl(0xa0, 0x01), 0x01)\n  swap6\n  dup7\n  and\n  not(sub(shl(0xa0, 0x01), 0x01))\n  swap2\n  dup3\n  and\n  or\n  swap1\n  swap2\n  sstore\n  0x01\n    /* \"contracts/strategy.sol\":461:475  vault = _vault */\n  dup1\n  sload\n  swap5\n  dup7\n  and\n  swap5\n  dup3\n  and\n  swap5\n  swap1\n  swap5\n  or\n  swap1\n  swap4\n  sstore\n    /* \"contracts/strategy.sol\":486:497  farmingPool */\n  0x02\n    /* \"contracts/strategy.sol\":486:512  farmingPool = _farmingPool */\n  dup1\n  sload\n  swap3\n  dup6\n  and\n  swap3\n  dup5\n  and\n  swap3\n  swap1\n  swap3\n  or\n  swap1\n  swap2\n  sstore\n    /* \"contracts/strategy.sol\":523:533  gasReserve */\n  0x03\n    /* \"contracts/strategy.sol\":523:547  gasReserve = _gasReserve */\n  dup1\n  sload\n  swap2\n  swap1\n  swap4\n  and\n  swap2\n  and\n  or\n  swap1\n  sstore\n    /* \"contracts/strategy.sol\":121:1541  contract StETHStrategy {... */\n  jump(tag_8)\n    /* \"#utility.yul\":14:191   */\ntag_7:\n    /* \"#utility.yul\":93:106   */\n  dup1\n  mload\n  sub(shl(0xa0, 0x01), 0x01)\n    /* \"#utility.yul\":135:166   */\n  dup2\n  and\n    /* \"#utility.yul\":125:167   */\n  dup2\n  eq\n    /* \"#utility.yul\":115:185   */\n  tag_10\n  jumpi\n    /* \"#utility.yul\":181:182   */\n  0x00\n    /* \"#utility.yul\":178:179   */\n  dup1\n    /* \"#utility.yul\":171:183   */\n  revert\n    /* \"#utility.yul\":115:185   */\ntag_10:\n    /* \"#utility.yul\":14:191   */\n  swap2\n  swap1\n  pop\n  jump\t// out\n    /* \"#utility.yul\":196:660   */\ntag_3:\n    /* \"#utility.yul\":293:299   */\n  0x00\n    /* \"#utility.yul\":301:307   */\n  dup1\n    /* \"#utility.yul\":309:315   */\n  0x00\n    /* \"#utility.yul\":317:323   */\n  dup1\n    /* \"#utility.yul\":370:373   */\n  0x80\n    /* \"#utility.yul\":358:367   */\n  dup6\n    /* \"#utility.yul\":349:356   */\n  dup8\n    /* \"#utility.yul\":345:368   */\n  sub\n    /* \"#utility.yul\":341:374   */\n  slt\n    /* \"#utility.yul\":338:391   */\n  iszero\n  tag_12\n  jumpi\n    /* \"#utility.yul\":387:388   */\n  0x00\n    /* \"#utility.yul\":384:385   */\n  dup1\n    /* \"#utility.yul\":377:389   */\n  revert\n    /* \"#utility.yul\":338:391   */\ntag_12:\n    /* \"#utility.yul\":410:450   */\n  tag_13\n    /* \"#utility.yul\":440:449   */\n  dup6\n    /* \"#utility.yul\":410:450   */\n  tag_7\n  jump\t// in\ntag_13:\n    /* \"#utility.yul\":400:450   */\n  swap4\n  pop\n    /* \"#utility.yul\":469:518   */\n  tag_14\n    /* \"#utility.yul\":514:516   */\n  0x20\n    /* \"#utility.yul\":503:512   */\n  dup7\n    /* \"#utility.yul\":499:517   */\n  add\n    /* \"#utility.yul\":469:518   */\n  tag_7\n  jump\t// in\ntag_14:\n    /* \"#utility.yul\":459:518   */\n  swap3\n  pop\n    /* \"#utility.yul\":537:586   */\n  tag_15\n    /* \"#utility.yul\":582:584   */\n  0x40\n    /* \"#utility.yul\":571:580   */\n  dup7\n    /* \"#utility.yul\":567:585   */\n  add\n    /* \"#utility.yul\":537:586   */\n  tag_7\n  jump\t// in\ntag_15:\n    /* \"#utility.yul\":527:586   */\n  swap2\n  pop\n    /* \"#utility.yul\":605:654   */\n  tag_16\n    /* \"#utility.yul\":650:652   */\n  0x60\n    /* \"#utility.yul\":639:648   */\n  dup7\n    /* \"#utility.yul\":635:653   */\n  add\n    /* \"#utility.yul\":605:654   */\n  tag_7\n  jump\t// in\ntag_16:\n    /* \"#utility.yul\":595:654   */\n  swap1\n  pop\n    /* \"#utility.yul\":196:660   */\n  swap3\n  swap6\n  swap2\n  swap5\n  pop\n  swap3\n  pop\n  jump\t// out\ntag_8:\n    /* \"contracts/strategy.sol\":121:1541  contract StETHStrategy {... */\n  dataSize(sub_0)\n  dup1\n  dataOffset(sub_0)\n  0x00\n  codecopy\n  0x00\n  return\nstop\n\nsub_0: assembly {\n        /* \"contracts/strategy.sol\":121:1541  contract StETHStrategy {... */\n      mstore(0x40, 0x80)\n      jumpi(tag_1, lt(calldatasize, 0x04))\n      shr(0xe0, calldataload(0x00))\n      dup1\n      0x372500ab\n      eq\n      tag_3\n      jumpi\n      dup1\n      0xb6b55f25\n      eq\n      tag_4\n      jumpi\n      dup1\n      0xc1fe3e48\n      eq\n      tag_5\n      jumpi\n      dup1\n      0xd75aca19\n      eq\n      tag_6\n      jumpi\n      dup1\n      0xeea7570e\n      eq\n      tag_7\n      jumpi\n      dup1\n      0xfbfa77cf\n      eq\n      tag_8\n      jumpi\n      0x00\n      dup1\n      revert\n    tag_1:\n      jumpi(tag_2, calldatasize)\n      stop\n    tag_2:\n      0x00\n      dup1\n      revert\n        /* \"contracts/strategy.sol\":875:1501  function claimRewards() external {... */\n    tag_3:\n      callvalue\n      dup1\n      iszero\n      tag_11\n      jumpi\n      0x00\n      dup1\n      revert\n    tag_11:\n      pop\n      tag_12\n      tag_13\n      jump\t// in\n    tag_12:\n      stop\n        /* \"contracts/strategy.sol\":614:820  function deposit(uint256 _amount) external {... */\n    tag_4:\n      callvalue\n      dup1\n      iszero\n      tag_14\n      jumpi\n      0x00\n      dup1\n      revert\n    tag_14:\n      pop\n      tag_12\n      tag_16\n      calldatasize\n      0x04\n      tag_17\n      jump\t// in\n    tag_16:\n      tag_18\n      jump\t// in\n        /* \"contracts/strategy.sol\":151:170  IERC20 public stETH */\n    tag_5:\n      callvalue\n      dup1\n      iszero\n      tag_19\n      jumpi\n      0x00\n      dup1\n      revert\n    tag_19:\n      pop\n      sload(0x00)\n      tag_20\n      swap1\n      sub(shl(0xa0, 0x01), 0x01)\n      and\n      dup2\n      jump\n    tag_20:\n      mload(0x40)\n      sub(shl(0xa0, 0x01), 0x01)\n        /* \"#utility.yul\":376:408   */\n      swap1\n      swap2\n      and\n        /* \"#utility.yul\":358:409   */\n      dup2\n      mstore\n        /* \"#utility.yul\":346:348   */\n      0x20\n        /* \"#utility.yul\":331:349   */\n      add\n        /* \"contracts/strategy.sol\":151:170  IERC20 public stETH */\n      mload(0x40)\n      dup1\n      swap2\n      sub\n      swap1\n      return\n        /* \"contracts/strategy.sol\":204:230  address public farmingPool */\n    tag_6:\n      callvalue\n      dup1\n      iszero\n      tag_24\n      jumpi\n      0x00\n      dup1\n      revert\n    tag_24:\n      pop\n      sload(0x02)\n      tag_20\n      swap1\n      sub(shl(0xa0, 0x01), 0x01)\n      and\n      dup2\n      jump\n        /* \"contracts/strategy.sol\":272:297  address public gasReserve */\n    tag_7:\n      callvalue\n      dup1\n      iszero\n      tag_29\n      jumpi\n      0x00\n      dup1\n      revert\n    tag_29:\n      pop\n      sload(0x03)\n      tag_20\n      swap1\n      sub(shl(0xa0, 0x01), 0x01)\n      and\n      dup2\n      jump\n        /* \"contracts/strategy.sol\":177:197  address public vault */\n    tag_8:\n      callvalue\n      dup1\n      iszero\n      tag_33\n      jumpi\n      0x00\n      dup1\n      revert\n    tag_33:\n      pop\n      sload(0x01)\n      tag_20\n      swap1\n      sub(shl(0xa0, 0x01), 0x01)\n      and\n      dup2\n      jump\n        /* \"contracts/strategy.sol\":875:1501  function claimRewards() external {... */\n    tag_13:\n        /* \"contracts/strategy.sol\":999:1009  gasReserve */\n      sload(0x03)\n        /* \"contracts/strategy.sol\":1015:1073  abi.encodeWithSignature(\"requestGas(uint256)\", 0.01 ether) */\n      mload(0x40)\n        /* \"contracts/strategy.sol\":1062:1072  0.01 ether */\n      0x2386f26fc10000\n        /* \"contracts/strategy.sol\":1015:1073  abi.encodeWithSignature(\"requestGas(uint256)\", 0.01 ether) */\n      0x24\n      dup3\n      add\n        /* \"#utility.yul\":797:845   */\n      mstore\n        /* \"contracts/strategy.sol\":978:993  bool gasSuccess */\n      0x00\n      swap2\n      sub(shl(0xa0, 0x01), 0x01)\n        /* \"contracts/strategy.sol\":999:1009  gasReserve */\n      and\n      swap1\n        /* \"#utility.yul\":770:788   */\n      0x44\n      add\n        /* \"contracts/strategy.sol\":1015:1073  abi.encodeWithSignature(\"requestGas(uint256)\", 0.01 ether) */\n      0x40\n      dup1\n      mload\n      not(0x1f)\n      dup2\n      dup5\n      sub\n      add\n      dup2\n      mstore\n      swap2\n      dup2\n      mstore\n      0x20\n      dup3\n      add\n      dup1\n      mload\n      sub(shl(0xe0, 0x01), 0x01)\n      and\n      shl(0xe0, 0x6e1cdf89)\n      or\n      swap1\n      mstore\n        /* \"contracts/strategy.sol\":999:1074  gasReserve.call(abi.encodeWithSignature(\"requestGas(uint256)\", 0.01 ether)) */\n      mload\n      tag_40\n      swap2\n        /* \"contracts/strategy.sol\":1015:1073  abi.encodeWithSignature(\"requestGas(uint256)\", 0.01 ether) */\n      swap1\n        /* \"contracts/strategy.sol\":999:1074  gasReserve.call(abi.encodeWithSignature(\"requestGas(uint256)\", 0.01 ether)) */\n      tag_41\n      jump\t// in\n    tag_40:\n      0x00\n      mload(0x40)\n      dup1\n      dup4\n      sub\n      dup2\n      0x00\n      dup7\n      gas\n      call\n      swap2\n      pop\n      pop\n      returndatasize\n      dup1\n      0x00\n      dup2\n      eq\n      tag_44\n      jumpi\n      mload(0x40)\n      swap2\n      pop\n      and(add(returndatasize, 0x3f), not(0x1f))\n      dup3\n      add\n      0x40\n      mstore\n      returndatasize\n      dup3\n      mstore\n      returndatasize\n      0x00\n      0x20\n      dup5\n      add\n      returndatacopy\n      jump(tag_43)\n    tag_44:\n      0x60\n      swap2\n      pop\n    tag_43:\n      pop\n        /* \"contracts/strategy.sol\":977:1074  (bool gasSuccess, ) = gasReserve.call(abi.encodeWithSignature(\"requestGas(uint256)\", 0.01 ether)) */\n      pop\n      swap1\n      pop\n        /* \"contracts/strategy.sol\":1093:1103  gasSuccess */\n      dup1\n        /* \"contracts/strategy.sol\":1085:1126  require(gasSuccess, \"Gas request failed\") */\n      tag_45\n      jumpi\n      mload(0x40)\n      shl(0xe5, 0x461bcd)\n      dup2\n      mstore\n        /* \"#utility.yul\":1364:1366   */\n      0x20\n        /* \"contracts/strategy.sol\":1085:1126  require(gasSuccess, \"Gas request failed\") */\n      0x04\n      dup3\n      add\n        /* \"#utility.yul\":1346:1367   */\n      mstore\n        /* \"#utility.yul\":1403:1405   */\n      0x12\n        /* \"#utility.yul\":1383:1401   */\n      0x24\n      dup3\n      add\n        /* \"#utility.yul\":1376:1406   */\n      mstore\n      shl(0x72, 0x11d85cc81c995c5d595cdd0819985a5b1959)\n        /* \"#utility.yul\":1422:1440   */\n      0x44\n      dup3\n      add\n        /* \"#utility.yul\":1415:1463   */\n      mstore\n        /* \"#utility.yul\":1480:1498   */\n      0x64\n      add\n        /* \"contracts/strategy.sol\":1085:1126  require(gasSuccess, \"Gas request failed\") */\n    tag_46:\n      mload(0x40)\n      dup1\n      swap2\n      sub\n      swap1\n      revert\n    tag_45:\n        /* \"contracts/strategy.sol\":1219:1230  farmingPool */\n      sload(0x02)\n        /* \"contracts/strategy.sol\":1236:1282  abi.encodeWithSignature(\"distributeRewards()\") */\n      0x40\n      dup1\n      mload\n      0x04\n      dup2\n      mstore\n      0x24\n      dup2\n      add\n      dup3\n      mstore\n      0x20\n      dup2\n      add\n      dup1\n      mload\n      sub(shl(0xe0, 0x01), 0x01)\n      and\n      shl(0xe4, 0x06f4a2cd)\n      or\n      swap1\n      mstore\n        /* \"contracts/strategy.sol\":1219:1283  farmingPool.call(abi.encodeWithSignature(\"distributeRewards()\")) */\n      swap1\n      mload\n        /* \"contracts/strategy.sol\":1201:1213  bool success */\n      0x00\n      swap3\n      sub(shl(0xa0, 0x01), 0x01)\n        /* \"contracts/strategy.sol\":1219:1230  farmingPool */\n      and\n      swap2\n        /* \"contracts/strategy.sol\":1219:1283  farmingPool.call(abi.encodeWithSignature(\"distributeRewards()\")) */\n      tag_48\n      swap2\n      tag_41\n      jump\t// in\n    tag_48:\n      0x00\n      mload(0x40)\n      dup1\n      dup4\n      sub\n      dup2\n      0x00\n      dup7\n      gas\n      call\n      swap2\n      pop\n      pop\n      returndatasize\n      dup1\n      0x00\n      dup2\n      eq\n      tag_51\n      jumpi\n      mload(0x40)\n      swap2\n      pop\n      and(add(returndatasize, 0x3f), not(0x1f))\n      dup3\n      add\n      0x40\n      mstore\n      returndatasize\n      dup3\n      mstore\n      returndatasize\n      0x00\n      0x20\n      dup5\n      add\n      returndatacopy\n      jump(tag_50)\n    tag_51:\n      0x60\n      swap2\n      pop\n    tag_50:\n      pop\n        /* \"contracts/strategy.sol\":1200:1283  (bool success, ) = farmingPool.call(abi.encodeWithSignature(\"distributeRewards()\")) */\n      pop\n      swap1\n      pop\n        /* \"contracts/strategy.sol\":1302:1309  success */\n      dup1\n        /* \"contracts/strategy.sol\":1294:1326  require(success, \"Claim failed\") */\n      tag_52\n      jumpi\n      mload(0x40)\n      shl(0xe5, 0x461bcd)\n      dup2\n      mstore\n        /* \"#utility.yul\":1711:1713   */\n      0x20\n        /* \"contracts/strategy.sol\":1294:1326  require(success, \"Claim failed\") */\n      0x04\n      dup3\n      add\n        /* \"#utility.yul\":1693:1714   */\n      mstore\n        /* \"#utility.yul\":1750:1752   */\n      0x0c\n        /* \"#utility.yul\":1730:1748   */\n      0x24\n      dup3\n      add\n        /* \"#utility.yul\":1723:1753   */\n      mstore\n      shl(0xa2, 0x10db185a5b4819985a5b1959)\n        /* \"#utility.yul\":1769:1787   */\n      0x44\n      dup3\n      add\n        /* \"#utility.yul\":1762:1804   */\n      mstore\n        /* \"#utility.yul\":1821:1839   */\n      0x64\n      add\n        /* \"contracts/strategy.sol\":1294:1326  require(success, \"Claim failed\") */\n      tag_46\n        /* \"#utility.yul\":1509:1845   */\n      jump\n        /* \"contracts/strategy.sol\":1294:1326  require(success, \"Claim failed\") */\n    tag_52:\n        /* \"contracts/strategy.sol\":1356:1377  address(this).balance */\n      selfbalance\n        /* \"contracts/strategy.sol\":1392:1402  earned > 0 */\n      dup1\n      iszero\n        /* \"contracts/strategy.sol\":1388:1494  if (earned > 0) {... */\n      tag_55\n      jumpi\n        /* \"contracts/strategy.sol\":1427:1432  vault */\n      sload(0x01)\n        /* \"contracts/strategy.sol\":1419:1450  payable(vault).transfer(earned) */\n      mload(0x40)\n      sub(shl(0xa0, 0x01), 0x01)\n        /* \"contracts/strategy.sol\":1427:1432  vault */\n      swap1\n      swap2\n      and\n      swap1\n        /* \"contracts/strategy.sol\":1419:1450  payable(vault).transfer(earned) */\n      dup3\n      iszero\n      0x08fc\n      mul\n      swap1\n        /* \"contracts/strategy.sol\":1443:1449  earned */\n      dup4\n      swap1\n        /* \"contracts/strategy.sol\":1427:1432  vault */\n      0x00\n        /* \"contracts/strategy.sol\":1419:1450  payable(vault).transfer(earned) */\n      dup2\n        /* \"contracts/strategy.sol\":1427:1432  vault */\n      dup2\n        /* \"contracts/strategy.sol\":1419:1450  payable(vault).transfer(earned) */\n      dup2\n        /* \"contracts/strategy.sol\":1443:1449  earned */\n      dup6\n        /* \"contracts/strategy.sol\":1427:1432  vault */\n      dup9\n        /* \"contracts/strategy.sol\":1419:1450  payable(vault).transfer(earned) */\n      dup9\n      call\n      swap4\n      pop\n      pop\n      pop\n      pop\n      iszero\n      dup1\n      iszero\n      tag_57\n      jumpi\n      returndatasize\n      0x00\n      dup1\n      returndatacopy\n      revert(0x00, returndatasize)\n    tag_57:\n      pop\n        /* \"contracts/strategy.sol\":1388:1494  if (earned > 0) {... */\n    tag_55:\n        /* \"contracts/strategy.sol\":908:1501  {... */\n      pop\n      pop\n      pop\n        /* \"contracts/strategy.sol\":875:1501  function claimRewards() external {... */\n      jump\t// out\n        /* \"contracts/strategy.sol\":614:820  function deposit(uint256 _amount) external {... */\n    tag_18:\n        /* \"contracts/strategy.sol\":690:695  vault */\n      and(sub(shl(0xa0, 0x01), 0x01), sload(0x01))\n        /* \"contracts/strategy.sol\":676:686  msg.sender */\n      caller\n        /* \"contracts/strategy.sol\":676:695  msg.sender == vault */\n      eq\n        /* \"contracts/strategy.sol\":668:710  require(msg.sender == vault, \"Only vault\") */\n      tag_59\n      jumpi\n      mload(0x40)\n      shl(0xe5, 0x461bcd)\n      dup2\n      mstore\n        /* \"#utility.yul\":2052:2054   */\n      0x20\n        /* \"contracts/strategy.sol\":668:710  require(msg.sender == vault, \"Only vault\") */\n      0x04\n      dup3\n      add\n        /* \"#utility.yul\":2034:2055   */\n      mstore\n        /* \"#utility.yul\":2091:2093   */\n      0x0a\n        /* \"#utility.yul\":2071:2089   */\n      0x24\n      dup3\n      add\n        /* \"#utility.yul\":2064:2094   */\n      mstore\n      shl(0xb2, 0x13db9b1e481d985d5b1d)\n        /* \"#utility.yul\":2110:2128   */\n      0x44\n      dup3\n      add\n        /* \"#utility.yul\":2103:2143   */\n      mstore\n        /* \"#utility.yul\":2160:2178   */\n      0x64\n      add\n        /* \"contracts/strategy.sol\":668:710  require(msg.sender == vault, \"Only vault\") */\n      tag_46\n        /* \"#utility.yul\":1850:2184   */\n      jump\n        /* \"contracts/strategy.sol\":668:710  require(msg.sender == vault, \"Only vault\") */\n    tag_59:\n        /* \"contracts/strategy.sol\":739:740  0 */\n      0x00\n        /* \"contracts/strategy.sol\":729:736  _amount */\n      dup2\n        /* \"contracts/strategy.sol\":729:740  _amount > 0 */\n      gt\n        /* \"contracts/strategy.sol\":721:763  require(_amount > 0, \"Must deposit stETH\") */\n      tag_62\n      jumpi\n      mload(0x40)\n      shl(0xe5, 0x461bcd)\n      dup2\n      mstore\n        /* \"#utility.yul\":2391:2393   */\n      0x20\n        /* \"contracts/strategy.sol\":721:763  require(_amount > 0, \"Must deposit stETH\") */\n      0x04\n      dup3\n      add\n        /* \"#utility.yul\":2373:2394   */\n      mstore\n        /* \"#utility.yul\":2430:2432   */\n      0x12\n        /* \"#utility.yul\":2410:2428   */\n      0x24\n      dup3\n      add\n        /* \"#utility.yul\":2403:2433   */\n      mstore\n      shl(0x73, 0x09aeae6e840c8cae0dee6d2e840e6e88aa89)\n        /* \"#utility.yul\":2449:2467   */\n      0x44\n      dup3\n      add\n        /* \"#utility.yul\":2442:2490   */\n      mstore\n        /* \"#utility.yul\":2507:2525   */\n      0x64\n      add\n        /* \"contracts/strategy.sol\":721:763  require(_amount > 0, \"Must deposit stETH\") */\n      tag_46\n        /* \"#utility.yul\":2189:2531   */\n      jump\n        /* \"contracts/strategy.sol\":721:763  require(_amount > 0, \"Must deposit stETH\") */\n    tag_62:\n        /* \"contracts/strategy.sol\":776:781  stETH */\n      sload(0x00)\n        /* \"contracts/strategy.sol\":791:802  farmingPool */\n      sload(0x02)\n        /* \"contracts/strategy.sol\":776:812  stETH.transfer(farmingPool, _amount) */\n      mload(0x40)\n      shl(0xe0, 0xa9059cbb)\n      dup2\n      mstore\n      sub(shl(0xa0, 0x01), 0x01)\n        /* \"contracts/strategy.sol\":791:802  farmingPool */\n      swap2\n      dup3\n      and\n        /* \"contracts/strategy.sol\":776:812  stETH.transfer(farmingPool, _amount) */\n      0x04\n      dup3\n      add\n        /* \"#utility.yul\":2710:2761   */\n      mstore\n        /* \"#utility.yul\":2777:2795   */\n      0x24\n      dup2\n      add\n        /* \"#utility.yul\":2770:2804   */\n      dup5\n      swap1\n      mstore\n        /* \"contracts/strategy.sol\":776:781  stETH */\n      swap2\n      and\n      swap1\n        /* \"contracts/strategy.sol\":776:790  stETH.transfer */\n      0xa9059cbb\n      swap1\n        /* \"#utility.yul\":2683:2701   */\n      0x44\n      add\n        /* \"contracts/strategy.sol\":776:812  stETH.transfer(farmingPool, _amount) */\n      0x20\n      mload(0x40)\n      dup1\n      dup4\n      sub\n      dup2\n      0x00\n      dup8\n      gas\n      call\n      iszero\n      dup1\n      iszero\n      tag_68\n      jumpi\n      returndatasize\n      0x00\n      dup1\n      returndatacopy\n      revert(0x00, returndatasize)\n    tag_68:\n      pop\n      pop\n      pop\n      pop\n      mload(0x40)\n      returndatasize\n      not(0x1f)\n      0x1f\n      dup3\n      add\n      and\n      dup3\n      add\n      dup1\n      0x40\n      mstore\n      pop\n      dup2\n      add\n      swap1\n      tag_69\n      swap2\n      swap1\n      tag_70\n      jump\t// in\n    tag_69:\n      pop\n        /* \"contracts/strategy.sol\":614:820  function deposit(uint256 _amount) external {... */\n      pop\n      jump\t// out\n        /* \"#utility.yul\":14:194   */\n    tag_17:\n        /* \"#utility.yul\":73:79   */\n      0x00\n        /* \"#utility.yul\":126:128   */\n      0x20\n        /* \"#utility.yul\":114:123   */\n      dup3\n        /* \"#utility.yul\":105:112   */\n      dup5\n        /* \"#utility.yul\":101:124   */\n      sub\n        /* \"#utility.yul\":97:129   */\n      slt\n        /* \"#utility.yul\":94:146   */\n      iszero\n      tag_73\n      jumpi\n        /* \"#utility.yul\":142:143   */\n      0x00\n        /* \"#utility.yul\":139:140   */\n      dup1\n        /* \"#utility.yul\":132:144   */\n      revert\n        /* \"#utility.yul\":94:146   */\n    tag_73:\n      pop\n        /* \"#utility.yul\":165:188   */\n      calldataload\n      swap2\n        /* \"#utility.yul\":14:194   */\n      swap1\n      pop\n      jump\t// out\n        /* \"#utility.yul\":856:1157   */\n    tag_41:\n        /* \"#utility.yul\":985:988   */\n      0x00\n        /* \"#utility.yul\":1023:1029   */\n      dup3\n        /* \"#utility.yul\":1017:1030   */\n      mload\n        /* \"#utility.yul\":1069:1075   */\n      dup1\n        /* \"#utility.yul\":1062:1066   */\n      0x20\n        /* \"#utility.yul\":1054:1060   */\n      dup6\n        /* \"#utility.yul\":1050:1067   */\n      add\n        /* \"#utility.yul\":1045:1048   */\n      dup5\n        /* \"#utility.yul\":1039:1076   */\n      mcopy\n        /* \"#utility.yul\":1131:1132   */\n      0x00\n        /* \"#utility.yul\":1095:1111   */\n      swap3\n      add\n        /* \"#utility.yul\":1120:1133   */\n      swap2\n      dup3\n      mstore\n      pop\n        /* \"#utility.yul\":1095:1111   */\n      swap2\n        /* \"#utility.yul\":856:1157   */\n      swap1\n      pop\n      jump\t// out\n        /* \"#utility.yul\":2815:3092   */\n    tag_70:\n        /* \"#utility.yul\":2882:2888   */\n      0x00\n        /* \"#utility.yul\":2935:2937   */\n      0x20\n        /* \"#utility.yul\":2923:2932   */\n      dup3\n        /* \"#utility.yul\":2914:2921   */\n      dup5\n        /* \"#utility.yul\":2910:2933   */\n      sub\n        /* \"#utility.yul\":2906:2938   */\n      slt\n        /* \"#utility.yul\":2903:2955   */\n      iszero\n      tag_84\n      jumpi\n        /* \"#utility.yul\":2951:2952   */\n      0x00\n        /* \"#utility.yul\":2948:2949   */\n      dup1\n        /* \"#utility.yul\":2941:2953   */\n      revert\n        /* \"#utility.yul\":2903:2955   */\n    tag_84:\n        /* \"#utility.yul\":2983:2992   */\n      dup2\n        /* \"#utility.yul\":2977:2993   */\n      mload\n        /* \"#utility.yul\":3036:3041   */\n      dup1\n        /* \"#utility.yul\":3029:3042   */\n      iszero\n        /* \"#utility.yul\":3022:3043   */\n      iszero\n        /* \"#utility.yul\":3015:3020   */\n      dup2\n        /* \"#utility.yul\":3012:3044   */\n      eq\n        /* \"#utility.yul\":3002:3062   */\n      tag_85\n      jumpi\n        /* \"#utility.yul\":3058:3059   */\n      0x00\n        /* \"#utility.yul\":3055:3056   */\n      dup1\n        /* \"#utility.yul\":3048:3060   */\n      revert\n        /* \"#utility.yul\":3002:3062   */\n    tag_85:\n        /* \"#utility.yul\":3081:3086   */\n      swap4\n        /* \"#utility.yul\":2815:3092   */\n      swap3\n      pop\n      pop\n      pop\n      jump\t// out\n\n    auxdata: 0xa2646970667358221220f487a483858cd7d67c6298a8578eebed065bd899ac578918667418c58b2d9e1e64736f6c634300081a0033\n}\n",
				"bytecode": {
					"linkReferences": {},
					"object": "608060405234801561000f575f80fd5b5060405161059938038061059983398101604081905261002e9161009b565b5f80546001600160a01b039586166001600160a01b03199182161790915560018054948616948216949094179093556002805492851692841692909217909155600380549190931691161790556100ec565b80516001600160a01b0381168114610096575f80fd5b919050565b5f805f80608085870312156100ae575f80fd5b6100b785610080565b93506100c560208601610080565b92506100d360408601610080565b91506100e160608601610080565b905092959194509250565b6104a0806100f95f395ff3fe608060405260043610610057575f3560e01c8063372500ab14610062578063b6b55f2514610078578063c1fe3e4814610097578063d75aca19146100d1578063eea7570e146100f0578063fbfa77cf1461010f575f80fd5b3661005e57005b5f80fd5b34801561006d575f80fd5b5061007661012e565b005b348015610083575f80fd5b50610076610092366004610417565b610313565b3480156100a2575f80fd5b505f546100b5906001600160a01b031681565b6040516001600160a01b03909116815260200160405180910390f35b3480156100dc575f80fd5b506002546100b5906001600160a01b031681565b3480156100fb575f80fd5b506003546100b5906001600160a01b031681565b34801561011a575f80fd5b506001546100b5906001600160a01b031681565b600354604051662386f26fc1000060248201525f916001600160a01b03169060440160408051601f198184030181529181526020820180516001600160e01b0316636e1cdf8960e01b17905251610185919061042e565b5f604051808303815f865af19150503d805f81146101be576040519150601f19603f3d011682016040523d82523d5f602084013e6101c3565b606091505b505090508061020e5760405162461bcd60e51b815260206004820152601260248201527111d85cc81c995c5d595cdd0819985a5b195960721b60448201526064015b60405180910390fd5b60025460408051600481526024810182526020810180516001600160e01b03166306f4a2cd60e41b17905290515f926001600160a01b0316916102509161042e565b5f604051808303815f865af19150503d805f8114610289576040519150601f19603f3d011682016040523d82523d5f602084013e61028e565b606091505b50509050806102ce5760405162461bcd60e51b815260206004820152600c60248201526b10db185a5b4819985a5b195960a21b6044820152606401610205565b47801561030e576001546040516001600160a01b039091169082156108fc029083905f818181858888f1935050505015801561030c573d5f803e3d5ffd5b505b505050565b6001546001600160a01b0316331461035a5760405162461bcd60e51b815260206004820152600a60248201526913db9b1e481d985d5b1d60b21b6044820152606401610205565b5f811161039e5760405162461bcd60e51b815260206004820152601260248201527109aeae6e840c8cae0dee6d2e840e6e88aa8960731b6044820152606401610205565b5f5460025460405163a9059cbb60e01b81526001600160a01b0391821660048201526024810184905291169063a9059cbb906044016020604051808303815f875af11580156103ef573d5f803e3d5ffd5b505050506040513d601f19601f820116820180604052508101906104139190610444565b5050565b5f60208284031215610427575f80fd5b5035919050565b5f82518060208501845e5f920191825250919050565b5f60208284031215610454575f80fd5b81518015158114610463575f80fd5b939250505056fea2646970667358221220f487a483858cd7d67c6298a8578eebed065bd899ac578918667418c58b2d9e1e64736f6c634300081a0033",
					"opcodes": "PUSH1 0x80 PUSH1 0x40 MSTORE CALLVALUE DUP1 ISZERO PUSH2 0xF JUMPI PUSH0 DUP1 REVERT JUMPDEST POP PUSH1 0x40 MLOAD PUSH2 0x599 CODESIZE SUB DUP1 PUSH2 0x599 DUP4 CODECOPY DUP2 ADD PUSH1 0x40 DUP2 SWAP1 MSTORE PUSH2 0x2E SWAP2 PUSH2 0x9B JUMP JUMPDEST PUSH0 DUP1 SLOAD PUSH1 0x1 PUSH1 0x1 PUSH1 0xA0 SHL SUB SWAP6 DUP7 AND PUSH1 0x1 PUSH1 0x1 PUSH1 0xA0 SHL SUB NOT SWAP2 DUP3 AND OR SWAP1 SWAP2 SSTORE PUSH1 0x1 DUP1 SLOAD SWAP5 DUP7 AND SWAP5 DUP3 AND SWAP5 SWAP1 SWAP5 OR SWAP1 SWAP4 SSTORE PUSH1 0x2 DUP1 SLOAD SWAP3 DUP6 AND SWAP3 DUP5 AND SWAP3 SWAP1 SWAP3 OR SWAP1 SWAP2 SSTORE PUSH1 0x3 DUP1 SLOAD SWAP2 SWAP1 SWAP4 AND SWAP2 AND OR SWAP1 SSTORE PUSH2 0xEC JUMP JUMPDEST DUP1 MLOAD PUSH1 0x1 PUSH1 0x1 PUSH1 0xA0 SHL SUB DUP2 AND DUP2 EQ PUSH2 0x96 JUMPI PUSH0 DUP1 REVERT JUMPDEST SWAP2 SWAP1 POP JUMP JUMPDEST PUSH0 DUP1 PUSH0 DUP1 PUSH1 0x80 DUP6 DUP8 SUB SLT ISZERO PUSH2 0xAE JUMPI PUSH0 DUP1 REVERT JUMPDEST PUSH2 0xB7 DUP6 PUSH2 0x80 JUMP JUMPDEST SWAP4 POP PUSH2 0xC5 PUSH1 0x20 DUP7 ADD PUSH2 0x80 JUMP JUMPDEST SWAP3 POP PUSH2 0xD3 PUSH1 0x40 DUP7 ADD PUSH2 0x80 JUMP JUMPDEST SWAP2 POP PUSH2 0xE1 PUSH1 0x60 DUP7 ADD PUSH2 0x80 JUMP JUMPDEST SWAP1 POP SWAP3 SWAP6 SWAP2 SWAP5 POP SWAP3 POP JUMP JUMPDEST PUSH2 0x4A0 DUP1 PUSH2 0xF9 PUSH0 CODECOPY PUSH0 RETURN INVALID PUSH1 0x80 PUSH1 0x40 MSTORE PUSH1 0x4 CALLDATASIZE LT PUSH2 0x57 JUMPI PUSH0 CALLDATALOAD PUSH1 0xE0 SHR DUP1 PUSH4 0x372500AB EQ PUSH2 0x62 JUMPI DUP1 PUSH4 0xB6B55F25 EQ PUSH2 0x78 JUMPI DUP1 PUSH4 0xC1FE3E48 EQ PUSH2 0x97 JUMPI DUP1 PUSH4 0xD75ACA19 EQ PUSH2 0xD1 JUMPI DUP1 PUSH4 0xEEA7570E EQ PUSH2 0xF0 JUMPI DUP1 PUSH4 0xFBFA77CF EQ PUSH2 0x10F JUMPI PUSH0 DUP1 REVERT JUMPDEST CALLDATASIZE PUSH2 0x5E JUMPI STOP JUMPDEST PUSH0 DUP1 REVERT JUMPDEST CALLVALUE DUP1 ISZERO PUSH2 0x6D JUMPI PUSH0 DUP1 REVERT JUMPDEST POP PUSH2 0x76 PUSH2 0x12E JUMP JUMPDEST STOP JUMPDEST CALLVALUE DUP1 ISZERO PUSH2 0x83 JUMPI PUSH0 DUP1 REVERT JUMPDEST POP PUSH2 0x76 PUSH2 0x92 CALLDATASIZE PUSH1 0x4 PUSH2 0x417 JUMP JUMPDEST PUSH2 0x313 JUMP JUMPDEST CALLVALUE DUP1 ISZERO PUSH2 0xA2 JUMPI PUSH0 DUP1 REVERT JUMPDEST POP PUSH0 SLOAD PUSH2 0xB5 SWAP1 PUSH1 0x1 PUSH1 0x1 PUSH1 0xA0 SHL SUB AND DUP2 JUMP JUMPDEST PUSH1 0x40 MLOAD PUSH1 0x1 PUSH1 0x1 PUSH1 0xA0 SHL SUB SWAP1 SWAP2 AND DUP2 MSTORE PUSH1 0x20 ADD PUSH1 0x40 MLOAD DUP1 SWAP2 SUB SWAP1 RETURN JUMPDEST CALLVALUE DUP1 ISZERO PUSH2 0xDC JUMPI PUSH0 DUP1 REVERT JUMPDEST POP PUSH1 0x2 SLOAD PUSH2 0xB5 SWAP1 PUSH1 0x1 PUSH1 0x1 PUSH1 0xA0 SHL SUB AND DUP2 JUMP JUMPDEST CALLVALUE DUP1 ISZERO PUSH2 0xFB JUMPI PUSH0 DUP1 REVERT JUMPDEST POP PUSH1 0x3 SLOAD PUSH2 0xB5 SWAP1 PUSH1 0x1 PUSH1 0x1 PUSH1 0xA0 SHL SUB AND DUP2 JUMP JUMPDEST CALLVALUE DUP1 ISZERO PUSH2 0x11A JUMPI PUSH0 DUP1 REVERT JUMPDEST POP PUSH1 0x1 SLOAD PUSH2 0xB5 SWAP1 PUSH1 0x1 PUSH1 0x1 PUSH1 0xA0 SHL SUB AND DUP2 JUMP JUMPDEST PUSH1 0x3 SLOAD PUSH1 0x40 MLOAD PUSH7 0x2386F26FC10000 PUSH1 0x24 DUP3 ADD MSTORE PUSH0 SWAP2 PUSH1 0x1 PUSH1 0x1 PUSH1 0xA0 SHL SUB AND SWAP1 PUSH1 0x44 ADD PUSH1 0x40 DUP1 MLOAD PUSH1 0x1F NOT DUP2 DUP5 SUB ADD DUP2 MSTORE SWAP2 DUP2 MSTORE PUSH1 0x20 DUP3 ADD DUP1 MLOAD PUSH1 0x1 PUSH1 0x1 PUSH1 0xE0 SHL SUB AND PUSH4 0x6E1CDF89 PUSH1 0xE0 SHL OR SWAP1 MSTORE MLOAD PUSH2 0x185 SWAP2 SWAP1 PUSH2 0x42E JUMP JUMPDEST PUSH0 PUSH1 0x40 MLOAD DUP1 DUP4 SUB DUP2 PUSH0 DUP7 GAS CALL SWAP2 POP POP RETURNDATASIZE DUP1 PUSH0 DUP2 EQ PUSH2 0x1BE JUMPI PUSH1 0x40 MLOAD SWAP2 POP PUSH1 0x1F NOT PUSH1 0x3F RETURNDATASIZE ADD AND DUP3 ADD PUSH1 0x40 MSTORE RETURNDATASIZE DUP3 MSTORE RETURNDATASIZE PUSH0 PUSH1 0x20 DUP5 ADD RETURNDATACOPY PUSH2 0x1C3 JUMP JUMPDEST PUSH1 0x60 SWAP2 POP JUMPDEST POP POP SWAP1 POP DUP1 PUSH2 0x20E JUMPI PUSH1 0x40 MLOAD PUSH3 0x461BCD PUSH1 0xE5 SHL DUP2 MSTORE PUSH1 0x20 PUSH1 0x4 DUP3 ADD MSTORE PUSH1 0x12 PUSH1 0x24 DUP3 ADD MSTORE PUSH18 0x11D85CC81C995C5D595CDD0819985A5B1959 PUSH1 0x72 SHL PUSH1 0x44 DUP3 ADD MSTORE PUSH1 0x64 ADD JUMPDEST PUSH1 0x40 MLOAD DUP1 SWAP2 SUB SWAP1 REVERT JUMPDEST PUSH1 0x2 SLOAD PUSH1 0x40 DUP1 MLOAD PUSH1 0x4 DUP2 MSTORE PUSH1 0x24 DUP2 ADD DUP3 MSTORE PUSH1 0x20 DUP2 ADD DUP1 MLOAD PUSH1 0x1 PUSH1 0x1 PUSH1 0xE0 SHL SUB AND PUSH4 0x6F4A2CD PUSH1 0xE4 SHL OR SWAP1 MSTORE SWAP1 MLOAD PUSH0 SWAP3 PUSH1 0x1 PUSH1 0x1 PUSH1 0xA0 SHL SUB AND SWAP2 PUSH2 0x250 SWAP2 PUSH2 0x42E JUMP JUMPDEST PUSH0 PUSH1 0x40 MLOAD DUP1 DUP4 SUB DUP2 PUSH0 DUP7 GAS CALL SWAP2 POP POP RETURNDATASIZE DUP1 PUSH0 DUP2 EQ PUSH2 0x289 JUMPI PUSH1 0x40 MLOAD SWAP2 POP PUSH1 0x1F NOT PUSH1 0x3F RETURNDATASIZE ADD AND DUP3 ADD PUSH1 0x40 MSTORE RETURNDATASIZE DUP3 MSTORE RETURNDATASIZE PUSH0 PUSH1 0x20 DUP5 ADD RETURNDATACOPY PUSH2 0x28E JUMP JUMPDEST PUSH1 0x60 SWAP2 POP JUMPDEST POP POP SWAP1 POP DUP1 PUSH2 0x2CE JUMPI PUSH1 0x40 MLOAD PUSH3 0x461BCD PUSH1 0xE5 SHL DUP2 MSTORE PUSH1 0x20 PUSH1 0x4 DUP3 ADD MSTORE PUSH1 0xC PUSH1 0x24 DUP3 ADD MSTORE PUSH12 0x10DB185A5B4819985A5B1959 PUSH1 0xA2 SHL PUSH1 0x44 DUP3 ADD MSTORE PUSH1 0x64 ADD PUSH2 0x205 JUMP JUMPDEST SELFBALANCE DUP1 ISZERO PUSH2 0x30E JUMPI PUSH1 0x1 SLOAD PUSH1 0x40 MLOAD PUSH1 0x1 PUSH1 0x1 PUSH1 0xA0 SHL SUB SWAP1 SWAP2 AND SWAP1 DUP3 ISZERO PUSH2 0x8FC MUL SWAP1 DUP4 SWAP1 PUSH0 DUP2 DUP2 DUP2 DUP6 DUP9 DUP9 CALL SWAP4 POP POP POP POP ISZERO DUP1 ISZERO PUSH2 0x30C JUMPI RETURNDATASIZE PUSH0 DUP1 RETURNDATACOPY RETURNDATASIZE PUSH0 REVERT JUMPDEST POP JUMPDEST POP POP POP JUMP JUMPDEST PUSH1 0x1 SLOAD PUSH1 0x1 PUSH1 0x1 PUSH1 0xA0 SHL SUB AND CALLER EQ PUSH2 0x35A JUMPI PUSH1 0x40 MLOAD PUSH3 0x461BCD PUSH1 0xE5 SHL DUP2 MSTORE PUSH1 0x20 PUSH1 0x4 DUP3 ADD MSTORE PUSH1 0xA PUSH1 0x24 DUP3 ADD MSTORE PUSH10 0x13DB9B1E481D985D5B1D PUSH1 0xB2 SHL PUSH1 0x44 DUP3 ADD MSTORE PUSH1 0x64 ADD PUSH2 0x205 JUMP JUMPDEST PUSH0 DUP2 GT PUSH2 0x39E JUMPI PUSH1 0x40 MLOAD PUSH3 0x461BCD PUSH1 0xE5 SHL DUP2 MSTORE PUSH1 0x20 PUSH1 0x4 DUP3 ADD MSTORE PUSH1 0x12 PUSH1 0x24 DUP3 ADD MSTORE PUSH18 0x9AEAE6E840C8CAE0DEE6D2E840E6E88AA89 PUSH1 0x73 SHL PUSH1 0x44 DUP3 ADD MSTORE PUSH1 0x64 ADD PUSH2 0x205 JUMP JUMPDEST PUSH0 SLOAD PUSH1 0x2 SLOAD PUSH1 0x40 MLOAD PUSH4 0xA9059CBB PUSH1 0xE0 SHL DUP2 MSTORE PUSH1 0x1 PUSH1 0x1 PUSH1 0xA0 SHL SUB SWAP2 DUP3 AND PUSH1 0x4 DUP3 ADD MSTORE PUSH1 0x24 DUP2 ADD DUP5 SWAP1 MSTORE SWAP2 AND SWAP1 PUSH4 0xA9059CBB SWAP1 PUSH1 0x44 ADD PUSH1 0x20 PUSH1 0x40 MLOAD DUP1 DUP4 SUB DUP2 PUSH0 DUP8 GAS CALL ISZERO DUP1 ISZERO PUSH2 0x3EF JUMPI RETURNDATASIZE PUSH0 DUP1 RETURNDATACOPY RETURNDATASIZE PUSH0 REVERT JUMPDEST POP POP POP POP PUSH1 0x40 MLOAD RETURNDATASIZE PUSH1 0x1F NOT PUSH1 0x1F DUP3 ADD AND DUP3 ADD DUP1 PUSH1 0x40 MSTORE POP DUP2 ADD SWAP1 PUSH2 0x413 SWAP2 SWAP1 PUSH2 0x444 JUMP JUMPDEST POP POP JUMP JUMPDEST PUSH0 PUSH1 0x20 DUP3 DUP5 SUB SLT ISZERO PUSH2 0x427 JUMPI PUSH0 DUP1 REVERT JUMPDEST POP CALLDATALOAD SWAP2 SWAP1 POP JUMP JUMPDEST PUSH0 DUP3 MLOAD DUP1 PUSH1 0x20 DUP6 ADD DUP5 MCOPY PUSH0 SWAP3 ADD SWAP2 DUP3 MSTORE POP SWAP2 SWAP1 POP JUMP JUMPDEST PUSH0 PUSH1 0x20 DUP3 DUP5 SUB SLT ISZERO PUSH2 0x454 JUMPI PUSH0 DUP1 REVERT JUMPDEST DUP2 MLOAD DUP1 ISZERO ISZERO DUP2 EQ PUSH2 0x463 JUMPI PUSH0 DUP1 REVERT JUMPDEST SWAP4 SWAP3 POP POP POP JUMP INVALID LOG2 PUSH5 0x6970667358 0x22 SLT KECCAK256 DELEGATECALL DUP8 LOG4 DUP4 DUP6 DUP13 0xD7 0xD6 PUSH29 0x6298A8578EEBED065BD899AC578918667418C58B2D9E1E64736F6C6343 STOP ADDMOD BYTE STOP CALLER "
				},
				"gasEstimates": {
					"creation": {
						"codeDepositCost": "236800",
						"executionCost": "infinite",
						"totalCost": "infinite"
					},
					"external": {
						"claimRewards()": "infinite",
						"deposit(uint256)": "infinite",
						"farmingPool()": "2368",
						"gasReserve()": "2390",
						"stETH()": "2345",
						"vault()": "2412"
					}
				},
				"methodIdentifiers": {
					"claimRewards()": "372500ab",
					"deposit(uint256)": "b6b55f25",
					"farmingPool()": "d75aca19",
					"gasReserve()": "eea7570e",
					"stETH()": "c1fe3e48",
					"vault()": "fbfa77cf"
				}
			},
			"storageLayout": {
				"storage": [
					{
						"astId": 83,
						"contract": "contracts/strategy.sol:StETHStrategy",
						"label": "stETH",
						"offset": 0,
						"slot": "0",
						"type": "t_contract(IERC20)77"
					},
					{
						"astId": 85,
						"contract": "contracts/strategy.sol:StETHStrategy",
						"label": "vault",
						"offset": 0,
						"slot": "1",
						"type": "t_address"
					},
					{
						"astId": 87,
						"contract": "contracts/strategy.sol:StETHStrategy",
						"label": "farmingPool",
						"offset": 0,
						"slot": "2",
						"type": "t_address"
					},
					{
						"astId": 89,
						"contract": "contracts/strategy.sol:StETHStrategy",
						"label": "gasReserve",
						"offset": 0,
						"slot": "3",
						"type": "t_address"
					}
				],
				"types": {
					"t_address": {
						"encoding": "inplace",
						"label": "address",
						"numberOfBytes": "20"
					},
					"t_contract(IERC20)77": {
						"encoding": "inplace",
						"label": "contract IERC20",
						"numberOfBytes": "20"
					}
				}
			},
			"userdoc": {
				"kind": "user",
				"methods": {},
				"version": 1
			}
		}
	}
}